:020000040800F2
:10000000985C002029030008DB1F00080D1D000874
:10001000D91F000883050008192900080000000006
:10002000000000000000000000000000690200085D
:100030007106000800000000C5020008392500080C
:100040004303000843030008430300084303000878
:100050004303000843030008430300084303000868
:100060004303000843030008430300084303000858
:100070004303000843030008430300084303000848
:100080004303000843030008430300084303000838
:10009000B1050008430300084303000843030008B8
:1000A0004303000843030008430300084303000818
:1000B0004303000843030008430300084303000808
:1000C00043030008430300084303000843030008F8
:1000D0004303000843030008D92800080129000849
:1000E00043030008430300084303000843030008D8
:1000F00043030008430300084303000843030008C8
:1001000043030008430300084303000843030008B7
:1001100043030008430300084303000843030008A7
:100120004303000843030008430300084303000897
:100130004303000843030008430300084303000887
:10014000ED050008430300084303000843030008CB
:100150004303000843030008430300080D29000877
:100160004303000843030008430300084303000857
:100170004303000843030008430300080000000095
:10018000430300084303000800F002F800F05CF8A5
:100190000AA090E8000C82448344AAF10107DA45E2
:1001A00001D100F051F8AFF2090EBAE80F0013F0D8
:1001B000010F18BFFB1A43F001031847C83A0000AB
:1001C000E83A00000A444FF0000C10F8013B13F02D
:1001D000070408BF10F8014B1D1108BF10F8015BA0
:1001E000641E05D010F8016B641E01F8016BF9D193
:1001F00013F0080F1EBF10F8014BAD1C0C1B09D1EA
:100200006D1E58BF01F801CBFAD505E014F8016B5B
:1002100001F8016B6D1EF9D59142D6D370470000ED
:100220000023002400250026103A28BF78C1FBD8FF
:10023000520728BF30C148BF0B6070471FB503F09D
:100240006BFC1FBD10B510BD00F061F91146FFF742
:10025000F5FF02F0F1FB00F07FF903B4FFF7F2FFC6
:1002600003BC00F087F900002C4B19680868B0E85F
:10027000F04F80F30988BFF36F8F4FF0000080F3D9
:10028000118870470000000008480068006880F38B
:1002900008884FF0000080F3148862B661B6BFF39F
:1002A0004F8FBFF36F8F00DF00BF00BF08ED00E08E
:1002B000DFF80C00016841F470010160704700BF75
:1002C00088ED00E0EFF30980BFF36F8F134B1A68DE
:1002D0001EF0100F08BF20ED108A20E9F04F1060CB
:1002E00009B44FF0500080F31188BFF34F8FBFF374
:1002F0006F8F03F065F84FF0000080F3118809BCA0
:1003000019680868B0E8F04F1EF0100F08BFB0EC95
:10031000108A80F30988BFF36F8F70473C0000207C
:10032000EFF30580704700000948804709480047FF
:10033000FEE7FEE7FEE7FEE7FEE7FEE7FEE7FEE795
:10034000FEE7FEE704480549054A064B70470000F2
:10035000E92500088901000898560020985C0020D3
:10036000985800209858002053EA020C00F0698049
:100370002DE9F04B4FF00006002B1FBFB3FA83F5B9
:1003800003FA05F424FA05F65E4012BF1643B2FAEA
:1003900082F502FA05F4C5F120051EBF22FA05FC1C
:1003A00044EA0C04203556EA044C4FEA144418BFC2
:1003B000641C4FF000084FF00009904271EB030CF1
:1003C00039D3002919BFB1FA81F701FA07F6B0FA5B
:1003D00080F700FA07F6C7F120071EBF20FA07FCD6
:1003E00046EA0C062037B6FBF4FCA7EB0507103FE6
:1003F00007F01F0BCBF120060CFA0BFB2CFA06F6CC
:1004000044BFB3460026202FA4BF5E464FF0000B2A
:100410005BEA060C08BF4FF0010B19EB0B09ABFBB5
:10042000027C48EB0608C01B06FB02CC0BFB03CC8E
:1004300071EB0C01C1E70B46024641464846BDE858
:10044000F08B13B54FF000004FF00001AFF30080C8
:10045000BDE81C40704710B5203AC0F00B80B1E8F1
:100460001850203AA0E81850B1E81850A0E81850E9
:10047000BFF4F5AF5FEA027C24BFB1E81850A0E8F2
:10048000185044BF18C918C0BDE810405FEA827C0C
:1004900024BF51F8043B40F8043B08BF7047D20723
:1004A00028BF31F8023B48BF11F8012B28BF20F8C4
:1004B000023B48BF00F8012B70474FF0000200B527
:1004C000134694469646203922BFA0E80C50A0E877
:1004D0000C50B1F12001BFF4F7AF090728BFA0E825
:1004E0000C5048BF0CC05DF804EB890028BF40F8F1
:1004F000042B08BF704748BF20F8022B11F0804F33
:1005000018BF00F8012B7047704770477047754659
:1005100000F02CF8AE4605006946534620F007006F
:10052000854618B020B5FFF70DFFBDE820404FF01D
:1005300000064FF000074FF000084FF0000B21F0CD
:100540000701AC46ACE8C009ACE8C009ACE8C0099A
:10055000ACE8C0098D46704710B50446AFF3008083
:100560002046BDE81040FFF778BE00000048704705
:100570003856002001491820ABBEFEE726000200D5
:100580007047FEE700B58BB000200121CDE90601E0
:1005900008910090019002900390059004906946A4
:1005A000024800F0F7F80BB000BD00002004002066
:1005B000014800F0EAB900002004002000B58BB02B
:1005C00001210020CDE9060108910E21009009913A
:1005D000019002900591039004906946024800F052
:1005E000D9F80BB000BD000048040020014800F01D
:1005F000CCB900004804002010B5044600F038FCD7
:100600000221204600F0B4F8002803D0BDE81040D5
:1006100000F02FB810BD000070B506464FF6FF7011
:1006200000224AF201040FE0B35C58405FF000037F
:1006300010F0010F4FEA500000D060405B1CDBB2AD
:10064000082BF5D3521CD2B28A42EDD370BD000004
:10065000054B10B518710020044B02E00C5C1C54D3
:10066000401C9042FADB10BDA40000205442002040
:10067000704772B6FEE70000054C4FF44871E08801
:10068000A0F5FA704843A060032002F009FAF4E7ED
:10069000980100202DED028B4FF0000ADFF8A880B2
:1006A0002A4E9FED2B8B2C4D2C4C4FF4FA594FF4C6
:1006B0007A77286802F01EFEC4F808A03846C4F80D
:1006C000109002F0EDF9012224495D20C4F80C805D
:1006D00001F066FE02E0022002F0E2F9F06F03F0A2
:1006E00094F841EC100B02F028F9B0EE481AF0EE45
:1006F000681A53EC112B51EC100B03F0D7F9EAD91F
:10070000384602F0CDF91648E0604FF4FA6002F086
:10071000C7F914484FF4167B2061584602F0C0F91F
:100720000E490122491C5D2001F03AFE584602F0B4
:10073000B7F90D48E060286802F068FD0B480068D2
:1007400002F0D8FDB5E70000C063FFFF6054002051
:100750000000000000C072401C0000209801002032
:1007600090EEFEFF9494FFFFD4FEFFFF18000020E0
:1007700090F82020012A07D0022A05D0416A41F4CE
:100780008021416201207047006842690A4342614A
:100790000020704710B590F82020012A07D0022AC7
:1007A00005D0416A41F480214162012010BD3B48DF
:1007B000D0F8002242F00102C0F80022D0F8002256
:1007C00022F47C52C0F80022D0F800224B6A42EAA0
:1007D0000322C0F800220A7D02F01F0301229A4082
:1007E000D0F81C329343C0F81C32CB69B3B9D0F8AF
:1007F0000C329343C0F80C328C894B6864F31F436E
:100800004C6900EBC404C4F840320C890B6864F3F3
:100810001F434C6900EBC404C4F84432CB69012B7C
:1008200016D1D0F80C321343C0F80C320C884B6848
:1008300064F31F434C6900EBC404C4F840320C89D4
:10084000CB6864F31F434C6900EBC404C4F8443222
:100850008B69002BD0F804320ED01343C0F8043259
:100860000B69002BD0F8143208D01343C0F81432AF
:10087000096A012904D008E09343EFE79343F5E7C1
:10088000D0F81C121143C0F81C12D0F8001221F04D
:100890000101C0F80012002010BD000000640040FB
:1008A000704730B590F82040012C05D0022C03D0C1
:1008B000416A41F480215DE00468002955D0246933
:1008C000A40754D04FF4D874056804EB01142D59D3
:1008D00015F00405956005682D594ED0ED0855605A
:1008E00005682C5904F00204D4604FF4DA740568EA
:1008F00004EB01142D5905F00F05156105682D59FC
:10090000C5F30725956105682C59240C54614FF4F3
:10091000DC72046802EB0112A4581C700468A4582D
:10092000240A5C700468A458240C9C700468A258C3
:10093000120EDA704FF4DE72046802EB0112A45852
:100940001C710468A458240A5C710468A458240C1F
:100950009C710468A258120EDA71006881B10169B5
:1009600041F020010161002030BDE468A8E7416A40
:1009700041F400114162012030BD6D0D1560AFE7FB
:10098000C16841F02001C160EDE72DE9F05F054647
:10099000006800244669D0F804908768D0F80CB04D
:1009A000D0F810A0D0F81880F10748D0F90714D07B
:1009B00001218160B80703D5284600F086FA0CE0D3
:1009C000780702D54FF4006407E0380702D54FF4EA
:1009D000805402E0284600F077FAF80516D5296819
:1009E0004FF480708860B80503D5284600F06FFA90
:1009F0000CE0780502D544F4005407E0380502D530
:100A000044F4804402E0284600F060FAF80316D56A
:100A100029684FF480308860B80303D5284600F079
:100A200058FA0CE0780302D544F4004407E0380398
:100A300002D544F4803402E0284600F049FA300739
:100A400007D55FEACB6004D52968102044F4007410
:100A5000C86070074FF0080707D55FEA0B7004D530
:100A60002868C760284600F09BF9B00706D52868BB
:100A7000C068800702D0284600F094F9700607D5B8
:100A80005FEACA6004D52968102044F480640861D4
:100A9000B00607D55FEA0A7004D5286807612846C2
:100AA00000F0E2F9F00606D528680069800702D058
:100AB000284600F0DAF9B00308D55FEAC96005D529
:100AC000296810204860284600F0D0F9F00307D5C7
:100AD0005FEA097004D528684760284600F0FAF9F3
:100AE000300446D55FEA497040D5F00504D55FEA89
:100AF000C87001D044F00104B00504D55FEA8870E5
:100B000001D544F00204700504D55FEA487001D5B0
:100B100044F00404300529D518F0700F26D008F0F1
:100B20007000402815D006DC102809D020280AD0F3
:100B3000302816D10AE050280ED0602811D10EE0DE
:100B400044F008040DE044F010040AE044F02004EE
:100B500007E044F0400404E044F0800401E044F481
:100B600080742868816921F07001816129680420FE
:100B70004860002C05D0686A204368622846FFF769
:100B80008FFEBDE8F09F70B5040003D094F82000FC
:100B900010B104E0012070BD204600F081F820680B
:100BA000016841F00101016000F0EEFA05460526FA
:100BB00004E000F0E9FA401B0A2811D820684068D8
:100BC000C007F6D02068016821F00201016000F042
:100BD000DBFA05460BE000F0D7FA401B0A2806D9DD
:100BE000606A40F40030606284F82060D2E72068D8
:100BF00040688007EFD4207E0128206801683DD03E
:100C000021F080010160607E01282068016838D0F1
:100C100021F040010160A07E01282068016833D0E6
:100C200021F020010160E07E0128206801682ED0BB
:100C300041F010010160207F01282068016829D05F
:100C400021F008010160607F01282068016824D03C
:100C500021F004010160D4E902010843D4E904123F
:100C6000114308436168491E08432168C861002098
:100C70006062012084F82000002070BD41F08001F6
:100C8000C0E741F04001C5E741F02001CAE721F08B
:100C90001001CFE741F00801D4E741F00401D9E7A2
:100CA000F0B587B0044614216846FFF706FC374BC1
:100CB0003748DFF8D4E01968D4F800C0344A022578
:100CC0000326092710300024491CF44524D119605B
:100CD000012907D1016841F000710160006800F04E
:100CE00000700590106840F001001060106802ABC1
:100CF00000F0010005904FF4C050CDE9000583E8F5
:100D0000D0006946234800F041F900220521142053
:100D100000F0ACFA142033E0DFF87CE0F44531D188
:100D2000D0F800C04CF0806CC0F800C0D0F800C013
:100D300001290CF0806CCDF814C0196007D101684E
:100D400041F000710160006800F0007005901068CB
:100D500040F002001060106802AB00F00200059045
:100D60004FF44050CDE9000583E8D00069460B48B8
:100D700000F00CF900220521402000F077FA402015
:100D800000F066FA07B0F0BD0064004028000020C3
:100D90003038024000000240006800400004024079
:100DA0007047000070B5054600682B492B4C8CB08D
:100DB000884224D107AB6A4600212846FFF771FD1F
:100DC0000098A0F20120062819D8C0B22070244E45
:100DD000C0EBC00006EB800081694A1C32298261A9
:100DE00007A902D801F0B3FD01E001F0B5FD2078BC
:100DF00007A9C0EBC00006EB800001F0ADFD19496A
:100E00002868884225D109AB6A4600212846FFF7A9
:100E100048FD0098A0F2012006281AD8C0B2104D53
:100E20006070C0EBC000E03D05EB800081694A1CAA
:100E30003229826109A902D801F089FD01E001F09F
:100E40008BFD607809A9C0EBC00005EB800001F0C4
:100E500083FD0CB070BD00000064004094010020D0
:100E60004055002000680040704770477047000000
:100E700070B5044690F82000012804D0606A40F460
:100E80000020606218E0022084F8200020680168D9
:100E900021F00101016000F077F905460EE000BF86
:100EA00000F072F9401B0A2808D9606A40F400304B
:100EB0006062052084F82000012070BD2068406831
:100EC000C007EDD1606270BD7047704770477047D2
:100ED0007047704770472DE9F0410446876D00F078
:100EE00053F9064694F835000025022806D08020E4
:100EF000606584F834500120BDE8F0812068016805
:100F000021F0160101602068416921F080014161F2
:100F1000206C08B9A06C20B12068016821F008019C
:100F200001602068016821F0010101600CE000F01F
:100F30002BF9801B052807D920206065032084F841
:100F4000350084F83450D7E720680068C007EED138
:100F500094F85C103F208840B860012084F8350088
:100F600084F834500020C7E790F83510022903D0E8
:100F70008021416501207047052180F83510006807
:100F8000016821F001010160002070472DE9F84F50
:100F9000DFF8BCA10022012503264FF00F090AF15A
:100FA000040BAAF1040E00BF0B6805FA02F42340FB
:100FB000A34270D10F7907F00307012F01D0022F50
:100FC00016D187684FEA420806FA08FC27EA0C07A0
:100FD000D1F80CC00CFA08FC4CEA070CC0F808C0A9
:100FE0004768A7430C79C4F3001494403C43446021
:100FF0000C79E443A4070AD0C4684FEA420C06FA0D
:101000000CF7BC438F6807FA0CF72743C7600C79CD
:1010100004F00304022C12D1D40800EB840CDCF899
:1010200020405707FF0E09FA07F824EA0804D1F810
:10103000108008FA07F848EA0408CCF82080046811
:101040004FEA420C06FA0CF7BC430F7907F003078E
:1010500007FA0CF7274307604C6814F4403F70D040
:101060003C4C276847F480472760246822F0030738
:1010700004F480440094384C07EB040CDCF8084876
:1010800097074FEA177809FA08F7BC43334FB8427D
:1010900002D1002724E054E0314FB84201D10127AA
:1010A0001EE0304FB84201D1022719E02E4FB8425E
:1010B00001D1032714E02D4FB84201D104270FE0DE
:1010C0002B4FB84201D105270AE02A4FB84201D17F
:1010D000062705E0284FB84201D1072700E008277E
:1010E00007FA08F72743CCF80878DAF800405746A3
:1010F000D1F804C09C435FEACC2C00D51C433C6073
:10110000DBF800405F46D1F804C09C435FEA8C2CBA
:1011100000D51C433C60DEF800407746D1F804C09F
:101120009C435FEA8C3C00D51C433C60084F083F61
:101130003C68D1F804C09C435FEACC3C00D51C431A
:101140003C60521C102AFFF42FAFBDE8F88F00005E
:10115000083C014044380240003001400000024099
:101160000004024000080240000C0240001002404F
:101170000014024000180240001C02400AB18161C4
:1011800070470904FBE700000148806870470000D1
:101190002C00002002488168027811448160704769
:1011A0002C0000200B4810B5016841F4007101606B
:1011B000016841F480610160016841F4807101605F
:1011C000032000F073F80F2000F006F800F024F878
:1011D000002010BD003C024070B50D4D04464FF498
:1011E0007A712878B1FBF0F00A490968B1FBF0F098
:1011F00000F010FB48B9102C07D200222146501EE7
:1012000000F034F800206C6070BD012070BD00005B
:101210002C000020380000200C4882B0016841F406
:1012200080410160006800F4804000900748001F82
:10123000016841F0805101600068002200F0805098
:1012400000900F21901E02B000F010B84438024008
:10125000002809DB00F01F020121914040098000B5
:1012600000F1E020C0F8001170470000F0B40E4B10
:101270001B680C46C3F30223C3F10705042D00D9F4
:101280000425191D072901D2002300E0DB1E0126D9
:1012900006FA05F1491E214099409E40761E1640EF
:1012A0003143F0BC01F039BB0CED00E0064900F021
:1012B000070208684FF6FF03184040EA0220034A7D
:1012C00010430860704700000CED00E00000FA05D4
:1012D0002DE9F0470E46050065D0DFF81481D8F8F7
:1012E0000000F7B200F00700B04207D288F80070A3
:1012F000D8F8000000F00700B04254D128683D4CF7
:10130000810712D5400703D5206840F4E0502060E3
:101310002878000703D5206840F4604020602068EA
:10132000A96820F0F000084320602878C0072DD07D
:10133000304968680839012812D0022813D00328E0
:1013400011D00968890700292DDA216821F00301ED
:1013500001432160FFF718FF814641F2883A0EE011
:1013600009688903EFE709688901ECE7FFF70CFFDB
:10137000A0EB0901514502D90320BDE8F0872068A0
:10138000696800F00C00B0EB810FEFD1D8F80010C5
:10139000404601F00701B14207D90770006800F02C
:1013A0000700B04201D00120E7E72878400705D5C3
:1013B0002068E96820F4E05008432060287800079E
:1013C00006D52068296920F4604040EAC100206009
:1013D00000F038F82168084AC1F30311515CC84095
:1013E0000649086006480068FFF7F6FE0020C4E7DB
:1013F000003C024008380240043C0008380000204D
:10140000300000200448054900680968044AC1F317
:101410008221515CC84070473800002008380240E3
:10142000143C00080448054900680968044AC1F3EF
:101430004231515CC84070473800002008380240F3
:10144000143C0008154810B5006810F00C02144850
:1014500013D01449042A0FD0082A0ED10F4C241F90
:101460002268236802F03F025B0207D52068C0F3C0
:101470008810A0FB010106E0084610BD2168C1F3F9
:101480008811A1FB00010023FEF76EFF2168C1F364
:101490000141491C4900B0FBF1F010BD0838024081
:1014A0000024F40040787D012DE9F84F04006ED04F
:1014B0002078DFF84C93C007A9F104054AD009F160
:1014C00004000168C1F38101012908D00068C0F35C
:1014D000810002280AD1D9F80000400206D5286808
:1014E000800337D560680028E1D033E06068B0F54C
:1014F000803F10D0B0F5A02F286810D020F48030A5
:101500002860286820F4802028606068A8B1FFF770
:101510003BFE06460DE0286840F48030F4E740F4D6
:1015200080202860F7E700BFFFF72EFE801B6428AD
:1015300073D828688003F7D50CE0FFF725FE064630
:1015400005E000BFFFF720FE801B6428F0D8286864
:101550008003F7D42078DFF8AC8280074FF0000AD0
:101560003ED5A748001D016811F00C0F08D0006897
:10157000C0F3810002280BD1D9F80000400207D443
:101580002868800716D5E068012800D112E033E111
:10159000E068B8B10120C8F80000FFF7F5FD064685
:1015A00005E000BFFFF7F0FD801B0228C0D82868C7
:1015B0008007F7D52868216920F0F80040EAC100CB
:1015C00028600DE0C8F800A0FFF7DEFD064604E045
:1015D000FFF7DAFD801B02281FD828688007F7D4A0
:1015E0002078000722D5864F87486169703771B12E
:1015F00001210160FFF7C8FD064604E0FFF7C4FDC6
:10160000801B022809D838688007F7D50EE0C0F89B
:1016100000A0FFF7B9FD064605E082E0FFF7B4FD44
:10162000801B02287DD838688007F7D420784007CF
:1016300068D5DFF8CCB100270BF13C0BDBF80000DC
:10164000C0000BD4DBF8001041F08051CBF8001043
:10165000DBF80000012700F0805000906B4E3068EE
:10166000C00510D4306840F480703060FFF78CFD06
:10167000009005E0FFF788FD0099401A022850D835
:101680003068C005F6D55E4EA0686C3601280FD0D4
:101690000528306810D020F001003060306820F05C
:1016A00004003060A068B8B1FFF76EFD00900FE055
:1016B000306840F00100F4E740F004003060F7E7E4
:1016C000FFF762FD0099411A41F28830814266D8E5
:1016D00030688007F4D50EE0FFF756FD009007E074
:1016E000FFF752FD0099411A41F28830814256D8E5
:1016F00030688007F4D42FB1DBF8001021F080515E
:10170000CBF80010A069C8B33D49091D0968C1F3B1
:10171000810102294AD00228504607D0C8F860004B
:1017200000E03CE0FFF730FD04463BE04746C8F8E8
:101730006000FFF729FD064605E000BFFFF724FD26
:10174000801B02282BD828688001F7D4D4E9070130
:101750000843A16A2E4A490802EB0141626A41EA44
:101760008211084394F82C1040EA0161C9F8001076
:1017700001203866FFF708FD044606E03EE000BFA2
:10178000FFF702FD001B022809D828688001F7D561
:1017900034E000BFFFF7F8FC001B022802D9032049
:1017A000BDE8F88F28688001F4D427E00128F7D03D
:1017B000D9F80000E26900F4800191421CD1226A4C
:1017C00000F03F01914217D147F6C071626A0140B3
:1017D000B1EB821F10D1A26A4FF0FF3300F4403109
:1017E00003EB5202B1EB024F06D194F82C1000F03B
:1017F0007060B0EB016F01D00120D1E70020CFE78E
:101800000438024000004742800E4742007000400A
:101810000000FFFF10B5401EB0F1807F01D3012012
:1018200010BD4FF0E02460610F21601701F075F8E2
:101830000020A06107202061002010BD7047704784
:10184000F8B5016804460868CA684B6910F00F0FC4
:101850004FF0000559D003F0010602F490773743AA
:1018600065D0C10705D0D10503D5216C41F0010138
:101870002164410705D5D90703D0216C41F002014D
:101880002164810705D5D90703D0216C41F00401FB
:101890002164010707D502F02001314303D0216CF8
:1018A00041F008012164216C00293AD0800604D55A
:1018B000900602D5204600F0CEFE20684069216CDB
:1018C000C0F38010090700D460B3204600F09CFEEE
:1018D00020684069400621D52068143050E8001F78
:1018E00021F0400140E80012002AF5D1A06BA8B118
:1018F0006C490165A06BFFF737FB002811D0A06B86
:10190000016D01B0BDE8F040084783060FD593068E
:101910000DD52046BDE8F84000F09DBE2046FFF7FB
:101920008EFFF8BD2046FFF78AFF2564F8BD266BC1
:101930002023012E79D1C60677D5D60675D508683D
:10194000486800904869400640D5A16B0868406827
:101950000004000CEAD0A28D8242E7D9E085C86974
:10196000B0F5807F2DD020680C3050E8001F21F4A6
:10197000807140E80012002AF5D12068143050E848
:10198000001F21F0010140E80012002AF5D1206873
:10199000143050E8001F21F0400140E80012002AF6
:1019A000F5D184F83E30256320680C3050E8001FE4
:1019B00021F0100140E80012002AF5D1A06BFFF7DA
:1019C0008AFAA08DE18D401A81B229E0A08DE18DC7
:1019D000401A81B2E08D0028A8D00029A6D0206846
:1019E0000C3050E8002F22F4907240E80026002EC0
:1019F000F5D12068143050E8002F22F0010240E8B1
:101A00000026002EF5D184F83E30256320680C3086
:101A100050E8002F22F0100240E80023002BF5D1FF
:101A20002046FFF70BFFF8BDFFE705062BD515068F
:101A300029D594F83D002128F5D1A068B0F5805F44
:101A400001D12069B0B1206A411C2162216800786F
:101A50004860E08C401E0004000CE084E3D1206864
:101A6000C16821F08001C1602068C16841F0400177
:101A7000C160D8E7206A0088C0F308004860206A87
:101A8000801C2062E5E74006CDD55006CBD5CA685C
:101A9000204622F04002CA6084F83D3000F035F95B
:101AA000C1E70000F925000870B5040004D094F8DF
:101AB0003D00002510B106E0012070BD84F83C50C7
:101AC000204600F023F8242084F83D002068C168F7
:101AD00021F40051C160204600F01EFE206801691B
:101AE00021F4904101612068416921F02A0141619E
:101AF0002068C16841F40051C1602564202084F849
:101B00003D0084F83E00002070BD0000F0B587B0B5
:101B1000044614216846FEF7D0FC3E483C4F256839
:101B200000213C4A1038022303240726BD4220D15D
:101B3000156845F400351560126802F4003205920C
:101B4000026842F008020260006802AD00F008007E
:101B5000059085E852006020CDE9000369462E48D3
:101B6000FFF714FA002205212620FFF77FFB26202D
:101B700023E02A4FBD4224D1156845F48025156025
:101B8000126802F480220592026842F002020260AA
:101B9000006802AD00F00200059085E852004FF4A5
:101BA0004060CDE9000369461D48FFF7EFF90022C8
:101BB00005212720FFF75AFB2720FFF749FB07B035
:101BC000F0BD184A9542FAD1124A121D156845F027
:101BD00020051560126802F020020592026842F0AA
:101BE000040202600068CDE9021400F004000590D0
:101BF000C020CDE900030820049069460A48FFF799
:101C0000C5F9002205214720FFF730FB4720D4E724
:101C10000044004040380240000C024000480040B0
:101C200000040240001401400008024090F83E30D9
:101C3000202B0ED159B152B190F83C30012B08D075
:101C4000012380F83C300023036300F0EBBD01204A
:101C500070470220704770472DE9F843044690F81A
:101C60003D001F4616460D4620284CD1C5B1BEB1D9
:101C700094F83C00012846D0012084F83C004FF045
:101C80000008C4F84080212084F83D00FFF77CFA6A
:101C9000A6848146E684A068B0F5805F03D004E0A6
:101CA0000120BDE8F883206928B12E465FF00005C9
:101CB00084F83C800EE00026FAE78021204600F000
:101CC000CEFDA0B9AEB116F8010B21684860E08CDA
:101CD000401EE084E08C4B464FF000020097002845
:101CE000EBD14FF04001204600F0B9FD30B10320A8
:101CF000D7E735F8020BC0F30800E6E7202084F8A8
:101D00003D000020CDE70220CBE77047FEE74FF40F
:101D10007A6001F055FA142000F0C2FEFBE70000E3
:101D20000F4810B50D4901600321416000214FF4B7
:101D300010228160C0E903124FF400124261017663
:101D400041768176C17601774177FEF71CFF002846
:101D500003D0BDE81040FEF78CBC10BD006400400D
:101D6000200400200F4810B50D4901600321416097
:101D700000214FF410228160C0E903124FF40012D9
:101D80004261017641768176C17601774177FEF72F
:101D9000FAFE002803D0BDE81040FEF76ABC10BD73
:101DA000006800404804002010B5B8B01C222C493F
:101DB0006846FEF750FB0021684600F07DFE294C86
:101DC00027491C2260601C3107A8FEF744FB002154
:101DD00007A800F071FE2249A0601C2238310EA82D
:101DE000FEF739FB00210EA800F066FE1C49E060FA
:101DF0001C22543115A8FEF72EFB002115A800F077
:101E00005BFE174920611C2270311CA8FEF723FBE2
:101E100000211CA800F050FE114960611C228C3189
:101E200023A8FEF718FB002123A800F045FE0C496B
:101E3000A0611C22A8312AA8FEF70DFB00212AA8C8
:101E400000F03AFE0649E0611C22C43131A8FEF7D9
:101E500002FB002131A800F02FFE206238B010BD37
:101E6000243B0008040000202DE9F04186B0142135
:101E70006846FEF722FB2B480024016841F0100160
:101E80000160016801F010010591016841F08001D5
:101E90000160016801F080010591016841F00201D3
:101EA0000160016801F002010591016841F008013B
:101EB0000160016801F008010591016841F0040129
:101EC0000160016801F004010591016841F0010120
:101ED00001600068144F00F00100059000224021CD
:101EE0003846FFF74BF9DFF844804FF44066002294
:101EF00031464046FFF742F9402000900125CDE9E8
:101F00000154694638460394FFF740F80096CDE93E
:101F10000154694640460394FFF738F806B0BDE81F
:101F2000F08100003038024000100240000C0240F6
:101F30000C4810B50A4901604FF4E13141600021BD
:101F400081600C22C160C0E904128161C161FFF7A8
:101F5000ABFD002803D0BDE81040FEF78ABB10BDE2
:101F600000440040700400200C4810B50A4901608C
:101F70004FF4E1314160002181600C22C160C0E971
:101F800004128161C161FFF78FFD002803D0BDE815
:101F90001040FEF76EBB10BD00480040B4040020A6
:101FA0000C4810B50A4901604FF4E131416000214D
:101FB00081600C22C160C0E904128161C161FFF738
:101FC00073FD002803D0BDE81040FEF752BB10BDE2
:101FD00000140140F8040020FEE7FEE710B52DEDE7
:101FE000048B9FED7C8AF0EE480A9FED7B0A7B4ACA
:101FF00000217B4800F018F9DFED7A8AF0EE680ADC
:102000009FED799A754A0021B0EE490A0C3A77485B
:1020100000F00AF9F0EE480ADFED759A6F4A0021E8
:10202000B0EE690A1832734800F0FEF8F2EE040AC6
:102030009FED710A694A00212432704800F0F4F8DB
:102040006748F0EE480AB0EE690A644A0021483059
:1020500000F0EAF8614A6548F0EE680AB0EE490A15
:102060000C320021483000F0DFF8F0EE480ADFEDD6
:10207000648A5A4A5F48B0EE680AC0320021483884
:1020800000F0D2F8554A5D48F2EE040AB0EE680A54
:10209000CC320021483800F0C7F8504AF0EE480A28
:1020A000B0EE680AC0320021564800F0BDF84B4A35
:1020B000F2EE040AB0EE680ACC320021524800F079
:1020C000B3F8464AF3EE040AB0EE490A3032002172
:1020D0004E4800F0A9F8F3EE040A9FED4D8A3F4AFE
:1020E0000021B0EE480A3C324A4800F09DF83B4AD5
:1020F0004648F3EE040AB0EE490A4832002148305F
:1021000000F092F8F3EE040A9FED430A334A414887
:1021100054320021483000F087F8304A3B48F3EE53
:10212000040AB0EE490A60320021903000F07CF8D9
:102130002A4A3848F3EE040AB0EE480A6C3200210D
:10214000903000F071F8254AF3EE040AB0EE490A27
:1021500078320021314800F067F8DFED318A1F4AFC
:10216000F3EE040AB0EE680A843200212D4800F034
:102170005BF81A4A2948F3EE040AB0EE490A903295
:102180000021483000F050F8144A2648F3EE040AC3
:10219000B0EE480A9C320021483000F045F80F4A62
:1021A0001248F3EE040AB0EE490AA8320021903832
:1021B00000F03AF8B0EE680ABDEC048B0021F3EEB3
:1021C000040A064A0648B432BDE81040903800F0D0
:1021D0002BB8000000007A440080BB45BC00002002
:1021E000804C00200000FA430000FA44C04E00205A
:1021F0000000FA45804300200080BB44C045002019
:1022000000401C46B8470020F8490020205200201A
:1022100000608645E04F002000808945A04D0020E9
:1022200000A08C45604B0020002828D0002A26D032
:10223000017092ED001A80ED011A92ED011A80ED05
:10224000021A92ED021A80ED031A80ED040A9FED46
:102250000C0AC0ED050A80ED0E0A80ED0D0A80ED36
:102260000C0A80ED080A80ED0B0A80ED0A0A80ED69
:10227000090A80ED110A80ED100A80ED0F0A7047FF
:10228000000000004FF47A6000F09AFF062000F092
:1022900007FCFBE72DE9F047324C0546274694F84A
:1022A00000C07878BA780146401C00262E4BBF68E3
:1022B0004FF0050A4FF00109C0B2BCF1080F4AD235
:1022C000DFE80CF0040B171D29303445A52D0AD189
:1022D00084F8009048461D7004E05A2D39D102223E
:1022E00022705D546070BDE8F08700BF84F80090F4
:1022F000F9E7032222705D546070A570F3E70426AD
:1023000026705D546070E5701844A060002AEAD120
:1023100084F800A0E7E75D546070B9181844814262
:10232000F6D0E0E706202070E580DCE7A0794FF6E4
:10233000FF7202EA00202844E0800B48FEF76CF9A7
:10234000E188884205D12078401C2070CBE7FF2D22
:1023500003D0A52DCAD02670C5E73946E078FEF730
:1023600077F9F8E7A40000202C42002070B50D4654
:102370000646002404E0305D00F006F8641CE4B278
:10238000AC42F8D370BD000001B54FF47A7301225E
:1023900069460248FFF760FC08BD0000F804002011
:1023A00030B5CBB0A5238DF800305A238DF801301D
:1023B0008DF802208DF8030004246D46002005E00E
:1023C0000B5C2B55641C401CE4B2C0B29042F7D3A6
:1023D000121DD1B22846FEF71FF9010A2955641CC7
:1023E000E1B26854491CC8B2FF212954401CC1B253
:1023F0006846FFF7BBFF4BB030BD00002DED028BF0
:10240000114C9FED128B134E251DE088A0F5FA703C
:1024100001F0FBF941EC100B00F08FFA53EC182B94
:1024200051EC100B01F044FA01F0C2F90649287092
:102430000122091DD520FFF7B3FF062000F030FB75
:10244000306800F057FFE0E7980100207B14AE47AA
:10245000E17AC43F140000202D4C606900F04AFF6F
:10246000206900F047FFE06900F044FF206A00F0B7
:1024700041FF40F6B83000F013FB274E2548274FA8
:10248000274D306038787F282DD12878012808D052
:1024900002280BD003280ED0042811D0052816D00E
:1024A00021E0142000F0FCFA60690DE0142000F037
:1024B000F7FA206908E0142000F0F2FAE06903E07E
:1024C000142000F0EDFA206A00F0A0FE0BE01420CA
:1024D00000F0E6FA207860B1401E134920701148E0
:1024E00008601248306000202870052000F0D8FAFB
:1024F000C8E7012020700E4A0E4B002047F23051F1
:1025000042F8201043F82010401C0328F8DBEAE7CB
:1025100004000020C8B5FFFFA8010020A80000208B
:1025200054420020D4FEFFFFA40100209494FFFF3A
:10253000B4010020C001002010B5FEF72BFE01F011
:1025400055F8012803D0BDE8104000F0E1BF10BDF0
:1025500030B593B030216846FDF7AFFF14210CA8C9
:10256000FDF7ABFF1E480025016841F08051016076
:10257000006800F0805011901A48016841F48041D1
:1025800001600068022400F4804011900120009056
:10259000000401908001CDE90640192008904FF415
:1025A000A870CDE9090404200B906846FEF77CFF73
:1025B00008B172B6FEE70CA90F2081E831004FF494
:1025C000A0500F904FF48050109005210CA8FEF7FA
:1025D0007FFE002801D072B6FEE713B030BD0000C8
:1025E00040380240007000400248016841F4700128
:1025F0000160704788ED00E010B5806B0021C18557
:10260000C184FFF71CF910BD01680C3151E8002F9F
:1026100022F4907241E80023002BF5D101681431B7
:1026200051E8002F22F0010241E80023002BF5D1F0
:10263000016B012909D101680C3151E8002F22F00A
:10264000100241E80023002BF5D1202180F83E1034
:1026500000210163704708B590F83E10222901D08F
:10266000022008BD82684FF480539A4201D101696B
:1026700021B1816A9A421BD04AB10AE00268816A9C
:102680005268C2F308020A80816A891C08E0026964
:1026900072B10268526802F07F020A70816A491CB6
:1026A0008162C18D491E0904090CC18503D019E05E
:1026B00002685268F1E70168CA6822F02002CA6025
:1026C0000168CA6822F48072CA6001684A6922F00F
:1026D00001024A61202180F83E10016B012903D0DC
:1026E000FFF7B9FA002008BD0021016301680C3131
:1026F00051E8002F22F0100241E80023002BF5D111
:1027000001680A68D20602D50A6849680091818D7D
:10271000FFF794F8E6E7000070B504460068016929
:10272000E26821F44051114301612169A068E26926
:1027300008436169114308432168CA6849F20C6380
:102740009A430243CA6020684169A26921F440713A
:102750001143416131492068884202D030498842A2
:1027600002D1FEF75FFE01E0FEF74CFEE2690023B6
:10277000192164253226B2F5004F626828D0A0FBEB
:102780000101930F9200FDF7EFFD0146B0FBF5F05C
:102790006FF01802504301EB800006EB0010B0FB15
:1027A000F5F000F0F002B1FBF5F002EB0012B1FB26
:1027B000F5F06FF01803584301EB800006EB0010B2
:1027C000B0FBF5F000F00F0021681044886070BD88
:1027D000A0FB010192185B41FDF7C6FD0146B0FB6D
:1027E000F5F00201B1FBF5F06FF01803584301EB6F
:1027F000800006EBC000B0FBF5F000F0F80002EB43
:102800004002B1FBF5F0584301EB800006EBC0003D
:10281000B0FBF5F000F00700D6E700000010014023
:102820000014014081628285C28500210164222258
:1028300080F83E2080F83C10016921B10168CA6827
:1028400042F48072CA6001684A6942F001024A613A
:102850000068C16841F02001C160002070472DE987
:10286000F041984617460E460446069D27E0681C30
:1028700025D02DB1FEF788FCA0EB0800A8421ED998
:1028800020680C3050E8001F21F4D07140E800129D
:10289000002AF5D12068143050E8001F21F0010112
:1028A00040E80012002AF5D1202084F83D0084F889
:1028B0003E00002084F83C000320BDE8F081206841
:1028C000006836EA000004D00020B842CFD00020D3
:1028D000F3E70120F9E70000074810B50078FFF79B
:1028E000D9FC0648FEF7ACFFBDE8104001220249C2
:1028F0000248FFF79BB90000000000207004002090
:102900000148FEF79DBF0000B40400200148FEF717
:1029100097BF0000F8040020FEE70907090E002811
:1029200004DB00F1E02080F80014704700F00F0095
:1029300000F1E02080F8141D70472DED020B019886
:1029400020F0004001909DED000B02B07047098817
:1029500049BA01808182704710B5B0F90030038117
:102960000A8852BA02804C88D31A64BA44808C8890
:10297000B3F5805F64BA848089798171016901DD72
:10298000491E03E013F5805F01DA491C016102EB87
:102990004131828A891AC16010BD0000244C234F46
:1029A0004FF0000904F11C0547F230584FF4167639
:1029B000A07820B1012814D0022822D02FE00120D5
:1029C000A0701C49002000BF45F82010401C0328BF
:1029D000FADB304600F064F83046676100F060F8DA
:1029E0001DE00220A0703046C4F8149000F058F8A2
:1029F000C5F800803046C5F8088000F051F86761DE
:102A00000DE084F802903046C4F8149000F048F8C5
:102A10000020414645F82010401C0328FADB3046D0
:102A200000F03EF8002000F065FCC1E7E0CFFAFFBF
:102A30009801002008D5FFFFFEF7B4FBFFF788FDE3
:102A4000FFF712FAFFF76CF9FFF772FAFFF78AF94E
:102A5000FFF78AFAFFF7A4FAFDF794FDFDF7AEFD44
:102A60000848FDF7C9FD0848FDF7C6FDFFF7B6FAAF
:102A7000012206490648FFF7D9F8FFF795F900F05B
:102A800016F8FEE720040020480400200000002083
:102A90007004002001460020842900D0C81C704723
:102AA00010B500B9012000F08BFB002010BD10B55F
:102AB00000F0EAFB002010BD7FB50D4604464169D9
:102AC000B0F9080081B1A16971B1FFF7E3FFD4E962
:102AD00005128DE80700D4E900102B46226900F0AA
:102AE0005AFD039004B070BDFFF7D4FF03A9CDE9F0
:102AF0000001208A2B4682B2D4E9001000F01EFDAE
:102B0000012801D00020EDE70398EBE72DE9F04123
:102B1000184C0F460546E6682068001D00F088FA4C
:102B200038B9206890F82C10012088402169814331
:102B30002161681C07D137B12168BDE8F0410E481A
:102B4000091D00F0B9BA20683544B54245602168D6
:102B500005D2A06BBDE8F041091D00F095BA606B8D
:102B6000091D00F091FAA06A854200D2A562BDE875
:102B7000F08100003C000020180600202DE9F04103
:102B8000054600F0A5FA2E4CA068401CA060206805
:102B90002C4F10B1606940B32DE02560A06801287A
:102BA00029D1002606EB860007EB800000F05EFAD4
:102BB000761C072EF6D323488C3000F057FA2148B4
:102BC000A03000F053FA1F48B43000F04FFA1D480F
:102BD000C83000F04BFA1B48DC3000F047FA1948C7
:102BE0008C3060631430A06305E02068E96AC06A35
:102BF000884200D82560606A401C6062E96A012052
:102C0000226988401043206101EB810007EB8000BE
:102C1000291D00F051FA00F07BFA606900280CD001
:102C20002068E96AC06A884207D207494FF080509D
:102C30000860BFF34F8FBFF36F8FBDE8F0810000D6
:102C40003C0000203C05002004ED00E010B50446E7
:102C500090F8510058B101280CD002280FD0502014
:102C600080F31188BFF34F8FBFF36F8FFEE7206BA8
:102C700000F062FA2046BDE8104000F05DBA10BDD9
:102C800010484FF47051420706D0C01D0D4920F086
:102C90000700411AC1F570510B4A00230144C2E9F3
:102CA00000030839183A21F0070111604B600B60EE
:102CB0000B1AC0E9001393604FF00040536050615D
:102CC000704700002C06002090000020144E154C88
:102CD000A6F1C8074FF08058DFF84C9012E000BF13
:102CE00000F0F6F9F068C568281D00F0A1F9A068A9
:102CF000401EA0606068401E606000F009FA28462F
:102D0000FFF7A4FF60680028EAD138680128F9D9E4
:102D1000C9F80080BFF34F8FBFF36F8FF2E7000059
:102D2000040600203C00002004ED00E02DE9F047FF
:102D30009A46DDE9098481466FF00303206B03EBBB
:102D400082021044089E20F00707780707D0502021
:102D500080F31188BFF34F8FBFF36F8FFEE700251D
:102D600061B1002023180A5C83F834200A5C12B198
:102D7000401C1028F6D384F8435001E084F8345006
:102D8000072E00D30626E662C4E91165201D00F077
:102D900078F904F1180000F074F92461C6F1070015
:102DA0006462A061E56484F8505052464946384652
:102DB00000F0DAF82060B8F1000F01D0C8F8004048
:102DC000BDE8F08730B5114900E011460A6882423B
:102DD000FBD34B685C18844203D1406818444860B8
:102DE000084643681C18944209D1084C183C2468D2
:102DF000A24209D052681A4442600A68126802600E
:102E0000814200D0086030BD0460F9E790000020E6
:102E10000648416B096829B1416BC968C9684968AE
:102E2000816270474FF0FF31FAE700003C0000205C
:102E300008484068401C4FF0500080F3118804D0CF
:102E4000BFF34F8FBFF36F8FFEE7BFF34F8FBFF31B
:102E50006F8FFEE798000020002150B10A4B4269B5
:102E60009A420FD1806AA3F1280290420AD040B161
:102E700008E0502080F31188BFF34F8FBFF36F8FAE
:102E8000FEE7012108467047180600202DE9F041B1
:102E90000546002700F08CFA324E306808B9FFF77B
:102EA000EFFE706905424ED1C5B3083568070ED0F4
:102EB00005F00700C0F108000544680707D050205E
:102EC00080F31188BFF34F8FBFF36F8FFEE72DB3F1
:102ED0007068854237D82348183001460C6801E0F5
:102EE00020460C466168A94202D221680029F7D128
:102EF00031688C4227D00768216801606068083714
:102F0000411B10290FD96019420708D0502080F3C7
:102F10001188BFF34F8FBFF36F8FFEE713E041605F
:102F20006560FFF74FFF61687068401A7060B268B3
:102F3000904200D2B060706901430020C4E90001F2
:102F4000F068401CF06000F0C5FB780707D0502007
:102F500080F31188BFF34F8FBFF36F8FFEE73846C2
:102F6000BDE8F0817800002010B5031F4FF0807499
:102F70001C601B1F21F001011960191F044B0B601D
:102F800014390A60091F6FF0020244380A6010BD4C
:102F9000312E0008244C234F4FF0000904F128057E
:102FA00047F230584FF41676E07820B1012814D05B
:102FB000022822D02FE00120E0701C49002000BF31
:102FC00045F82010401C0328FADB3046FFF768FD67
:102FD0003046A761FFF764FD1DE00220E070304637
:102FE000C4F81890FFF75CFDC5F800803046C5F8BE
:102FF0000880FFF755FDA7610DE084F80390304687
:10300000C4F81890FFF74CFD0020414645F8201009
:10301000401C0328FADB3046FFF742FD002000F099
:1030200069F9C1E72030050098010020F0D8FFFFC2
:10303000D0E9013201699A60D0E901235A604A68F7
:10304000824201D182684A60002202610868401E03
:103050000860086870470000034B036003F15400E8
:103060000860802010607047CC01002000F108014A
:103070004FF0FF32C0E90112C1600161002101601F
:10308000704700210161704730B50B685A1C02D0AF
:1030900000F1080202E0026904E022465468256853
:1030A0009D42FAD953684B6099608A60516008610B
:1030B0000168491C016030BD42684A6093688B60BA
:1030C00093685960916008610168491C016070470C
:1030D000502080F31188BFF34F8FBFF36F8F0A49E1
:1030E0004868401C486001280CD10848006810F06E
:1030F000FF0F07D0502080F31188BFF34F8FBFF32D
:103100006F8FFEE7704700009800002004ED00E09C
:103110000849486828B1401E486001D180F31188F1
:103120007047502080F31188BFF34F8FBFF36F8F2C
:10313000FEE700009800002070B500282AD0164D48
:10314000A0F1080460686969084207D1502080F343
:103150001188BFF34F8FBFF36F8FFEE722683AB13C
:10316000502080F31188BFF34F8FBFF36F8FFEE7BE
:103170008843606000F01CF9606869680844686012
:103180002046FFF71FFE2869401C2861BDE87040FB
:1031900000F0A0BA70BD0000780000204FF0E020E1
:1031A00000210161816105494FF47A720968B1FB20
:1031B000F2F1491E4161072101617047380000208A
:1031C00010B5020014D00F48006B38B1502080F3C6
:1031D0001188BFF34F8FBFF36F8FFEE700F0E8F861
:1031E00000211046FFF792FC00F074FA002807D186
:1031F00005494FF080500860BFF34F8FBFF36F8FCA
:1032000010BD00003C00002004ED00E070B504009B
:103210002BD01A4D286884422FD0FFF759FF204643
:10322000FFF71AFEE8B1201DFFF702FFE06A012157
:103230002A69814011432961114900EB800001EBAB
:103240008000211DFFF738FFE06A2968C96A8842BB
:1032500007D30C494FF080500860BFF34F8FBFF386
:103260006F8FBDE87040FFF753BF502080F3118887
:10327000BFF34F8FBFF36F8FFEE770BD3C000020A0
:103280003C05002004ED00E010B586B00024039456
:1032900005AA04A903A80494FFF7DEFEDDE90301F3
:1032A0000094CDE9011000230EA11048059A00F00A
:1032B00072F90F490028C86211D0502080F311889C
:1032C000BFF34F8FBFF36F8F4FF0FF308862012045
:1032D0004861CC6006B0BDE8104000F09FB806B071
:1032E00010BD000049444C4500000000CD2C0008F2
:1032F0003C00002070B50446FFF7EAFE294D04B9F2
:103300002C68201DFFF794FE58B9E06A264A00EBAE
:10331000800152F8211021B9012181402869884398
:103320002861A06A18B104F11800FFF781FE1E4859
:10333000211DDC30FFF7C0FE94F850000026012864
:1033400001D184F85060FFF7E3FE686928B1FFF708
:10335000BFFEFFF75DFDFFF7DBFE2868844213D157
:10336000686990B1286B38B1502080F31188BFF3A1
:103370004F8FBFF36F8FFEE70C494FF0805008600E
:10338000BFF34F8FBFF36F8F70BD0748DC3000680D
:10339000A968884201D12E6070BDBDE8704000F080
:1033A0000FB800003C0000203C05002004ED00E0C8
:1033B0000248016B491C0163704700003C0000207B
:1033C0001448016B11B10121C16170470021C16135
:1033D0000169B1FA81F1C1F11F0101EB81020E49CE
:1033E00051F822306BB101EB820101F108034A6808
:1033F00052684A609A4201D152684A60D1680160BD
:103400007047502080F31188BFF34F8FBFF36F8F49
:10341000FEE700003C0000203C0500201CB53748BA
:103420000168374A914207D1502080F31188BFF3D9
:103430004F8FBFF36F8FFEE700683149491E884206
:1034400007D1502080F31188BFF34F8FBFF36F8FE8
:10345000FEE72C4908780190FF20087008788DF865
:1034600000009DF800009DF8002000F0F000904260
:1034700007D0502080F31188BFF34F8FBFF36F8FB9
:10348000FEE79DF80000204C00F05000207007205F
:10349000A06005E09DF8002052008DF80020401E3D
:1034A0009DF800201206F5D4A060032807D0502014
:1034B00080F31188BFF34F8FBFF36F8FFEE74FF498
:1034C0004070A060019808700C482030016841F4F9
:1034D00070010160016841F070410160FFF75EFE1C
:1034E00000206060FCF7E4FE0848016841F04041BC
:1034F0000160FCF7C9FE00201CBD000000ED00E0EB
:1035000071C20F4100E400E09800002034EF00E0B9
:1035100010B5502080F31188BFF34F8FBFF36F8F2A
:1035200000F072F818B104494FF080500860002094
:1035300080F3118810BD000004ED00E02DE9FF5F6D
:103540008346DDE90E87994616468A469000FFF7C6
:103550009DFC05001CD05420FFF798FC040014D0FB
:103560000020256384F85100CDE90240CDE90087B1
:103570004B46324651465846FFF7D8FB2046FFF7E8
:10358000FDFA012004B0BDE8F09F2846FFF7D4FD06
:103590004FF0FF30F6E7F0B585B0DDE90B640A9D2A
:1035A000A6B1DCB1542700972663022684F8516047
:1035B000002604AFCDE90246CDE90057FFF7B6FB80
:1035C0002046FFF7DBFA049805B0F0BD502080F3E9
:1035D0001188BFF34F8FBFF36F8FFEE7502080F34A
:1035E0001188BFF34F8FBFF36F8FFEE70548416926
:1035F00019B1006B18B100207047012070470220FC
:10360000704700003C0000202DE9F0412F4C0026BF
:10361000206B28B1A069401CA0613046BDE8F08154
:10362000E5686D1CE56013D1606B006838B150200F
:1036300080F31188BFF34F8FBFF36F8FFEE7606B8E
:10364000A16B6163A063206A401C2062FFF7E0FB6E
:10365000A06ADFF87C80854209D3606B0068A0B166
:10366000606BC068C7687868854211D2A062206824
:10367000C06A00EB800158F82100012800D901261A
:10368000E0690028C9D00126C7E74FF0FF30EDE719
:10369000381DFFF7CDFCB86A18B107F11800FFF725
:1036A000C7FCF96A0120226988401043206101EBC0
:1036B000810108EB8100391DFFF7FEFCF86A2168E3
:1036C000C96A8842C9D30126C7E700003C00002030
:1036D0003C0500202DE9F0472C4D00242746286B9F
:1036E00038B1FFF7F5FC286B401E2863286B40B10A
:1036F00046E0502080F31188BFF34F8FBFF36F8FE8
:10370000FEE7A968224E0120D1B3A6F1B409804694
:103710003068E8B1F068C46804F11800FFF788FC6D
:10372000201DFFF785FCE06A2A6908FA00F11143C1
:10373000296100EB800109EB8100211DFFF7BCFC32
:10374000E06A2968C96A8842E2D3C5F81C80DFE7CD
:103750000CB1FFF75DFBAC6944B14646FFF754FF7F
:1037600000B1EE61641EF9D10020A861E86938B1AA
:103770000849012738070860BFF34F8FBFF36F8FE9
:10378000FFF7C6FC3846BDE8F08700003C0000208B
:10379000F005002004ED00E0491058BFC1F14041A0
:1037A0005B1058BFC3F140438B42EFF3008070477A
:1037B0004FEA1153A3F58063D3F11E03A8BFD3F1E1
:1037C000200C08DB4FF0004242EAC12252EA50527C
:1037D00032FA03F0704709420BD4102BC4BF00200B
:1037E000704703F5787CBCF1FF3F05D04FF0FF3008
:1037F00070474FF00000704770B500F003F900BF4C
:103800004992248000207047F0E710F0004248BF42
:103810004042B0FA80F310FA03F10AD0C3F11D035D
:1038200003F580634FEA415002EB035202EBD121D2
:1038300070474FF00000704751EA030C17D41CF595
:10384000801F58BFBCF5801F00F10680994218BF49
:10385000704708BF9042704707D711F5801F58BFC7
:1038600013F5801F19D499427047894270471CF59F
:10387000801F08D5BCF5801FF7D58B4218BF704755
:1038800008BF824270474FF4001C1CEB410F38BF49
:103890001CEB430F01D28B42704770B500F0B2F8B9
:1038A000922449004FF000514FF08053FFF774BF4E
:1038B000DFF848C170B51CEA111E1EBF1CEA1315C3
:1038C0009EEA0C0F95EA0C0F00F06F8081EA03046A
:1038D00023EA4C134EEAD47E21EA4C1141F48011C4
:1038E00043F48013AE44A1FB024CA0FB0365AEF190
:1038F0007F7E361955EB0C05A1FB034C4CF1000300
:10390000A0FB021C16EB0C06654153F100030942B3
:1039100018BF46F0010613F4007F0BD14FEA0331C4
:103920004FEA0530340341EA155140EA16506FF072
:1039300003020AE04FEAC3214FEAC520F40241EA3C
:10394000555140EA56506FF0020202EB2E4201EB55
:10395000025585EACE710AD05FEA440C18BF24F004
:10396000004450F1000041F1000120EAD47040F21F
:10397000FE7C624500D270BDA84214BF4FF0804467
:103980004FF04044002E08BF0024BEF1806FA8BF56
:10399000A1F1C041BDE8704080F282804FF000008C
:1039A00001F1C04101F0004170479EEA0C0F0CEAA2
:1039B000131518BF95EA0C0F06D04FF0000081EAEE
:1039C000030E0EF0004170BD00F01CF88900013EAE
:1039D00000F007B800F009B84FEA430C5FEA5C5CFE
:1039E00008D081EA030100F05BB84FEA410C5FEABE
:1039F0005C5CF6D14FF00000014970470000FF0702
:103A00000000F87F0EF1020E2EF0030E5EF8046B3C
:103A1000364205D4012A43EB030515F5001F12D8E1
:103A2000012841EB010C1CF5001F0CD80ED14FEA08
:103A3000D17C15F5001F0CEB4C0C0CF1020C08BFEF
:103A40004CEBD37C04E04FF0080C01E04FEAD37C50
:103A50000CEB4C0526FA05F606F00706B6F1040C49
:103A600006D20EEB860CBDE870404CF0010C6047AE
:103A7000DFE80CF0090B02024FF000414FF00000AC
:103A8000A1F5002170BD19461046012851EB010433
:103A900018BFD4F5001484BF002001F0004170BDB0
:103AA0000808A0F500114FEA3101704753EA010CF4
:103AB00017D41CF5801F58BFBCF5801F00F106808D
:103AC0008B4218BF704708BF8242704707D713F573
:103AD000801F58BF11F5801F19D48B4270479B423D
:103AE00070471CF5801F08D5BCF5801FF7D599429B
:103AF00018BF704708BF904270474FF4001C1CEB82
:103B0000430F38BF1CEB410F01D2994270470FB4ED
:103B10000CBC03BCFFF7C1BE4FF04070E1EE100AD1
:103B2000704700002C3C00085924000800000000E9
:103B30000000000080000000000000000000000005
:103B4000443C00080F1D0008FDFF000000000000BD
:103B50008000000000000000000000001C3C000885
:103B600085220008FDFF000000000000800000002A
:103B700000000000000000005C3C0008FD2300087D
:103B8000FDFF0000000000008000000000000000B9
:103B900000000000383C000895060008FDFF00000A
:103BA0000000000080000000000000000000000095
:103BB000503C000879060008FDFF000000000000EE
:103BC000800000000000000000000000683C0008C9
:103BD0009D290008FDFF000000000000800000009B
:103BE0000000000000000000743C0008952F000851
:103BF000FDFF000000000000800000000000000049
:103C000000000000000000000000000001020304AA
:103C10000607080900000000010203047069645FE0
:103C20006361636C615F5461736B0000646566611E
:103C3000756C745461736B00677261625F74617359
:103C40006B0000006C65645F7461736B00000000C2
:103C500067696D62616C5F7461736B0073686F6F2D
:103C6000745F7461736B00006C6566745F71766D70
:103C700069616F0072696768745F71766D69616F01
:103C800000000000A43C000800000020CC0100005F
:103C9000C40100082C3D0008CC010020CC5A0000D3
:103CA00020020008012C32018210036124F41AAAB8
:103CB000010110459A99993E58090AD7233C666636
:103CC0006640146E3F9A99D93F0C21472041CDCCD4
:103CD000CC3D3C295C8F08211B803F1459245E1980
:103CE0003F3333333C7AD918195019083A801829D0
:103CF00030FC3333B330BCCDCC8C4869301CCDCCD8
:103D00000C083AC018192CB918A94889181A8C0C33
:103D10007A70A8E908A31FF1C590EEFEFF14A086F3
:0C3D20000114F82401BC084C010C000048
:040000050800018965
:00000001FF
