:020000040800F2
:100000007856002029030008B72B00088327000832
:10001000B52B00080B0600087D3600080000000024
:10002000000000000000000000000000690200085D
:10003000C509000800000000C502000835310008AD
:100040004303000843030008430300084303000878
:100050004303000843030008430300084303000868
:100060004303000843030008430300084303000858
:100070003D09000843030008430300084303000848
:100080004303000843030008430300084303000838
:10009000C90600084303000843030008430300089F
:1000A0004303000843030008430300084303000818
:1000B0004303000843030008430300084303000808
:1000C00043030008430300084303000843030008F8
:1000D00043030008A935000843030008C935000898
:1000E00043030008430300084303000843030008D8
:1000F00043030008430300084303000843030008C8
:1001000043030008430300084303000843030008B7
:1001100043030008430300080532000843030008B6
:100120004303000843030008430300084303000897
:100130004303000843030008430300084303000887
:100140004D07000843030008430300084303000869
:100150004303000843030008430300084303000867
:100160004303000843030008430300084303000857
:100170004303000843030008430300080000000095
:10018000430300084303000800F002F800F05CF8A5
:100190000AA090E8000C82448344AAF10107DA45E2
:1001A00001D100F051F8AFF2090EBAE80F0013F0D8
:1001B000010F18BFFB1A43F0010318477C550000DC
:1001C0009C5500000A444FF0000C10F8013B13F05E
:1001D000070408BF10F8014B1D1108BF10F8015BA0
:1001E000641E05D010F8016B641E01F8016BF9D193
:1001F00013F0080F1EBF10F8014BAD1C0C1B09D1EA
:100200006D1E58BF01F801CBFAD505E014F8016B5B
:1002100001F8016B6D1EF9D59142D6D370470000ED
:100220000023002400250026103A28BF78C1FBD8FF
:10023000520728BF30C148BF0B6070471FB505F09B
:10024000C1F91FBD10B510BD00F0A6F91146FFF7AA
:10025000F5FF03F04DFD00F0C4F903B4FFF7F2FF22
:1002600003BC00F0CBF900002C4B19680868B0E81B
:10027000F04F80F30988BFF36F8F4FF0000080F3D9
:10028000118870470000000008480068006880F38B
:1002900008884FF0000080F3148862B661B6BFF39F
:1002A0004F8FBFF36F8F00DF00BF00BF08ED00E08E
:1002B000DFF80C00016841F470010160704700BF75
:1002C00088ED00E0EFF30980BFF36F8F134B1A68DE
:1002D0001EF0100F08BF20ED108A20E9F04F1060CB
:1002E00009B44FF0500080F31188BFF34F8FBFF374
:1002F0006F8F04F0DDFB4FF0000080F3118809BC24
:1003000019680868B0E8F04F1EF0100F08BFB0EC95
:10031000108A80F30988BFF36F8F70474800002070
:10032000EFF30580704700000948804709480047FF
:10033000FEE7FEE7FEE7FEE7FEE7FEE7FEE7FEE795
:10034000FEE7FEE704480549054A064B70470000F2
:10035000F531000889010008785000207856002007
:10036000785200207852002053EA020C00F0698095
:100370002DE9F04B4FF00006002B1FBFB3FA83F5B9
:1003800003FA05F424FA05F65E4012BF1643B2FAEA
:1003900082F502FA05F4C5F120051EBF22FA05FC1C
:1003A00044EA0C04203556EA044C4FEA144418BFC2
:1003B000641C4FF000084FF00009904271EB030CF1
:1003C00039D3002919BFB1FA81F701FA07F6B0FA5B
:1003D00080F700FA07F6C7F120071EBF20FA07FCD6
:1003E00046EA0C062037B6FBF4FCA7EB0507103FE6
:1003F00007F01F0BCBF120060CFA0BFB2CFA06F6CC
:1004000044BFB3460026202FA4BF5E464FF0000B2A
:100410005BEA060C08BF4FF0010B19EB0B09ABFBB5
:10042000027C48EB0608C01B06FB02CC0BFB03CC8E
:1004300071EB0C01C1E70B46024641464846BDE858
:10044000F08B13B54FF000004FF00001AFF30080C8
:10045000BDE81C407047032A40F2308010F0030CC6
:1004600000F0158011F8013BBCF1020F624498BF07
:1004700011F801CB00F8013B38BF11F8013BA2F1A4
:10048000040298BF00F801CB38BF00F8013B11F01F
:10049000030300F02580083AC0F0088051F8043BBF
:1004A000083A51F804CBA0E80810F5E7121D5CBF2C
:1004B00051F8043B40F8043BAFF30080D20724BF5F
:1004C00011F8013B11F801CB48BF11F8012B24BFF3
:1004D00000F8013B00F801CB48BF00F8012B704742
:1004E00010B5203AC0F00B80B1E81850203AA0E8CF
:1004F0001850B1E81850A0E81850BFF4F5AF5FEA03
:10050000027C24BFB1E81850A0E8185044BF18C9B5
:1005100018C0BDE810405FEA827C24BF51F8043B5C
:1005200040F8043B08BF7047D20728BF31F8023BB0
:1005300048BF11F8012B28BF20F8023B48BF00F844
:10054000012B70474FF0000200B5134694469646C3
:10055000203922BFA0E80C50A0E80C50B1F12001D6
:10056000BFF4F7AF090728BFA0E80C5048BF0CC084
:100570005DF804EB890028BF40F8042B08BF7047E2
:1005800048BF20F8022B11F0804F18BF00F8012B54
:100590007047704770477047754600F02BF8AE46BD
:1005A00005006946534620F00700854618B020B57F
:1005B000FFF7C8FEBDE820404FF000064FF00007EF
:1005C0004FF000084FF0000B21F00701AC46ACE8FB
:1005D000C009ACE8C009ACE8C009ACE8C0098D4668
:1005E000704710B50446AFF300802046BDE81040C8
:1005F000FFF733BE0048704714500020014918200F
:10060000ABBEFEE7260002007047FEE738B50E4C91
:100610004FF4007525600025A560E560082525617B
:100620000A4C050A25706070080AA070E170100A73
:1006300020716271180AA071E3716B46224602496B
:10064000034800F04BFA38BD84440020B20000207B
:100650000C04002038B50E4C40F2FF152560002533
:10066000A560E560082525610A4C050A25706070C3
:10067000080AA070E170100A20716271180AA07156
:10068000E3716B4622460249034800F027FA38BD61
:1006900084440020B20000200C04002000B58BB080
:1006A00000200121CDE906010891009001900290FF
:1006B0000390059004906946024800F07DFA0BB063
:1006C00000BD00000C040020014800F070BB0000D9
:1006D0000C04002038B50E4C4FF400752560002541
:1006E000A560E560082525610A4C050A2570607043
:1006F000080AA070E170100A20716271180AA071D6
:10070000E3716B4622460249034800F0E7F938BD21
:1007100084440020B20000203404002000B58BB0D7
:1007200001210020CDE9060108910E2100900991D8
:10073000019002900591039004906946024800F0F0
:100740003BFA0BB000BD000034040020014800F06B
:100750002EBB00003404002010B5044600F098FDC4
:100760000221204600F0A8F9002803D0BDE810407F
:1007700000F029B910BD000070B53E4E002506F10D
:10078000680400BF96ED0B0A02F016FA04EB850030
:100790006D1C80ED000A042DF4DBD6ED0A0A96EDFF
:1007A0000B0A30EEC01AB5EEC01AF1EE10FA01DCF9
:1007B000F1EE600A304930EEC00A10EE100A8842AD
:1007C00009DA00209FED2D0A04EB8001401C81ED29
:1007D000000A0428F8DB274ED4ED000A4836012031
:1007E00096ED000A30EE200A02F0DCFB06F110055F
:1007F000022085ED000A96ED010AD4ED010A30EEE3
:10080000200A02F0CFFB85ED010A96ED020AD4ED35
:10081000020A032030EE200A02F0C4FB85ED020A32
:1008200096ED030AD4ED030A042030EE200A02F00C
:10083000B9FB85ED030ABDEEC00A10EE100A95ED76
:10084000020A03B2BDEEC00A10EE100A95ED010ACD
:1008500002B2BDEEC00A10EE100A95ED000ABDE826
:100860007040BDEEC00A01B210EE100A00B2FFF7F0
:10087000CDBE0000A8440020000020400000000081
:10088000134910B591ED000A01F10C0010EE102A89
:10089000026091ED010A10EE102A426091ED020A09
:1008A00010EE101A81600B494A6A00EE102AB1EE70
:1008B000400A80ED030A8A6A0261C96A416100F058
:1008C000DFF800F0C3F8BDE8104000F07FB800008A
:1008D0009C440020564F002070EE801A1648B5EE5A
:1008E000C01A71EE811AC0ED001A70EE601A71EE36
:1008F000811AC0ED011AF1EE601A71EEC01A30EEE5
:10090000C00A71EE811A30EE010AC0ED021AF1EE52
:1009100010FA80ED030A01DCB1EE411A11EE100A63
:10092000B0F1834F07DB04494839886A00EE100AAA
:1009300010EE100AC8627047F0440020014800F031
:1009400035BD00002C05002001681823CAB2103AFA
:10095000B2FBF3F2054B6FF30901032A9B5CC365FD
:1009600000D9091D8165084670470000D45600086B
:1009700010B5014600208B698A6A4FF0C07453B1EC
:10098000B3F5005F15D072B1012A0CD0022A0AD04B
:10099000032A09D104E01AB1012A06D0022A03D1A0
:1009A000C96AC90100D5012010BDC96AA142FAD0A7
:1009B00010BD002AF7D0012AF2D0022AF3D0032A70
:1009C000F3D010BD704772B6FEE7000030B51B488B
:1009D0001B4D0246016AC36900EE101A00EE903A00
:1009E000526A30EE600A10EE104AB7EE000AAC42CE
:1009F00004D900EE902A30EE800A0EE000EE901A44
:100A000001EE103A0F4C70EEC10A10EE903AA3427C
:100A100006DD00EE902A30EEC00A10EE102A426287
:100A200000EE101A416A9FED081A00EE901A00EECF
:100A3000810A10EE101A816230BD0000A844002027
:100A4000000096C3000096430000B4430A4A0B49D5
:100A50001378C868012B02D18861002313700A6AD9
:100A6000CA6100EE100A886900EE900A30EE600A52
:100A700010EE100A08627047A8010020A844002068
:100A80000A48DFED0B0A816800EE101A094980EE72
:100A9000201A91ED020AC16A00EE901A21EE000AB6
:100AA00030EE800A10EE101AC1627047A844002090
:100AB00000002544A801002090F82020012A07D03A
:100AC000022A05D0416A41F4802141620120704729
:100AD000006842690A43426100207047F0B590F80F
:100AE00020500468A468012D05D0022D03D0416A6E
:100AF00041F480215DE014F0406F01D1E50055D54F
:100B0000C4F30164022C03D9416A41F4000150E0AE
:100B10000125A5401D608D684FF4C0739DB1CE685E
:100B200035434E6845EAC605066803EB0417F551E0
:100B30004FF4C275076805EB04150E697E51097DF7
:100B4000012905D009E00E88CD6845EA4655EBE756
:100B500001684E5946F480764E511179D57956790F
:100B600041EA056195792D0445EA062529434FF4AC
:100B7000C676056806EB0416A9511178D57841EAC6
:100B80000561957852782D0445EA022211434FF40D
:100B9000C475026805EB04155151006803EB04119C
:100BA000425842F0010242500020F0BD416A41F437
:100BB000001141620120F0BD10B590F82020012AFB
:100BC00007D0022A05D0416A41F480214162012008
:100BD00010BD3B48D0F8002242F00102C0F80022CC
:100BE000D0F8002222F47C52C0F80022D0F8002273
:100BF0004B6A42EA0322C0F800220A7D02F01F037A
:100C000001229A40D0F81C329343C0F81C32CB69C1
:100C1000B3B9D0F80C329343C0F80C328C894B68CE
:100C200064F31F434C6900EBC404C4F840320C89E0
:100C30000B6864F31F434C6900EBC404C4F84432EE
:100C4000CB69012B16D1D0F80C321343C0F80C320B
:100C50000C884B6864F31F434C6900EBC404C4F870
:100C600040320C89CB6864F31F434C6900EBC40429
:100C7000C4F844328B69002BD0F804320ED01343F1
:100C8000C0F804320B69002BD0F8143208D013439B
:100C9000C0F81432096A012904D008E09343EFE751
:100CA0009343F5E7D0F81C121143C0F81C12D0F89A
:100CB000001221F00101C0F80012002010BD000058
:100CC00000640040704730B590F82040012C05D0FA
:100CD000022C03D0416A41F480215DE004680029C0
:100CE00055D02469A40754D04FF4D874056804EB98
:100CF00001142D5915F00405956005682D594ED045
:100D0000ED08556005682C5904F00204D4604FF4D6
:100D1000DA74056804EB01142D5905F00F0515610F
:100D200005682D59C5F30725956105682C59240CD4
:100D300054614FF4DC72046802EB0112A4581C7079
:100D40000468A458240A5C700468A458240C9C709D
:100D50000468A258120EDA704FF4DE72046802EBD7
:100D60000112A4581C710468A458240A5C71046818
:100D7000A458240C9C710468A258120EDA71006801
:100D800081B1016941F020010161002030BDE468BA
:100D9000A8E7416A41F400114162012030BD6D0DA8
:100DA0001560AFE7C16841F02001C160EDE72DE9B2
:100DB000F05F0546006800244669D0F80490876813
:100DC000D0F80CB0D0F810A0D0F81880F10748D0B7
:100DD000F90714D001218160B80703D5284600F037
:100DE00084FA0CE0780702D54FF4006407E0380776
:100DF00002D54FF4805402E0284600F075FAF80559
:100E000016D529684FF480708860B80503D5284648
:100E100000F06DFA0CE0780502D544F4005407E0C8
:100E2000380502D544F4804402E0284600F05EFA1A
:100E3000F80316D529684FF480308860B80303D5CD
:100E4000284600F056FA0CE0780302D544F400443A
:100E500007E0380302D544F4803402E0284600F06D
:100E600047FA300707D55FEACB6004D52968102020
:100E700044F40074C86070074FF0080707D55FEAB4
:100E80000B7004D52868C760284600F099F9B007B0
:100E900006D52868C068800702D0284600F092F97D
:100EA000700607D55FEACA6004D52968102044F4AB
:100EB00080640861B00607D55FEA0A7004D5286827
:100EC0000761284600F0E0F9F00606D528680069B9
:100ED000800702D0284600F0D8F9B00308D55FEAB1
:100EE000C96005D5296810204860284600F0CEF971
:100EF000F00307D55FEA097004D5286847602846E3
:100F000000F0F8F9300446D55FEA497040D5F005A5
:100F100004D55FEAC87001D044F00104B00504D5DF
:100F20005FEA887001D544F00204700504D55FEAD9
:100F3000487001D544F00404300529D518F0700F2D
:100F400026D008F07000402815D006DC102809D003
:100F500020280AD0302816D10AE050280ED0602868
:100F600011D10EE044F008040DE044F010040AE052
:100F700044F0200407E044F0400404E044F080041E
:100F800001E044F480742868816921F07001816176
:100F9000296804204860002C05D0686A20436862F4
:100FA0002846FFF78FFEBDE8F09F70B5040003D020
:100FB00094F8200010B104E0012070BD204600F03C
:100FC00081F82068016841F00101016000F026FC11
:100FD0000546052604E000F021FC401B0A2811D834
:100FE00020684068C007F6D02068016821F002013F
:100FF000016000F013FC05460BE000F00FFC401B05
:101000000A2806D9606A40F40030606284F82060E3
:10101000D2E7206840688007EFD4207E012820684E
:1010200001683DD021F080010160607E01282068C8
:10103000016838D021F040010160A07E01282068BD
:10104000016833D021F020010160E07E0128206892
:1010500001682ED041F010010160207F0128206836
:10106000016829D021F008010160607F0128206813
:10107000016824D021F004010160D4E90201084391
:10108000D4E90412114308436168491E08432168EA
:10109000C86100206062012084F82000002070BD3B
:1010A00041F08001C0E741F04001C5E741F0200177
:1010B000CAE721F01001CFE741F00801D4E741F081
:1010C0000401D9E7F0B587B0044614216846FFF75C
:1010D00039FA364B3648DFF8D0E01968D4F800C04A
:1010E000334A03250226092710300024491CF44501
:1010F00022D11960012907D1016841F00071016016
:10110000006800F000700590106840F00800106062
:101110001068CDE9005600F00800CDE9047069467A
:101120002448CDE9024500F07BFA00220521142075
:1011300000F012FC142032E0DFF87CE0F44530D1FE
:10114000D0F800C04CF0806CC0F800C0D0F800C0EF
:1011500001290CF0806CCDF814C0196007D101682A
:1011600041F000710160006800F0007005901068A7
:1011700040F002001060106802AB00F00200059021
:101180006020CDE9000683E8B00069460B4800F016
:1011900047FA00220521402000F0DEFB402000F04D
:1011A000CDFB07B0F0BD000000640040340000201B
:1011B00030380240000C0240006800400004024049
:1011C0007047000070B5054600682B492B4C8CB069
:1011D000884224D107AB6A4600212846FFF773FDF9
:1011E0000098A0F20120062819D8C0B22070244E21
:1011F000C0EBC00006EB800081694A1C3229826185
:1012000007A902D802F042FD01E002F044FD207877
:1012100007A9C0EBC00006EB800002F03CFD1949B5
:101220002868884225D109AB6A4600212846FFF785
:101230004AFD0098A0F2012006281AD8C0B2104D2D
:101240006070C0EBC000E03505EB800081694A1C8E
:101250003229826109A902D802F018FD01E002F0EA
:101260001AFD607809A9C0EBC00005EB800002F010
:1012700012FD0CB070BD000000640040B000002002
:10128000C44200200068004070477047704700006B
:1012900070B5044690F82000012804D0606A40F43C
:1012A0000020606218E0022084F8200020680168B5
:1012B00021F00101016000F0B1FA05460EE000BF27
:1012C00000F0ACFA401B0A2808D9606A40F40030EC
:1012D0006062052084F82000012070BD206840680D
:1012E000C007EDD1606270BD7047704770477047AE
:1012F0007047704770472DE9F0410446876D00F054
:101300008DFA064694F835000025022806D0802084
:10131000606584F834500120BDE8F08120680168E0
:1013200021F0160101602068416921F080014161CE
:10133000206C08B9A06C20B12068016821F0080178
:1013400001602068016821F0010101600CE000F0FB
:1013500065FA801B052807D920206065032084F8E2
:10136000350084F83450D7E720680068C007EED114
:1013700094F85C103F208840B860012084F8350064
:1013800084F834500020C7E790F83510022903D0C4
:101390008021416501207047052180F835100068E3
:1013A000016821F001010160002070472DE9F84338
:1013B00004464FF00009CDF8009063484FF41651F1
:1013C000A56D0068B0FBF1F72E6894F85C1008205A
:1013D00000FA01F131420FD021680A6852070BD59B
:1013E0000A6822F004020A6094F85C108840A86041
:1013F000606D40F00100606594F85C104FF00108EA
:1014000008FA01F0304208D021684969090604D57C
:10141000A860606D40F00200606594F85C100420E4
:101420008840304208D021680968890704D5A8603F
:10143000606D40F00400606594F85C1010208840F6
:10144000304218D021680968090714D5A8602068BF
:101450000168490304D50068000308D5A16C07E0C2
:101460000168C90503D4016821F008010160216CFD
:1014700009B12046884794F85C102020884030420B
:1014800031D021680968C9062DD5A86094F83500C7
:1014900005282068016806D0490347D50068000385
:1014A0001DD4616C1CE021F01601016020684169C7
:1014B00021F080014161206C08B9A06C20B1206846
:1014C000016821F00801016094F85C103F20884019
:1014D000A86084F8358084F83490216D1FE0E16BBA
:1014E00009B120468847606D00282BD0606DC00789
:1014F00014D0052084F835002068016821F001012E
:1015000001600098401C0090B84203D82068006831
:10151000C007F6D184F8358084F83490E16C002956
:1015200010D001B02046BDE8F04308470168C90566
:10153000D5D4016821F01001016084F8358084F869
:101540003490CCE7BDE8F883440000202DE9F04159
:10155000044600F063F906465CB1022084F83500C9
:10156000002584F834502068016821F001010160F1
:101570000DE00120BDE8F08100F050F9801B052846
:1015800005D920206065032084F83500F2E7206843
:101590000068C007F0D12268116820480140D4E9F2
:1015A00001031843D4E903363343184363691843EE
:1015B000A3691843E3691843236A18430843616A1F
:1015C000042903D1D4E90B131943084310602068A0
:1015D0004069666A20F0070130460E43012704285F
:1015E0000CD1A06A0643E06A40B12046FFF7C0F97B
:1015F00020B14020606584F83570BAE72068466104
:101600002046FFF7A1F994F85C203F2191408160CA
:10161000656584F835700020ACE700003F8010F06D
:101620002DE9F84FDFF8BCA10022012503264FF079
:101630000F090AF1040BAAF1040E00BF0B6805FAAA
:1016400002F42340A34270D10F7907F00307012F62
:1016500001D0022F16D187684FEA420806FA08FC2B
:1016600027EA0C07D1F80CC00CFA08FC4CEA070C6E
:10167000C0F808C04768A7430C79C4F3001494402D
:101680003C4344600C79E443A4070AD0C4684FEAA1
:10169000420C06FA0CF7BC438F6807FA0CF7274395
:1016A000C7600C7904F00304022C12D1D40800EBBB
:1016B000840CDCF820405707FF0E09FA07F824EAEB
:1016C0000804D1F8108008FA07F848EA0408CCF8B2
:1016D000208004684FEA420C06FA0CF7BC430F79ED
:1016E00007F0030707FA0CF7274307604C6814F468
:1016F000403F70D03C4C276847F4804727602468FF
:1017000022F0030704F480440094384C07EB040CE7
:10171000DCF8084897074FEA177809FA08F7BC433E
:10172000334FB84202D1002724E054E0314FB84291
:1017300001D101271EE0304FB84201D1022719E044
:101740002E4FB84201D1032714E02D4FB84201D1EA
:1017500004270FE02B4FB84201D105270AE02A4F9A
:10176000B84201D1062705E0284FB84201D107272A
:1017700000E0082707FA08F72743CCF80878DAF8DA
:1017800000405746D1F804C09C435FEACC2C00D5FA
:101790001C433C60DBF800405F46D1F804C09C432A
:1017A0005FEA8C2C00D51C433C60DEF80040774695
:1017B000D1F804C09C435FEA8C3C00D51C433C60DC
:1017C000084F083F3C68D1F804C09C435FEACC3C1A
:1017D00000D51C433C60521C102AFFF42FAFBDE81B
:1017E000F88F0000083C01404438024000300140BE
:1017F000000002400004024000080240000C0240C9
:10180000001002400014024000180240001C024078
:101810000AB1816170470904FBE700000148806854
:1018200070470000380000200248816802781144A7
:1018300081607047380000200B4810B5016841F402
:1018400000710160016841F480610160016841F448
:1018500080710160032000F09FF80F2000F006F86F
:1018600000F050F8002010BD003C024030B50546A5
:101870001F4887B00024016841F010010160006832
:1018800006A900F01000009001A800F031F90498BA
:10189000A8B100F04DF940001649174AB0FBF1F12C
:1018A0001648491E026040F2E732C0E90324C0E94D
:1018B0000114846100F08EFB040003D015E000F0F9
:1018C00037F9E9E70D4800F0C7FB04000DD13620D9
:1018D00000F034F8102D07D200222946362000F0FF
:1018E0003BF80748056000E0012407B0204630BD02
:1018F0004038024040420F00001000408C0500209C
:101900003C0000200C4882B0016841F48041016035
:10191000006800F4804000900748001F016841F013
:10192000805101600068002200F0805000900F217B
:10193000901E02B000F010B844380240002809DBC5
:1019400000F01F02012191404009800000F1E020D9
:10195000C0F8001170470000F0B40E4B1B680C4635
:10196000C3F30223C3F10705042D00D90425191D73
:10197000072901D2002300E0DB1E012606FA05F14B
:10198000491E214099409E40761E16403143F0BCCE
:1019900001F075BE0CED00E0064900F00702086892
:1019A0004FF6FF03184040EA0220034A1043086044
:1019B000704700000CED00E00000FA052DE9F0474B
:1019C0000E46050065D0DFF81481D8F80000F7B2A4
:1019D00000F00700B04207D288F80070D8F8000085
:1019E00000F00700B04254D128683D4C810712D561
:1019F000400703D5206840F4E050206028780007B5
:101A000003D5206840F4604020602068A96820F079
:101A1000F000084320602878C0072DD0304968685E
:101A20000839012812D0022813D0032811D00968E0
:101A3000890700292DDA216821F003010143216083
:101A4000FFF7ECFE814641F2883A0EE0096889030F
:101A5000EFE709688901ECE7FFF7E0FEA0EB090179
:101A6000514502D90320BDE8F0872068696800F07D
:101A70000C00B0EB810FEFD1D8F80010404601F018
:101A80000701B14207D90770006800F00700B042B3
:101A900001D00120E7E72878400705D52068E968EC
:101AA00020F4E050084320602878000706D520681D
:101AB000296920F4604040EAC100206000F058F835
:101AC0002168084AC1F30311515CC8400649086007
:101AD00006480068FFF7CAFE0020C4E7003C024049
:101AE00008380240DC560008440000203C0000207A
:101AF0000F2202600C4A136803F00303436013686B
:101B000003F0F0038360136803F4E053C3601268CA
:101B10004FF4E05303EAD20202610448006800F087
:101B2000070008607047000008380240003C02408F
:101B30000448054900680968044AC1F38221515CE0
:101B4000C84070474400002008380240EC560008A6
:101B50000448054900680968044AC1F34231515CF0
:101B6000C84070474400002008380240EC56000886
:101B7000154810B5006810F00C02144813D0144931
:101B8000042A0FD0082A0ED10F4C241F2268236884
:101B900002F03F025B0207D52068C0F38810A0FB6B
:101BA000010106E0084610BD2168C1F38811A1FBC0
:101BB00000010023FEF7D8FB2168C1F30141491C55
:101BC0004900B0FBF1F010BD083802400024F400D9
:101BD000001BB7002DE9F84F04006ED02078DFF825
:101BE0004C93C007A9F104054AD009F1040001682B
:101BF000C1F38101012908D00068C0F381000228E7
:101C00000AD1D9F80000400206D52868800337D5EC
:101C100060680028E1D033E06068B0F5803F10D004
:101C2000B0F5A02F286810D020F4803028602868F4
:101C300020F4802028606068A8B1FFF7EFFD064619
:101C40000DE0286840F48030F4E740F480202860FC
:101C5000F7E700BFFFF7E2FD801B642873D8286810
:101C60008003F7D50CE0FFF7D9FD064605E000BF7D
:101C7000FFF7D4FD801B6428F0D828688003F7D4D0
:101C80002078DFF8AC8280074FF0000A3ED5A748E5
:101C9000001D016811F00C0F08D00068C0F381002E
:101CA00002280BD1D9F80000400207D42868800729
:101CB00016D5E068012800D112E033E1E068B8B140
:101CC0000120C8F80000FFF7A9FD064605E000BFA7
:101CD000FFF7A4FD801B0228C0D828688007F7D52D
:101CE0002868216920F0F80040EAC10028600DE072
:101CF000C8F800A0FFF792FD064604E0FFF78EFD4E
:101D0000801B02281FD828688007F7D42078000796
:101D100022D5864F87486169703771B10121016012
:101D2000FFF77CFD064604E0FFF778FD801B0228E4
:101D300009D838688007F7D50EE0C0F800A0FFF793
:101D40006DFD064605E082E0FFF768FD801B022876
:101D50007DD838688007F7D42078400768D5DFF849
:101D6000CCB100270BF13C0BDBF80000C0000BD41A
:101D7000DBF8001041F08051CBF80010DBF80000D8
:101D8000012700F0805000906B4E3068C00510D4E1
:101D9000306840F480703060FFF740FD009005E04F
:101DA000FFF73CFD0099401A022850D83068C00562
:101DB000F6D55E4EA0686C3601280FD00528306835
:101DC00010D020F001003060306820F00400306056
:101DD000A068B8B1FFF722FD00900FE0306840F036
:101DE0000100F4E740F004003060F7E7FFF716FD6C
:101DF0000099411A41F28830814266D830688007E4
:101E0000F4D50EE0FFF70AFD009007E0FFF706FDAE
:101E10000099411A41F28830814256D830688007D3
:101E2000F4D42FB1DBF8001021F08051CBF8001072
:101E3000A069C8B33D49091D0968C1F381010229A0
:101E40004AD00228504607D0C8F8600000E03CE0C5
:101E5000FFF7E4FC04463BE04746C8F86000FFF7A4
:101E6000DDFC064605E000BFFFF7D8FC801B02281A
:101E70002BD828688001F7D4D4E907010843A16A68
:101E80002E4A490802EB0141626A41EA8211084385
:101E900094F82C1040EA0161C9F80010012038665E
:101EA000FFF7BCFC044606E03EE000BFFFF7B6FCCF
:101EB000001B022809D828688001F7D534E000BF4C
:101EC000FFF7ACFC001B022802D90320BDE8F88F05
:101ED00028688001F4D427E00128F7D0D9F8000061
:101EE000E26900F4800191421CD1226A00F03F01B6
:101EF000914217D147F6C071626A0140B1EB821F6F
:101F000010D1A26A4FF0FF3300F4403103EB5202CC
:101F1000B1EB024F06D194F82C1000F07060B0EBDA
:101F2000016F01D00120D1E70020CFE70438024043
:101F300000004742800E4742007000400000FFFF53
:101F40007047704770B590F83C20012A32D00124C8
:101F500080F83C40022280F83D2003685A689D6862
:101F600022F070060A6832435A60134B02689A42A4
:101F700014D0B2F1804F11D0104B9A420ED0104BBA
:101F80009A420BD00F4B9A4208D00F4B9A4205D081
:101F90000E4B9A4202D00E4B9A4204D1496825F06A
:101FA00080031943916080F83D40002180F83C1087
:101FB000084670BD022070BD0000014000040040D2
:101FC00000080040000C00400004014000400140B7
:101FD0000018004010B5040003D094F83D0010B183
:101FE00007E0012010BD002084F83C00204600F0EE
:101FF0001FF8022084F83D00211D206801F008F937
:10200000012084F8460084F83E0084F83F0084F8FC
:10201000400084F8410084F8420084F8430084F8CA
:10202000440084F8450084F83D00002010BD000005
:1020300008B500680649884208D10648016841F0A1
:1020400001010160006800F00100009008BD00007F
:10205000000001404438024090F83D10012901D0B1
:1020600001207047022180F83D100168CA6842F0E3
:102070000102CA6000681149884214D0B0F1804F53
:1020800011D00F4988420ED00E4988420BD00E491C
:10209000884208D00D49884205D00D49884202D0B7
:1020A0000C49884204D1816801F00701062903D058
:1020B000016841F00101016000207047000001400B
:1020C0000004004000080040000C004000040140F3
:1020D000004001400018004070B5044690F83C00F4
:1020E0000025012817D0012684F83C60022084F8DE
:1020F0003D002068826822F0770222F47F428260ED
:102100000868502838D00DDC20284FD005DC90B36B
:10211000102811D14AE0022070BD302846D0402856
:102120000AD13BE060282FD070280DD0B0F5805F39
:1021300003D0B0F5005F12D0012584F83D60002087
:1021400084F83C00284670BDCB68D1E901212068A5
:1021500001F0C2F82068816841F0770109E0CB689E
:10216000D1E90121206801F0B7F82068816841F4C5
:1021700080418160E1E719E0CA684968206801F0A0
:10218000BDF85021206806E0CA684968206801F05F
:10219000C6F86021206801F0A9F8CEE7CA6849684E
:1021A000206801F0ABF840212068F4E7226801467E
:1021B0001046F0E7704770B50446006801694FF0BB
:1021C0000005C943890715D4C168C943890711D4DB
:1021D000E91E016101202077206880698007204680
:1021E00002D0FFF7E7FF04E000F098F8204600F087
:1021F00096F8257720680169C943490717D4C16853
:10220000C943490713D46FF004010161022020770C
:102210002068806910F4407F204602D0FFF7CAFF93
:1022200004E000F07BF8204600F079F8257720687C
:102230000169C943090716D4C168C943090712D403
:102240006FF008010161042020772068C0698007D1
:10225000204602D0FFF7AEFF04E000F05FF8204612
:1022600000F05DF8257720680169C943C90617D4D5
:10227000C168C943C90613D46FF010010161082079
:1022800020772068C06910F4407F204602D0FFF715
:1022900091FF04E000F042F8204600F040F8257776
:1022A00020680169C943C90708D1C168C943C90782
:1022B00004D1891E0161204600F032F820680169CE
:1022C000C943090609D4C168C943090605D46FF09A
:1022D000800101612046FFF733FE20680169C94390
:1022E000490609D4C168C943490605D46FF04001C5
:1022F0000161204600F01EF820680169C943890683
:102300000BD4C168C943890607D46FF0200101616D
:102310002046BDE87040FFF714BE70BD704770479F
:1023200000680349884201D1FFF77EBA7047000078
:10233000001000407047704770470000F8B5016812
:1023400004460868CA684B6910F00F0F4FF000058B
:1023500059D003F0010602F49077374365D0C107E6
:1023600005D0D10503D5216C41F00101216441075D
:1023700005D5D90703D0216C41F002012164810702
:1023800005D5D90703D0216C41F004012164010770
:1023900007D502F02001314303D0216C41F0080140
:1023A0002164216C00293AD0800604D5900602D51C
:1023B000204600F0F5FF20684069216CC0F38010D2
:1023C000090700D460B3204600F0C3FF20684069CD
:1023D000400621D52068143050E8001F21F040014C
:1023E00040E80012002AF5D1A06BA8B16C49016544
:1023F000A06BFEF7C9FF002811D0A06B016D01B0E2
:10240000BDE8F040084783060FD593060DD520465A
:10241000BDE8F84000F0C4BF2046FFF78DFFF8BDCF
:102420002046FFF789FF2564F8BD266B2023012E87
:1024300079D1C60677D5D60675D508684868009064
:102440004869400640D5A16B086840680004000C4C
:10245000EAD0A28D8242E7D9E085C869B0F5807FD5
:102460002DD020680C3050E8001F21F4807140E826
:102470000012002AF5D12068143050E8001F21F026
:10248000010140E80012002AF5D12068143050E81C
:10249000001F21F0400140E80012002AF5D184F825
:1024A0003E30256320680C3050E8001F21F01001F9
:1024B00040E80012002AF5D1A06BFEF71CFFA08DAA
:1024C000E18D401A81B229E0A08DE18D401A81B2E0
:1024D000E08D0028A8D00029A6D020680C3050E854
:1024E000002F22F4907240E80026002EF5D12068DB
:1024F000143050E8002F22F0010240E80026002EA0
:10250000F5D184F83E30256320680C3050E8002F68
:1025100022F0100240E80023002BF5D12046FFF7FF
:102520000AFFF8BDFFE705062BD5150629D594F857
:102530003D002128F5D1A068B0F5805F01D1206968
:10254000B0B1206A411C2162216800784860E08CAB
:10255000401E0004000CE084E3D12068C16821F033
:102560008001C1602068C16841F04001C160D8E7C6
:10257000206A0088C0F308004860206A801C20623E
:10258000E5E74006CDD55006CBD5CA68204622F0F7
:102590004002CA6084F83D3000F0F2F8C1E7000064
:1025A0004333000870B5040004D094F83D000025C2
:1025B00010B106E0012070BD84F83C50204600F0C8
:1025C00023F8242084F83D002068C16821F40051DC
:1025D000C160204600F044FF2068016921F4904169
:1025E00001612068416921F02A0141612068C168C8
:1025F00041F40051C1602564202084F83D0084F836
:102600003E00002070BD0000F0B587B005461421E3
:102610006846FDF797FF414B296800244048022691
:1026200003270722994236D13D49254614310B68CC
:1026300043F010030B60096801F010010591016877
:1026400041F002010160016801F002010591016899
:1026500041F0010101600068029500F00100059061
:102660008020CDE90006CDE90372144669462D4865
:10267000FEF7D6FF3002CDE900060295CDE90374DE
:1026800069462948FEF7CCFF002205212520FFF7E7
:1026900063F925203EE0254B99423DD12049103178
:1026A0000B6843F480230B60096801F480210591D5
:1026B000016841F0040101600068029400F0040028
:1026C00005904FF44060CDE90006CDE903726946FC
:1026D0001748FEF7A5FF184E164830604FF000600F
:1026E000C6E901044014C6E9034074614FF4403068
:1026F000B461C6E9074030467462FEF727FF08B1AF
:10270000FEF761F9AE63002205212720B563FFF7CC
:1027100023F92720FFF712F907B0F0BD00100140A0
:1027200030380240000402400000024000480040EF
:1027300000080240286002402C05002090F83E303E
:10274000202B0ED159B152B190F83C30012B08D05A
:10275000012380F83C300023036300F007BF012011
:10276000704702207047000000680349884202D188
:10277000024800F007B87047001001409A4F00204F
:102780007047FEE730B52F4C05460021552802D191
:10279000685C53280AD0685C491C7929F6DB00BFC5
:1027A000B4F90000295C552911D102E0491E2180AD
:1027B000F6E728444178532909D10A2100F06FFF38
:1027C0006080B4F9001029448A7A824201D0002046
:1027D00030BDB1F90200DFED1D1A00EE100A1A48F3
:1027E0009FED1B1AF8EEC00A10EE903AC362B1F9E1
:1027F000042000EE102AF8EEC00A10EE902A00EE37
:10280000903A8262B1F9061060EEA10A00EE101A49
:1028100060EE810AB8EEC00A10EE901A00EE902A1F
:1028200020EE210AC16260EEA10A20EE010A60EEEC
:10283000810A10EE901A816210EE101A4162012096
:1028400030BD0000B4010020564F002000000038C9
:10285000000034430F4810B50D4901600321416069
:1028600000214FF4C0228160C0E903124FF4A0029E
:102870004261017641768176C17601774177FEF734
:1028800094FB002803D0BDE81040FEF79CB810BDB3
:10289000006400400C0400200F4810B50D49016091
:1028A0000321416000214FF410228160C0E903122E
:1028B0004FF400124261017641768176C17601774C
:1028C0004177FEF772FB002803D0BDE81040FEF709
:1028D0007AB810BD0068004034040020094808B5EB
:1028E000016841F4001101600068002200F400104A
:1028F000009005210C20FFF72FF8BDE808400C20C0
:10290000FFF71CB83038024030B5C5B000254195FE
:10291000012141A8429501F04CFA444C0121E062AA
:10292000439543A8449501F044FA414D20630DF1CD
:10293000C40C95E80F008CE80F00002131A801F0CD
:1029400025FA1035E06195E80F000DF1D40C103D2B
:102950008CE80F00002135A801F018FA203520621C
:1029600095E80F000DF1E40C203D8CE80F000021EC
:1029700039A801F00BFA3035606295E80F003DADE3
:1029800085E80F0000213DA801F000FA2849A06267
:102990001C2240316846FDF7A3FD0021684601F086
:1029A00027FA234920601C225C3107A8FDF798FD17
:1029B000002107A801F01CFA1D4960601C22783133
:1029C0000EA8FDF78DFD00210EA801F011FA18499F
:1029D000A0601C22943115A8FDF782FD002115A8E6
:1029E00001F006FA1249E0601C22B0311CA8FDF784
:1029F00077FD00211CA801F0FBF90D4920611C2284
:102A0000CC3123A8FDF76CFD002123A801F0F0F9DB
:102A1000074960611C22E8312AA8FDF761FD002109
:102A20002AA801F0E5F9A06145B030BD0000002002
:102A3000D055000870B586B014216846FDF782FDB8
:102A400022480024016841F002010160016801F0A0
:102A500002010591016841F001010160016801F086
:102A600001010591016841F008010160016801F070
:102A700008010591016841F004010160016801F05D
:102A800004010591016841F080010160016801F0D5
:102A900080010591016841F01001016000680C4E51
:102AA00000F010004FF400750590002229463046D2
:102AB000FEF7AEFE01200095CDE9010469463046DF
:102AC0000394FEF7ADFD06B070BD00003038024043
:102AD0000010024010B586B00024174800940194FD
:102AE000029403940494134905940160A721C0E95A
:102AF000011444F61F61C0E9031444618461FFF7C7
:102B000069FA08B1FDF75FFF4FF480500090694605
:102B10000948FFF7E1FA08B1FDF755FF049404A94D
:102B200005480594FFF70EFA002801D0FDF74BFF8A
:102B300006B010BD000001405C0400200C4810B538
:102B40000A4901604FF4E1314160002181600C22AB
:102B5000C160C0E904128161C161FFF723FD002853
:102B600003D0BDE81040FDF72EBF10BD001001409E
:102B7000A40400200D4810B50B4901600C494160C8
:102B800000214FF480628160C0E903120422C0E991
:102B90000521C161FFF706FD002803D0BDE8104004
:102BA000FDF711BF10BD000000480040E804002000
:102BB000A0860100FEE7FEE7064810B5806AF0EE49
:102BC000400A00EE100A044800F008F8024890EDB0
:102BD000080A10BDA8440020204E0020A0B1D0ED6E
:102BE000101AC0ED111A90ED0F1A80ED101AC0EDF9
:102BF000060A80ED070A30EEC00A80ED0F0A017860
:102C000029B101293BD078E09FED3D0A7047D0ED16
:102C1000010A60EE801AC0ED091AD0ED0A0A90EDA3
:102C2000022A42EE000A30EE410AC0ED0A0A90ED97
:102C30000D2A80ED0E2A90ED0C2A80ED0D2A80EDF4
:102C40000C0A90ED031A21EE001A80ED0B1A90ED9C
:102C5000050AF4EEC00AF1EE10FA09DCB1EE400A02
:102C6000F4EEC00AF1EE10FA02D390ED0A0A01E088
:102C700080ED0A0A31EE800A30EE010A2BE070EE98
:102C8000410A90ED012A20EE822A80ED092AD0ED3A
:102C9000020A60EE800AC0ED0A0AD0ED0D2A72EE3B
:102CA000200AC0ED0E2AD0ED0C2AC0ED0D2AF0EE60
:102CB000002A01EE620A30EE210A80ED0C0A90ED46
:102CC000031A21EE000A80ED0B0A30EE800AD0EDE7
:102CD000080A30EE200A80ED080AD0ED040AB4EEAE
:102CE000E00AF1EE10FA06DCF1EE600AB4EEE00A5A
:102CF000F1EE10FA01D2C0ED080A90ED080A704713
:102D00000000000010B5044600F030F92046BDE890
:102D1000104000F065B900002DE9F04700252DEDC9
:102D2000068B9FED6BAADFED6BAADFF8AC9109F57E
:102D30001074DFED6A9A9FED6A8ADFED6A8A9FED73
:102D40006A9A04F5107604F5906700BF05EBC50894
:102D500009EBC800F0EE480AB0EE680A634A0021A9
:102D600000F0D6F8614A04EBC800F0EE490AB0EE74
:102D7000690A0C32002100F0CBF85C4A06EBC8006F
:102D8000F0EE480AB0EE4A0A1832002100F0C0F80E
:102D9000564A07EBC800F0EE6A0AB0EE680A243221
:102DA000002100F0B5F86D1C042DCFDBCA460425C8
:102DB000B146B84605EBC50657460AEBC600F0EE2D
:102DC000480AB0EE680A494A002100F0A1F8474AD3
:102DD00004EBC600F0EE490AB0EE690A0C3200219D
:102DE00000F096F809EBC600F0EE480AB0EE680A6B
:102DF0003E4A002100F08CF83C4A08EBC600F0EE99
:102E0000490AB0EE690A0C32002100F081F86D1C0D
:102E1000082DCFDB5FF0040505EBC50607EBC60008
:102E2000F0EE480AB0EE680A304A002100F070F86F
:102E30002E4A04EBC600F0EE490AB0EE690A0C32E5
:102E4000002100F065F86D1C062DE5DB0024DFEDA8
:102E5000289A4E46254A04EBC40506EBC500F0EE61
:102E6000480AB0EE680A3C32002100F051F81F4ACF
:102E700008EBC500F0EE490AB0EE690A48320021BD
:102E800000F046F8641C022CE4DB184AF0EE480A15
:102E9000B0EE680A54320021164800F039F8134A9F
:102EA000DFED150A9FED150A60320021144800F08D
:102EB0002FF8BDEC068BBDE8F0470C4ADFED110A98
:102EC00030329FED110A0021104800F021B80000B7
:102ED00000A00C460000FA44204500200000C84332
:102EE0000080BB4500401C4600009643380100208E
:102EF00000C05A45304A00200000000000806D45A7
:102F0000704C00200080A24400007A45204E002032
:102F1000002828D0002A26D0017092ED001A80EDFA
:102F2000011A92ED011A80ED021A92ED021A80ED5B
:102F3000031A80ED040A9FED0C0AC0ED050A80ED2E
:102F40000E0A80ED0D0A80ED0C0A80ED080A80ED76
:102F50000B0A80ED0A0A80ED090A80ED110A80ED66
:102F6000100A80ED0F0A7047000000000B4AC0EB0A
:102F7000C00110B502EB8101F0EE400A11ED040A28
:102F800000EBC0010648B8EEC00A00EBC104A4F192
:102F90004800FFF723FE14ED0A0A10BDA4430020E9
:102FA000E04B00200C4AC0EBC00110B502EB8101E0
:102FB000F0EE400A31F91A1C00EE101A00EBC001C5
:102FC0000648B8EEC00A00EBC104A4F14800FFF7C0
:102FD00005FE14ED0A0A10BDC44200202045002061
:102FE0000C4AC0EBC00110B502EB8101F0EE400AC3
:102FF00031F91A1C00EE101A00EBC0010648B8EEB9
:10300000C00A00EBC104A4F14800FFF7E7FD14ED8E
:103010000A0A10BDA4430020A049002030B5144B7B
:103020001C68656945F0400565611B68DC6844F013
:103030001004DC600F4B1C68256825F00105256035
:103040001C682568ED07F7D11D680B4CAC601C6847
:10305000E06018680161186842601868016841F40E
:10306000802101601868016841F00101016030BDF4
:10307000E80400202C050020044800402249234A8F
:10308000B1EE080A0B78B2F9041023B3012B3AD140
:1030900000EE901AF2EE001AB8EEE02A80ED002A57
:1030A000B2F9061022EE212A00EE901AB8EEE01ACC
:1030B00080ED011AB2F9081021EE211A00EE901AE3
:1030C00080ED002A80ED011AF8EEE00AF1EE600AC8
:1030D00020EE800A15E000EE901AB8EEE01A80EDBE
:1030E000001AB2F9061021EE001A00EE901A80EDD7
:1030F000001AF8EEE00A20EE800A80ED010A9FED4A
:10310000040A80ED020A7047BA000020F84E002041
:103110000040CEC40548817A032905D1C07A03282E
:1031200002D103490120087070470000F84E0020CA
:10313000BA00002010B5502080F31188BFF34F8FE4
:10314000BFF36F8F02F0AAF818B104494FF0805016
:103150000860002080F3118810BD000004ED00E03D
:1031600030B593B030216846FDF7ECF914210CA876
:10317000FDF7E8F91D480025016841F08051016024
:10318000006800F0805011901948016841F48041B6
:1031900001600068022400F480401190012000903A
:1031A000000401908001CDE9064006200890A82087
:1031B000CDE9090404200B906846FEF70BFD08B129
:1031C00072B6FEE70CA90F2081E831004FF4A05041
:1031D0000F904FF48050109005210CA8FEF7EEFBE5
:1031E000002801D072B6FEE713B030BD403802406F
:1031F000007000400248016841F4700101607047AE
:1032000088ED00E00148FEF7D6BF00008C050020E5
:10321000F0B50268254C264D264E274F274B4FF020
:10322000804CA04209D0604507D0A84205D0B042EA
:1032300003D0B84201D0984204D122F0700E4A68FF
:1032400042EA0E02A0421BD0604519D0A84217D016
:10325000B04215D0B84213D0984211D0184DA842B0
:103260000ED0184DA8420BD0174DA84208D0174DCC
:10327000A84205D0164DA84202D0164DA84203D14F
:1032800022F44075CA682A434D6922F080022A431D
:1032900002608A68C2620A688262A04201D09842D3
:1032A00001D10969016301214161F0BD00000140C4
:1032B0000004004000080040000C004000040140F1
:1032C0000040014000440140004801400018004017
:1032D000001C00400020004010B5846842EA032230
:1032E00024F47F440A432243826010BD826822F0A6
:1032F00070020A4342F007018160704710B5036A0B
:10330000046A24F001040462846924F0F00444EAAD
:10331000021423F00A020A438461026210BD10B550
:10332000036A23F0100303628369046A23F4704381
:1033300043EA023224F0A00343EA011182610162F0
:1033400010BD10B5806B0021C185C184FEF7F4FF6C
:1033500010BD01680C3151E8002F22F4907241E851
:103360000023002BF5D10168143151E8002F22F021
:10337000010241E80023002BF5D1016B012909D19D
:1033800001680C3151E8002F22F0100241E80023BF
:10339000002BF5D1202180F83E10002101637047F9
:1033A00008B590F83E10222901D0022008BD82689D
:1033B0004FF480539A4201D1016921B1816A9A4246
:1033C0001BD04AB10AE00268816A5268C2F308025F
:1033D0000A80816A891C08E0026972B10268526839
:1033E00002F07F020A70816A491C8162C18D491E08
:1033F0000904090CC18503D019E002685268F1E79D
:103400000168CA6822F02002CA600168CA6822F412
:103410008072CA6001684A6922F001024A61202173
:1034200080F83E10016B012903D0FFF79DF90020C1
:1034300008BD0021016301680C3151E8002F22F022
:10344000100241E80023002BF5D101680A68D2067A
:1034500002D50A6849680091818DFEF76CFFE6E7A6
:1034600070B5044600680169E26821F440511143D7
:1034700001612169A068E269084361691143084359
:103480002168CA6849F20C639A430243CA60206803
:103490004169A26921F440711143416131492068B9
:1034A000884202D03049884202D1FEF751FB01E048
:1034B000FEF73EFBE2690023192164253226B2F5AE
:1034C000004F626828D0A0FB0101930F9200FCF727
:1034D0004BFF0146B0FBF5F06FF01802504301EBD3
:1034E000800006EB0010B0FBF5F000F0F002B1FB3D
:1034F000F5F002EB0012B1FBF5F06FF01803584342
:1035000001EB800006EB0010B0FBF5F000F00F00BF
:1035100021681044886070BDA0FB010192185B41D6
:10352000FCF722FF0146B0FBF5F00201B1FBF5F01C
:103530006FF01803584301EB800006EBC000B0FBAE
:10354000F5F000F0F80002EB4002B1FBF5F0584353
:1035500001EB800006EBC000B0FBF5F000F00700C7
:10356000D6E700000010014000140140816282850E
:10357000C28500210164222280F83E2080F83C10A0
:10358000016921B10168CA6842F48072CA600168A9
:103590004A6942F001024A610068C16841F02001B5
:1035A000C16000207047000010B50548FEF7C6FE58
:1035B000BDE81040792203490148FFF7BFB8000079
:1035C000A40400209A4F0020264818B4006801681F
:1035D000890604D501684068009018BC70472249EC
:1035E0000968C906F9D501684068204A009010684A
:1035F00001684FF024030C031D49046824F0010402
:10360000046016D410684468C4F12404A4B20C8089
:1036100043601068016841F400210160106801688E
:1036200041F001010160122CD7D1124901F11600BD
:1036300015E014686068C0F1240080B208806360FF
:103640000D498B6A23F400238B6211680A6842F0EB
:1036500001020A601228C0D1064901F13A0018BCE3
:1036600000F014BFE8040020004800402C050020B2
:10367000A4010020F84E002000600240FEE7090788
:10368000090E002804DB00F1E02080F800147047E8
:1036900000F00F0000F1E02080F8141D704710B515
:1036A00003460022104604E09C5C521C2044C0B239
:1036B00012B28A42F8DB10BD00F05CFBDFF804A117
:1036C0004FF000080AF10806A6F15C0505F1380B79
:1036D00005F1640705F13C093B48012239490068BE
:1036E00001F0D6FBE861012809D19AED000AF1EE5C
:1036F000400AC6ED000A86ED010AC5F81C80334871
:1037000001223049006801F0C3FB2862012809D179
:103710009AED000AF1EE400AC6ED000A86ED010AB4
:10372000C5F820805FF0000406EB840090ED000AED
:10373000601CFFF7E7FA07EB8400641C80ED000AC9
:10374000022CF1DB22481F4901221C39006801F0DC
:103750009FFB6862012805D19BED000A89ED000AF4
:10376000C5F824801B48174901221C39006801F064
:103770008FFBA862012805D19BED000A89ED000AA4
:10378000C5F8288099ED000A0320FFF7BBFA0D4821
:103790000023143880ED000ABDEEC00A10EE100AB6
:1037A00097ED010A02B2BDEEC00A10EE100A97EDC5
:1037B000000A01B2BDEEC00A10EE100A00B2FCF71A
:1037C00089FF89E7200100201C0000202000002044
:1037D00024000020280000202DED068B4FF4C87631
:1037E00077424FF4C77BFE4DF7EE009AB0EE00AA89
:1037F000DFEDFC8A9FEDFC8ADFF8F0939FEDFC9AE9
:10380000A9F10808DFF8ECA3A8F14404B5F9000019
:10381000B04215DAB4F90400B04211DDB5F9020086
:10382000C73058450CD8B4F900000E2808DA401CFF
:103830002080F14800231A461946006801F078FA02
:10384000B5F90000B8420EDDB4F90410B9420ADA45
:10385000B5F90210C731594505D8B4F9001000294F
:1038600001DD00212180A080B4F90000B4F902102C
:1038700088427CD000287BD0012825D094ED040A12
:103880004146022860EE280A20EE090A80EE881AD6
:1038900000EE900AF8EEE00A61EE200A80EE081AC7
:1038A00000EE100AB8EEC00A21EE000A99ED001AE7
:1038B00070EE810AC8ED000AD9ED010A30EE200A47
:1038C00088ED010A15D02AE094ED020A20EE281AAC
:1038D00020EE090AC1EE080A80EE081A60EEA90A75
:1038E000C9ED000A21EE290A89ED010AC8ED000A96
:1038F00058E094ED030A20EE282A20EE090AC2EED1
:10390000081A80EE082A61EE8A1A71EE811AC1ED5A
:10391000001A22EE0A0A30EE200A81ED010AC21EC8
:10392000022A1DD294ED050A60EE281A20EE090A3B
:1039300081EE882A01EE900AF8EEE11A62EE211A71
:1039400080EE082A00EE100A71EE811AB8EEC00A65
:10395000C1ED001A22EE000A30EE200A81ED010AC4
:10396000052821DB94ED060A60EE281A01E068E1E3
:1039700022E081EE882A401E01EE900A20EE090A1C
:10398000F8EEE11A62EE211A80EE082A00EE100A23
:1039900031EE811AB8EEC00A81ED001A22EE000A5B
:1039A00030EE200A88ED010A904901231A460839B1
:1039B000DAF8000001F0BCF94FF4487000F0CEF9DD
:1039C000B4F90000F0B3D4ED040A421E414620EEE3
:1039D000A80A012880EE081A00EE102AB8EEC00AE4
:1039E00021EE001A20EE890AC0EE080A00EE102A25
:1039F000B8EEC00A60EE801A99ED000A71EE000A76
:103A0000C8ED000AD9ED010A31EEA01A88ED011ABD
:103A100002D0022803D01AE081EC020A17E094EDEC
:103A2000031A21EE282A21EE091AC2EE081A81EEA5
:103A3000082A61EEA91A71EE801AC1ED001A22EE71
:103A4000291A00E04DE031EE201A81ED011AC31E63
:103A5000022B1DD294ED051A61EE281A21EE091AE7
:103A600081EE882A01EE902AF8EEE11A62EE211A20
:103A700081EE082A01EE102A71EE801AB8EEC11A02
:103A8000C1ED001A22EE011A31EE201A81ED011A61
:103A900005281EDBD4ED061A801E21EEA81A61EE61
:103AA000891A81EE082A01EE100AB8EEC11A22EE38
:103AB000011A81EE882A01EE900A31EE000AF8EE32
:103AC000E11A81ED000A62EE211A31EEA00A88EDBA
:103AD000010A4A48454901231A460839006801F09D
:103AE00027F94FF4966000F039F9B4F90000012885
:103AF00025D0D4ED040A4246022820EEA80A60EE42
:103B0000890A80EE081A00EE100AB8EEC00A21EE0B
:103B1000000A80EE881A00EE900AF8EEE00A21EE24
:103B2000201AD9ED000A30EE200A88ED000A99ED3E
:103B3000010A31EE001A88ED011A09D01EE099ED54
:103B4000000A88ED000A99ED010A88ED010A78E083
:103B500094ED031A21EE282AC2EE081A21EE092A52
:103B600082EE081A61EE8A1A71EEA01AC2ED001AEE
:103B700021EE0A1A31EE001A82ED011AC11E022945
:103B80001DD2D4ED051A21EEA81A61EE891A81EE34
:103B9000082A01EE100AB8EEC11A22EE011A81EECF
:103BA000882A01EE900A31EE201AF8EEE11A82ED31
:103BB000001A62EE211A31EE801A82ED011A0528F0
:103BC0002FDB94ED061A401E61EE281A81EE882A3A
:103BD00001EE900AF8EEE11A62EE211A10E0000000
:103BE000F84E0020000090C8000014421801002088
:103BF000000090481C0000202C0000202000002025
:103C000021EE091A71EEA00A81EE082A01EE100ACF
:103C1000C2ED000AB8EEC11A22EE011A31EE000A16
:103C200006E038B9DFED090A9FED070AC2ED000A88
:103C300088ED010A01231A460549DAF8000001F06F
:103C400077F820886080E1E5000000000000008037
:103C50001001002040F2651000F0F2FDFFF75CF863
:103C6000094C00BFFFF756FA0748FFF707FAFCF7C1
:103C700007FE94EC030AFCF72FFEFCF77DFD022003
:103C800000F06CF8EEE700009C440020098849BA77
:103C900001808182704710B5B0F9003003810A8835
:103CA00052BA02804C88D31A64BA44808C88B3F527
:103CB000805F64BA848089798171016901DD491E60
:103CC00003E013F5805F01DA491C016102EB413129
:103CD000828A891AC16010BD10B5012000F03EF83B
:103CE000FBE7EFF30580002800D0012070470000BB
:103CF000FDF7A2FDFFF734FAFEF79CFEFEF7EEFD9E
:103D0000FEF7A8FDFEF7C8FDFEF734FFFEF716FF2D
:103D1000FEF7E0FE00F0B2FB0948FCF71DFD094884
:103D2000FCF71AFDFCF7BAFCFCF7F8FC792206490F
:103D30000648FEF703FDFEF7E7FD00F016F8FEE784
:103D40000C040020340400209A4F0020A40400201A
:103D500001460020842900D0C81C704710B500B966
:103D6000012000F06DFD002010BD10B500F004FE34
:103D7000002010BD10B5FFF7B4FF18B1BDE810402A
:103D800001F084BABDE8104001F07ABA38B5D0E944
:103D9000011204683AB1C3682BB10020009020469C
:103DA00000F04FFF38BD2046BDE83840002200F04B
:103DB00027BF38B543684BB1012909D10320002240
:103DC00000901146012000F03CFF38BD012901D0D0
:103DD000002038BD03220021012000F011FF040063
:103DE00004D000231A46194600F0A2FF204638BD31
:103DF0007FB50D4604464169B0F9080081B1A1695B
:103E000071B1FFF7A5FFD4E905128DE80700D4E9E9
:103E100000102B46226901F0FAF9039004B070BD3E
:103E2000FFF796FF03A9CDE90001208A2B4682B255
:103E3000D4E9001001F0BEF9012801D00020EDE71F
:103E40000398EBE7002000F0CDFDFEE72DE9F041FF
:103E5000184C0F460546E6682068001D00F0FEFB82
:103E600038B9206890F82C100120884021698143DE
:103E70002161681C07D137B12168BDE8F0410E48C7
:103E8000091D00F02FBC20683544B542456021680B
:103E900005D2A06BBDE8F041091D00F00BBC606BC2
:103EA000091D00F007FCA06A854200D2A562BDE8AA
:103EB000F081000048000020B00600202DE9F0410C
:103EC000054600F01BFC2E4CA068401CA06020683A
:103ED0002C4F10B1606940B32DE02560A068012827
:103EE00029D1002606EB860007EB800000F0D4FB0A
:103EF000761C072EF6D323488C3000F0CDFB2148EA
:103F0000A03000F0C9FB1F48B43000F0C5FB1D48CD
:103F1000C83000F0C1FB1B48DC3000F0BDFB194885
:103F20008C3060631430A06305E02068E96AC06AE1
:103F3000884200D82560606A401C6062E96A0120FE
:103F4000226988401043206101EB810007EB80006B
:103F5000291D00F0C7FB00F0F1FB606900280CD0C0
:103F60002068E96AC06A884207D207494FF080504A
:103F70000860BFF34F8FBFF36F8FBDE8F081000083
:103F800048000020D405002004ED00E030B4026CAD
:103F90000B46002A0BD0C1681144C1608468A1425D
:103FA00001D30168C16030BC1846FCF754BA30BC7C
:103FB00070472DE9F041856B174604460026026CD8
:103FC00082B1C7B1E068FCF746FAE168206C091AD3
:103FD000E1602268914202D2A168081AE060022FD3
:103FE00016D017E02068A8B9A06801F0BDF9064610
:103FF0000020A0600EE06068FCF72DFA216C60687C
:1040000008446060A168884204D32068606001E0D1
:1040100005B16D1E6D1CA5633046BDE8F08110B57D
:10402000044690F8510058B101280CD002280FD056
:10403000502080F31188BFF34F8FBFF36F8FFEE7DF
:10404000206B00F08FFB2046BDE8104000F08ABBDB
:1040500010BD000010484FF47051420706D0C01D3B
:104060000D4920F00700411AC1F570510B4A002399
:104070000144C2E900030839183A21F00701116030
:104080004B600B600B1AC0E9001393604FF00040C7
:104090005360506170470000C40600209C0000205F
:1040A000144E154CA6F1C8074FF08058DFF84C901D
:1040B00012E000BF00F022FBF068C568281D00F088
:1040C000CDFAA068401EA0606068401E606000F0ED
:1040D00035FB2846FFF7A3FF60680028EAD138685F
:1040E0000128F9D9C9F80080BFF34F8FBFF36F8F54
:1040F000F2E700009C0600204800002004ED00E0EC
:104100000346009829B10260C0E90F31012100F097
:10411000CBBD0060F8E72DE9F0479A46DDE9098458
:1041200081466FF00303206B03EB82021044089E6C
:1041300020F00707780707D0502080F31188BFF3DD
:104140004F8FBFF36F8FFEE7002561B1002023186A
:104150000A5C83F834200A5C12B1401C1028F6D3A4
:1041600084F8435001E084F83450072E00D306262B
:10417000E662C4E91165201D00F099FA04F1180007
:1041800000F095FA2461C6F107006462A061E5645D
:1041900084F8505052464946384600F059F920609C
:1041A000B8F1000F01D0C8F80040BDE8F08700006A
:1041B00030B5114900E011460A688242FBD34B68D2
:1041C0005C18844203D1406818444860084643683C
:1041D0001C18944209D1084C183C2468A24209D00A
:1041E00052681A4442600A6812680260814200D034
:1041F000086030BD0460F9E79C00002010B504465B
:1042000000F07CFAA06B28B15FF0000400F096FA91
:10421000204610BD0124F9E70648416B096829B121
:10422000416BC968C9684968816270474FF0FF31C6
:10423000FAE700004800002008484068401C4FF0A2
:10424000500080F3118804D0BFF34F8FBFF36F8FFE
:10425000FEE7BFF34F8FBFF36F8FFEE7A400002090
:104260002DE9F041044600F049FA94F9455004F173
:10427000240609E0606A48B1304601F007F908B148
:1042800000F00CFB6D1E6DB2002DF3DC4FF0FF361D
:1042900084F8456000F052FA00F030FA94F9445086
:1042A00004F1100709E0206948B1384601F0EEF842
:1042B00008B100F0F3FA6D1E6DB2002DF3DC84F846
:1042C0004460BDE8F04100F039BA00002DED048BE8
:1042D0004FF0FF384FF42A791A4C184E9FED188A88
:1042E000DFED198A194F9FED1A9ADFED1A9A04F142
:1042F00030054FF47A7A4146306800F065FE484652
:10430000FFF72CFD84ED0D8A0E49C5ED008A0123CF
:104310001A463031386800F00BFD5046FFF71EFD9D
:104320000D4884ED0D9A0749C5ED009A01231A4600
:104330003031006800F0FCFCDDE700002C000020BC
:1043400000008C42CC000020000060C72400002048
:10435000CDCC4C3F0BD72344280000202DE9F04161
:104360000546002700F09CFB324E306808B9FFF785
:1043700071FE706905424ED1C5B3083568070ED08D
:1043800005F00700C0F108000544680707D0502079
:1043900080F31188BFF34F8FBFF36F8FFEE72DB30C
:1043A0007068854237D82348183001460C6801E010
:1043B00020460C466168A94202D221680029F7D143
:1043C00031688C4227D0076821680160606808372F
:1043D000411B10290FD96019420708D0502080F3E3
:1043E0001188BFF34F8FBFF36F8FFEE713E041607B
:1043F0006560FFF7DDFE61687068401A7060B26842
:10440000904200D2B060706901430020C4E900010D
:10441000F068401CF06001F073F8780707D0502076
:1044200080F31188BFF34F8FBFF36F8FFEE73846DD
:10443000BDE8F081840000200449086818B10868CC
:10444000826C521C8264086870470000480000209B
:1044500010B5031F4FF080741C601B1F21F0010179
:104460001960191F044B0B6014390A60091F6FF0A3
:10447000020244380A6010BD394200080249242271
:10448000A1F12400FEF7CABD324F0020F0B500288C
:1044900063D0002961D00278437842EA0322C2F354
:1044A0000A020A8043788478DB0843EA4413C3F3A2
:1044B0000A034B808478C578A40944EA8504057909
:1044C00044EA8524C4F30A048C80057946796D0892
:1044D00045EAC615C5F30A05CD804679C6F301162F
:1044E0008E724679B609CE728679C77946EA072672
:1044F0008E81067A477A46EA0726CE81867AC77A7F
:1045000046EA07260E82067B8E74467BCE74867B37
:10451000C77B46EA07268E82067C407CA2F5806235
:104520000A80A3F580634B80A4F5806446EA0020EE
:104530008C80A5F58065CD80A0F580600881002085
:104540004FEA000301EB4002B2F900401034202C86
:1045500000D81380401C0528F4DBF0BD2DED028B44
:10456000344C324D9FED328A04F10806A87A0328B4
:1045700002D001281DD036E0E87A012804D00228B4
:1045800009D0032810D02EE09FED2B0A84ED000AFD
:104590009FED2A0A05E09FED2A0A84ED000A9FEDAF
:1045A000290A84ED010A1EE084ED008A9FED260AA7
:1045B000F7E7E87A012804D0022809D003280ED0B2
:1045C00011E09FED220A84ED000A9FED210AE8E741
:1045D0009FED200A84ED000A9FED1F0AE1E784EDBC
:1045E000008A84ED018A94ED000A0520FEF7DAFCCA
:1045F00086ED000A94ED010A0620FEF7D3FC86ED55
:10460000010ABDEEC00A00231A4610EE100A96ED0C
:10461000000A01B2BDEEC00A10EE100A00B2FCF7AB
:1046200019F80220FFF79AFBA0E70000F84E0020DF
:1046300000000000BC00002000C05AC500C05A4560
:1046400000803BC500803B450000008000A08CC579
:1046500000A08C4500007AC500007A45D0E90132FF
:1046600001699A60D0E901235A604A68824201D107
:1046700082684A60002202610868401E086008687B
:1046800070470000034B036003F154000860802072
:1046900010607047B801002000F108014FF0FF32B0
:1046A000C0E90112C1600161002101607047002171
:1046B0000161704730B50B685A1C02D000F1080246
:1046C00002E0026904E02246546825689D42FAD956
:1046D00053684B6099608A60516008610168491CA9
:1046E000016030BD42684A6093688B60936859608E
:1046F000916008610168491C01607047502080F397
:104700001188BFF34F8FBFF36F8F0A494868401C71
:10471000486001280CD10848006810F0FF0F07D04E
:10472000502080F31188BFF34F8FBFF36F8FFEE7E8
:1047300070470000A400002004ED00E0084948682C
:1047400028B1401E486001D180F311887047502085
:1047500080F31188BFF34F8FBFF36F8FFEE7000028
:10476000A400002070B500282AD0164DA0F108043E
:1047700060686969084207D1502080F31188BFF34F
:104780004F8FBFF36F8FFEE722683AB1502080F35E
:104790001188BFF34F8FBFF36F8FFEE788436060D0
:1047A00000F07EF960686968084468602046FFF799
:1047B000FFFC2869401C2861BDE8704000F0A0BEE5
:1047C00070BD0000840000204FF0E0200021016156
:1047D000816105494FF47A720968B1FBF2F1491E13
:1047E00041610721016170474400002010B5FBF7CB
:1047F00097FD114910280ED300F1E02090F8F00346
:104800000A78904207D2502080F31188BFF34F8F6F
:10481000BFF36F8FFEE709480068896800F4E06025
:10482000884207D9502080F31188BFF34F8FBFF320
:104830006F8FFEE710BD0000A40000200CED00E02B
:1048400010B5020014D00F48006B38B1502080F32F
:104850001188BFF34F8FBFF36F8FFEE700F020F991
:1048600000211046FFF7F2FA00F04AFE002807D1B7
:1048700005494FF080500860BFF34F8FBFF36F8F33
:1048800010BD00004800002004ED00E002490A6A63
:104890000260C9684160704748000020014901205A
:1048A000C86170474800002010B50C4650B1094956
:1048B00009681831FFF7FEFE2046BDE810400121CF
:1048C000FFF7C4BA502080F31188BFF34F8FBFF3B6
:1048D0006F8FFEE74800002070B5040047D0A26C3F
:1048E000A2B1606C884200D30146E06A88423ED0A3
:1048F000012A3CD11E4D2A6894420FD1502080F3EA
:104900001188BFF34F8FBFF36F8FFEE7502080F306
:104910001188BFF34F8FBFF36F8FFEE7E162A2698B
:10492000002A02DBC1F10701A161124E00EB8000F9
:10493000616906EB8000814219D1201DFFF78EFED0
:10494000012130B994F82C002A6901FA00F0824361
:104950002A61E06A2A6981401143296100EB8000E5
:1049600006EB8000211DBDE87040FFF7BBBE70BDA7
:1049700048000020D405002010B586B00024039420
:1049800005AA04A903A80494FFF77CFEDDE903014E
:104990000094CDE9011000230EA11048059A00F003
:1049A00036FC0F490028C86211D0502080F31188CE
:1049B000BFF34F8FBFF36F8F4FF0FF30886201203E
:1049C0004861CC6006B0BDE8104000F09FB806B06A
:1049D00010BD000049444C4500000000A140000803
:1049E0004800002070B50446FFF788FE294D04B941
:1049F0002C68201DFFF732FE58B9E06A264A00EB0A
:104A0000800152F8211021B9012181402869884391
:104A10002861A06A18B104F11800FFF71FFE1E48B4
:104A2000211DDC30FFF75EFE94F8500000260128BF
:104A300001D184F85060FFF781FE686928B1FFF763
:104A40005DFEFFF7E9FBFFF779FE2868844213D18A
:104A5000686990B1286B38B1502080F31188BFF39A
:104A60004F8FBFF36F8FFEE70C494FF08050086007
:104A7000BFF34F8FBFF36F8F70BD0748DC30006806
:104A8000A968884201D12E6070BDBDE8704000F079
:104A90000FB8000048000020D405002004ED00E01D
:104AA0000248016B491C0163704700004800002068
:104AB0001448016B11B10121C16170470021C1612E
:104AC0000169B1FA81F1C1F11F0101EB81020E49C7
:104AD00051F822306BB101EB820101F108034A6801
:104AE00052684A609A4201D152684A60D1680160B6
:104AF0007047502080F31188BFF34F8FBFF36F8F43
:104B0000FEE7000048000020D40500201CB537480F
:104B10000168374A914207D1502080F31188BFF3D2
:104B20004F8FBFF36F8FFEE700683149491E8842FF
:104B300007D1502080F31188BFF34F8FBFF36F8FE1
:104B4000FEE72C4908780190FF20087008788DF85E
:104B500000009DF800009DF8002000F0F000904259
:104B600007D0502080F31188BFF34F8FBFF36F8FB2
:104B7000FEE79DF80000204C00F050002070072058
:104B8000A06005E09DF8002052008DF80020401E36
:104B90009DF800201206F5D4A060032807D050200D
:104BA00080F31188BFF34F8FBFF36F8FFEE74FF491
:104BB0004070A060019808700C482030016841F4F2
:104BC00070010160016841F070410160FFF7FCFD78
:104BD00000206060FBF76CFB0848016841F0404131
:104BE0000160FBF751FB00201CBD000000ED00E060
:104BF00071C20F4100E400E0A400002034EF00E0A7
:104C0000F8B517460E46050013D005FB06F04830F0
:104C1000FFF7A4FB04000AD0002084F8460004F14A
:104C200048023B46314628460094FFF769FA204681
:104C3000F8BD502080F31188BFF34F8FBFF36F8F03
:104C4000FEE738B5049D18B153B1CAB181B120E077
:104C5000502080F31188BFF34F8FBFF36F8FFEE7B3
:104C6000502080F31188BFF34F8FBFF36F8FFEE7A3
:104C7000502080F31188BFF34F8FBFF36F8FFEE793
:104C800039B1502080F31188BFF34F8FBFF36F8F7E
:104C9000FEE748241C46012384F846302B46009446
:104CA000FFF72EFA204638BD70B50D46040025D01A
:104CB000FFF724FDD4E90F20216802FB0011A16059
:104CC0000021A163216861600A46D4E90F01401EFA
:104CD00000FB0121E16021464FF0FF3001F8440F55
:104CE000487004F110008DB1FFF7D6FC04F12400E8
:104CF000FFF7D2FCFFF722FD012070BD502080F3AA
:104D00001188BFF34F8FBFF36F8FFEE72169002932
:104D1000F0D000F0BBFB0028ECD004494FF08050ED
:104D20000860BFF34F8FBFF36F8FE3E704ED00E040
:104D30002DE9FF4782B01D468A464FF00008040067
:104D400003D0BAF1000F08D011E0502080F3118891
:104D5000BFF34F8FBFF36F8FFEE7206C38B1502049
:104D600080F31188BFF34F8FBFF36F8FFEE7022DE3
:104D70000AD1E06B012807D0502080F31188BFF3DF
:104D80004F8FBFF36F8FFEE700F06CFA3F4F4FF08D
:104D900000094FF0805648B9049838B1502080F38C
:104DA0001188BFF34F8FBFF36F8FFEE7FFF7A6FCAD
:104DB000A06BE16B884207D3022D05D00498D0B1D7
:104DC000B8F1000F1AD01EE02A4651462046FFF7E0
:104DD000F0F8616A19B104F1240000F057FB20B12A
:104DE0003E60BFF34F8FBFF36F8FFFF7A7FC01202B
:104DF00006B0BDE8F087FFF7A1FC22E06846FFF7A8
:104E000045FD4FF00108FFF799FCFFF749FEFFF75A
:104E100075FC94F94400401C01D184F8449094F945
:104E20004500401C01D184F84590FFF787FC04A998
:104E3000684600F085F930B12046FFF711FA00F01E
:104E40005FFB0020D4E7FFF759FCA06BE16B8842C1
:104E500013D1FFF773FC04F110000499FFF724FD50
:104E60002046FFF7FDF900F04BFB00289ED13E6085
:104E7000BFF34F8FBFF36F8F98E7FFF75FFC2046BC
:104E8000FFF7EEF900F03CFB90E7000004ED00E0D6
:104E90002DE9F747002683B08A46040003D0BAF113
:104EA000000F08D011E0502080F31188BFF34F8F1E
:104EB000BFF36F8FFEE7206C38B1502080F311886C
:104EC000BFF34F8FBFF36F8FFEE700F0CBF9DFF832
:104ED000F4804FF000094FF0805748B9059838B179
:104EE000502080F31188BFF34F8FBFF36F8FFEE721
:104EF000FFF704FCA56BC5B151462046FFF746F805
:104F00006D1EA563206950B104F1100000F0BEFAD7
:104F100028B1C8F80070BFF34F8FBFF36F8FFFF752
:104F20000DFC012006B0BDE8F087059808B11EB160
:104F300006E0FFF703FC27E06846FFF7A7FC012621
:104F4000FFF7FCFBFFF7ACFDFFF7D8FB94F944003B
:104F5000401C01D184F8449094F94500401C01D1D3
:104F600084F84590FFF7EAFB05A9684600F0E8F8E9
:104F7000002820460AD0FFF773F900F0C1FA204656
:104F8000FFF73CF90028B3D00020CBE7FFF736F954
:104F900090B104F124000599FFF786FC2046FFF745
:104FA0005FF900F0ADFA0028A2D1C8F80070BFF395
:104FB0004F8FBFF36F8F9BE72046FFF751F900F04B
:104FC0009FFA95E704ED00E02DE9F343002683B056
:104FD0000400354609D0206C78B1502080F3118848
:104FE000BFF34F8FBFF36F8FFEE7502080F3118820
:104FF000BFF34F8FBFF36F8FFEE700F033F9DFF899
:105000003C814FF000094FF0805748B9049838B1FF
:10501000502080F31188BFF34F8FBFF36F8FFEE7EF
:10502000FFF76CFBA06BC8B1401EA063206810B9ED
:10503000FFF702FAA060206950B104F1100000F0FF
:1050400025FA28B1C8F80070BFF34F8FBFF36F8FF8
:10505000FFF774FB012005B0BDE8F083049808B1A8
:1050600066B10FE03DB1502080F31188BFF34F8F40
:10507000BFF36F8FFEE7FFF761FB5DE06846FFF768
:1050800005FC0126FFF75AFBFFF70AFDFFF736FB89
:1050900094F94400401C01D184F8449094F94500EF
:1050A000401C01D184F84590FFF748FB04A96846ED
:1050B00000F046F80028204612D0FFF7D1F800F0A3
:1050C0001FFA2046FFF79AF80028A9D09DB3FFF7F2
:1050D00015FB606A50B3206B0068C0F1070126E041
:1050E000FFF78CF8E0B1206838B9FFF707FBA0683C
:1050F00000F086F90546FFF721FB04F1240004992E
:10510000FFF7D2FB2046FFF7ABF800F0F9F90028D3
:1051100086D1C8F80070BFF34F8FBFF36F8F7FE762
:105120002046FFF79DF800F0EBF979E70021A06831
:10513000FFF7D2FB9FE7FFE700208CE704ED00E0DC
:105140002DE9F0410C46050011D0C4B1FFF7D6FAA5
:10515000174BDA686E682068911B471C17D02F68C0
:105160001B6A9F4219D0964217D8012410E05020A4
:1051700080F31188BFF34F8FBFF36F8FFEE750208E
:1051800080F31188BFF34F8FBFF36F8FFEE70024CA
:10519000FFF7D4FA2046BDE8F081884205D9401ACD
:1051A00020602846FFF772FBF1E700202060DCE773
:1051B000480000202DE9FF5F8346DDE90E87994610
:1051C00016468A469000FFF7C9F805001CD0542007
:1051D000FFF7C4F8040014D00020256384F85100C0
:1051E000CDE90240CDE900874B463246514658464C
:1051F000FEF791FF2046FEF761FE012004B0BDE8F6
:10520000F09F2846FFF7AEFA4FF0FF30F6E7F0B513
:1052100085B0DDE90B640A9DA6B1DCB15427009787
:105220002663022684F85160002604AFCDE90246C9
:10523000CDE90057FEF76FFF2046FEF73FFE0498CA
:1052400005B0F0BD502080F31188BFF34F8FBFF33E
:105250006F8FFEE7502080F31188BFF34F8FBFF3AD
:105260006F8FFEE70548416919B1006B18B1002046
:10527000704701207047022070470000480000205E
:105280000148C068704700004800002010B5FFF7D3
:10529000ADFA0148C06810BD480000202DE9F0417A
:1052A0002F4C0026206B28B1A069401CA06130461D
:1052B000BDE8F081E5686D1CE56013D1606B0068A6
:1052C00038B1502080F31188BFF34F8FBFF36F8F39
:1052D000FEE7606BA16B6163A063206A401C2062E3
:1052E000FEF79AFFA06ADFF87C80854209D3606BE5
:1052F0000068A0B1606BC068C7687868854211D249
:10530000A0622068C06A00EB800158F821000128E3
:1053100000D90126E0690028C9D00126C7E74FF06F
:10532000FF30EDE7381DFFF799F9B86A18B107F1BA
:105330001800FFF793F9F96A0120226988401043A9
:10534000206101EB810108EB8100391DFFF7CAF9EB
:10535000F86A2168C96A8842C9D30126C7E70000F4
:1053600048000020D405002070B504004FF0000173
:1053700040D0214D2868844207D0502080F3118806
:10538000BFF34F8FBFF36F8FFEE7A06C38B1401EA5
:10539000A064636CE26A9A422CD040B12AE05020AB
:1053A00080F31188BFF34F8FBFF36F8FFEE7201D8F
:1053B000FFF754F9114A012150B9E06A00EB80036C
:1053C00052F8233023B92B6901FA00F083432B6193
:1053D000606CE062C0F10700A061E06A2B69814067
:1053E0001943296100EB800002EB8000211DFFF7CB
:1053F00079F90121084670BD48000020D40500203D
:1054000070B504004FF0000034D01E4DE16A2A68E8
:10541000D26A91422FD2A069002804DB2868C06AB2
:10542000C0F10700A061184E01EB8101606906EB35
:10543000810188421AD1201DFFF710F9012130B9EE
:1054400094F82C002A6901FA00F082432A61286846
:10545000C06AE0622A6981401143296100EB800043
:1054600006EB8000211DFFF73DF902E02868C06AC5
:10547000E062012070BD616C2A68D26A9142F8D363
:1054800070BD000048000020D40500202DE9F04147
:10549000C068C468ACB104F118000746FFF7DEF835
:1054A000154D286B0126A0B139461448FFF71AF9AB
:1054B000E06A2968C96A88421CD90120EE61BDE80A
:1054C000F081502080F31188BFF34F8FBFF36F8FAF
:1054D000FEE7201DFFF7C2F8E16A2A6906FA01F02B
:1054E0001043286101EB81000449B43901EB8000CD
:1054F000211DDBE70020E2E74800002088060020AD
:105500002DE9F0472C4D00242746286B38B1FFF7D2
:10551000F5F8286B401E2863286B40B146E0502008
:1055200080F31188BFF34F8FBFF36F8FFEE7A96839
:10553000224E0120D1B3A6F1B40980463068E8B10B
:10554000F068C46804F11800FFF788F8201DFFF721
:1055500085F8E06A2A6908FA00F11143296100EB35
:10556000800109EB8100211DFFF7BCF8E06A296882
:10557000C96A8842E2D3C5F81C80DFE70CB1FEF7A8
:105580004BFEAC6944B14646FFF788FE00B1EE61C0
:10559000641EF9D10020A861E86938B108490127E3
:1055A00038070860BFF34F8FBFF36F8FFFF7C6F860
:1055B0003846BDE8F087000048000020880600203B
:1055C00004ED00E04FF04070E1EE100A704700007B
:1055D00020000000040000000000000000000000A7
:1055E0002000000004000000000000000000000097
:1055F0002000000004000000000000000000000087
:105600002000000004000000000000000000000076
:105610001C570008553C0008000000000000000076
:105620008000000000000000000000002C5700086F
:10563000D93C0008000000000000000080000000CD
:1056400000000000000000000C570008D9370008D7
:1056500000000000000000008000000000000000CA
:1056600000000000245700085D450008000000000D
:1056700000000000800000000000000000000000AA
:1056800014570008CD420008000000000000000090
:10569000800000000000000000000000005700082B
:1056A000B936000800000000000000008000000083
:1056B0000000000000000000F4560008453E00080D
:1056C000000000000000000080000000000000005A
:1056D0000000000000061016000610160000000072
:1056E0000000000001020304060708090000000092
:1056F00001020304504E45554D41544943000000FA
:1057000043414E325F434D44000000004341544347
:1057100048000000505553480000000043484153E2
:105720005349530053484F4F54000000494D555FB3
:105730005245515545535400585700080000002069
:10574000B8010000C4010008C8570008B8010020D3
:10575000C0540000200200080138320182100361A9
:1057600024F41AAA010910820118180A8841333357
:105770003340CDCC94043A5C080152472041CDCC53
:10578000CC3D65CDCC4C3E5E803FCDCC0418180E90
:10579000803F713D8A3E5839B43C9A99992083FCE8
:1057A0004258096666E63F0AD7A33B0C2A3E0C190D
:1057B0004419345F30416F12833A4C1A3E48AE3C74
:0857C0000AD7233CEE49282121
:040000050800018965
:00000001FF
