:020000040800F2
:10000000B05C00202903000863220008151F0008C7
:1000100061220008830500086D320008000000001E
:10002000000000000000000000000000690200085D
:10003000C107000800000000C50200088D2E00085E
:100040004303000843030008430300084303000878
:100050004303000843030008430300084303000868
:100060004303000843030008430300084303000858
:100070004303000843030008430300084303000848
:100080004303000843030008430300084303000838
:10009000590600084303000843030008430300080F
:1000A0004303000843030008430300084303000818
:1000B0004303000843030008430300084303000808
:1000C00043030008430300084303000843030008F8
:1000D00043030008430300082D320008553200088E
:1000E00043030008430300084303000843030008D8
:1000F00043030008430300084303000843030008C8
:1001000043030008430300084303000843030008B7
:1001100043030008430300084303000843030008A7
:100120004303000843030008430300084303000897
:100130004303000843030008430300084303000887
:100140003D07000843030008430300084303000879
:10015000430300084303000843030008613200081A
:100160004303000843030008430300084303000857
:100170004303000843030008430300080000000095
:10018000430300084303000800F002F800F05CF8A5
:100190000AA090E8000C82448344AAF10107DA45E2
:1001A00001D100F051F8AFF2090EBAE80F0013F0D8
:1001B000010F18BFFB1A43F00103184774420000F7
:1001C000944200000A444FF0000C10F8013B13F079
:1001D000070408BF10F8014B1D1108BF10F8015BA0
:1001E000641E05D010F8016B641E01F8016BF9D193
:1001F00013F0080F1EBF10F8014BAD1C0C1B09D1EA
:100200006D1E58BF01F801CBFAD505E014F8016B5B
:1002100001F8016B6D1EF9D59142D6D370470000ED
:100220000023002400250026103A28BF78C1FBD8FF
:10023000520728BF30C148BF0B6070471FB504F09C
:1002400041F81FBD10B510BD00F061F91146FFF770
:10025000F5FF03F09FF800F07FF903B4FFF7F2FF1A
:1002600003BC00F087F900002C4B19680868B0E85F
:10027000F04F80F30988BFF36F8F4FF0000080F3D9
:10028000118870470000000008480068006880F38B
:1002900008884FF0000080F3148862B661B6BFF39F
:1002A0004F8FBFF36F8F00DF00BF00BF08ED00E08E
:1002B000DFF80C00016841F470010160704700BF75
:1002C00088ED00E0EFF30980BFF36F8F134B1A68DE
:1002D0001EF0100F08BF20ED108A20E9F04F1060CB
:1002E00009B44FF0500080F31188BFF34F8FBFF374
:1002F0006F8F03F017FD4FF0000080F3118809BCE9
:1003000019680868B0E8F04F1EF0100F08BFB0EC95
:10031000108A80F30988BFF36F8F70473C0000207C
:10032000EFF30580704700000948804709480047FF
:10033000FEE7FEE7FEE7FEE7FEE7FEE7FEE7FEE795
:10034000FEE7FEE704480549054A064B70470000F2
:100350003D2F000889010008B0560020B05C002045
:10036000B0580020B058002053EA020C00F0698019
:100370002DE9F04B4FF00006002B1FBFB3FA83F5B9
:1003800003FA05F424FA05F65E4012BF1643B2FAEA
:1003900082F502FA05F4C5F120051EBF22FA05FC1C
:1003A00044EA0C04203556EA044C4FEA144418BFC2
:1003B000641C4FF000084FF00009904271EB030CF1
:1003C00039D3002919BFB1FA81F701FA07F6B0FA5B
:1003D00080F700FA07F6C7F120071EBF20FA07FCD6
:1003E00046EA0C062037B6FBF4FCA7EB0507103FE6
:1003F00007F01F0BCBF120060CFA0BFB2CFA06F6CC
:1004000044BFB3460026202FA4BF5E464FF0000B2A
:100410005BEA060C08BF4FF0010B19EB0B09ABFBB5
:10042000027C48EB0608C01B06FB02CC0BFB03CC8E
:1004300071EB0C01C1E70B46024641464846BDE858
:10044000F08B13B54FF000004FF00001AFF30080C8
:10045000BDE81C40704710B5203AC0F00B80B1E8F1
:100460001850203AA0E81850B1E81850A0E81850E9
:10047000BFF4F5AF5FEA027C24BFB1E81850A0E8F2
:10048000185044BF18C918C0BDE810405FEA827C0C
:1004900024BF51F8043B40F8043B08BF7047D20723
:1004A00028BF31F8023B48BF11F8012B28BF20F8C4
:1004B000023B48BF00F8012B70474FF0000200B527
:1004C000134694469646203922BFA0E80C50A0E877
:1004D0000C50B1F12001BFF4F7AF090728BFA0E825
:1004E0000C5048BF0CC05DF804EB890028BF40F8F1
:1004F000042B08BF704748BF20F8022B11F0804F33
:1005000018BF00F8012B7047704770477047754659
:1005100000F02CF8AE4605006946534620F007006F
:10052000854618B020B5FFF70DFFBDE820404FF01D
:1005300000064FF000074FF000084FF0000B21F0CD
:100540000701AC46ACE8C009ACE8C009ACE8C0099A
:10055000ACE8C0098D46704710B50446AFF3008083
:100560002046BDE81040FFF778BE00000048704705
:100570005056002001491820ABBEFEE726000200BD
:100580007047FEE73EB5124C4FF40075256000251C
:10059000A560E56008252561040A8DF800408DF806
:1005A0000100080A8DF80200100A8DF804008DF889
:1005B0000520180A8DF806008DF803108DF8073015
:1005C00002AB6A460249034800F084F93EBD0000D0
:1005D00024560020240400203EB5124C40F2FF15A2
:1005E00025600025A560E56008252561040A8DF8D1
:1005F00000408DF80100080A8DF80200100A8DF8FD
:1006000004008DF80520180A8DF806008DF80310F7
:100610008DF8073002AB6A460249034800F05AF9E8
:100620003EBD0000245600202404002000B58BB0FD
:1006300000200121CDE9060108910090019002906F
:100640000390059004906946024800F0A7F90BB0AA
:1006500000BD000024040020014800F09ABA000008
:10066000240400203EB5124C4FF40075256000258F
:10067000A560E56008252561040A8DF800408DF825
:100680000100080A8DF80200100A8DF804008DF8A8
:100690000520180A8DF806008DF803108DF8073034
:1006A00002AB6A460249034800F014F93EBD00005F
:1006B000245600204C0400203EB5124C40F2FF1599
:1006C00025600025A560E56008252561040A8DF8F0
:1006D00000408DF80100080A8DF80200100A8DF81C
:1006E00004008DF80520180A8DF806008DF8031017
:1006F0008DF8073002AB6A460249034800F0EAF879
:100700003EBD0000245600204C04002000B58BB0F4
:1007100001210020CDE9060108910E2100900991E8
:10072000019002900591039004906946024800F000
:1007300035F90BB000BD00004C040020014800F06A
:1007400028BA00004C04002010B5044600F094FCC8
:100750000221204600F0ACF8002803D0BDE810408C
:1007600000F02FB810BD000070B506464FF6FF70C0
:1007700000224AF201040FE0B35C58405FF000032E
:1007800010F0010F4FEA500000D060405B1CDBB25C
:10079000082BF5D3521CD2B28A42EDD370BD0000B3
:1007A000054B10B518710020044B02E00C5C1C5482
:1007B000401C9042FADB10BDA400002058420020EB
:1007C000704772B6FEE7032002F018FEFBE7000058
:1007D0002DED028B4FF4FA5ADFF8B4809FED2D8B8C
:1007E0002E4D2F4C2F4E49F6404B00274FF47A796F
:1007F000E560E06928B90120E0614FF4167002F06D
:10080000FDFD306803F028FAC4F810A04846A76040
:1008100002F0F4FD012222495D20C4F80CB002F080
:1008200045F902E0022002F0E9FDD8F87C0003F06F
:1008300071FC41EC100B02F02AFDB0EE481AF0EE0C
:10084000681A53EC112B51EC100B03F005FDE9D99C
:10085000484602F0D3FD4846E76002F0CFFD12485B
:1008600020614FF4167002F0C9FD0D490122491CA8
:100870005D2002F01BF94FF4167002F0BFFDE56039
:10088000306803F075F90948006803F0E5F9AFE74F
:10089000645400200000000000C07240F8240100F1
:1008A000980100201C0000209494FFFF18000020F5
:1008B00090F82020012A07D0022A05D0416A41F48D
:1008C0008021416201207047006842690A43426109
:1008D00000207047F0B590F820500468A468012DFE
:1008E00005D0022D03D0416A41F4802153E014F079
:1008F000406F01D1E5004BD5C4F30164022C03D94C
:10090000416A41F4000146E00125A5401D608D6863
:100910004FF4C0739DB1CE6835434E6845EAC605B5
:10092000066803EB0417F5514FF4C275076805EB31
:1009300004150E697E51097D012905D009E00E8854
:10094000CD6845EA4655EBE701684E5946F4807696
:100950004E511179D2F805504FF4C67641EA05257B
:10096000016806EB04168D511178D2F801204FF47E
:10097000C47541EA0221026805EB04155151006873
:1009800003EB0411425842F0010242500020F0BD36
:10099000416A41F4001141620120F0BD10B590F8A8
:1009A0002020012A07D0022A05D0416A41F4802183
:1009B0004162012010BD3B48D0F8002242F0010204
:1009C000C0F80022D0F8002222F47C52C0F80022A5
:1009D000D0F800224B6A42EA0322C0F800220A7DC6
:1009E00002F01F0301229A40D0F81C329343C0F852
:1009F0001C32CB69B3B9D0F80C329343C0F80C3237
:100A00008C894B6864F31F434C6900EBC404C4F841
:100A100040320C890B6864F31F434C6900EBC4043B
:100A2000C4F84432CB69012B16D1D0F80C321343F1
:100A3000C0F80C320C884B6864F31F434C6900EB20
:100A4000C404C4F840320C89CB6864F31F434C697A
:100A500000EBC404C4F844328B69002BD0F8043294
:100A60000ED01343C0F804320B69002BD0F81432B7
:100A700008D01343C0F81432096A012904D008E0F1
:100A80009343EFE79343F5E7D0F81C121143C0F806
:100A90001C12D0F8001221F00101C0F80012002051
:100AA00010BD000000640040704730B590F8204051
:100AB000012C05D0022C03D0416A41F480215DE075
:100AC0000468002955D02469A40754D04FF4D87481
:100AD000056804EB01142D5915F0040595600568AF
:100AE0002D594ED0ED08556005682C5904F00204CC
:100AF000D4604FF4DA74056804EB01142D5905F045
:100B00000F05156105682D59C5F307259561056821
:100B10002C59240C54614FF4DC72046802EB01126E
:100B2000A4581C700468A458240A5C700468A45873
:100B3000240C9C700468A258120EDA704FF4DE7216
:100B4000046802EB0112A4581C710468A458240A1A
:100B50005C710468A458240C9C710468A258120E9D
:100B6000DA71006881B1016941F020010161002062
:100B700030BDE468A8E7416A41F4001141620120F8
:100B800030BD6D0D1560AFE7C16841F02001C16057
:100B9000EDE72DE9F05F0546006800244669D0F8CE
:100BA00004908768D0F80CB0D0F810A0D0F8188066
:100BB000F10748D0F90714D001218160B80703D5A7
:100BC000284600F086FA0CE0780702D54FF400645E
:100BD00007E0380702D54FF4805402E0284600F0C1
:100BE00077FAF80516D529684FF480708860B80543
:100BF00003D5284600F06FFA0CE0780502D544F4DE
:100C0000005407E0380502D544F4804402E0284649
:100C100000F060FAF80316D529684FF48030886038
:100C2000B80303D5284600F058FA0CE0780302D543
:100C300044F4004407E0380302D544F4803402E071
:100C4000284600F049FA300707D55FEACB6004D5A3
:100C50002968102044F40074C86070074FF008073A
:100C600007D55FEA0B7004D52868C760284600F0F6
:100C70009BF9B00706D52868C068800702D02846CF
:100C800000F094F9700607D55FEACA6004D52968B8
:100C9000102044F480640861B00607D55FEA0A704A
:100CA00004D528680761284600F0E2F9F00606D569
:100CB00028680069800702D0284600F0DAF9B003FE
:100CC00008D55FEAC96005D5296810204860284624
:100CD00000F0D0F9F00307D55FEA097004D5286861
:100CE0004760284600F0FAF9300446D55FEA4970BB
:100CF00040D5F00504D55FEAC87001D044F0010486
:100D0000B00504D55FEA887001D544F0020470058F
:100D100004D55FEA487001D544F00404300529D5B4
:100D200018F0700F26D008F07000402815D006DCAF
:100D3000102809D020280AD0302816D10AE05028DF
:100D40000ED0602811D10EE044F008040DE044F00C
:100D500010040AE044F0200407E044F0400404E0FA
:100D600044F0800401E044F480742868816921F033
:100D700070018161296804204860002C05D0686AF0
:100D8000204368622846FFF78FFEBDE8F09F70B5EC
:100D9000040003D094F8200010B104E0012070BDDD
:100DA000204600F081F82068016841F001010160EF
:100DB00000F0EEFA0546052604E000F0E9FA401BD3
:100DC0000A2811D820684068C007F6D0206801685A
:100DD00021F00201016000F0DBFA05460BE000F0B3
:100DE000D7FA401B0A2806D9606A40F400306062D6
:100DF00084F82060D2E7206840688007EFD4207E26
:100E00000128206801683DD021F080010160607EEA
:100E100001282068016838D021F040010160A07EDF
:100E200001282068016833D021F020010160E07EB4
:100E30000128206801682ED041F010010160207F58
:100E400001282068016829D021F008010160607F35
:100E500001282068016824D021F004010160D4E950
:100E600002010843D4E90412114308436168491E92
:100E700008432168C86100206062012084F82000D6
:100E8000002070BD41F08001C0E741F04001C5E79E
:100E900041F02001CAE721F01001CFE741F008013D
:100EA000D4E741F00401D9E7F0B587B00446142136
:100EB0006846FFF702FB374B3748DFF8D4E0196884
:100EC000D4F800C0344A0225032609271030002434
:100ED000491CF44524D11960012907D1016841F06A
:100EE00000710160006800F000700590106840F02B
:100EF00001001060106802AB00F0010005904FF493
:100F0000C050CDE9000583E8D0006946234800F0D1
:100F100041F900220521142000F0ACFA142033E03E
:100F2000DFF87CE0F44531D1D0F800C04CF0806CA3
:100F3000C0F800C0D0F800C001290CF0806CCDF8DA
:100F400014C0196007D1016841F0007101600068A8
:100F500000F000700590106840F00200106010680A
:100F600002AB00F0020005904FF44050CDE90005BF
:100F700083E8D00069460B4800F00CF900220521F7
:100F8000402000F077FA402000F066FA07B0F0BD8C
:100F90000064004028000020303802400000024079
:100FA00000680040000402407047000070B505462C
:100FB00000682B492B4C8CB0884224D107AB6A4681
:100FC00000212846FFF771FD0098A0F201200628B5
:100FD00019D8C0B22070244EC0EBC00006EB8000D0
:100FE00081694A1C3229826107A902D802F059F9A5
:100FF00001E002F05BF9207807A9C0EBC00006EB26
:10100000800002F053F919492868884225D109ABBC
:101010006A4600212846FFF748FD0098A0F201200B
:1010200006281AD8C0B2104D6070C0EBC000E03D79
:1010300005EB800081694A1C3229826109A902D826
:1010400002F02FF901E002F031F9607809A9C0EB54
:10105000C00005EB800002F029F90CB070BD000063
:1010600000640040940100204455002000680040C6
:10107000704770477047000070B5044690F8200034
:10108000012804D0606A40F40020606218E0022069
:1010900084F820002068016821F00101016000F05F
:1010A00077F905460EE000BF00F072F9401B0A28F0
:1010B00008D9606A40F400306062052084F820009E
:1010C000012070BD20684068C007EDD1606270BD2E
:1010D00070477047704770477047704770472DE9F9
:1010E000F0410446876D00F053F9064694F8350048
:1010F0000025022806D08020606584F83450012045
:10110000BDE8F0812068016821F0160101602068C7
:10111000416921F080014161206C08B9A06C20B1C7
:101120002068016821F0080101602068016821F051
:10113000010101600CE000F02BF9801B052807D9A4
:1011400020206065032084F8350084F83450D7E708
:1011500020680068C007EED194F85C103F208840FA
:10116000B860012084F8350084F834500020C7E7C7
:1011700090F83510022903D0802141650120704785
:10118000052180F835100068016821F00101016037
:10119000002070472DE9F84FDFF8BCA1002201259F
:1011A00003264FF00F090AF1040BAAF1040E00BF49
:1011B0000B6805FA02F42340A34270D10F7907F0BF
:1011C0000307012F01D0022F16D187684FEA42088A
:1011D00006FA08FC27EA0C07D1F80CC00CFA08FC48
:1011E0004CEA070CC0F808C04768A7430C79C4F361
:1011F000001494403C4344600C79E443A4070AD0B3
:10120000C4684FEA420C06FA0CF7BC438F6807FA31
:101210000CF72743C7600C7904F00304022C12D1A9
:10122000D40800EB840CDCF820405707FF0E09FAC5
:1012300007F824EA0804D1F8108008FA07F848EA09
:101240000408CCF8208004684FEA420C06FA0CF738
:10125000BC430F7907F0030707FA0CF72743076031
:101260004C6814F4403F70D03C4C276847F48047EA
:101270002760246822F0030704F480440094384C6B
:1012800007EB040CDCF8084897074FEA177809FACF
:1012900008F7BC43334FB84202D1002724E054E0A2
:1012A000314FB84201D101271EE0304FB84201D181
:1012B000022719E02E4FB84201D1032714E02D4F29
:1012C000B84201D104270FE02B4FB84201D10527C6
:1012D0000AE02A4FB84201D1062705E0284FB8425C
:1012E00001D1072700E0082707FA08F72743CCF8C1
:1012F0000878DAF800405746D1F804C09C435FEA0A
:10130000CC2C00D51C433C60DBF800405F46D1F894
:1013100004C09C435FEA8C2C00D51C433C60DEF883
:1013200000407746D1F804C09C435FEA8C3C00D56E
:101330001C433C60084F083F3C68D1F804C09C4304
:101340005FEACC3C00D51C433C60521C102AFFF4E1
:101350002FAFBDE8F88F0000083C01404438024040
:10136000003001400000024000040240000802403A
:10137000000C02400010024000140240001802401D
:10138000001C02400AB1816170470904FBE70000BC
:1013900001488068704700002C00002002488168E6
:1013A00002781144816070472C0000200B4810B572
:1013B000016841F400710160016841F480610160DD
:1013C000016841F480710160032000F073F80F2080
:1013D00000F006F800F024F8002010BD003C0240A8
:1013E00070B50D4D04464FF47A712878B1FBF0F0DA
:1013F0000A490968B1FBF0F000F010FB48B9102C65
:1014000007D200222146501E00F034F800206C6004
:1014100070BD012070BD00002C00002038000020AD
:101420000C4882B0016841F480410160006800F41A
:10143000804000900748001F016841F08051016022
:101440000068002200F0805000900F21901E02B032
:1014500000F010B844380240002809DB00F01F02F9
:10146000012191404009800000F1E020C0F8001106
:1014700070470000F0B40E4B1B680C46C3F3022308
:10148000C3F10705042D00D90425191D072901D230
:10149000002300E0DB1E012606FA05F1491E21406B
:1014A00099409E40761E16403143F0BC01F0DFBEED
:1014B0000CED00E0064900F0070208684FF6FF0354
:1014C000184040EA0220034A1043086070470000B9
:1014D0000CED00E00000FA052DE9F0470E4605008E
:1014E00065D0DFF81481D8F80000F7B200F00700EB
:1014F000B04207D288F80070D8F8000000F007006A
:10150000B04254D128683D4C810712D5400703D51D
:10151000206840F4E05020602878000703D5206858
:1015200040F4604020602068A96820F0F000084383
:1015300020602878C0072DD0304968680839012814
:1015400012D0022813D0032811D009688907002976
:101550002DDA216821F0030101432160FFF718FF14
:10156000814641F2883A0EE009688903EFE709688D
:101570008901ECE7FFF70CFFA0EB0901514502D907
:101580000320BDE8F0872068696800F00C00B0EB2C
:10159000810FEFD1D8F80010404601F00701B142A9
:1015A00007D90770006800F00700B04201D00120A1
:1015B000E7E72878400705D52068E96820F4E0507F
:1015C000084320602878000706D52068296920F4A0
:1015D000604040EAC100206000F038F82168084A05
:1015E000C1F30311515CC840064908600648006811
:1015F000FFF7F6FE0020C4E7003C02400838024036
:10160000B04300083800002030000020044805499D
:1016100000680968044AC1F38221515CC8407047E0
:101620003800002008380240C0430008044805493B
:1016300000680968044AC1F34231515CC8407047F0
:101640003800002008380240C0430008154810B593
:10165000006810F00C02144813D01449042A0FD06B
:10166000082A0ED10F4C241F2268236802F03F0283
:101670005B0207D52068C0F38810A0FB010106E0DB
:10168000084610BD2168C1F38811A1FB00010023A9
:10169000FEF76AFE2168C1F30141491C4900B0FB15
:1016A000F1F010BD083802400024F40040787D01BC
:1016B0002DE9F84F04006ED02078DFF84C93C00776
:1016C000A9F104054AD009F104000168C1F38101C0
:1016D000012908D00068C0F3810002280AD1D9F896
:1016E0000000400206D52868800337D560680028CE
:1016F000E1D033E06068B0F5803F10D0B0F5A02FA6
:10170000286810D020F480302860286820F48020D9
:1017100028606068A8B1FFF73BFE06460DE0286828
:1017200040F48030F4E740F480202860F7E700BF01
:10173000FFF72EFE801B642873D828688003F7D536
:101740000CE0FFF725FE064605E000BFFFF720FE90
:10175000801B6428F0D828688003F7D42078DFF84D
:10176000AC8280074FF0000A3ED5A748001D0168F3
:1017700011F00C0F08D00068C0F3810002280BD1D3
:10178000D9F80000400207D42868800716D5E06821
:10179000012800D112E033E1E068B8B10120C8F8B7
:1017A0000000FFF7F5FD064605E000BFFFF7F0FD7E
:1017B000801B0228C0D828688007F7D528682169CF
:1017C00020F0F80040EAC10028600DE0C8F800A051
:1017D000FFF7DEFD064604E0FFF7DAFD801B022876
:1017E0001FD828688007F7D42078000722D5864FB5
:1017F00087486169703771B101210160FFF7C8FD49
:10180000064604E0FFF7C4FD801B022809D83868AB
:101810008007F7D50EE0C0F800A0FFF7B9FD064637
:1018200005E082E0FFF7B4FD801B02287DD8386810
:101830008007F7D42078400768D5DFF8CCB10027BF
:101840000BF13C0BDBF80000C0000BD4DBF8001000
:1018500041F08051CBF80010DBF80000012700F0C8
:10186000805000906B4E3068C00510D4306840F452
:1018700080703060FFF78CFD009005E0FFF788FD79
:101880000099401A022850D83068C005F6D55E4E3F
:10189000A0686C3601280FD00528306810D020F0E1
:1018A00001003060306820F004003060A068B8B1FA
:1018B000FFF76EFD00900FE0306840F00100F4E7A4
:1018C00040F004003060F7E7FFF762FD0099411A2D
:1018D00041F28830814266D830688007F4D50EE046
:1018E000FFF756FD009007E0FFF752FD0099411AFF
:1018F00041F28830814256D830688007F4D42FB145
:10190000DBF8001021F08051CBF80010A069C8B3BB
:101910003D49091D0968C1F3810102294AD0022805
:10192000504607D0C8F8600000E03CE0FFF730FD0B
:1019300004463BE04746C8F86000FFF729FD06462D
:1019400005E000BFFFF724FD801B02282BD8286884
:101950008001F7D4D4E907010843A16A2E4A490857
:1019600002EB0141626A41EA8211084394F82C10AB
:1019700040EA0161C9F8001001203866FFF708FD50
:10198000044606E03EE000BFFFF702FD001B022810
:1019900009D828688001F7D534E000BFFFF7F8FCCC
:1019A000001B022802D90320BDE8F88F28688001B7
:1019B000F4D427E00128F7D0D9F80000E26900F458
:1019C000800191421CD1226A00F03F01914217D15F
:1019D00047F6C071626A0140B1EB821F10D1A26A62
:1019E0004FF0FF3300F4403103EB5202B1EB024FF2
:1019F00006D194F82C1000F07060B0EB016F01D0AC
:101A00000120D1E70020CFE7043802400000474220
:101A1000800E4742007000400000FFFF10B5401EDE
:101A2000B0F1807F01D3012010BD4FF0E024606150
:101A30000F21601701F01BFC0020A061072020612E
:101A4000002010BD70477047F8B50168044608686B
:101A5000CA684B6910F00F0F4FF0000559D003F022
:101A6000010602F49077374365D0C10705D0D10550
:101A700003D5216C41F001012164410705D5D90747
:101A800003D0216C41F002012164810705D5D907FB
:101A900003D0216C41F004012164010707D502F055
:101AA0002001314303D0216C41F008012164216CF5
:101AB00000293AD0800604D5900602D5204601F0D0
:101AC00074FA20684069216CC0F38010090700D4C3
:101AD00060B3204601F042FA20684069400621D5F3
:101AE0002068143050E8001F21F0400140E8001247
:101AF000002AF5D1A06BA8B16C490165A06BFFF776
:101B000037FB002811D0A06B016D01B0BDE8F0409B
:101B1000084783060FD593060DD52046BDE8F8404B
:101B200001F043BA2046FFF78EFFF8BD2046FFF7CD
:101B30008AFF2564F8BD266B2023012E79D1C606C5
:101B400077D5D60675D5086848680090486940067C
:101B500040D5A16B086840680004000CEAD0A28D53
:101B60008242E7D9E085C869B0F5807F2DD0206832
:101B70000C3050E8001F21F4807140E80012002A68
:101B8000F5D12068143050E8001F21F0010140E831
:101B90000012002AF5D12068143050E8001F21F00F
:101BA000400140E80012002AF5D184F83E30256358
:101BB00020680C3050E8001F21F0100140E80012AE
:101BC000002AF5D1A06BFFF78AFAA08DE18D401AAB
:101BD00081B229E0A08DE18D401A81B2E08D00280C
:101BE000A8D00029A6D020680C3050E8002F22F49D
:101BF000907240E80026002EF5D12068143050E89D
:101C0000002F22F0010240E80026002EF5D184F8D2
:101C10003E30256320680C3050E8002F22F010027F
:101C200040E80023002BF5D12046FFF70BFFF8BD5D
:101C3000FFE705062BD5150629D594F83D00212888
:101C4000F5D1A068B0F5805F01D12069B0B1206AFC
:101C5000411C2162216800784860E08C401E00042D
:101C6000000CE084E3D12068C16821F08001C160EC
:101C70002068C16841F04001C160D8E7206A00884F
:101C8000C0F308004860206A801C2062E5E7400637
:101C9000CDD55006CBD5CA68204622F04002CA6096
:101CA00084F83D3000F035F9C1E700004D2F000801
:101CB00070B5040004D094F83D00002510B106E092
:101CC000012070BD84F83C50204600F023F8242009
:101CD00084F83D002068C16821F40051C1602046AD
:101CE00001F0C4F92068016921F490410161206884
:101CF000416921F02A0141612068C16841F4005125
:101D0000C1602564202084F83D0084F83E00002056
:101D100070BD0000F0B587B0044614216846FEF798
:101D2000CCFB3E483C4F256800213C4A103802233A
:101D300003240726BD4220D1156845F400351560FF
:101D4000126802F400320592026842F00802026052
:101D5000006802AD00F00800059085E852006020A0
:101D6000CDE9000369462E48FFF714FA0022052149
:101D70002620FFF77FFB262023E02A4FBD4224D1F7
:101D8000156845F480251560126802F480220592DA
:101D9000026842F002020260006802AD00F0020038
:101DA000059085E852004FF44060CDE90003694694
:101DB0001D48FFF7EFF9002205212720FFF75AFB06
:101DC0002720FFF749FB07B0F0BD184A9542FAD12A
:101DD000124A121D156845F020051560126802F0C0
:101DE00020020592026842F0040202600068CDE918
:101DF000021400F004000590C020CDE90003082083
:101E0000049069460A48FFF7C5F9002205214720DA
:101E1000FFF730FB4720D4E7004400404038024041
:101E2000000C024000480040000402400014014041
:101E30000008024090F83E30202B0ED159B152B12B
:101E400090F83C30012B08D0012380F83C3000236F
:101E5000036301F091B90120704702207047704779
:101E60002DE9F843044690F83D001F4616460D46FE
:101E700020284CD1C5B1BEB194F83C00012846D011
:101E8000012084F83C004FF00008C4F84080212075
:101E900084F83D00FFF77CFAA6848146E684A068BA
:101EA000B0F5805F03D004E00120BDE8F88320692D
:101EB00028B12E465FF0000584F83C800EE0002635
:101EC000FAE78021204601F074F9A0B9AEB116F806
:101ED000010B21684860E08C401EE084E08C4B469A
:101EE0004FF0000200970028EBD14FF04001204650
:101EF00001F05FF930B10320D7E735F8020BC0F3EA
:101F00000800E6E7202084F83D000020CDE702200D
:101F1000CBE77047FEE700004FF47A6001F002FE65
:101F20001D4F1E4E1E4D012438787F2830D12A784F
:101F3000002104FA01FC02EA0C03CB407354491C53
:101F400020460829F5DB95F80120002100FA01FC64
:101F500002EA0C03CB4006EB010C491C8CF808305C
:101F60000829F3DBAA7800210B1D00FA03FC02EA22
:101F70000C0C2CFA03FC7318491C83F810C00429BC
:101F8000F2DBE87802F0030140EA01200549C8804D
:101F9000142001F033FAC7E7A80000203C560020C7
:101FA00058420020980100200F4810B50D490160EB
:101FB0000321416000214FF410228160C0E9031227
:101FC0004FF400124261017641768176C176017745
:101FD0004177FEF7DCFE002803D0BDE81040FEF795
:101FE000F0BB10BD00640040240400200F4810B571
:101FF0000D4901600321416000214FF410228160EE
:10200000C0E903124FF400124261017641768176F5
:10201000C17601774177FEF7BAFE002803D0BDE80C
:102020001040FEF7CEBB10BD006800404C040020FD
:1020300010B5B8B01C222C496846FEF70CFA0021F6
:10204000684601F0E7F9294C27491C2260601C31E1
:1020500007A8FEF700FA002107A801F0DBF92249E2
:10206000A0601C2238310EA8FEF7F5F900210EA859
:1020700001F0D0F91C49E0601C22543115A8FEF78C
:10208000EAF9002115A801F0C5F9174920611C22C1
:1020900070311CA8FEF7DFF900211CA801F0BAF985
:1020A000114960611C228C3123A8FEF7D4F900216C
:1020B00023A801F0AFF90C49A0611C22A8312AA87D
:1020C000FEF7C9F900212AA801F0A4F90649E06148
:1020D0001C22C43131A8FEF7BEF9002131A801F05D
:1020E00099F9206238B010BDD042000804000020E9
:1020F0002DE9F04186B014216846FEF7DEF92B4841
:102100000024016841F010010160016801F0100134
:102110000591016841F080010160016801F08001D2
:102120000591016841F002010160016801F00201BE
:102130000591016841F008010160016801F00801A2
:102140000591016841F004010160016801F004019A
:102150000591016841F0010101600068144F00F031
:1021600001000590002240213846FFF70BF9DFF807
:1021700044804FF44066002231464046FFF702F9A2
:10218000402000900125CDE901546946384603946A
:10219000FFF700F80096CDE90154694640460394E4
:1021A000FEF7F8FF06B0BDE8F081000030380240CD
:1021B00000100240000C02400C4810B50A490160B2
:1021C0004FF4E1314160002181600C22C160C0E91F
:1021D00004128161C161FFF76BFD002803D0BDE8E7
:1021E0001040FEF7EEBA10BD004400407404002019
:1021F0000C4810B50A4901604FF4E13141600021FB
:1022000081600C22C160C0E904128161C161FFF7E5
:102210004FFD002803D0BDE81040FEF7D2BA10BD34
:1022200000480040B80400200C4810B50A4901607D
:102230004FF4E1314160002181600C22C160C0E9AE
:1022400004128161C161FFF733FD002803D0BDE8AE
:102250001040FEF7B6BA10BD00140140FC04002087
:10226000FEE7FEE7A0B1D0ED101AC0ED111A90ED17
:102270000F1A80ED101AC0ED060A80ED070A30EE45
:10228000C00A80ED0F0A017829B101293BD078E01E
:102290009FED3D0A7047D0ED010A60EE801AC0ED57
:1022A000091AD0ED0A0A90ED022A42EE000A30EE39
:1022B000410AC0ED0A0A90ED0D2A80ED0E2A90ED3C
:1022C0000C2A80ED0D2A80ED0C0A90ED031A21EE08
:1022D000001A80ED0B1A90ED050AF4EEC00AF1EE3B
:1022E00010FA09DCB1EE400AF4EEC00AF1EE10FA81
:1022F00002D390ED0A0A01E080ED0A0A31EE800A6D
:1023000030EE010A2BE070EE410A90ED012A20EE3A
:10231000822A80ED092AD0ED020A60EE800AC0ED23
:102320000A0AD0ED0D2A72EE200AC0ED0E2AD0ED79
:102330000C2AC0ED0D2AF0EE002A01EE620A30EE02
:10234000210A80ED0C0A90ED031A21EE000A80EDBF
:102350000B0A30EE800AD0ED080A30EE200A80ED3C
:10236000080AD0ED040AB4EEE00AF1EE10FA06DC39
:10237000F1EE600AB4EEE00AF1EE10FA01D2C0ED1F
:10238000080A90ED080A70470000000010B50446E6
:1023900000F0C6F92046BDE8104000F019BA10B5AB
:1023A000044600F069F92046BDE8104000F0D4B9B9
:1023B00010B5044600F07CF92046BDE8104000F05E
:1023C000E9B910B5044600F08FF92046BDE8104089
:1023D00000F01CBA10B52DED048B9FED7C8AF0EE59
:1023E000480ADFED7B8A7B4A0021B0EE680A7A4812
:1023F00000F014F99FED799A764AB0EE680AF0EE93
:10240000490A0C3A0021764800F008F9714AF0EECA
:10241000480AB0EE680A18320021724800F0FEF84F
:10242000F2EE040A9FED700A6A4A002124326F48D6
:1024300000F0F4F86848F0EE480AB0EE680A654A21
:102440000021483000F0EAF8F0EE490ADFED688A32
:10245000604A6348B0EE680A0C320021483000F050
:10246000DDF8F0EE480A9FED639A5A4A5D48B0EEF7
:10247000490AC0320021483800F0D0F8554A5B487C
:10248000F2EE040AB0EE490ACC320021483800F0DE
:10249000C5F8504AF0EE480AB0EE490AC0320021B1
:1024A000554800F0BBF84B4AF2EE040AB0EE490A78
:1024B000CC320021514800F0B1F8464AF3EE040A4C
:1024C000B0EE680A303200214D4800F0A7F8F3EE74
:1024D000040A9FED4C8A3F4A0021B0EE480A3C3284
:1024E000494800F09BF83B4A4548F3EE040AB0EE39
:1024F000680A48320021483000F090F8F3EE040AF0
:102500009FED420A334A404854320021483000F0DF
:1025100085F8304A3A48F3EE040AB0EE680A6032B1
:102520000021903000F07AF82A4A3748F3EE040A86
:10253000B0EE480A6C320021903000F06FF8254A66
:10254000F3EE040AB0EE680A78320021304800F059
:1025500065F89FED309A1F4AF3EE040AB0EE490A7F
:10256000843200212C4800F059F81A4A2848F3EE2A
:10257000040AB0EE680A90320021483000F04EF8AC
:10258000144A2548F3EE040AB0EE480A9C320021B2
:10259000483000F043F80F4A1148F3EE040AB0EE59
:1025A000680AA8320021903800F038F8B0EE490AE5
:1025B000BDEC048B0021F3EE040A064A0648B4324F
:1025C000BDE81040903800F029B8000000007A44BF
:1025D0000000FA45BC000020844C00200000FA43B3
:1025E000C44E0020844300200080BB44C44500202A
:1025F0000000FA4400401C46BC470020FC49002073
:102600002452002000608645E44F00200080894568
:10261000A44D002000A08C45644B0020002828D049
:10262000002A26D0017092ED001A80ED011A92ED79
:10263000011A80ED021A92ED021A80ED031A80ED64
:10264000040A9FED0C0AC0ED050A80ED0E0A80ED2C
:102650000D0A80ED0C0A80ED080A80ED0B0A80ED72
:102660000A0A80ED090A80ED110A80ED100A80ED5A
:102670000F0A7047000000000B4AC0EBC00110B504
:1026800002EB8101F0EE400A11ED040A00EBC001FB
:102690000648B8EEC00A00EBC104A4F14800FFF7F9
:1026A000E1FD14ED0A0A10BD64540020A44D002081
:1026B0000B4AC0EBC00110B502EB8101F0EE400AFD
:1026C00011ED040A00EBC0010648B8EEC00A00EBA9
:1026D000C104A4F14800FFF7C5FD14ED0A0A10BDBE
:1026E00064540020244900200B4AC0EBC00110B5FF
:1026F00002EB8101F0EE400A11ED040A00EBC0018B
:102700000648B8EEC00A00EBC104A4F14800FFF788
:10271000A9FD14ED0A0A10BD44550020A444002070
:102720000B4AC0EBC00110B502EB8101F0EE400A8C
:1027300011ED040A00EBC0010648B8EEC00A00EB38
:10274000C104A4F14800FFF78DFD14ED0A0A10BD85
:1027500044550020245200200C4AC0EBC00110B5A3
:1027600002EB8101F0EE400A31F91A1C00EE101A5A
:1027700000EBC0010648B8EEC00A00EBC104A4F1AA
:102780004800FFF76FFD14ED0A0A10BD64540020E5
:10279000644B00200C4AC0EBC00110B502EB810174
:1027A000F0EE400A31F91A1C00EE101A00EBC001DD
:1027B0000648B8EEC00A00EBC104A4F14800FFF7D8
:1027C00051FD14ED0A0A10BD64540020E4460020B7
:1027D0000C4AC0EBC00110B502EB8101F0EE400ADB
:1027E00031F91A1C00EE101A00EBC0010648B8EED1
:1027F000C00A00EBC104A4F14800FFF733FD14ED5B
:102800000A0A10BD44550020E44F00200C4AC0EBDA
:10281000C00110B502EB8101F0EE400A31F91A1C3B
:1028200000EE101A00EBC0010648B8EEC00A00EB3B
:10283000C104A4F14800FFF715FD14ED0A0A10BD0C
:1028400044550020644200204FF47A6001F06AF998
:10285000524C04F1200904F12C0A94ED050A0420DD
:10286000B8EEC00AFFF7ADFDBDEEC00A4D4610EE52
:10287000100A99ED020A0FFA80F8B8EEC00A032098
:10288000FFF784FDBDEEC00A10EE100A95ED010AB7
:1028900007B2B8EEC00A0220FFF778FDBDEEC00A0D
:1028A00010EE100A95ED000A06B2B8EEC00A01203B
:1028B000FFF76CFDBDEEC00A43463A4610EE100A23
:1028C000314600B2FDF75EFE94ED030A0520B8EE36
:1028D000C00AFFF776FDBDEEC00A00231A4610EECF
:1028E000100A194600B2FDF777FE94ED060A04209F
:1028F000B8EEC00AFFF75CFDBDEEC00A554610EE0B
:10290000100A9AED020A0FFA80F8B8EEC00A032006
:10291000FFF745FDBDEEC00A10EE100A95ED010A65
:1029200007B2B8EEC00A0220FFF739FDBDEEC00ABB
:1029300010EE100A95ED000A06B2B8EEC00A0120AA
:10294000FFF72DFDBDEEC00A43463A4610EE100AD1
:10295000314600B2FDF786FE94ED040A0620B8EE7B
:10296000C00AFFF71CFDBDEEC00A10EE100A94ED80
:10297000020A05B20520B8EEC00AFFF710FDBDEE51
:10298000C00A00231A4610EE100A294600B2FDF7CD
:1029900093FE062000F032FD5FE700009801002062
:1029A0002DE9F047324C0546274694F800C0787868
:1029B000BA780146401C00262E4BBF684FF0050A2E
:1029C0004FF00109C0B2BCF1080F4AD2DFE80CF0A9
:1029D000040B171D29303445A52D0AD184F8009029
:1029E00048461D7004E05A2D39D1022222705D54F0
:1029F0006070BDE8F08700BF84F80090F9E703221B
:102A000022705D546070A570F3E7042626705D5453
:102A10006070E5701844A060002AEAD184F800A034
:102A2000E7E75D546070B91818448142F6D0E0E7DA
:102A300006202070E580DCE7A0794FF6FF7202EAFD
:102A400000202844E0800B48FDF78EFEE188884294
:102A500005D12078401C2070CBE7FF2D03D0A52D99
:102A6000CAD02670C5E73946E078FDF799FEF8E749
:102A7000A40000203042002070B50D460646002418
:102A800004E0305D00F006F8641CE4B2AC42F8D318
:102A900070BD000001B54FF47A7301226946024807
:102AA000FFF7DEF908BD0000FC04002030B5CBB014
:102AB000A5238DF800305A238DF801308DF80220BF
:102AC0008DF8030004246D46002005E00B5C2B55B7
:102AD000641C401CE4B2C0B29042F7D3121DD1B2C4
:102AE0002846FDF741FE010A2955641CE1B26854ED
:102AF000491CC8B2FF212954401CC1B26846FFF7E7
:102B0000BBFF4BB030BD00000D4C0E4D0E4E02E031
:102B1000052000F073FCE06FA968401A00D5404220
:102B20006428F5DC07490122091DD520FFF7BEFF07
:102B3000062000F063FC306801F08EF8EBE700003F
:102B4000645400209801002014000020B84D6869EA
:102B500001F082F8286901F07FF8E86901F07CF85B
:102B6000286A01F079F840F6B83000F047FCB24E20
:102B7000B048B24F30604FF47A70B14CDFF8C48285
:102B8000DFF8C4924FF0320A4FF01E0B3860207805
:102B900060B1142000E0012000F030FC2078002813
:102BA000F9D1142000F02AFC68692BE0607860B14C
:102BB000142000E0012000F021FC60780028F9D109
:102BC000142000F01BFC28691CE0A07860B11420E0
:102BD00000E0012000F012FCA0780028F9D11420B8
:102BE00000F00CFCE8690DE0E07870B1142000E022
:102BF000012000F003FCE0780028F9D1142000F057
:102C0000FDFB286A00F0B4FF5CE0207910B31420CB
:102C100000E0012000F0F2FB20790028F9D1142017
:102C200000F0ECFB287830B1401E287087483860EF
:102C30008748306046E001202870864B864A002095
:102C400047F2305142F8201043F82010401C03286E
:102C5000F8DB37E0E079C8B1142000E0012000F093
:102C6000CDFBE0790028F9D1286A00F0F5FF0220B9
:102C700000F0C4FB774A7949002000BF42F82010D9
:102C8000401C0328FADB002075491AE0A079C8B17E
:102C9000142000E0012000F0B1FBA0790028F9D158
:102CA000E86900F0D9FF022000F0A8FB6A496B4AEE
:102CB000002000BF41F82020401C0328FADB6949AE
:102CC00000200870E07C0028207A54D068B11420DD
:102CD00000E0012000F092FB207A0028F9D162493F
:102CE000C8F8001089F800A08BE0607A50B1142079
:102CF00000E0012000F082FB607A0028F9D15A49F7
:102D0000494235E0A07A60B1142000E0012000F0D3
:102D100075FBA07A0028F9D10DE000BF89F800A06A
:102D20006CE0E07A58B1142000E0012000F066FB6E
:102D3000E07A0028F9D14D48C8F80000EEE7207B82
:102D400058B1142000E0012000F058FB207B00283F
:102D5000F9D189F800A046494EE0607B98B3142071
:102D600000E0012000F04AFB607B0028F9D14149D6
:102D7000C8F80010D2E748B1142000E0012000F0AC
:102D80003DFB207A0028F9D13B490AE0607A70B116
:102D9000142000E0012000F031FB607A0028F9D116
:102DA0003649C8F8001000BF89F800B026E0A07AC4
:102DB00050B1142000E0012000F020FBA07A002890
:102DC000F9D12F49EDE71FE0E07A40B1142000E08F
:102DD000012000F013FBE07A0028F9D123E0207BEA
:102DE000B0B1142000E0012000F008FB207B002897
:102DF000F9D1244989F800B0C8F80010142000F077
:102E0000FDFA286900F0B4FE052000F0F7FABEE6EE
:102E1000607B0028F8D0142000E0012000F0EEFADA
:102E2000607B0028F9D11848C8F80000BCE7000012
:102E300004000020C8B5FFFFA8010020A401002065
:102E40003C560020A00100209C010020D4FEFFFF82
:102E50009494FFFFC4010020B8010020701101000C
:102E60009B0100209A010020E0EDF5FF10EB090026
:102E7000782D0A00380E0A00C838FFFF78F2FEFFEE
:102E800030FEFEFF40A8FEFF28ACFEFF10B5FEF7A7
:102E900085FA01F05DF8012803D0BDE8104000F08C
:102EA000E9BF10BD30B593B030216846FDF705FB92
:102EB00014210CA8FDF701FB1E480025016841F014
:102EC00080510160006800F0805011901A4801683C
:102ED00041F4804101600068022400F480401190B8
:102EE00001200090000401908001CDE906401920E6
:102EF00008904FF4A870CDE9090404200B906846AF
:102F0000FEF7D6FB08B172B6FEE70CA90F2081E8E8
:102F100031004FF4A0500F904FF4805010900521D5
:102F20000CA8FEF7D9FA002801D072B6FEE713B05C
:102F300030BD000040380240007000400248016887
:102F400041F470010160704788ED00E010B5806BBE
:102F50000021C185C184FEF776FD10BD01680C31EA
:102F600051E8002F22F4907241E80023002BF5D1A4
:102F70000168143151E8002F22F0010241E80023DA
:102F8000002BF5D1016B012909D101680C3151E801
:102F9000002F22F0100241E80023002BF5D1202160
:102FA00080F83E1000210163704708B590F83E108C
:102FB000222901D0022008BD82684FF480539A4232
:102FC00001D1016921B1816A9A421BD04AB10AE05C
:102FD0000268816A5268C2F308020A80816A891C09
:102FE00008E0026972B10268526802F07F020A705A
:102FF000816A491C8162C18D491E0904090CC18581
:1030000003D019E002685268F1E70168CA6822F04B
:103010002002CA600168CA6822F48072CA6001682E
:103020004A6922F001024A61202180F83E10016BBA
:10303000012903D0FEF713FF002008BD0021016322
:1030400001680C3151E8002F22F0100241E8002302
:10305000002BF5D101680A68D20602D50A684968D2
:103060000091818DFEF7EEFCE6E7000070B50446A6
:1030700000680169E26821F440511143016121694E
:10308000A068E26908436169114308432168CA687E
:1030900049F20C639A430243CA6020684169A269FD
:1030A00021F440711143416131492068884202D0C6
:1030B0003049884202D1FEF7B9FA01E0FEF7A6FADC
:1030C000E2690023192164253226B2F5004F6268B7
:1030D00028D0A0FB0101930F9200FDF745F90146AE
:1030E000B0FBF5F06FF01802504301EB800006EBE7
:1030F0000010B0FBF5F000F0F002B1FBF5F002EBD0
:103100000012B1FBF5F06FF01803584301EB80009B
:1031100006EB0010B0FBF5F000F00F002168104442
:10312000886070BDA0FB010192185B41FDF71CF99E
:103130000146B0FBF5F00201B1FBF5F06FF01803AA
:10314000584301EB800006EBC000B0FBF5F000F047
:10315000F80002EB4002B1FBF5F0584301EB8000B0
:1031600006EBC000B0FBF5F000F00700D6E700006A
:10317000001001400014014081628285C285002157
:103180000164222280F83E2080F83C10016921B1C0
:103190000168CA6842F48072CA6001684A6942F0F4
:1031A00001024A610068C16841F02001C16000204D
:1031B00070472DE9F041984617460E460446069D95
:1031C00027E0681C25D02DB1FEF7E2F8A0EB08003F
:1031D000A8421ED920680C3050E8001F21F4D0719D
:1031E00040E80012002AF5D12068143050E8001F92
:1031F00021F0010140E80012002AF5D1202084F8D6
:103200003D0084F83E00002084F83C000320BDE827
:10321000F0812068006836EA000004D00020B8423F
:10322000CFD00020F3E70120F9E70000074810B5F0
:103230000078FFF7B5FB0648FEF706FCBDE8104036
:10324000012202490248FEF7F5BD000000000020FF
:10325000740400200148FEF7F7BB0000B80400200A
:103260000148FEF7F1BB0000FC040020FEE709075F
:10327000090E002804DB00F1E02080F800147047FC
:1032800000F00F0000F1E02080F8141D70472DEDD4
:10329000020B019820F0004001909DED000B02B060
:1032A0007047098849BA01808182704710B5B0F92A
:1032B000003003810A8852BA02804C88D31A64BA5B
:1032C00044808C88B3F5805F64BA84808979817189
:1032D000016901DD491E03E013F5805F01DA491C35
:1032E000016102EB4131828A891AC16010BD000080
:1032F000254C244FDFF89490002604F120054FF46C
:103300001678A07820B1012819D0022826D032E002
:103310006069B84201D166610DE00120A0701C49CE
:10332000002000BF45F82010401C0328FADB40466F
:1033300000F064F86761404600F060F81BE002208E
:10334000A0704046666100F059F8C5F8009040460C
:10335000C5F8089000F052F867610CE0A67040468E
:10336000666100F04BF800204FEA090145F8201093
:10337000401C0328FADB404600F040F8002000F033
:103380006BFCBEE7E0CFFAFF98010020701101004E
:1033900008D5FFFFFEF70AF8FFF784FDFEF7A8FE49
:1033A000FEF702FEFEF708FFFEF720FEFEF720FF05
:1033B000FEF73AFFFDF73AF9FDF7A8F90848FDF7DF
:1033C000C3F90848FDF7C0F9FFF704F801220649E0
:1033D0000648FEF72FFDFEF72BFE00F016F8FEE77D
:1033E000240400204C04002000000020740400206D
:1033F00001460020842900D0C81C704710B500B9D0
:10340000012000F08FFB002010BD10B500F0EEFB96
:10341000002010BD7FB50D4604464169B0F9080093
:1034200081B1A16971B1FFF7E3FFD4E905128DE81D
:103430000700D4E900102B46226900F05EFD0390DE
:1034400004B070BDFFF7D4FF03A9CDE90001208AC5
:103450002B4682B2D4E9001000F022FD012801D0F1
:103460000020EDE70398EBE72DE9F041184C0F46FB
:103470000546E6682068001D00F08CFA38B920681F
:1034800090F82C1001208840216981432161681C3B
:1034900007D137B12168BDE8F0410E48091D00F0A1
:1034A000BDBA20683544B5424560216805D2A06B9D
:1034B000BDE8F041091D00F099BA606B091D00F0EC
:1034C00095FAA06A854200D2A562BDE8F0810000AD
:1034D0003C0000201C0600202DE9F041054600F0CC
:1034E000A9FA2E4CA068401CA06020682C4F10B197
:1034F000606940B32DE02560A068012829D100262D
:1035000006EB860007EB800000F062FA761C072EBF
:10351000F6D323488C3000F05BFA2148A03000F04D
:1035200057FA1F48B43000F053FA1D48C83000F075
:103530004FFA1B48DC3000F04BFA19488C306063BE
:103540001430A06305E02068E96AC06A884200D8A8
:103550002560606A401C6062E96A01202269884037
:103560001043206101EB810007EB8000291D00F072
:1035700055FA00F07FFA606900280CD02068E96AEB
:10358000C06A884207D207494FF080500860BFF3F5
:103590004F8FBFF36F8FBDE8F08100003C0000202B
:1035A0004005002004ED00E010B5044690F85100FD
:1035B00058B101280CD002280FD0502080F3118878
:1035C000BFF34F8FBFF36F8FFEE7206B00F066FAFB
:1035D0002046BDE8104000F061BA10BD10484FF41D
:1035E0007051420706D0C01D0D4920F00700411A56
:1035F000C1F570510B4A00230144C2E900030839A8
:10360000183A21F0070111604B600B600B1AC0E9FA
:10361000001393604FF0004053605061704700000A
:103620003006002090000020144E154CA6F1C8076B
:103630004FF08058DFF84C9012E000BF00F0FAF92C
:10364000F068C568281D00F0A5F9A068401EA060BC
:103650006068401E606000F00DFA2846FFF7A4FF86
:1036600060680028EAD138680128F9D9C9F80080D3
:10367000BFF34F8FBFF36F8FF2E700000806002003
:103680003C00002004ED00E02DE9F0479A46DDE91A
:10369000098481466FF00303206B03EB8202104420
:1036A000089E20F00707780707D0502080F3118884
:1036B000BFF34F8FBFF36F8FFEE7002561B100208E
:1036C00023180A5C83F834200A5C12B1401C1028CD
:1036D000F6D384F8435001E084F83450072E00D329
:1036E0000626E662C4E91165201D00F07CF904F1AC
:1036F000180000F078F92461C6F107006462A06147
:10370000E56484F8505052464946384600F0DAF8ED
:103710002060B8F1000F01D0C8F80040BDE8F08784
:1037200030B5114900E011460A688242FBD34B686C
:103730005C18844203D140681844486008464368D6
:103740001C18944209D1084C183C2468A24209D0A4
:1037500052681A4442600A6812680260814200D0CE
:10376000086030BD0460F9E7900000200648416B16
:10377000096829B1416BC968C968496881627047A5
:103780004FF0FF31FAE700003C0000200848406895
:10379000401C4FF0500080F3118804D0BFF34F8FCE
:1037A000BFF36F8FFEE7BFF34F8FBFF36F8FFEE75F
:1037B00098000020002150B10A4B42699A420FD173
:1037C000806AA3F1280290420AD040B108E050205C
:1037D00080F31188BFF34F8FBFF36F8FFEE7012196
:1037E000084670471C0600202DE9F04105460027D9
:1037F00000F090FA324E306808B9FFF7EFFE7069BA
:1038000005424ED1C5B3083568070ED005F0070054
:10381000C0F108000544680707D0502080F31188E4
:10382000BFF34F8FBFF36F8FFEE72DB370688542F4
:1038300037D82348183001460C6801E020460C4672
:103840006168A94202D221680029F7D131688C420F
:1038500027D007682168016060680837411B10297C
:103860000FD96019420708D0502080F31188BFF3A8
:103870004F8FBFF36F8FFEE713E041606560FFF786
:103880004FFF61687068401A7060B268904200D261
:10389000B060706901430020C4E90001F068401C79
:1038A000F06000F0C9FB780707D0502080F3118842
:1038B000BFF34F8FBFF36F8FFEE73846BDE8F0814F
:1038C0007800002010B5031F4FF080741C601B1F90
:1038D00021F001011960191F044B0B6014390A60B3
:1038E000091F6FF0020244380A6010BD8D370008CE
:1038F000254C244FDFF89490002604F12C054FF45A
:103900001678E07820B1012819D0022826D032E0BC
:10391000A069B84201D1A6610DE00120E0701C4908
:10392000002000BF45F82010401C0328FADB404669
:10393000FFF764FDA7614046FFF760FD1BE0022032
:10394000E0704046A661FFF759FDC5F8009040467B
:10395000C5F80890FFF752FDA7610CE0E6704046FD
:10396000A661FFF74BFD00204FEA090145F8201042
:10397000401C0328FADB4046FFF740FD002000F022
:103980006BF9BEE72030050098010020701101009E
:1039900008D5FFFFD0E9013201699A60D0E901231F
:1039A0005A604A68824201D182684A6000220261FC
:1039B0000868401E0860086870470000034B0360F9
:1039C00003F154000860802010607047D00100208F
:1039D00000F108014FF0FF32C0E90112C16001613E
:1039E00000210160704700210161704730B50B680C
:1039F0005A1C02D000F1080202E0026904E02246EB
:103A0000546825689D42FAD953684B6099608A6072
:103A1000516008610168491C016030BD42684A601C
:103A200093688B6093685960916008610168491CD4
:103A300001607047502080F31188BFF34F8FBFF3B0
:103A40006F8F0A494868401C486001280CD108481B
:103A5000006810F0FF0F07D0502080F31188BFF3EB
:103A60004F8FBFF36F8FFEE7704700009800002074
:103A700004ED00E00849486828B1401E486001D1C3
:103A800080F311887047502080F31188BFF34F8F67
:103A9000BFF36F8FFEE700009800002070B500288C
:103AA0002AD0164DA0F1080460686969084207D160
:103AB000502080F31188BFF34F8FBFF36F8FFEE765
:103AC00022683AB1502080F31188BFF34F8FBFF3C3
:103AD0006F8FFEE78843606000F01CF960686968DA
:103AE000084468602046FFF71BFE2869401C2861D7
:103AF000BDE8704000F0A0BA70BD00007800002062
:103B00004FF0E02000210161816105494FF47A7294
:103B10000968B1FBF2F1491E41610721016170475B
:103B20003800002010B5020014D00F48006B38B1E7
:103B3000502080F31188BFF34F8FBFF36F8FFEE7E4
:103B400000F0E8F800211046FFF78EFC00F074FA50
:103B5000002807D105494FF080500860BFF34F8F10
:103B6000BFF36F8F10BD00003C00002004ED00E0AB
:103B700070B504002BD01A4D286884422FD0FFF76F
:103B800059FF2046FFF716FEE8B1201DFFF702FFA0
:103B9000E06A01212A69814011432961114900EB42
:103BA000800001EB8000211DFFF738FFE06A2968E3
:103BB000C96A884207D30C494FF080500860BFF3B0
:103BC0004F8FBFF36F8FBDE87040FFF753BF50209A
:103BD00080F31188BFF34F8FBFF36F8FFEE770BD87
:103BE0003C0000204005002004ED00E010B586B048
:103BF0000024039405AA04A903A80494FFF7DEFE99
:103C0000DDE903010094CDE9011000230EA1104865
:103C1000059A00F072F90F490028C86211D05020AF
:103C200080F31188BFF34F8FBFF36F8F4FF0FF30DA
:103C3000886201204861CC6006B0BDE8104000F009
:103C40009FB806B010BD000049444C45000000007C
:103C5000293600083C00002070B50446FFF7EAFE54
:103C6000294D04B92C68201DFFF794FE58B9E06A6D
:103C7000264A00EB800152F8211021B90121814030
:103C8000286988432861A06A18B104F11800FFF779
:103C900081FE1E48211DDC30FFF7C0FE94F8500065
:103CA0000026012801D184F85060FFF7E3FE68691F
:103CB00028B1FFF7BFFEFFF759FDFFF7DBFE2868CD
:103CC000844213D1686990B1286B38B1502080F3D9
:103CD0001188BFF34F8FBFF36F8FFEE70C494FF092
:103CE00080500860BFF34F8FBFF36F8F70BD0748E0
:103CF000DC300068A968884201D12E6070BDBDE843
:103D0000704000F00FB800003C000020400500208B
:103D100004ED00E00248016B491C0163704700009C
:103D20003C0000201448016B11B10121C1617047B2
:103D30000021C1610169B1FA81F1C1F11F0101EBFB
:103D400081020E4951F822306BB101EB820101F181
:103D500008034A6852684A609A4201D152684A6030
:103D6000D16801607047502080F31188BFF34F8FF6
:103D7000BFF36F8FFEE700003C00002040050020ED
:103D80001CB537480168374A914207D1502080F36B
:103D90001188BFF34F8FBFF36F8FFEE70068314983
:103DA000491E884207D1502080F31188BFF34F8FFE
:103DB000BFF36F8FFEE72C4908780190FF20087051
:103DC00008788DF800009DF800009DF8002000F0B4
:103DD000F000904207D0502080F31188BFF34F8F3E
:103DE000BFF36F8FFEE79DF80000204C00F05000FD
:103DF00020700720A06005E09DF8002052008DF89B
:103E00000020401E9DF800201206F5D4A060032873
:103E100007D0502080F31188BFF34F8FBFF36F8F0F
:103E2000FEE74FF44070A060019808700C48203005
:103E3000016841F470010160016841F07041016066
:103E4000FFF75EFE00206060FCF732FA0848016868
:103E500041F040410160FCF717FA00201CBD000052
:103E600000ED00E071C20F4100E400E09800002086
:103E700034EF00E010B5502080F31188BFF34F8F6E
:103E8000BFF36F8F00F072F818B104494FF0805003
:103E90000860002080F3118810BD000004ED00E0F0
:103EA0002DE9FF5F8346DDE90E87994616468A466F
:103EB0009000FFF799FC05001CD05420FFF794FCFC
:103EC000040014D00020256384F85100CDE902409D
:103ED000CDE900874B46324651465846FFF7D4FBA2
:103EE0002046FFF7F9FA012004B0BDE8F09F28460C
:103EF000FFF7D4FD4FF0FF30F6E7F0B585B0DDE910
:103F00000B640A9DA6B1DCB15427009726630226F4
:103F100084F85160002604AFCDE90246CDE9005790
:103F2000FFF7B2FB2046FFF7D7FA049805B0F0BDC3
:103F3000502080F31188BFF34F8FBFF36F8FFEE7E0
:103F4000502080F31188BFF34F8FBFF36F8FFEE7D0
:103F50000548416919B1006B18B100207047012074
:103F600070470220704700003C0000202DE9F0411E
:103F70002F4C0026206B28B1A069401CA061304660
:103F8000BDE8F081E5686D1CE56013D1606B0068E9
:103F900038B1502080F31188BFF34F8FBFF36F8F7C
:103FA000FEE7606BA16B6163A063206A401C206226
:103FB000FFF7DCFBA06ADFF87C80854209D3606BE9
:103FC0000068A0B1606BC068C7687868854211D28C
:103FD000A0622068C06A00EB800158F82100012827
:103FE00000D90126E0690028C9D00126C7E74FF0B3
:103FF000FF30EDE7381DFFF7CDFCB86A18B107F1C7
:104000001800FFF7C7FCF96A0120226988401043B5
:10401000206101EB810108EB8100391DFFF7FEFCF7
:10402000F86A2168C96A8842C9D30126C7E7000037
:104030003C000020400500202DE9F0472C4D0024D5
:104040002746286B38B1FFF7F5FC286B401E286324
:10405000286B40B146E0502080F31188BFF34F8FAA
:10406000BFF36F8FFEE7A968224E0120D1B3A6F1FE
:10407000B40980463068E8B1F068C46804F11800FB
:10408000FFF788FC201DFFF785FCE06A2A6908FA23
:1040900000F11143296100EB800109EB8100211D32
:1040A000FFF7BCFCE06A2968C96A8842E2D3C5F818
:1040B0001C80DFE70CB1FFF759FBAC6944B1464601
:1040C000FFF754FF00B1EE61641EF9D10020A86132
:1040D000E86938B10849012738070860BFF34F8FF6
:1040E000BFF36F8FFFF7C6FC3846BDE8F0870000CE
:1040F0003C000020F405002004ED00E0491058BF0A
:10410000C1F140415B1058BFC3F140438B42EFF314
:104110000080704710F0004248BF4042B0FA80F380
:1041200010FA03F10AD0C3F11D0303F580634FEACF
:10413000415002EB035202EBD12170474FF00000D7
:104140007047000051EA030C17D41CF5801F58BFBC
:10415000BCF5801F00F10680994218BF704708BF68
:104160009042704707D711F5801F58BF13F5801F85
:1041700019D499427047894270471CF5801F08D5B1
:10418000BCF5801FF7D58B4218BF704708BF82422D
:1041900070474FF4001C1CEB410F38BF1CEB430F62
:1041A00001D28B42704770B500F008F892244900A4
:1041B0004FF000514FF08053FFF7A0BF0EF1020EF9
:1041C0002EF0030E5EF8046B364205D4012A43EB51
:1041D000030515F5001F12D8012841EB010C1CF551
:1041E000001F0CD80ED14FEAD17C15F5001F0CEB47
:1041F0004C0C0CF1020C08BF4CEBD37C04E04FF0EC
:10420000080C01E04FEAD37C0CEB4C0526FA05F6CE
:1042100006F00706B6F1040C06D20EEB860CBDE8DC
:1042200070404CF0010C6047DFE80CF0090B020213
:104230004FF000414FF00000A1F5002170BD19467C
:104240001046012851EB010418BFD4F5001484BFB7
:10425000002001F0004170BD53EA010C17D41CF599
:10426000801F58BFBCF5801F00F106808B4218BF2D
:10427000704708BF8242704707D713F5801F58BFA9
:1042800011F5801F19D48B4270479B4270471CF573
:10429000801F08D5BCF5801FF7D5994218BF70471D
:1042A00008BF904270474FF4001C1CEB430F38BF0F
:1042B0001CEB410F01D2994270470FB40CBC03BCF8
:1042C000FFF771BF4FF04070E1EE100A7047000039
:1042D000D84300084D2B000800000000000000003B
:1042E000800000000000000000000000F043000813
:1042F000191F0008FDFF0000000000008000000002
:104300000000000000000000C84300084928000821
:10431000FDFF000000000000800000000000000021
:104320000000000008440008092B0008FDFF000001
:1043300000000000800000000000000000000000FD
:10434000E4430008D1070008FDFF00000000000062
:10435000800000000000000000000000FC43000896
:10436000C7070008FDFF00000000000080000000FB
:10437000000000000000000014440008F1320008B2
:10438000FDFF0000000000008000000000000000B1
:104390000000000020440008F1380008FDFF000084
:1043A000000000008000000000000000000000008D
:1043B00000000000000000000102030406070809D5
:1043C00000000000010203047069645F6361636CB4
:1043D000615F5461736B000064656661756C745451
:1043E00061736B00677261625F7461736B000000E0
:1043F0006C65645F7461736B0000000067696D62D7
:10440000616C5F7461736B0073686F6F745F74616C
:10441000736B00006C6566745F71766D69616F0027
:1044200072696768745F71766D69616F0000000082
:104430005044000800000020D0010000C401000822
:10444000D8440008D0010020E05A000020020008F3
:10445000012C32018210036124F41AAA01011243D3
:10446000803F4009CDCCCC3E6666664038089A99BC
:10447000993F9A99D918290C211B204120423D3C93
:10448000295C8F082938191459245E193F333333B6
:104490003C7AD918195019083A80182930FC33335E
:1044A000B330BCCDCC8C4869301CCDCC0C083AC0A4
:1044B00018192CB918A94889181A8C0C7A70A8E90F
:1044C00008A31FF1051090EEFEFF14A0860114F85A
:0844D0002401BC084C010C00A2
:040000050800018965
:00000001FF
