:020000040800F2
:10000000380600204D020008B1290008A92900087F
:10001000AD290008811600088D2E000800000000A0
:10002000000000000000000000000000B5290008EA
:100030008516000800000000B3290008B729000851
:1000400071020008710200087102000871020008C4
:1000500071020008710200087102000871020008B4
:1000600071020008710200087102000871020008A4
:100070007102000871020008710200087102000894
:100080007102000871020008710200087102000884
:100090007102000871020008710200087102000874
:1000A0007102000871020008710200087102000864
:1000B0007102000871020008710200087102000854
:1000C0007102000871020008710200087102000844
:1000D000710200083D2E000871020008710200083C
:1000E0007102000871020008710200087102000824
:1000F0007102000871020008710200087102000814
:100100007102000871020008710200087102000803
:1001100071020008710200087102000871020008F3
:1001200071020008710200087102000871020008E3
:1001300071020008710200087102000871020008D3
:1001400071020008710200087102000871020008C3
:1001500071020008710200087102000871020008B3
:1001600071020008710200087102000871020008A3
:10017000710200087102000871020008000000000E
:10018000710200087102000800F002F800F04FF858
:100190000AA090E8000C82448344AAF10107DA45E2
:1001A00001D100F044F8AFF2090EBAE80F0013F0E5
:1001B000010F18BFFB1A43F001031847E0F00000DD
:1001C00000F10000103A24BF78C878C1FAD852076D
:1001D00024BF30C830C144BF04680C6070470000C1
:1001E0000023002400250026103A28BF78C1FBD840
:1001F000520728BF30C148BF0B60704766290BF01B
:100200008281642900F0F080782900F029810020A3
:1002100070471FB50BF06DF900F0DCFC0400002006
:1002200000210AF059FBE0601FBD10B510BD00F0C1
:10023000F1FD1146FFF7EDFF09F0E4F900F00FFEC4
:1002400003B4FFF7F2FF03BC03F029FB0C4801687D
:1002500041F4700101600B4880470B480047FEE7FE
:10026000FEE7FEE7FEE7FEE7FEE7FEE7FEE7FEE766
:10027000FEE7000005480649044A064B70470000A7
:1002800088ED00E0C129000889010008380200203B
:100290003806002038020020704753EA020C00F0B4
:1002A00069802DE9F04B4FF00006002B1FBFB3FA19
:1002B00083F503FA05F424FA05F65E4012BF1643EF
:1002C000B2FA82F502FA05F4C5F120051EBF22FA42
:1002D00005FC44EA0C04203556EA044C4FEA144469
:1002E00018BF641C4FF000084FF00009904271EBFA
:1002F000030C39D3002919BFB1FA81F701FA07F6C7
:10030000B0FA80F700FA07F6C7F120071EBF20FAFF
:1003100007FC46EA0C062037B6FBF4FCA7EB050702
:10032000103F07F01F0BCBF120060CFA0BFB2CFA49
:1003300006F644BFB3460026202FA4BF5E464FF00A
:10034000000B5BEA060C08BF4FF0010B19EB0B0921
:10035000ABFB027C48EB0608C01B06FB02CC0BFB88
:1003600003CC71EB0C01C1E70B46024641464846FF
:10037000BDE8F08B13B54FF000004FF00001AFF374
:100380000080BDE81C40704710B54C1084EA53044F
:1003900004D54042C1F1000138BF491E1B4204D5BB
:1003A0005242C3F1000338BF5B1EFFF776FF14F023
:1003B000804F04D04042C1F1000138BF491E14F003
:1003C000004F04D05242C3F1000338BF5B1E10BD82
:1003D0000FB4044910B503AA029800F0C7FB10BC83
:1003E0005DF814FB080000202DE9F04106460024CA
:1003F00010687529314616A510D0AFF3008000288B
:1004000002DA404213A507E031688A0701D512A538
:1004100002E0490704D511A5012401E0AFF30080F3
:1004200000210A2206F1240709E0B0FBF2FCB0FB30
:10043000F2F302FB1C00303078541846491C0028A7
:10044000F3D123462A463046BDE8F04100F025B9F5
:10045000000000002D0000002B0000002000000024
:1004600070B504460D4621461068AFF30080218820
:10047000090502D50F4A7A4402E00E4A7A440E3248
:10048000002104F1240305E000F00F060009965D49
:100490005E54491C0028F7D120780023000704D5BA
:1004A000702D02D009B1022311322046BDE8704000
:1004B00000F0F3B870EC00002DE9F0474FF0000AAF
:1004C00089460446C0F820A02046E16888470028F5
:1004D00076D0252806D0D4E901219047206A401C17
:1004E0002062F1E7E168204600258847C4F81CA097
:1004F00006460027C4F818A02A2E09D0304603F07B
:10050000C7F938B304EB8708303EC8F8186019E023
:1005100059F8041B204604EB87029161E168884783
:10052000012F064618D1E069002820DA25F02005C1
:100530001DE0D8F8180000EB800006EB40003038D2
:10054000C8F818002046E1688847064603F0A0F97D
:100550000028EED1012F0AD02E2E08D12046E168C6
:1005600088477F1C0646022F45F02005C4DBA069A2
:10057000002803DA404245F00105A061E80701D0F8
:1005800025F01005B6B1A6F14100192802D8203691
:1005900045F400654A463146204625604D46FFF742
:1005A0002DFE58B1012806D0ED1D25F0070000F101
:1005B000080989E704E005F1040985E730468AE780
:1005C000206ABDE8F08740EA010310B59B070FD110
:1005D000042A0DD310C808C9121F9C42F8D020BAB3
:1005E00019BA884201D9012010BD4FF0FF3010BD6B
:1005F0001AB1D30703D0521C07E0002010BD10F839
:10060000013B11F8014B1B1B07D110F8013B11F8FE
:10061000014B1B1B01D1921EF1D1184610BD02F0F7
:10062000FF0343EA032242EA024200F0B3BA4FF06A
:10063000000200B5134694469646203922BFA0E832
:100640000C50A0E80C50B1F12001BFF4F7AF09073E
:1006500028BFA0E80C5048BF0CC05DF804EB89002F
:1006600028BF40F8042B08BF704748BF20F8022B72
:1006700011F0804F18BF00F8012B7047704770478A
:100680007047704710B500F0A9FA006810BD10B5AA
:10069000044600F0A3FA046010BD2DE9F0470D46B2
:1006A00099469246044600F124080168880604D55C
:1006B000E06921F01001216000E00120A84201DD85
:1006C000471B00E00027A1697A1902EB0900081A0C
:1006D000A0612078C00602D42046AFF30080002637
:1006E00008E0D4E901211AF806009047206A401C6E
:1006F000761C20624E45F4DB2078C0060AD52046E1
:10070000AFF3008006E0D4E9012130209047206A51
:10071000401C2062381EA7F10107F4DC07E0D4E991
:10072000012118F805009047206A401C2062281E0D
:10073000A5F10105F3DC2046AFF300802078000628
:1007400002D50220BDE8F0870120FBE770472DE9C4
:10075000FF4F0C461E464FF0FF378BB0D2E9000129
:10076000DDF860800A908A46C1F30A5505B93D4616
:10077000002108464FF00000BAF1000F00F44000DD
:1007800005DA00EB80004FF4400101EA50004FEA27
:100790009059B9F1010F00DDB9460A9850EA4A00B4
:1007A0000ED044F61050A5F2FF3545432F14B8F192
:1007B000000F1ED07542291E1EDDC9F100021CE08B
:1007C000B8F1010F4FF0000001D0302103E0F243F7
:1007D00005E02154401CB042FBDB304600220021E2
:1007E00021540B99C1F80880C1E900200FB0BDE881
:1007F000F08FBD1B6D1CDEE74A4600DA694206A891
:1008000000F08EFA06AB93E8070003AB83E807001D
:1008100050460A9900F06CFB8DE80700A0F50050E7
:100820001F3800900398002D0ADD42F21F014A464E
:100830000844002303A90390684600F0D5FD09E0B1
:10084000A0F500504A461F38002303A903906846CC
:1008500000F0DFFD8DE807000004000C03D04FF02E
:10086000FF30410800E01046B8F1000F03D000222D
:10087000009215461EE0751E05D400F0B3F9303223
:1008800062556D1EF9D5B3460122084302D00022FD
:100890007F1C04E02078302801D100227F1E002A2E
:1008A000099784D01DE0112D07DA00F09BF9303252
:1008B00062556D1C50EA0102F5D1084302D0009840
:1008C000C8B10EE00021681E05E0235C625C635441
:1008D0002254401E491C8142F7DBAB46A81B401E38
:1008E0000990002004F80B000B98099AC0F80880C2
:1008F000C0E9002B7AE711264FF0000857E72DE9F1
:10090000F04F88460446D21D22F0070191B0D1E98C
:100910000001CDE90A0102F0BBFA02460B98C00FB4
:1009200001D02D2007E02068810701D52B2002E0AF
:10093000202101EAC000032A099001D0072A05DB23
:1009400003464146204600F0ABF90BE120788006D3
:1009500001D5E06900E00620B8F1650F814606D0B8
:10096000B8F1660F18D0B8F1670F70D131E00020F0
:10097000B9F1110F009001DB112301E009F101032E
:100980000AAA01A90CA8FFF7E2FEDDE90C70002617
:1009900009F10105834647E001204B4600904FF0E6
:1009A00000470AAA01A90CA8FFF7D1FEDDE90DB0A6
:1009B0000C995D46002610B909F101000D18B9EB3C
:1009C000050003D4C0F1FF3609F10105A5EB0900CC
:1009D0002BE0B9F1010F01DA4FF001090020B9F164
:1009E000110F0090484601DD112300E003460AAADA
:1009F00001A90CA8FFF7ABFEDDE90C704D460026FF
:100A00008346207800070AD4AB4500DA5D4601A88A
:100A1000012D04DD411911F8011C302907D04F4583
:100A200002DA17F1040F04DA012082460FE06D1E8E
:100A3000EEE7002F02DCED1B3E4403E0781CA842E9
:100A400000DD7D1CB81B00F1010A4FF00047207843
:100A5000000703D4AA4501DB4FF0FF3A0021B7F1AC
:100A6000004F0DF143088DF8431024D002202B23B2
:100A7000002F01DA7F422D230A21021EA0F101007E
:100A800000DC5FB197FBF1FC97FBF1F201FB1C7CF2
:100A900017460CF1300C08F801CDEEE7A8F1010083
:100AA00003702188090501D5452100E06521A0F1E9
:100AB000010800F8011C09980FA9A1EB0807FF1D08
:100AC00000B10120411901EBEA70A1693844081A0C
:100AD000401EA0612078C00602D42046AFF30080FB
:100AE000099828B1D4E901219047206A401C20626E
:100AF0002078C00622D52046AFF300801EE0002EED
:100B000004DBB34502DD01A8805D00E03020D4E9BC
:100B100001219047206A401C2062761CAAF1010046
:100B20005FEA000A0AD100F055F8C0680168405C2D
:100B3000D4E901219047206A401C2062281EA5F1BB
:100B40000105DCDC07E0D4E9012118F8010B90472E
:100B5000206A401C2062381EA7F10107F3DC204602
:100B6000AFF30080032011B041E60000074B70B5E1
:100B70000D467B4400F081F80446284600F042F917
:100B800010B14FF0FF3070BD204670BDD34B000058
:100B90004FF000020429C0F0128010F0030C3FF463
:100BA00048ADCCF1040CBCF1020F18BF00F8012BCA
:100BB000A8BF20F8022BA1EB0C01FFF73ABD5FEABA
:100BC000C17C24BF00F8012B00F8012B48BF00F8BE
:100BD000012B704700487047F8010020004870471B
:100BE000D801002030B5B0F10A024FEA900E71F141
:100BF00000034EEA817EB0EB0E0061EB91014FEAFB
:100C0000101E4EEA017E10EB0E0041EB11114FEA6F
:100C1000102E4EEA016E10EB0E0041EB11214FEA4F
:100C2000104E4EEA014E10EB0E0041EB1141401800
:100C300041F100014FEAD00040EA41704FEAD10192
:100C400010EB80054FEA810444EA907444EB010400
:100C50006D1944EB0404521BA3414FF0000348BF3D
:100C60000A3200D530BD401C41F1000130BD00000A
:100C700001694A1C02610878704700B58FB0CDE960
:100C800001310021059105497944CDE90310114650
:100C90006846FFF711FC0FB000BD0000E5FFFFFF45
:100CA0002DE9F0411F46044603260168072A01F496
:100CB000006004DB08B116A505E016A503E008B145
:100CC00015A500E015A521F010002060A069C01E48
:100CD000A0610FB1401EA0612046AFF300804FB16C
:100CE000D4E9012138469047206A401C2062C01C8C
:100CF000206206E0206AFAE7D4E9012115F8010B29
:100D00009047761EF8D22046AFF30080BDE8F08110
:100D10004E414E006E616E00494E4600696E66009F
:100D20002DE9F047814616468AB0354878440DC80B
:100D30008DE80D0032487844801C03AC0DC884E86F
:100D40000D0041F69B300844372190FBF1F290FBF7
:100D5000F1F5A5F1800501FB12041B3C02D56442AC
:100D6000012000E00020DFF898A080460027FA4428
:100D7000AAF1BE0A0EE0E0070AD03246684607EB49
:100D8000470101230AEB810100F043FB8DE80700D6
:100D900064107F1C002CEED1194F7F44AE3F19E048
:100DA000E80715D007EB04100DF1180A90E80E00C3
:100DB0008AE80E00C068F04201D1981908903246C6
:100DC000012306A903A800F024FB03AB83E8070076
:100DD0006D10641C002DE3D14FF0010332466946CB
:100DE000B8F1000F03A802D000F0FEFA01E000F015
:100DF00010FBC9E90001C9F808200AB0BDE8F08776
:100E000054E50000007B00F0800070470048704708
:100E1000D80100207546FFF7F9FFAE460500694688
:100E2000534620F00700854618B020B5FFF722FA98
:100E3000BDE820404FF000064FF000074FF00008DB
:100E40004FF0000B21F00701AC46ACE8C009ACE85C
:100E5000C009ACE8C009ACE8C0098D46704710B5C0
:100E60000446AFF300802046BDE81040FFF7E8B924
:100E70004FF0013C50F8042B51F8043B9A4221D129
:100E8000A2EB0C03934313EACC1317D150F8042BB5
:100E900051F8043B9A4215D1A2EB0C03934313EA99
:100EA000CC130BD150F8042B51F8043B9A4209D1D2
:100EB000A2EB0C03934313EACC13DBD04FF00000FA
:100EC000704700BFD01A01BAB1FA81F101F01801E0
:100ED00022FA01F0CB40C1F12001DBB2C0B2C01A4E
:100EE0002CFA01F3D11A914311EAC311E6D17047EC
:100EF0005FEA400C08BF91F0000F4FEA8C234FEAE5
:100F0000C12243EA51514FEA1C5018BF00F5F0408E
:100F10004FEA300018BF41F000415FEA6C5C00F01E
:100F20002980BCF1FF3F08BF40F080407047130CA0
:100F300006BF12044FF0100C4FF0000C130E04BF4C
:100F400012020CF1080C130F04BF12010CF1040C77
:100F5000930F04BF92000CF1020CD30F04BF520098
:100F60000CF1010C11464FF00002A0F11F00A0EBA4
:100F70000C00704711F0004F08BF704731F000417E
:100F80003FF4D5AF0B0C06BF09044FF0100C4FF027
:100F9000000C0B0E04BF09020CF1080C0B0F04BF70
:100FA00009010CF1040C8B0F04BF89000CF1020C39
:100FB000CB0F04BF49000CF1010CCCF12003A0EBD6
:100FC0000C0022FA03F302FA0CF241EA030100F1E9
:100FD0000100704720F07F4C80EA030023F07F4738
:100FE000ACEB070303F57C5300F0004003F1FF0373
:100FF0002DE980494FEA154B09B44FEA144325EA1D
:101000000B4E24EA03480FF2042606EB1327490887
:101010003E785FEA320203FB0667C7F5000707FB6D
:1010200006F64FEA54374FEAD64606F1020607FBAA
:10103000066CCCF1005C4FEA1C472CEA074C07FB1E
:1010400006F40CFB06F504EB15464FEA961634BF82
:1010500000204FF000404FEAD13706FB07FC4FEA73
:101060001C4C0CFB0BF7D21B03FB0CF761EB0701CD
:101070000CFB0EF7B0EB074072EB17420CFB08F7C6
:1010800034BFA2EB0742B2EB074261EB17414FEAD4
:101090000C444FEA910706FB07FC4FEA1C4C0CFB83
:1010A0000BF7B0EBC74072EB573203FB0CF734BFC2
:1010B000A2EBC742B2EBC74261EB57310CFB0EF714
:1010C000B0EBC70072EB57720CFB08F734BFA2EB12
:1010D000C702B2EBC70261EB5771039F4FEA816110
:1010E00041EA921104EBCC044FEAD1374FEA826215
:1010F00006FB07FC42EA90124FEA80604FEA1C4C64
:101100000CFB0BF7D21B03FB0CF761EB07010CFB8D
:101110000EF7B0EB074072EB17420CFB08F734BF39
:10112000A2EB0742B2EB074261EB17414FEA8C5545
:101130004FEA910704EB9C2406FB07FC4FEA1C4C8A
:101140000CFB0BF7B0EBC74072EB573203FB0CF70D
:1011500034BFA2EBC742B2EBC74261EB57310CFB85
:101160000EF7B0EBC70072EB57720CFB08F734BFF9
:10117000A2EBC702B2EBC70261EB577115EB4C252E
:101180004FEA816141EA92114FEA82624FEAD13718
:1011900042EA901206FB07FC44F100044FEA80602B
:1011A0004FEA1C4C0CFB0BF7D21B03FB0CF761EB5B
:1011B00007010CFB0EF7B0EB074072EB17420CFB7C
:1011C00008F734BFA2EB0742B2EB074261EB1741CD
:1011D00015EB1C154FEA813141EA92414FEA823208
:1011E00042EA90424FEA80304FEA0C7644F1000424
:1011F00048EA03434EEA0B484FF0000EB2EB080CEE
:1012000071EB030724BF624639464EEB0E0E4FF0DA
:10121000000B0018524149414BEB0B0BB2EB080C91
:1012200071EB03077BF1000B24BF624639464EEB9E
:101230000E0E4FF0000B0018524149414BEB0B0BC7
:10124000B2EB080C71EB03077BF1000B24BF624685
:1012500039464EEB0E0E51EA020718BF46F0010662
:1012600016EB0E7655F1000254F1000103D5BDE8EE
:101270008901BDE80088BDE88901BDE80048B619CC
:10128000524141EB0101A3F10103704780807F7E51
:101290007D7C7B7A797877767675747372717170EC
:1012A0006F6E6E6D6C6C6B6A6A696868676666659E
:1012B0006464636362616160605F5F5E5E5D5D5C2C
:1012C0005C5B5B5A5A59595858575756565555559D
:1012D0005454535352525251515050504F4F4F4EFD
:1012E0004E4D4D4D4C4C4C4B4B4B4A4A4A4949494B
:1012F000484848474747474646464545454444448D
:10130000444343434342424242414141002B9C46B5
:1013100030D477002BD01CB54FEA370703B44FF019
:1013200010004FF01001BAF1000F06D0BCF1000F11
:10133000DCBF40F0080040F008014FF000000FBC97
:10134000BDE810400BF1010BBBF1010F08BF5FEAD4
:10135000170722BF12F1010211F101014FF0004104
:1013600043F1000300F0004043EA00007047F9D366
:101370005708D0E746EA064613F1400F4FEA1646F3
:101380001FDD13F1200FDFBF16430A460021203373
:101390005B42BED0C3F1200746EA064602FA07F7D1
:1013A0004FEA164646EA0706C3F1200722FA03F27F
:1013B00001FA07F721FA03F14FF0000342EA0702AE
:1013C000A7E746EA020646EA06464FEA164646EA16
:1013D0000106BCBF46EA0646360C4FF000034FF04C
:1013E00000024FF0000194E72DE9804C9A469346A5
:1013F00070B491E8380007C831EA400C48BF34EABD
:10140000430C03D5FFF7E6FDFFF780FFF0BCBDE816
:10141000008C2DE9804C9A46934670B491E83800D0
:1014200007C810F0804F08BF13F0804F03D100F0C1
:1014300005F8FFF76BFFF0BCBDE8008C20F07F479C
:1014400080EA030023F07F4C07EB0C03A3F57C53E9
:1014500000F00040A3F1FE0392F0000F00F0B38013
:1014600095F0000F00F077802DE901494FEA114017
:101470004FEA144621EA004800FB06FC24EA06472E
:1014800008FB06F607FB08F800FB07F718EB064811
:101490004CEB164C4FEA124B18EB07484FEA154637
:1014A0004CEB174022EA0B4E0BFB06FC25EA0647E5
:1014B0000EFB06F607FB0EFE0BFB07F71EEB064EB8
:1014C0004CEB164C4FF000061EEB074E4CEB174B47
:1014D00018EB0B0840F1000018EB0E0B58EB00085E
:1014E00040F100008F1A4FF000013CBFC943661B5A
:1014F00014BFB5EB040C00213CBFC943F61B4FEAF7
:1015000017444EEA8E0E27EA04454FEA1C4704FBB7
:1015100007622CEA074C05FB07F70CFB05F604FBFA
:101520000CFC16EB074642EB174216EB0C4642EB5F
:101530001C421BEB060658EB0202414146EA9E069E
:1015400001D5BDE80189B619524141EB0101A3F172
:101550000103BDE801894FEA14454FEA114724EA27
:10156000054621EA074C05FB07F406FB07F70CFBD1
:1015700006F105FB0CFC11EB074144EB17444FEA65
:10158000124711EB0C4144EB1C4422EA074C05FBCB
:1015900007F206FB07F70CFB06F605FB0CFC16EB47
:1015A000074642EB174216EB0C4642EB1C456A1805
:1015B00054F1000148BF7047B619524141EB010197
:1015C000A3F10103704795F0000F37D04FEA1142A5
:1015D0004FEA144721EA024624EA074C02FB07F1CE
:1015E00006FB07F70CFB06F402FB0CFC14EB0744AC
:1015F00041EB17414FEA154714EB0C4441EB1C41FA
:1016000025EA074C02FB07F506FB07F70CFB06F67D
:1016100002FB0CFC16EB074645EB174516EB0C4698
:1016200045EB1C42121951F1000148BF7047B61931
:10163000524141EB0101A3F1010370474FEA144508
:101640004FEA114724EA054621EA074C05FB07F15A
:1016500006FB07F70CFB06F24FF0000605FB0CFC3F
:1016600012EB074241EB174112EB0C4251EB1C41CC
:1016700048BF7047921841EB0101A3F10103704785
:1016800000BFFEE77047000070B504461D4600230A
:10169000B5F5804F13D154F822300C480340D1E9FE
:1016A000000640EA06108E6840EA06208E8940EA6D
:1016B00006408E693043034344F8223003E06FF064
:1016C000704044F82200002070BD00000000F0CF00
:1016D00010B503460022086853F820201248024043
:1016E000D1E901042043CC6820430C6920434C69B4
:1016F00020438C692043CC6920430C6A20434C6A08
:1017000020438C6A2043CC6A2043CC6B20430C6B73
:10171000204302438868082801D142F0400208684B
:1017200043F82020002010BD8000F0FF30B50346B4
:101730000024501C53F8204004F04044D1E9000537
:1017400040EA05108D6840EA05208D8940EA05458C
:10175000088A401E45EA0055087D801E45EA006063
:101760008D6928430443501C43F82040002030BDBD
:1017700070B50446A56D00F085F9064694F835006D
:10178000022808D08020606500BF002084F8340063
:1017900000BF012070BD2068006820F0160021689D
:1017A00008602068406920F0800021684861206C52
:1017B00008B9A06C28B12068006820F008002168F2
:1017C00008602068006820F00100216808600FE0D0
:1017D00000F058F9801B05280AD92020606500BF59
:1017E000002084F8340000BF032084F83500D1E7DE
:1017F0002068006800F001000028E9D194F85C102E
:101800003F208840A86000BF002084F8340000BF5B
:10181000012084F835000020BCE7014691F835002E
:10182000022803D08020486501207047052081F8F8
:1018300035000868006820F001000A681060002088
:10184000F3E70000F8B502460B460025002400200F
:101850000021DEE0012606FA01F51E6806EA05040D
:10186000AC4275D11E7906F00306012E04D01E7914
:1018700006F00306022E13D190684F000326BE40E7
:10188000B0434F00DE68BE40304390605068012690
:101890008E40B0431E79C6F300168E403043506030
:1018A0001E7906F00306032E09D0D0684F000326E8
:1018B000BE40B0434F009E68BE403043D0601E79AA
:1018C00006F00306022E13D1CF0802F1200656F8C7
:1018D00027004E07F70E0F26BE40B0434F07FF0EFE
:1018E0001E69BE403043CF0802F1200646F82700AB
:1018F00010684F000326BE40B0431E7906F0030671
:101900004F00BE40304310605E6806F08056B6F16E
:10191000805F7DD100BF00260096404E366846F4B9
:1019200080463E4F3E603E46366806F4804600964E
:1019300000BF00BF3A4E8F0856F827008E07370FBA
:101940000F26BE40B043374EB24202D1002624E0FB
:101950005EE0354EB24201D101261EE0334EB24266
:1019600001D1022619E0324EB24201D1032614E021
:10197000304EB24201D104260FE02F4EB24201D1C7
:1019800005260AE02D4EB24201D1062605E02C4E76
:10199000B24201D1072600E008268F073F0FBE4064
:1019A00030431F4E8F0846F82700264E3068A0436C
:1019B0005E6806F48036B6F5803F00D12043214EA4
:1019C0003060361D3068A0435E6806F40036B6F518
:1019D000003F00D120431B4E361D3060361D30685D
:1019E000A0435E6806F48016B6F5801F00D1204340
:1019F000144E08363060361D3068A0435E6806F429
:101A00000016B6F5001F00D120430E4E0C36306094
:101A1000491C1029FFF41EAFF8BD000044380240F5
:101A20000838014000000240000402400008024063
:101A3000000C024000100240001402400018024056
:101A4000001C0240003C0140024613690B400BB1F0
:101A5000012000E00020704710B5426921EA02032E
:101A600002EA010443EA0443836110BD0AB18161C3
:101A700001E00B048361704701480068000C704767
:101A8000002004E0014800687047000010000020BA
:101A90000348006803490978084401490860704711
:101AA000100000201800002010B50A48006840F41B
:101AB0000070084908600846006840F480600860CB
:101AC000032000F07FF80F2000F006F800F02AF85D
:101AD000002010BD003C024070B504460E4800785E
:101AE0004FF47A71B1FBF0F00C490968B1FBF0F5E5
:101AF000284600F09BFC08B1012070BD102C07D2D5
:101B000000222146501E00F01EF80548046001E046
:101B10000120F2E70020F0E718000020000000207C
:101B200014000020704701460846002809DB00F039
:101B30001F0301229A4043099B0003F1E023C3F8ED
:101B4000002100BF70472DE9F05F80460D46164624
:101B5000002701F0B5F9074639462A46334601F019
:101B60000700C0F1070ABAF1040F02D94FF0040AC6
:101B700001E0C0F1070AD14600F1040ABAF1070FEB
:101B800002D24FF0000A01E0A0F1030AD4464FF060
:101B9000010A0AFA09FAAAF1010A0AEA020A0AFA89
:101BA0000CFA4FF0010B0BFA0CFBABF1010B0BEA3B
:101BB000030B4AEA0B042146404601F089F9BDE8CF
:101BC000F09F000000BF00F00702064B19684FF6B7
:101BD000FF031940044B0B4343EA0221014B1960F8
:101BE00000BF70470CED00E00000FA0570B5044638
:101BF0000D460CB9012070BD5848006800F0070080
:101C0000A84209D255490D700846006800F0070047
:101C1000A84201D00120EEE7207800F0020002285F
:101C20001DD1207800F00400042805D14C4800683C
:101C300040F4E0504A490860207800F00800082885
:101C400005D14748006840F4604045490860444871
:101C5000006820F0F000A16808434149086020783E
:101C600000F00100A8B36068012807D13C4808389B
:101C70000068C0F34040B8B90120BCE760680228A2
:101C800002D06068032807D1354808380068C0F3DF
:101C9000406048B90120AEE7314808380068C0F319
:101CA000400008B90120A6E72D48006820F0030095
:101CB000616808432A490860FFF7E4FE064609E028
:101CC000FFF7E0FE801B41F28831884202D90320F1
:101CD00091E707E02248006800F00C006168B0EB73
:101CE000810FEDD11D48006800F00700A84209D916
:101CF0001A490D700846006800F00700A84201D09C
:101D0000012078E7207800F00400042807D1144867
:101D1000006820F4E050E168084311490860207829
:101D200000F00800082808D10D48006820F4604041
:101D3000216940EAC1000A49086000F03FF80849FB
:101D40000968C1F30311074A515CC840064908609D
:101D500006480068FFF7C0FE00204CE7003C024048
:101D6000083802400AB500080000002014000020D6
:101D700001480068704700000000002000B5FFF730
:101D8000F7FF04490968C1F38221034A515CC84046
:101D900000BD0000083802401AB5000800B5FFF782
:101DA000E7FF04490968C1F34231034A515CC84066
:101DB00000BD0000083802401AB500082DE9F047C0
:101DC000002400250026A1462548006800F00C00EC
:101DD00020B1042805D008283AD105E0DFF8849026
:101DE00039E0DFF8849036E01D48001F006800F0FD
:101DF0003F041B48001F006800F4800078B11A48B7
:101E00001749091F0968C1F38811A0FB0170014639
:101E1000224600233846FEF740FA05460EE01148F8
:101E20000F49091F0968C1F38811A0FB0170014621
:101E3000224600233846FEF730FA05460848001FC0
:101E40000068C0F30140401C4600B5FBF6F902E013
:101E5000DFF8109000BF00BF4846BDE8F0870000E3
:101E6000083802400024F40000127A00F8B5044655
:101E70000CB90120F8BD207800F00100002874D0D2
:101E8000F948006800F00C0004280DD0F6480068FE
:101E900000F00C00082813D1F348001F006800F47C
:101EA0008000B0F5800F0BD1EF4808380068C0F310
:101EB0004040002859D06068002856D10120D9E759
:101EC00000BF6068B0F5803F08D1E7480838006877
:101ED00040F48030E449083908601EE06068B0F5DD
:101EE000A02F0DD1E0480838006840F48020DE497A
:101EF000083908600846006840F4803008600CE04B
:101F0000D9480838006820F48030D749083908607B
:101F10000846006820F48020086000BF606890B127
:101F2000FFF7B0FD054606E0FFF7ACFD401B642857
:101F300001D903209EE7CC4808380068C0F3404030
:101F40000028F1D011E0FFF79DFD054606E0FFF700
:101F500099FD401B642801D903208BE7C24808384B
:101F60000068C0F340400028F1D1207800F0020062
:101F700002285FD1BC48006800F00C0058B1BA4894
:101F8000006800F00C0008281CD1B748001F00684A
:101F900000F48000B0B9B44808380068C0F34000CD
:101FA00020B1E068012801D0012063E7AE4808387D
:101FB000006820F0F800216940EAC100AA49083908
:101FC000086037E0E06800B30120A8490860FFF727
:101FD00059FD054606E0FFF755FD401B022801D9D3
:101FE000032047E7A04808380068C0F340000028F5
:101FF000F1D09D480838006820F0F800216940EAD7
:10200000C10099490839086014E000209749086028
:10201000FFF738FD054606E0FFF734FD401B0228B8
:1020200001D9032026E7904808380068C0F3400033
:102030000028F1D1207800F0080008282CD1606930
:10204000A8B101208A490860FFF71CFD054606E09B
:10205000FFF718FD401B022801D903200AE7824838
:102060006C300068C0F340000028F1D014E000207C
:102070007F490860FFF706FD054606E0FFF702FD11
:10208000401B022801D90320F4E677486C30006831
:10209000C0F340000028F1D1207800F004000428AB
:1020A00070D1002770483830006800F0805090B937
:1020B00000BF002000906C483830006840F080502D
:1020C0006949383108600846006800F08050009087
:1020D00000BF00BF01276748006800F48070B0B9F6
:1020E0006448006840F4807062490860FFF7CAFCE9
:1020F000054606E0FFF7C6FC401B022801D9032075
:10210000B8E65C48006800F480700028F2D000BF98
:10211000A068012808D154486830006840F00100E8
:102120005149683108601DE0A06805280DD14E486E
:102130006830006840F004004B4968310860084688
:10214000006840F0010008600CE047486830006813
:1021500020F001004449683108600846006820F01A
:102160000400086000BFA068A8B1FFF78BFC05461B
:1021700009E0FFF787FC401B41F28831884202D911
:10218000032077E626E0384868300068C0F3400056
:102190000028EED013E0FFF775FC054608E0FFF7D6
:1021A00071FC401B41F28831884201D9032061E66D
:1021B0002D4868300068C0F340000028EFD1012F9F
:1021C00007D129483830006820F08050264938313E
:1021D000086000BFA069002845D02348006800F0CF
:1021E0000C0008285DD0A069022845D100201F49B5
:1021F0000866FFF747FC054606E0FFF743FC401B77
:10220000022801D9032035E6174808380068C0F3D2
:1022100040600028F1D1D4E907010843616A40EA2F
:1022200081110122A06AC2EB500041EA00412C203A
:10223000005D41EA00600C49091F086001200B495C
:102240000866FFF71FFC054606E0FFF71BFC401B76
:10225000022801D903200DE6034808380068C0F3BE
:1022600040600028F1D049E00838024000004742B1
:10227000800E474200700040002021490866FFF7A9
:1022800001FC054606E0FFF7FDFB401B022801D9D3
:102290000320EFE51B480068C0F340600028F2D13E
:1022A0002CE0A069012800D1E4E51648001D06686D
:1022B000A069012820D006F48001E06981421BD189
:1022C00006F03F01206A814216D147F6C0703040C7
:1022D000616AB0EB811F0FD106F440310122A06A80
:1022E000C2EB5000B1EB004F06D106F070612C201C
:1022F000005DB1EB006F01D00120BBE50020B9E526
:10230000000047420038024070B504460E461546AC
:102310000CB9012070BD94F8490028B9002084F858
:102320004800204600F01CF804F108012068FFF77F
:10233000CFF93146A2682068FFF7F8F92946236BE8
:10234000D4E90102FFF7A0F9A168206850F8210044
:1023500040F00100A268216841F822000020D9E77E
:1023600010B586B0044600BF0020009022480068E7
:1023700040F00100204908600846006800F00100B4
:10238000009000BF00BF00BF002000901A4808382E
:10239000006840F0080018490839086008460068DD
:1023A00000F00800009000BF00BF00BF00200090B8
:1023B0000846006840F0100008600846006800F019
:1023C0001000009000BF00BF4CF20370019002208B
:1023D000029001200390022004900C20059001A996
:1023E0000648FFF72FFA4FF68070019001A90448C4
:1023F000FFF728FA06B010BD38380240000C024042
:1024000000100240042808D14FF0E021096941F092
:1024100004014FF0E022116107E04FF0E02109696B
:1024200021F004014FF0E0221161704770B50446BD
:102430002546681EB0F1807F01D301200FE0681EA1
:102440004FF0E02148610F214FF0FF3000F040FDD8
:1024500000204FF0E021886107200861002070BD56
:102460007047704701460022002391F83D2091F803
:102470003E3042EA030070472DE9F84F04462068D9
:1024800005682068C668206847694FF00009CA4699
:1024900005F00F09B9F1000F0AD105F0200038B19D
:1024A00006F0200020B1204600F0C9FABDE8F88F00
:1024B000B9F1000F72D007F0010018B906F490705E
:1024C00000286BD005F0010030B106F4807018B11F
:1024D000206C40F00100206405F0040030B107F0EA
:1024E000010018B1206C40F00200206405F00200E9
:1024F00030B107F0010018B1206C40F004002064F6
:1025000005F0080048B106F0200010B907F00100FE
:1025100018B1206C40F008002064206C70B305F006
:10252000200028B106F0200010B1204600F087FA04
:1025300020684069C0F3801A206C00F0080010B9D0
:10254000BAF1000F23D0204600F04EFA206840690F
:1025500000F04000402816D12068406920F040007B
:1025600021684861A06B50B15648A16B0865A06B0B
:10257000FFF753F910B1A06B016D88470CE02046BE
:10258000FFF76FFF08E02046FFF76BFF04E02046EF
:10259000FFF767FF0020206488E7FFE7206B012832
:1025A00079D105F01000002875D006F01000002841
:1025B00071D000BF00200090206800680090206863
:1025C0004068009000BF00BF2068406900F04000F4
:1025D000402839D1A06B006840681FFA80F8B8F134
:1025E000000F30D0A08D40452DDDA4F82E80A06BCB
:1025F000C069B0F5807F1FD02068C06820F480706B
:102600002168C8602068406920F0010021684861A5
:102610002068406920F0400021684861202084F84B
:102620003E00002020632068C06820F01000216870
:10263000C860A06BFFF79CF8A08DE28D801A81B274
:102640002046FFF70DFF31E7A08DE18D401A1FFAFC
:1026500080F8E08DE8B1B8F1000F1AD02068C068AA
:1026600020F490702168C8602068406920F0010063
:1026700021684861202084F83E0000202063206803
:10268000C06820F010002168C86041462046FFF76E
:10269000E7FE0BE7FFE705F0800030B106F08000B1
:1026A00018B1204600F063FB00E705F0400030B1B0
:1026B00006F0400018B1204600F0B1F9F6E600BF80
:1026C000F4E60000D529000810B504460CB9012035
:1026D00010BDA06900B100E000BF94F83D0028B92A
:1026E000002084F83C00204600F028F8242084F8DC
:1026F0003D002068C06820F400502168C860204672
:1027000000F0FCF92068006920F49040216808611D
:102710002068406920F02A00216848612068C0686C
:1027200040F400502168C86000202064202084F814
:102730003D0084F83E000020CAE7000010B586B0D6
:1027400004462E492068884255D100BF00BF0020B2
:1027500000902B48006840F01000294908600846A6
:10276000006800F01000009000BF00BF00BF00BF75
:1027700000BF0020009022481438006840F001009B
:102780001F49143908600846006800F001000090F5
:1027900000BF00BF00BF00BF00BF00200090084680
:1027A000006840F0010008600846006800F0010081
:1027B000009000BF00BF00BF4815019002200290AA
:1027C00001200390022004900720059001A90D48E4
:1027D000FFF738F84FF4806001900720059001A9B9
:1027E0000848FFF72FF82520FFF79DF9032211462F
:1027F0002520FFF7A8F906B010BD00000010014029
:10280000443802400000024070B504460D461646AA
:1028100094F83E00202816D105B10EB9012070BDF4
:1028200000BF94F83C00012801D10220F7E7012005
:1028300084F83C0000BF0020206332462946204631
:1028400000F072FAEBE70220E9E700001D4A016898
:10285000914236D11C49098801F4004189BB1A49CB
:10286000098801F4804171B1184909780A2903D017
:102870000021154A118024E01349098841F40041E0
:10288000114A11801DE0114909780D2906D10E4920
:10289000098841F480410C4A118012E00B49097803
:1028A000094A1288C2F30D02094B99540649098856
:1028B000491C054A118011460988C72901DD0021FC
:1028C00011807047001001400C0000200E00002015
:1028D0005C0000202DE9F84F04460E461746994645
:1028E0004FF0000A94F83D0020285AD106B117B9DC
:1028F0000120BDE8F88F00BF94F83C00012801D109
:102900000220F6E7012084F83C0000BF002020648C
:10291000212084F83D00FFF7B5F88246A784E784BC
:10292000A068B0F5805F04D1206910B90025B046D9
:1029300002E035464FF0000800BF002084F83C005C
:1029400000BF1BE05346002280212046CDF80090B6
:1029500000F03DFA08B10320CBE745B9B8F8000014
:10296000C0F308002168486008F1020803E02878F5
:10297000216848606D1CE08C401EE084E08C0028DB
:10298000E0D15346002240212046CDF8009000F0CF
:102990001EFA08B10320ACE7202084F83D00002097
:1029A000A7E70220A5E7704700BFFEE700BFFEE7EC
:1029B00070477047704710B5FFF76AF810BD000008
:1029C0000348006840F47000014908607047000047
:1029D00088ED00E070B50546AC6B0020E085E08432
:1029E0002046FFF73EFD70BD0168C96821F4907173
:1029F0000268D1600168496921F0010102685161F2
:102A0000016B012905D10168C96821F01001026834
:102A1000D160202180F83E1000210163704710B57D
:102A200004462068C06820F040002168C86020206B
:102A300084F83D002046FFF7B6FF002010BD70B5BA
:102A4000044694F83E00222856D1A068B0F5805F75
:102A50000CD1206950B90025A66A20684068C0F3EF
:102A600008003080A06A801CA06215E0A56A0026DC
:102A7000A068B0F5805F03D0A06828B9206918B9B4
:102A800020684068287004E02068406800F07F00FB
:102A90002870A06A401CA062E08D401E80B2E085D4
:102AA00040BB2068C06820F020002168C860206812
:102AB000C06820F480702168C8602068406920F0F8
:102AC000010021684861202084F83E00206B012825
:102AD0000AD12068C06820F010002168C860A18D6C
:102AE0002046FFF7BDFC02E02046FFF7AFFE0020C6
:102AF000206370BD0020FCE70220FAE72DE9F84FC3
:102B000004462068006920F44050E16808432168C9
:102B100008612169A068084361690843E1690843C5
:102B200000902068C06849F20C618843009908430E
:102B30002168C8602068406920F44070A16908439A
:102B40002168486176492068884203D07549206829
:102B5000884203D1FFF722F9814602E0FFF70EF920
:102B60008146E069B0F5004F6CD102206168A0FB9E
:102B7000015003461920A9FB007001462A46384639
:102B8000FDF78BFB6421B0FBF1F04FEA001A022045
:102B90006168A0FB01510B461920A9FB00712A4670
:102BA0003846FDF77AFB834602206168A0FB01509E
:102BB00003461920A9FB00712A463846FDF76DFB34
:102BC0006421B0FBF1F000EBC00101EB0010ABEBB6
:102BD0008000322101EBC0006421B0FBF1F000F075
:102BE000F8000AEB400A02206168A0FB015003468E
:102BF0001920A9FB007001462A463846FDF74DFB17
:102C0000834602206168A0FB015003461920A9FBFE
:102C100000712A463846FDF740FB6421B0FBF1F015
:102C200000EBC00101EB0010ABEB8000322101EBA7
:102C3000C0006421B0FBF1F000F0070050442168AF
:102C400088606AE004206168A0FB015003461920F7
:102C5000A9FB007001462A463846FDF71EFB824656
:102C600004206168A0FB015003461920A9FB0070F5
:102C700001462A463846FDF710FB6421B0FBF1F00F
:102C800000EBC00101EB0010AAEB8000322101EB48
:102C900000106421B0FBF1F000F0F00A042061683C
:102CA000A0FB017003461920A9FB00513A462846B3
:102CB000FDF7F3FA6421B0FBF1F00AEB001A0420EF
:102CC0006168A0FB01510B461920A9FB00712A463F
:102CD0003846FDF7E2FA834604206168A0FB015004
:102CE00003461920A9FB007001462A463846FDF725
:102CF000D4FA6421B0FBF1F000EBC00101EB00104D
:102D0000ABEB8000322101EB00106421B0FBF1F04D
:102D100000F00F00504421688860BDE8F88F000083
:102D2000001001400014014010B5034699629A85D5
:102D3000DA8500201864222083F83E0000BF0020BE
:102D400083F83C0000BF1868C06840F480701C68BD
:102D5000E0601868406940F001001C686061186814
:102D6000C06840F020001C68E060002010BD0146F3
:102D700091F83D00212828D18868B0F5805F0BD1FB
:102D8000086948B90A6A1088C0F308000B685860DF
:102D9000086A801C086205E00B6A581C08621878F3
:102DA0000B685860C88C401E80B2C88458B9086847
:102DB000C06820F080000B68D8600868C06840F0E8
:102DC00040000B68D860002070470220FCE72DE926
:102DD000F04104460D4617469846069E21E0701CB9
:102DE000F8B12EB1FEF74EFEA0EB0800B04218D9A4
:102DF0002068C06820F4D0702168C86020684069ED
:102E000020F0010021684861202084F83D0084F80A
:102E10003E0000BF002084F83C0000BF0320BDE856
:102E2000F081206800682840A84201D1012000E01C
:102E30000020B842D3D00020F1E7000070B5002494
:102E40000F4D1048FFF718FB00BF03E0641CAC42B5
:102E500000D904E00B48FFF705FB2028F6D100BF9E
:102E6000002403E0641CAC4200D906E001220649BC
:102E70000448FFF7C9FC0028F4D100BF70BD000072
:102E8000FFFF0100240100200E00002000BFFEE72C
:102E900003B401984100009850EAC12018BF0420F3
:102EA0004A0D18BF40F0010040F2FF72B2EB515FD3
:102EB00008BF40F00200012808BF052002B070479B
:102EC00002480068C0F30220704700000CED00E0EB
:102ED00010B5002804DB0A07130E054A135406E058
:102EE0000A07140E034A00F00F031B1FD45410BD31
:102EF00000E400E018ED00E070B5C1482DED020BD4
:102F00002DED0E8B82B0119D25F000449FEDBEDBB0
:102F10009FEDBFEB84423EDBA4F140511098A1F13C
:102F20007F6108430FD0BC48844202DC28D110984E
:102F300030B39DED100B02B0BDEC0E8B02B0BDE8BE
:102F4000704000F071BC9DED100B53EC1D2B51EC4B
:102F5000100B07F09DFF9DED100B41EC180B53EC8F
:102F60001E2B51EC100B07F093FF53EC182B07F0BE
:102F700007FD41EC100B02B0BDEC0E8B02B070BD32
:102F80000120FDF784FB02B0BDEC0E8B02B0BDE862
:102F9000704000F05DBCA1489FEDA18B844256DAE1
:102FA0009DED100BB4F1795F0ADA51EC100BFFF7CD
:102FB0006FFF042808BF00F05BFC9DED100BDAE703
:102FC00053EC102B51EC100B07F062FF41EC190B86
:102FD00095480621B0EE490AF0EE690A784400F0FF
:102FE000A7FB53EC192B51EC100B07F051FF41ECF0
:102FF0001A0B8E48B0EE490AF0EE690A04217844B3
:1030000000F096FB53EC192B51EC100B07F040FF2E
:1030100053EC182B07F0B4FC41EC100B51EC1A0BDD
:1030200053EC102B07F060FDCDE900019DED000B86
:1030300053EC102B9DED100B51EC100B07F028FFFB
:103040009DED101B53EC112B07F09AFCD2E09DED87
:10305000100B51EC100B02F06BFB53EC182B08F02B
:1030600015F89FED730BCDE9000153EC102B9DED8E
:10307000000B51EC100B07F00BFF41EC190B6E48E5
:103080000621B0EE490AF0EE690A784400F050FBE0
:1030900053EC192B51EC100B07F0FAFE41EC1B0B13
:1030A0006648B0EE490AF0EE690A0421784400F05F
:1030B0003FFB53EC192B51EC100B07F0E9FE53ECDE
:1030C000182B07F05DFC41EC1C0B51EC190B07F0C1
:1030D00049FB41EC180B5A489FED5BABA04222DC48
:1030E00053EC1C2B51EC1B0B07F0FEFCCDE900014F
:1030F0009DED000B51EC180B53EC102B07F0C8FEA4
:1031000053EC182B07F03CFC53EC1A2B07F0C0FED5
:1031100053EC1D2B08F092F853EC1E2B07F0B6FF72
:1031200041EC100B5FE08DED008B002000909DEDD9
:10313000000B51EC180B53EC102B07F021FC9DED0C
:10314000000B41EC1E0B53EC102B51EC100B07F055
:103150009FFE53EC192B07F099FF53EC1E2B07F041
:10316000C3FC41EC190B53EC1C2B51EC1B0B07F06F
:10317000BBFC41EC1B0B53EC1A2B51EC190B07F069
:1031800087FE53EC1D2B07F081FF41EC190B53EC2C
:103190001A2B51EC180B07F07BFE53EC1B2B07F09E
:1031A00077FE53EC192B08F049F89DED000B41EC2C
:1031B000180B53EC1A2B51EC100B07F069FE9FED26
:1031C000249B53EC192B07F061FF41EC100B51ECE1
:1031D000180B53EC102B08F031F853EC192B07F0B7
:1031E00055FF41EC100B002D3FF7C5AE51EC100B15
:1031F00007F088FB41EC100BBDE60000000000006A
:103200000000F03F00000000075C143326A6913C4C
:10321000182D4454FB21F93F0000F07F0000E03FEF
:10322000000000000000F03F38C1000046C100006F
:10323000000000000000E03F8AC0000098C00000CD
:103240003333EF3F000000000000000000000040AA
:10325000182D4454FB21E93F70B59B482DED020B1E
:103260002DED068B079D25F00044A04218DC974801
:10327000844202DC0AD1069840B19DED060BBDECFC
:10328000068B02B0BDE8704000F0CEBA002DCCBF76
:103290009FED8F0B9FED900BBDEC068B02B070BDC8
:1032A0008F48A04215DD8F48A042D8BF4FF0FF34B1
:1032B00058DD9DED060B51EC100BFFF7E9FD0428DE
:1032C00008BF00F0D5FA9DED060BBDEC068B02B0F1
:1032D00070BD9DED060B51EC100B02F029FACDE903
:1032E000060181489FED828BA0423CDD8248A042CE
:1032F0001FDD00249FED82AB9DED060B53EC1A2BD6
:1033000051EC100B07F03CFB9DED060B41EC190B4B
:1033100053EC1A2B51EC100B07F0BAFD53EC182BA1
:1033200007F08CFF53EC192B07F0DEFBCDE906010B
:1033300049E09DED060B012453EC182B51EC100BCA
:1033400007F01EFB9DED060B41EC190B53EC182BFF
:1033500051EC100B07F072FF53EC192B07F0C4FB74
:10336000CDE906012FE06848A0421FDD02249FED51
:10337000689B9DED060B53EC192B51EC100B07F0DD
:1033800087FD53EC182B07F0FBFA9DED060B41EC83
:10339000180B53EC192B51EC100B07F04FFF53ECAB
:1033A000182B07F0A1FBCDE906010CE09DED060B03
:1033B000032453EC102B9FED580B51EC100B07F02E
:1033C00093FBCDE906019DED060B53EC102B51EC60
:1033D000100B07F05DFD41EC180B53EC182B07F0B8
:1033E00057FD41EC190B4E480621B0EE490AF0EEAC
:1033F000690A784400F09CF953EC182B51EC100B3F
:1034000007F046FD41EC180B4648B0EE490AF0EED5
:10341000690A0521784400F08BF953EC192B51EC23
:10342000100B07F035FD41EC100B51EC180B53EC71
:10343000102B002C0EDA07F0A3FA9DED061B53ECBF
:10344000112B07F025FD9DED061B53EC112B07F00A
:103450001DFE35E007F094FA9DED061B53EC112B91
:1034600007F016FD41EC100B2F48784400EBC40028
:1034700090ED001B51EC100B53EC112B07F0DEFE0E
:103480009DED061B53EC112B07F0D8FE41EC100B01
:103490002648784400EBC40090ED001B51EC100B63
:1034A00053EC112B07F0F2FD41EC100B002DA2BFE5
:1034B000BDEC068B02B070BD51EC100B07F022FA88
:1034C00041EC100B01E70000000010440000F07F09
:1034D000182D4454FB21F93F182D4454FB21F9BF0A
:1034E0000000DC3F0000203E0000F33F0000000031
:1034F000000000000000F03F0000E63F0000000078
:1035000000000000000000400080034000000000B8
:10351000000000000000F83F000000000000F0BFC5
:10352000DABD000090BD00001ABD0000D2BC000052
:1035300070B56F4E2DED040B2DED048B82B0DDF8D0
:1035400024C0DDE907235C422CF000411C4341EA22
:10355000D474069D22F00040B44205D86C422C433E
:1035600040EAD474B4420BD99DED081B9DED060BC7
:1035700002B0BDEC048B04B0BDE8704000F05EB951
:10358000ACF14054A4F17F641C430BD0022404EA44
:10359000AC7444EAD27405439FED578B9FED582BD2
:1035A00007D015E09DED060B51EC100B00F0DAF999
:1035B00042E0002C11BF012C9DED060B02B0BDECCA
:1035C000048B04BF04B070BD022C38D0032C3BD058
:1035D0000B439FED4D1B9FED4E0B0AD0B14218D10E
:1035E000B04209D121F0804120F08040099107903C
:1035F0000FE0002A15DA10E0474B7B44002C08BF8F
:1036000093ED000B0DD0012C10D0022C17D0032C01
:103610001AD0B0421DD1002A03DAB0EE410AF0EE12
:10362000610A02B0BDEC048B04B070BD93ED000BD9
:1036300051EC100B07F066F941EC100BF1E7B0EE1E
:10364000480AF0EE680AECE7B0EE420AF0EE620AD1
:10365000E7E7401A00159FED329B3C28C8BF8DED6F
:10366000000B17DCBCF1000FBCBF10F13C0F8DED5F
:10367000009B0FDB9DED080B53EC102B9DED060B13
:1036800051EC100B07F030FA02F052F800F06AF932
:10369000CDE90001B4B1012C10D0022C9FED220B1A
:1036A00053EC102B9DED000B51EC100B19D007F0D3
:1036B000C5FD53EC182B07F0C1FDBDE7019880F064
:1036C000004001909DED000B53EC192B51EC100BB9
:1036D00007F062FB04BF0220FCF7D9FF9DED000B51
:1036E0009FE707F0ABFD53EC182B07F0CFFCA3E7E7
:1036F0000000F07F00000000182D4454FB21094019
:10370000182D4454FB2109C0182D4454FB21F9BF46
:10371000182D4454FB21F93F02BC000000000000BA
:103720000000000000000000075C143326A6A13C46
:1037300070B504462DED028B4D1E00EBC500B0EEBA
:10374000408AF0EE608A90ED000B35F0060017D04D
:1037500053EC182B51EC100B07F09AFB41EC100BBB
:103760006D1E04EBC50090ED001B51EC100B53ECEB
:10377000112B07F005F941EC100B35F00600E7D1ED
:10378000022D36D0042D1CD0062D1CBFBDEC028BA3
:1037900070BD53EC182B51EC100B07F079FB94ED36
:1037A0000A1B53EC112B07F0EBF853EC182B07F026
:1037B0006FFB94ED081B53EC112B07F0E1F841EC83
:1037C000100B53EC182B51EC100B07F061FB94ED30
:1037D000061B53EC112B07F0D3F853EC182B07F012
:1037E00057FB94ED040B53EC102B07F0C9F841EC98
:1037F000100B53EC182B51EC100B07F049FB94ED18
:10380000021B53EC112B07F0BBF853EC182B07F0FD
:103810003FFB94ED001B53EC112B07F0B1F8BDEC0E
:10382000028B41EC100B70BD10B553EC102B51EC1A
:10383000100B07F0A5F841EC100B10BD10B553ECC0
:10384000112B51EC100B07F09BF841EC100B10BD45
:103850009FED050B10B553EC102B51EC100B07F03E
:1038600043F941EC100B10BD000000000000000007
:103870009FED050B10B553EC102B51EC100B07F01E
:1038800007FB41EC100B10BD000000000000001011
:1038900030380A2801D2012070470020704700BF4D
:1038A00070470000F0B52DED028B83B006460F4641
:1038B0000025684601F056FF002447E056F8241022
:1038C00057F82420881A002801DB014600E0414215
:1038D00000EE101AB8EEC00ADFED200A80EE208A52
:1038E000684600EB840090ED000AB5EEC00AF1EEE8
:1038F00010FA18D0684600EB8400D0ED000A88EE7C
:10390000200AF7EE000A70EE608AB0EEE80A14486A
:10391000D0ED090AB4EEE00AF1EE10FA15DD01204F
:10392000A040054311E00E4890ED070AB4EEC80A26
:10393000F1EE10FA06DC90ED080AB4EEC80AF1EEDA
:1039400010FA02D20120A0400543641C032CB5DB11
:10395000284603B0BDEC028BF0BD0000000080479C
:10396000CCE4000810B541EC100BFFF775FC51ECEE
:10397000100B10BD70B52DED0C8B8EB004460D46AE
:1039800016469FED7E0AF0EE409A9FED7C0AB0EE5F
:10399000408A9FED7A0AF0EE408A9FED780AB0EEF9
:1039A000409A07A809A908AB03AACDE900100AA903
:1039B0000CA801F053FA20B101200EB0BDEC0C8B25
:1039C00070BDBDF8240000F4807000287ED09DED0D
:1039D000030AB8EEC00ADFED6A0A80EE201AF0EEA4
:1039E000419A9DED040AB8EEC00ADFED650A80EE4B
:1039F000201AB0EE418A9DED050AB8EEC00ADFED4F
:103A0000600A80EE201AF0EE418A9DED060AB8EEBB
:103A1000C00ADFED5B0A80EE201AB0EE419AB8EEE4
:103A2000000A28EE000A20EE090AF0EE000A69EE0C
:103A3000A00A00EEA80A10EE101A084607F0E8FCEB
:103A400041EC1C0BB0EE4C0AF0EE6C0AFFF754FA96
:103A5000B0EE40BAF0EE60BA9FED4A0B53EC102B7B
:103A600051EC1B0B07F014FA41EC1A0B06F056FF51
:103A70002060B8EE000A28EE000A20EE080AF0EEF8
:103A8000000A68EEA00A00EEE80AF7EE000A30EE3F
:103A9000200A10EE101A084607F0BAFC41EC1C0B85
:103AA000B0EE000A28EE800A20EE090AF0EE000AC5
:103AB00069EEA00A00EE880A10EE101A084607F018
:103AC000A7FC41EC1D0BB0EE4C1A00E052E0F0EE0A
:103AD0006C1AB0EE4D0AF0EE6D0AFFF729FDB0EE5C
:103AE00040BAF0EE60BA9FED270B53EC102B51EC6F
:103AF0001B0B07F0CDF941EC1A0B06F00FFF286005
:103B000029EEA90A08EE080A08EEE80A09EE490AB1
:103B100010EE101A084607F07BFC41EC1C0B28EE57
:103B2000280A09EE890AF0EE000A20EE200A10EEBB
:103B3000101A084607F06CFC41EC1D0BB0EE4C1A55
:103B4000F0EE6C1AB0EE4D0AF0EE6D0AFFF7F0FCE5
:103B5000B0EE40BAF0EE60BA9FED0A0B53EC102BBA
:103B600051EC1B0B07F094F941EC1A0B06F0D6FE52
:103B7000306001E0012020E700201EE70000000087
:103B80000000804E6666666666A64C402DE9F041F0
:103B9000002005F06FFEC4B2782006F057FC2044E8
:103BA000C4B2782005F04CFD2044C4B2642006F075
:103BB000FFFB2044C4B201F045F92044C4B2194DC2
:103BC000284602F0FBF80646E81C02F0F7F846EA41
:103BD000C00086B2A81D02F0F1F846EA801086B255
:103BE00000BF3746384601F089FB2044C4B240F29A
:103BF000731000F0CFFF2044C4B2642001F0AEFA8D
:103C00002044C4B2012006F0CFFA2044C4B200F030
:103C1000D5FA2044C4B214B10120BDE8F0810020DF
:103C2000FBE70000500000202DE9FC4104460D4652
:103C300016466B4606223B21682000F06FFA0746C5
:103C4000BFB99DF801009DF8001040EA012000B2C4
:103C500020809DF803009DF8021040EA012000B288
:103C600028809DF805009DF8041040EA012000B26C
:103C700030803846BDE8FC8110B504460CB90120FF
:103C800010BDFDF7FFFE20600020F9E72DE9FC41A3
:103C900004460D4616466B4606224321682000F076
:103CA0003DFA0746BFB99DF801009DF8001040EAB3
:103CB000012000B220809DF803009DF8021040EA28
:103CC000012000B228809DF805009DF8041040EA0C
:103CD000012000B230803846BDE8FC8130B52DEDC2
:103CE000028B81B00446002008EE100A6B460222C7
:103CF0004121682000F012FA0546E5B99DF801005F
:103D00009DF8001040EA012000B208EE100AB8EE5B
:103D1000C80A9FED0B1AC0EE010A9FED0A0A30EEA9
:103D2000800ADFED090A20EE200ABDEEC00A10EE7F
:103D3000100A00B22080284601B0BDEC028B30BDD5
:103D40000000AA43B81E12420000C84200B587B066
:103D5000142102A8FCF76BFC00BF00BF00200190FB
:103D60001048006840F004000E49086008460068EA
:103D700000F00400019000BF00BF00BF01200290CE
:103D8000039004900220059002A90748FDF75AFD10
:103D900000BF002201210448FDF768FE00BF07B004
:103DA00000BD0000303802400008024010B500BFDE
:103DB00000224FF400611148FDF758FE00BF00F0EB
:103DC0001FF800BF012291020C48FDF74FFE00BF13
:103DD00000F016F800BF00224FF480610748FDF79D
:103DE00045FE00BF00F00CF800BF0122D1020348DD
:103DF000FDF73CFE00BF00F003F810BD00040240D8
:103E000010B5022000F020FB10BD000000B587B007
:103E1000142102A8FCF70BFC00BF00BF002001909A
:103E20001B48006840F00200194908600846006815
:103E300000F00200019000BF00BF00BF00BF00BF44
:103E4000002001900846006840F002000860084623
:103E5000006800F00200019000BF00BF00BF08151D
:103E600002900120039004900220059002A90948C5
:103E7000FDF7E8FC4FF4006002901120039002A9C6
:103E80000448FDF7DFFC00F0B7F807B000BD000004
:103E9000303802400004024010B500BF0122D102B8
:103EA0000C48FDF7E3FD00BFFFF7AAFF00BF0122AA
:103EB00091020848FDF7DAFD00BFFFF7A1FF00BF40
:103EC00000224FF480610348FDF7D0FD00BFFFF7EB
:103ED00097FF10BD0004024070B50546002400267F
:103EE0001EE06006040E00BF012291021148FDF79A
:103EF000BDFD00BFFFF784FF4FF400610D48FDF7E3
:103F0000A3FD08B1601CC4B200BF00224FF4806161
:103F10000848FDF7ABFD00BFFFF772FF701CC6B28B
:103F2000082EDEDB15B9FFF7B7FF01E0FFF73EFF14
:103F3000204670BD0004024070B50446002526E00E
:103F400000BFE00928B10122D1021648FDF78EFD1D
:103F500005E000224FF400611248FDF787FD00BF25
:103F6000FFF74EFF00BF012291020E48FDF77EFDD4
:103F700000BFFFF745FF00BF00224FF480610948F2
:103F8000FDF774FD00BF6006040E681CC5B2082D65
:103F9000D6DB00BF0122D1020248FDF767FD00BF5A
:103FA00070BD00000004024010B500BF0122D10224
:103FB0001048FDF75BFD00BF00BF012291020D48D4
:103FC000FDF754FD00BFFFF71BFF00BF00224FF4B9
:103FD00000610848FDF74AFD00BFFFF711FF00BF71
:103FE00000224FF480610348FDF740FD00BFFFF75A
:103FF00007FF10BD0004024010B500BF00224FF4BF
:1040000000610C48FDF732FD00BFFFF7F9FE00BF6D
:10401000012291020748FDF729FD00BFFFF7F0FEDE
:1040200000BF0122D1020348FDF720FD00BFFFF7CA
:10403000E7FE10BD0004024070B50024002500BF5B
:104040000122D1021548FDF711FD00BFFFF7D8FE90
:1040500000BF012291021148FDF708FD00BFFFF7E4
:10406000CFFE07E0601CC4B2FA2C03DDFFF7C4FFEB
:10407000012506E04FF400610848FDF7E5FC002843
:10408000F0D100BF00BF00224FF480610348FDF76C
:10409000EDFC00BFFFF7B4FE284670BD00040240EF
:1040A00008B5FFF753FEFFF7B1FE00F025F9032036
:1040B00000F0DAF8002000F0CEF8322000F0FAF834
:1040C00000223821682000F05EF900226A21682071
:1040D00000F059F900222321682000F054F98022D1
:1040E0003721682000F04FF96A467521682000F0FA
:1040F0005AF89DF80000682801D0012008BD01226F
:104100006B21682000F03FF900226C21682000F04C
:104110003AF9322000F0CEF80020EFE72DE9F04127
:1041200005460F4614461E46FFF73EFF002141EAB2
:104130004501C8B2FFF700FFFFF77EFF012804D159
:10414000FFF75AFF0220BDE8F0813846FFF7F4FE82
:10415000FFF772FF012803D1FFF74EFF0220F2E7BD
:10416000FFF722FF012101EB4501C8B2FFF7E4FE92
:10417000FFF762FF012803D1FFF73EFF0220E2E7CD
:104180000BE0012C01DD012100E000210846FFF7D2
:10419000A3FE3070601EC4B2761C002CF1D1FFF774
:1041A0002BFF0020CFE770B505460E461446234688
:1041B000012231462846FFF7B1FF70BD10B588B027
:1041C00002A905A805F07AFE0446032C41D101A8F6
:1041D00005F0E8FA9DED050AB8EEC00ADDED010A2A
:1041E00020EE200ABDEEC00A8DED050A9DED060AFF
:1041F000B8EEC00ADDED010A20EE200ABDEEC00ACD
:104200008DED060A9DED070AB8EEC00ADDED010A44
:1042100020EE200ABDEEC00A8DED070A05A800F0C9
:10422000D5FF684605F06AFABDF8001002984843C9
:104230000290BDF80010039848430390BDF80010A9
:1042400004984843049002A800F0EEFE002008B055
:1042500010BD0120FBE710B50446E006020E1C214C
:10426000682000F090F810BD10B50446E006020E7C
:104270001B21682000F087F810BD70B50546BC2DE5
:1042800001DB012410E0622D01DB02240CE02A2D69
:1042900001DB032408E0142D01DB042404E00A2DD3
:1042A00001DB052400E0062422461A21682000F0E4
:1042B0006AF870BD70B50446B4F57A7F01DD4FF43D
:1042C0007A74042C00DA04244FF47A7090FBF4F032
:1042D000401EC6B232461921682000F054F8054647
:1042E0000DB1284670BD6010FFF7C7FF05460DB140
:1042F0002846F7E70020F5E710B580226B216820FB
:1043000000F041F8642000F085F800226B2168205D
:1043100000F039F810BD2DE9F04105460E4617466C
:104320009846FFF741FE002141EA4501C8B2FFF778
:1043300003FEFFF781FE012804D1FFF75DFE022096
:10434000BDE8F0813046FFF7F7FDFFF775FE012865
:1043500003D1FFF751FE0220F2E700240DE018F828
:104360000400FFF7E9FDFFF767FE012803D1FFF71F
:1043700043FE0220E4E7601CC4B2BC42EFDBFFF75F
:104380003BFE0020DCE737B504460D4602AB0122B8
:1043900029462046FFF7BFFF3EBD00002DE9F04152
:1043A0000446E07800F0C006E07800F03F05607851
:1043B00000F0010098B1EF102846E91705EB5171A4
:1043C000C910A5EBC101491C01F0FF080B480068AA
:1043D00020B10A48414602683846904700BF6078DD
:1043E00000F0080030B10548406818B1B011034A28
:1043F000516888470020BDE8F0810000C801002016
:1044000010B504460420FDF7FDFF0148046010BD0F
:104410000400002070B504461E2094FBF0F594FBC8
:10442000F0F100FB114604E047F2305000F00CF8C8
:104430006D1E002DF8D12EB14FF47A7106FB01F0FC
:1044400000F002F870BD000070B5034600224FF086
:10445000E02675690D4E366803FB06F44FF0E02642
:10446000B16910E04FF0E026B06988420BD0884275
:1044700002D20E1A324402E02E1A0E443244014691
:10448000A24200D300E0EDE700BF70BD04000020B1
:1044900070B52DED048B84B0B0EE408AF0EE608AEA
:1044A000B0EE419A0546B2EE040A28EE000ABDEECF
:1044B000C00A10EE100A04B2002C0EDA604204B2F8
:1044C0001F207BA110221346CDE900210290082273
:1044D00082213C2004F0B8FF0BE01F2075A11022C0
:1044E0001346CDE900210290082282213C2004F0ED
:1044F000ABFF0A2094FBF0F61F2010210323324665
:10450000CDE900108221442004F052FF0A2094FBE0
:10451000F0F100FB11461F20102101233246CDE9A6
:1045200000108221642004F043FFB2EE040A28EE5A
:10453000800ABDEEC00A10EE100A04B2002C0EDA9A
:10454000604204B21F205AA110221346CDE9002177
:104550000290082297213C2004F076FF0BE01F20F8
:1045600054A110221346CDE9002102900822972180
:104570003C2004F069FF0A2094FBF0F61F20102174
:1045800003233246CDE900109721442004F010FFA8
:104590000A2094FBF0F100FB11461F20102101239B
:1045A0003246CDE900109721642004F001FFB2EEFD
:1045B000040A29EE000ABDEEC00A10EE100A04B289
:1045C000002C0EDA604204B21F2039A110221346DB
:1045D000CDE9002102900822AC213C2004F034FFF8
:1045E0000BE01F2033A110221346CDE900210290D9
:1045F0000822AC213C2004F027FF0A2094FBF0F6AF
:104600001F20102103233246CDE90010AC214420A5
:1046100004F0CEFE0A2094FBF0F100FB11461F20AF
:10462000102101233246CDE90010AC21642004F0B2
:10463000BFFE2C46002C0EDA604204B21F201CA1E3
:1046400010221346CDE9002102900822C1213C200E
:1046500004F0FAFE0BE01F2016A110221346CDE94C
:10466000002102900822C1213C2004F0EDFE6420CC
:1046700094FBF0F61F20102103233246CDE90010F1
:10468000C121442004F094FE0A2094FBF0F100FBC9
:1046900011461F20102101233246CDE90010C1210F
:1046A000642004F085FE04B0BDEC048B70BD0000F6
:1046B0002D000000200000000EB51F2017A11022C1
:1046C0001346CDE90021029098228221142004F0A3
:1046D000BBFE1F2016A110221346CDE90021029037
:1046E00098229721142004F0AFFE1F2015A110225C
:1046F0001346CDE9002102909822AC21142004F049
:10470000A3FE1F2014A110221346CDE90021029020
:10471000D822C121142004F097FE0EBD5049542028
:104720003A202020202E2020646567726565730082
:10473000524F4C203A202020202E202064656772A2
:1047400065657300594157203A202020202E2020F3
:10475000646567726565730054454D503A202020AA
:10476000202E2020646567726565732043656C7335
:10477000697573002DE9F04F85B004460D46164665
:104780001F46DDE910ABDDE90E89200A8DF8000037
:10479000E0B28DF80100280A8DF80200E8B28DF829
:1047A0000300300A8DF80400F0B28DF80500380AD5
:1047B0008DF80600F8B28DF807004FEA18208DF842
:1047C000080008F0FF008DF809004FEA19208DF865
:1047D0000A0009F0FF008DF80B004FEA1A208DF84F
:1047E0000C000AF0FF008DF80D004FEA1B208DF839
:1047F0000E000BF0FF008DF80F001298000A8DF8E4
:1048000010001298C0B28DF81100122269460220E1
:1048100000F066F905B0BDE8F08F2DE9FE430546CE
:104820000E4617461C46DDE90A89280A8DF8000065
:10483000E8B28DF80100300A8DF80200F0B28DF870
:104840000300380A8DF80400F8B28DF80500200E38
:104850008DF80600200C8DF80700200A8DF808005E
:10486000E0B28DF809008DF80A808DF80B900C22CB
:104870006946012000F034F9BDE8FE832DED068B7A
:1048800090B00026FFF70CFC044674B164A0FBF75F
:104890009FFD09E000BF4FF400716848FDF7DCF8A8
:1048A00000BFC820FFF7B6FDF4E7FFF76FF9044635
:1048B00074B163A0FBF78CFD09E000BF4FF40071F9
:1048C0005E48FDF7C9F800BFC820FFF7A3FDF4E775
:1048D000FFF7F2FEA3E0002001F016FB0546012DD4
:1048E0000BD1C6F10100C6B226B94FF4E13005F094
:1048F000D7FF02E05A4805F0D3FF0DAA0EA90FA872
:10490000FFF738F804460AAA0BA90CA8FFF78CF9A0
:104910002044C4B207AA08A909A8FFF7B7F92044A0
:10492000C4B206A8FFF7DAF92044C4B2002C76D14D
:10493000002E2FD10D9806F06BFD41EC180B0E9850
:1049400006F066FD41EC190B0F9806F061FD41EC95
:104950001A0B8DED028B8DED009B53EC1A2B41A0B1
:10496000FBF736FDBDF92830BDF92C20BDF930101C
:1049700045A0FBF72DFDBDF91C30BDF92020BDF988
:1049800024104AA0FBF724FDBDF9181050A0FBF736
:104990001FFD3AE00020009001909DED0D0ADFED33
:1049A0004F0A20EE200ABDEEC00A10EE103A1AB2ED
:1049B0009DED0F0ADFED490A20EE200ABDEEC00A88
:1049C00010EE103A19B29DED0E0ADFED440A20EE0A
:1049D000200ABDEEC00A10EE103A18B20023FFF70D
:1049E0001CFF0020BDF91C30CDE90130039004907C
:1049F000BDF920000090BDF92430BDF92820BDF993
:104A00002C10BDF93000FFF7B5FEBDF918009DED83
:104A10000D1ADDED0E0A9DED0F0AFFF739FD5AE77D
:104A200041544B2D4D533630353020696E6974201A
:104A30006661696C6564210D0A0000000014024083
:104A400041544B2D4D533630353020444D50206964
:104A50006E6974206661696C6564210D0A0000004E
:104A600020A107007069743A20252E32662C20722E
:104A70006F6C3A20252E32662C207961773A2025FA
:104A80002E32662C200000006163635F783A202597
:104A9000642C206163635F793A2025642C20616374
:104AA000635F7A3A2025642C200000006779725FEA
:104AB000783A2025642C206779725F793A20256442
:104AC0002C206779725F7A3A2025642C2000000040
:104AD00074656D703A2025640D0A00000000C8421C
:104AE000F0B589B006460F4614461C2C01DD09B00E
:104AF000F0BD002101AA201D1154AA208DF8040048
:104B00008DF805008DF806608DF80740002505E05A
:104B1000795D281D01AA1154681CC5B2A542F7DBB6
:104B200000250AE001A9201D085C495D0844C1B2C6
:104B300001AA201D1154681CC5B2201D8542F1DB5D
:104B40004FF0FF33621D01A90248FDF7C3FE00BF0D
:104B5000CDE700002401002038B5044664B12020D0
:104B60008DF8000028208DF8010030208DF802001B
:104B700038208DF8030004E0A32204216846FBF7E7
:104B80004EFD6A46042140F69E2005F0C7FC05F064
:104B9000B1F838BD3EB5044602208DF80000CA20A9
:104BA0008DF80100E3208DF8020009208DF8030044
:104BB0006A460421682005F0B1FCA3208DF80000AE
:104BC00004F0400048B1C0208DF80100C8208DF8E5
:104BD0000200C2208DF8030006E0A3208DF801003A
:104BE0008DF802008DF8030004F4C07048B1C420B1
:104BF0008DF80400CC208DF80500C6208DF8060045
:104C000006E0A3208DF804008DF805008DF806005D
:104C1000A3208DF807008DF808008DF809006A467A
:104C20000A2140F6A72005F079FC04F0030018B132
:104C300020208DF8000002E0D8208DF800006A46A0
:104C4000012140F6B62005F069FC04F0200018B1FF
:104C5000012000F0ADF802E0002000F0A9F804F413
:104C6000C07008B304F4807060B1B2208DF8000009
:104C70008B208DF80100B6208DF802009B208DF866
:104C800003000BE0B0208DF8000080208DF80100BB
:104C9000B4208DF8020090208DF803006A460421AC
:104CA00040F6A22005F03AFC04F0010020B3F82001
:104CB0008DF800006A4601214FF40B6005F02EFCD0
:104CC000FA21072000F02EFC072000F0F5FB012060
:104CD00000F015FC642000F005FD4FF4FA7000F0C0
:104CE00014FDC821304800F0A5FB282000F0BEFBD1
:104CF0000A2000F0CEFB08E0D8208DF800006A46BC
:104D000001214FF40B6005F009FC04F0020018B11A
:104D1000D9208DF8000002E0D8208DF800006A4606
:104D2000012140F23D7005F0F9FB04F0040018B1D8
:104D3000012000F069F802E0002000F065F804F0BE
:104D4000100018B10120FFF707FF02E00020FFF775
:104D500003FF44F008001549488104F0CBFF002010
:104D60001249887304F0400018B10846807B801D0A
:104D7000887304F4C07020B10C48807B801D0B49FF
:104D8000887304F0140020B10848807B1030074974
:104D9000887304F0030020B10448807B001D0349A0
:104DA000887300203EBD000009E3CA02C80100204C
:104DB0003EB504466CB10EA1D1E900208968CDE969
:104DC000002002916A4609214FF4976005F0A6FB86
:104DD0003EBD0AA2D2E900109268CDE9010200911D
:104DE0006A4609214FF4976005F098FBF0E7000050
:104DF000B8AAB38DB4980D355D000000B8AAAAAA70
:104E0000B088C3C5C700000038B5044664B1C020EF
:104E10008DF80000C2208DF80100C4208DF802003A
:104E2000C6208DF8030004E08B2204216846FBF7BE
:104E3000F6FB6A46042140F6982005F06FFB04F06B
:104E400059FF38BD10B5C8234FF48062024940F6BF
:104E5000F63004F0E3FD10BDF4E400082DE9F04F56
:104E60008DB00746884615469946DDE9166B002445
:104E7000002030806B49887B5A4605A904F09AFED1
:104E800018B1601E0DB0BDE8F08F6648807A00F062
:104E90001400002867D09DF8140000069DF8151036
:104EA00040EA01409DF8161040EA01209DF81710D5
:104EB000084328609DF8180000069DF8191040EA84
:104EC00001409DF81A1040EA01209DF81B1008438C
:104ED00068609DF81C0000069DF81D1040EA014026
:104EE0009DF81E1040EA01209DF81F100843A8609D
:104EF0009DF8200000069DF8211040EA01409DF831
:104F0000221040EA01209DF823100843E86004F1D4
:104F10001000C4B228680014019068680014029060
:104F2000A86800140390E8680014049001984043B6
:104F3000029901FB0100039901FB0100049901FBA7
:104F4000010ABAF1706F02DBBAF1885F05DD04F087
:104F5000D1FE00203080401E94E7B6F9000040F4F6
:104F60008070308000BF2F48807A00F0400020B36E
:104F700005A9601C085C095D40EA012000B2A8F8A0
:104F8000000005A9E01C095C05AAA01C105C41EA10
:104F9000002000B2A8F8020005A9601D095C201DD0
:104FA000105C41EA002000B2A8F80400A01DC4B2C1
:104FB000B6F9000040F0080030801A48408900F43B
:104FC000C07008B305A9601C085C095D40EA0120B7
:104FD00000B2388005A9E01C095C05AAA01C105C81
:104FE00041EA002000B2788005A9601D095C201DFF
:104FF000105C41EA002000B2B880A01DC4B2B6F92E
:10500000000040F0700030800648807A00F0030015
:1050100018B105A90819FFF7C1F94846FEF72CFE9B
:1050200000202FE7C801002070B588B0064601A80F
:1050300004F064FBBDF804000021C90341EA5045B7
:10504000C40300BF4448007A00F0030056F8200073
:1050500005904148007A00F0040010B105984042E4
:1050600005903D48007AC0F3C10056F82000069034
:105070003948007A00F0200010B1069840420690AE
:105080003548007AC0F3811056F820000790324866
:10509000008900F4807010B107984042079005988D
:1050A000C117A0FB042301FB043100FB05108100A4
:1050B00041EA927005900698C117A0FB042301FBFA
:1050C000043100FB0510810041EA927006900798B8
:1050D000C117A0FB042301FB043100FB0510810074
:1050E00041EA927007900598000E8DF80800059827
:1050F000000C8DF809000598000A8DF80A00059843
:10510000C0B28DF80B000698000E8DF80C000698C2
:10511000000C8DF80D000698000A8DF80E00069818
:10512000C0B28DF80F000798000E8DF81000079898
:10513000000C8DF811000798000A8DF812000798EE
:10514000C0B28DF8130002AA0C214FF4257005F0AF
:10515000E5F908B070BD0000C801002030B585B089
:10516000044616A207CA02AB07C3C82C03DD4FF0E2
:10517000FF3005B030BDC82090FBF4F0401E85B272
:10518000280A8DF80000E8B28DF801006A46022175
:1051900040F2162005F0C2F910B14FF0FF30E8E7F9
:1051A00002AA0C2140F6C12005F0B8F910B14FF069
:1051B000FF30DEE7044884810020DAE7FEF2ABC46A
:1051C000AAF1DFDFBBAFDFDFC80100201FB5044657
:1051D0004848007A00F0030054F820000190454848
:1051E000007A00F0040010B101984042019041485B
:1051F000007AC0F3C10054F8200002903D48007AC4
:1052000000F0200010B10298404202903948007A24
:10521000C0F3811054F8200003903648008900F450
:10522000807010B10398404203903349019880FB8D
:105230000101800F40EA810001902F49029880FB14
:105240000110820042EA917002902B49039880FB82
:105250000110820042EA917003900198000E8DF8CF
:1052600000000198000C8DF801000198000A8DF8EB
:1052700002000198C0B28DF803006A4604214FF481
:10528000747005F04BF918B14FF0FF3004B010BD49
:105290000298000E8DF800000298000C8DF80100B5
:1052A0000298000A8DF802000298C0B28DF803003F
:1052B0006A4604214FF4757005F030F910B14FF0D3
:1052C000FF30E3E70398000E8DF800000398000C10
:1052D0008DF801000398000A8DF802000398C0B20F
:1052E0008DF803006A4604214FF4767005F016F934
:1052F000CCE70000C801002009E3CA0210B586B05F
:10530000044647A00068039046A00068029046A0AB
:105310000068019045A00068009004F0030003A914
:10532000085C8DF8140003A8C4F3C101405C8DF83B
:10533000150003A8C4F38111405C8DF8160004F039
:10534000030002A9085C8DF8100002A8C4F3C10193
:10535000405C8DF8110002A8C4F38111405C8DF807
:10536000120005AA032140F2264005F0D7F818B133
:105370004FF0FF3006B010BD04AA032140F22A40CE
:1053800005F0CCF810B14FF0FF30F3E7019805902D
:105390000098049004F0040058B19DF8140040F007
:1053A00001008DF814009DF8100040F001008DF808
:1053B000100004F0200058B19DF8150040F00100E5
:1053C0008DF815009DF8110040F001008DF81100D6
:1053D00004F4807058B19DF8160040F001008DF87B
:1053E00016009DF8120040F001008DF8120005AA89
:1053F00003214FF4886005F091F810B14FF0FF30B1
:10540000B8E704AA032140F2314005F087F810B153
:105410004FF0FF30AEE7064804810020AAE7000005
:105420004CCD6C000CC92C00365676002646660022
:10543000C8010020F8B505460E464FF47A7095FB7A
:10544000F0F000FB06F4200E8DF80000200C8DF823
:105450000100200A8DF80200E0B28DF803006A46D0
:1054600004214FF4AE7005F059F8F8BD38B5044684
:10547000052094FBF0F084B220128DF80000E0B219
:105480008DF801006A4602214FF4AD7005F046F830
:1054900038BD38B50446052094FBF0F084B22012E4
:1054A0008DF80000E0B28DF801006A4602214FF449
:1054B000AC7005F033F838BD38B5044600200090D4
:1054C00004F0010020B19DF8000040F03000009091
:1054D00004F0020020B19DF8000040F00C000090A4
:1054E00004F0040020B19DF8000040F0030000909B
:1054F0006A4601214FF4A47005F010F838BD38B5A4
:105500000446012C01DA012402E0042C00DD04240D
:10551000601EC0B200906A46012140F24F1004F0B4
:10552000FDFF38BDF0B52DED028B83B006460F466A
:1055300006F0070010B1B7F5C86F05DD4FF0FF307A
:1055400003B0BDEC028BF0BD00EE107AB8EE400A5D
:10555000DFED5B0A80EE208A01A804F0A9F89DF82F
:105560000400022806D0042817D0082828D01028C4
:105570004CD138E09FED530A28EE000ABCEEC00A79
:1055800010EE100A84B29FED500A28EE000ABCEE1D
:10559000C00A10EE100A85B23BE09FED4C0A28EEDF
:1055A000000ABCEEC00A10EE100A84B29FED480A51
:1055B00028EE000ABCEEC00A10EE100A85B228E000
:1055C0009FED440A28EE000ABCEEC00A10EE100A55
:1055D00084B29FED410A28EE000ABCEEC00A10EE2C
:1055E000100A85B215E09FED3D0A28EE000ABCEED8
:1055F000C00A10EE100A84B29FED390A28EE000AA4
:10560000BCEEC00A10EE100A85B202E04FF0FF3087
:1056100096E700BF20128DF80800E0B28DF809006F
:1056200028128DF80A00E8B28DF80B0006F0010090
:10563000A0B102AA02214FF4EA7004F06FFF10B18A
:105640004FF0FF307CE70DF10A0202214FF4927017
:1056500004F064FF10B14FF0FF3071E706F0020074
:10566000A0B102AA02214FF4EC7004F057FF10B170
:105670004FF0FF3064E70DF10A0202214FF49470FD
:1056800004F04CFF10B14FF0FF3059E706F0040072
:10569000A0B102AA02214FF4EE7004F03FFF10B156
:1056A0004FF0FF304CE70DF10A0202214FF49670E3
:1056B00004F034FF10B14FF0FF3041E700203FE726
:1056C00000004843000080460000404600000046BD
:1056D0000000C04500008045000040450000004536
:1056E0000000C04438B50446052094FBF0F085B2B4
:1056F00028128DF80000E8B28DF801006A460221F8
:105700004FF4EF7004F00AFF38BD38B504460520A9
:1057100094FBF0F085B228128DF80000E8B28DF805
:1057200001006A4602214FF4ED7004F0F7FE38BD27
:1057300082B0CDE9000121F0004001909DED000B09
:1057400002B051EC100B704700BF054A126802F01E
:105750004002002AF9D0C2B2014B5A6070470000E3
:10576000001001407CB505462E494968087801AB18
:1057700004220D21FEF7D2FC08B107207CBD9DF864
:105780000700C0F301109DF8041001F0E00140EAA9
:10579000E1008DF800009DF80700C0F381009DF83E
:1057A000051001F0E00140EAE1008DF801009DF8EC
:1057B000070000F003009DF8061001F0E00140EA48
:1057C000E1008DF80200002427E01DF8040030B944
:1057D0009FED150A05EB840080ED000A1BE09FEDAC
:1057E000130A05EB840080ED000A0BE005EB840052
:1057F00090ED000ADFED0E0A20EE200A05EB840092
:1058000080ED000A1DF80400401EC0B20DF804002F
:105810000028EBD100BF601CC4B2032CD5DB0020F4
:10582000ACE7000024000020000000007B14AE3E26
:105830001D5A843F2DE9F04F87B005460C4691462E
:1058400001208DF8100000208DF81100FE4A12682A
:10585000917CFD4A5268107804AB0222FEF75BFD92
:1058600020B14FF0FF3007B0BDE8F08FC820FEF741
:10587000D1FD00208DF81000F34A1268D17BF24A66
:105880005268107804AB0122FEF745FD10B14FF0CD
:10589000FF30E8E7EC4A12685179EB4A5268107819
:1058A00004AB0122FEF737FD10B14FF0FF30DAE70D
:1058B000E54A1268917CE44A5268107804AB0122F0
:1058C000FEF729FD10B14FF0FF30CCE7DE4A126839
:1058D000D17DDD4A5268107804AB0122FEF71BFD32
:1058E00010B14FF0FF30BEE7D74A12681179D64A9F
:1058F0005268107804AB0122FEF70DFD10B14FF095
:10590000FF30B0E70C208DF81000CF4A12681179F3
:10591000CD4A5268107804AB0122FEF7FCFC10B1AE
:105920004FF0FF309FE70F20FEF774FDC648806AF6
:10593000407A8DF81000C44A12689178C24A5268C1
:10594000107804AB0122FEF7E6FC10B14FF0FF30F7
:1059500089E7BD48806A007A8DF81000BA4A12685B
:105960005178B94A5268107804AB0122FEF7D3FC93
:1059700010B14FF0FF3076E7B9F1000F07D0B24811
:10598000806A807A40F0E0008DF8100004E0AE48B4
:10599000806A807A8DF81000AB4A12689179AA4A21
:1059A0005268107804AB0122FEF7B5FC10B14FF03D
:1059B000FF3058E7B9F1000F07D0A348806AC07ADA
:1059C00040F0E0008DF8100003E0A048C07A8DF8A8
:1059D00010009D4A1268D1799B4A5268107804AB36
:1059E0000122FEF798FC10B14FF0FF303BE7B9F110
:1059F000000F02D0C820FEF70DFD40208DF81000EA
:105A0000914A12681179904A5268107804AB0122C9
:105A1000FEF781FC10B14FF0FF3024E778208DF8BD
:105A20001000894A12685179874A5268107804AB8D
:105A30000122FEF770FC10B14FF0FF3013E78349ED
:105A40008889FEF7E7FC00208DF810007E4A126876
:105A500051797D4A5268107804AB0122FEF75BFC55
:105A600010B14FF0FF30FEE6774A1268917A764A1D
:105A70005268107804AB0222FEF750FB10B14FF0D1
:105A8000FF30F0E69DF811009DF8101040EA012B60
:105A90000C209BFBF0F0C6B20020A8606860286074
:105AA000A06060602060824665E0674A1268D17A33
:105AB000654A5268107804AB0C22FEF72FFB10B138
:105AC0004FF0FF30CFE69DF811009DF8101040EA2E
:105AD000012000B2ADF808009DF813009DF81210E7
