:020000040800F2
:100000001008002029020008DB1300082512000850
:10001000D913000815040008891700080000000023
:10002000000000000000000000000000DF130008D6
:100030001704000800000000DD130008E1130008A9
:10004000430200084302000843020008430200087C
:10005000430200084302000843020008430200086C
:10006000430200084302000843020008430200085C
:10007000430200084302000843020008430200084C
:10008000430200084302000843020008430200083C
:10009000430200084302000843020008430200082C
:1000A000430200084302000843020008430200081C
:1000B000430200084302000843020008430200080C
:1000C00043020008430200084302000843020008FC
:1000D00043020008691700084302000843020008B1
:1000E00043020008430200084302000843020008DC
:1000F00043020008430200084302000843020008CC
:1001000043020008430200084302000843020008BB
:1001100043020008430200084302000843020008AB
:10012000430200084302000843020008430200089B
:10013000430200084302000843020008430200088B
:10014000430200084302000843020008430200087B
:10015000430200084302000843020008430200086B
:10016000430200084302000843020008430200085B
:100170004302000843020008430200080000000098
:10018000430200084302000800F002F800F03CF8C7
:100190000AA090E8000C82448344AAF10107DA45E2
:1001A00001D100F031F8AFF2090EBAE80F0013F0F8
:1001B000010F18BFFB1A43F001031847F0180000A5
:1001C00010190000103A24BF78C878C1FAD8520735
:1001D00024BF30C830C144BF04680C6070470000C1
:1001E0000023002400250026103A28BF78C1FBD840
:1001F000520728BF30C148BF0B6070471FB501F0E0
:1002000043FB1FBD10B510BD00F0D1F81146FFF73C
:10021000F5FF01F01BFB00F0EFF803B4FFF7F2FF6E
:1002200003BC01F0D9FA000009488047094800479B
:10023000FEE7FEE7FEE7FEE7FEE7FEE7FEE7FEE796
:10024000FEE7FEE704480549054A064B70470000F3
:10025000791400088901000810020020100800200D
:100260001004002010040020704753EA020C00F034
:1002700069802DE9F04B4FF00006002B1FBFB3FA49
:1002800083F503FA05F424FA05F65E4012BF16431F
:10029000B2FA82F502FA05F4C5F120051EBF22FA72
:1002A00005FC44EA0C04203556EA044C4FEA144499
:1002B00018BF641C4FF000084FF00009904271EB2A
:1002C000030C39D3002919BFB1FA81F701FA07F6F7
:1002D000B0FA80F700FA07F6C7F120071EBF20FA30
:1002E00007FC46EA0C062037B6FBF4FCA7EB050733
:1002F000103F07F01F0BCBF120060CFA0BFB2CFA7A
:1003000006F644BFB3460026202FA4BF5E464FF03A
:10031000000B5BEA060C08BF4FF0010B19EB0B0951
:10032000ABFB027C48EB0608C01B06FB02CC0BFBB8
:1003300003CC71EB0C01C1E70B460246414648462F
:10034000BDE8F08B13B54FF000004FF00001AFF3A4
:100350000080BDE81C4070474FF0000200B5134616
:1003600094469646203922BFA0E80C50A0E80C50D5
:10037000B1F12001BFF4F7AF090728BFA0E80C5086
:1003800048BF0CC05DF804EB890028BF40F8042B7F
:1003900008BF704748BF20F8022B11F0804F18BFEC
:1003A00000F8012B704770477047704770477546DB
:1003B00000F02CF8AE4605006946534620F00700D1
:1003C000854618B020B5FFF73DFFBDE820404FF04F
:1003D00000064FF000074FF000084FF0000B21F02F
:1003E0000701AC46ACE8C009ACE8C009ACE8C009FC
:1003F000ACE8C0098D46704710B50446AFF30080E5
:100400002046BDE81040FFF708BF000000487047D5
:10041000AC010020FEE7704710B50446042000F050
:100420009DFC0148046010BD1400002072B6FEE778
:100430002DE9F0410446876D00F050F9064694F826
:1004400035000025022806D08020606584F83450ED
:100450000120BDE8F0812068016821F016010160EB
:100460002068416921F080014161206C08B9A06CCD
:1004700020B12068016821F008010160206801684E
:1004800021F0010101600CE000F028F9801B052833
:1004900007D920206065032084F8350084F83450A3
:1004A000D7E720680068C007EED194F85C103F20C1
:1004B0008840B860012084F8350084F8345000206A
:1004C000C7E790F83510022903D08021416501204B
:1004D0007047052180F835100068016821F001019E
:1004E00001600020704780B201F078B92DE9F84F23
:1004F000DFF8BCA10022012503264FF00F090AF105
:10050000040BAAF1040E00BF0B6805FA02F42340A5
:10051000A34270D10F7907F00307012F01D0022FFA
:1005200016D187684FEA420806FA08FC27EA0C074A
:10053000D1F80CC00CFA08FC4CEA070CC0F808C053
:100540004768A7430C79C4F3001494403C434460CB
:100550000C79E443A4070AD0C4684FEA420C06FAB7
:100560000CF7BC438F6807FA0CF72743C7600C7978
:1005700004F00304022C12D1D40800EB840CDCF844
:1005800020405707FF0E09FA07F824EA0804D1F8BB
:10059000108008FA07F848EA0408CCF820800468BC
:1005A0004FEA420C06FA0CF7BC430F7907F0030739
:1005B00007FA0CF7274307604C6814F4403F70D0EB
:1005C0003C4C276847F480472760246822F00307E3
:1005D00004F480440094384C07EB040CDCF8084821
:1005E00097074FEA177809FA08F7BC43334FB84228
:1005F00002D1002724E054E0314FB84201D1012755
:100600001EE0304FB84201D1022719E02E4FB84208
:1006100001D1032714E02D4FB84201D104270FE088
:100620002B4FB84201D105270AE02A4FB84201D129
:10063000062705E0284FB84201D1072700E0082728
:1006400007FA08F72743CCF80878DAF8004057464D
:10065000D1F804C09C435FEACC2C00D51C433C601D
:10066000DBF800405F46D1F804C09C435FEA8C2C65
:1006700000D51C433C60DEF800407746D1F804C04A
:100680009C435FEA8C3C00D51C433C60084F083F0C
:100690003C68D1F804C09C435FEACC3C00D51C43C5
:1006A0003C60521C102AFFF42FAFBDE8F88F000009
:1006B000083C014044380240003001400000024044
:1006C0000004024000080240000C024000100240FA
:1006D0000014024000180240001C024001488068DB
:1006E0007047000000000020024881680278114431
:1006F00081607047000000200B4810B5016841F48C
:1007000000710160016841F480610160016841F499
:1007100080710160032000F06FF80F2000F006F8F0
:1007200000F024F8002010BD003C024070B50D4DD3
:1007300004464FF47A712878B1FBF0F00A49096851
:10074000B1FBF0F000F016FB48B9102C07D20022E4
:100750002146501E00F030F800206C6070BD012072
:1007600070BD0000000000200C0000200A4808B501
:10077000016841F480410160006800F4804000900D
:100780000548001F016841F080510160006800F0D9
:100790008050009008BD000044380240002809DB6A
:1007A00000F01F02012191404009800000F1E0208B
:1007B000C0F8001170470000F0B40E4B1B680C46E7
:1007C000C3F30223C3F10705042D00D90425191D25
:1007D000072901D2002300E0DB1E012606FA05F1FD
:1007E000491E214099409E40761E16403143F0BC80
:1007F00000F0E2BF0CED00E0064900F007020868D7
:100800004FF6FF03184040EA0220034A10430860F5
:10081000704700000CED00E00000FA052DE9F047FC
:100820000E46050065D0DFF81481D8F80000F7B255
:1008300000F00700B04207D288F80070D8F8000036
:1008400000F00700B04254D128683D4C810712D512
:10085000400703D5206840F4E05020602878000766
:1008600003D5206840F4604020602068A96820F02B
:10087000F000084320602878C0072DD03049686810
:100880000839012812D0022813D0032811D0096892
:10089000890700292DDA216821F003010143216035
:1008A000FFF71CFF814641F2883A0EE00968890390
:1008B000EFE709688901ECE7FFF710FFA0EB0901FA
:1008C000514502D90320BDE8F0872068696800F02F
:1008D0000C00B0EB810FEFD1D8F80010404601F0CA
:1008E0000701B14207D90770006800F00700B04265
:1008F00001D00120E7E72878400705D52068E9689E
:1009000020F4E050084320602878000706D52068CE
:10091000296920F4604040EAC100206000F038F806
:100920002168084AC1F30311515CC84006490860B8
:1009300006480068FFF7FAFE0020C4E7003C0240CA
:1009400008380240921800080C0000200400002023
:100950000448054900680968044AC1F38221515CD2
:10096000C84070470C00002008380240A218000858
:100970000448054900680968044AC1F34231515CE2
:10098000C84070470C00002008380240A218000838
:10099000154810B5006810F00C02144813D041102F
:1009A000042A0FD0082A0ED10F4C241F2268236876
:1009B00002F03F025B0207D52068C0F38810A0FB5D
:1009C000010106E0084610BD2168C1F38811A1FBB2
:1009D00000010023FFF749FC2168C1F30141491CD4
:1009E0004900B0FBF1F010BD083802400024F400CB
:1009F0002DE9F84F04006ED02078DFF84C93C00743
:100A0000A9F104054AD009F104000168C1F381018C
:100A1000012908D00068C0F3810002280AD1D9F862
:100A20000000400206D52868800337D5606800289A
:100A3000E1D033E06068B0F5803F10D0B0F5A02F72
:100A4000286810D020F480302860286820F48020A6
:100A500028606068A8B1FFF741FE06460DE02868EF
:100A600040F48030F4E740F480202860F7E700BFCE
:100A7000FFF734FE801B642873D828688003F7D5FD
:100A80000CE0FFF72BFE064605E000BFFFF726FE51
:100A9000801B6428F0D828688003F7D42078DFF81A
:100AA000AC8280074FF0000A3ED5A748001D0168C0
:100AB00011F00C0F08D00068C0F3810002280BD1A0
:100AC000D9F80000400207D42868800716D5E068EE
:100AD000012800D112E033E1E068B8B10120C8F884
:100AE0000000FFF7FBFD064605E000BFFFF7F6FD3F
:100AF000801B0228C0D828688007F7D5286821699C
:100B000020F0F80040EAC10028600DE0C8F800A01D
:100B1000FFF7E4FD064604E0FFF7E0FD801B022836
:100B20001FD828688007F7D42078000722D5864F81
:100B300087486169703771B101210160FFF7CEFD0F
:100B4000064604E0FFF7CAFD801B022809D8386872
:100B50008007F7D50EE0C0F800A0FFF7BFFD0646FE
:100B600005E082E0FFF7BAFD801B02287DD83868D7
:100B70008007F7D42078400768D5DFF8CCB100278C
:100B80000BF13C0BDBF80000C0000BD4DBF80010CD
:100B900041F08051CBF80010DBF80000012700F095
:100BA000805000906B4E3068C00510D4306840F41F
:100BB00080703060FFF792FD009005E0FFF78EFD3A
:100BC0000099401A022850D83068C005F6D55E4E0C
:100BD000A0686C3601280FD00528306810D020F0AE
:100BE00001003060306820F004003060A068B8B1C7
:100BF000FFF774FD00900FE0306840F00100F4E76B
:100C000040F004003060F7E7FFF768FD0099411AF3
:100C100041F28830814266D830688007F4D50EE012
:100C2000FFF75CFD009007E0FFF758FD0099411ABF
:100C300041F28830814256D830688007F4D42FB111
:100C4000DBF8001021F08051CBF80010A069C8B388
:100C50003D49091D0968C1F3810102294AD00228D2
:100C6000504607D0C8F8600000E03CE0FFF736FDD2
:100C700004463BE04746C8F86000FFF72FFD0646F4
:100C800005E000BFFFF72AFD801B02282BD828684B
:100C90008001F7D4D4E907010843A16A2E4A490824
:100CA00002EB0141626A41EA8211084394F82C1078
:100CB00040EA0161C9F8001001203866FFF70EFD17
:100CC000044606E03EE000BFFFF708FD001B0228D7
:100CD00009D828688001F7D534E000BFFFF7FEFC93
:100CE000001B022802D90320BDE8F88F2868800184
:100CF000F4D427E00128F7D0D9F80000E26900F425
:100D0000800191421CD1226A00F03F01914217D12B
:100D100047F6C071626A0140B1EB821F10D1A26A2E
:100D20004FF0FF3300F4403103EB5202B1EB024FBE
:100D300006D194F82C1000F07060B0EB016F01D078
:100D40000120D1E70020CFE70438024000004742ED
:100D5000800E4742007000400000FFFF4FF0E0218E
:100D60000428086903D020F004000861704740F0AF
:100D70000400FAE710B5401EB0F1807F01D30120D6
:100D800010BD4FF0E02460610F21601700F014FDEA
:100D90000020A06107202061002010BD704770472F
:100DA000F8B5016804460868CA684B6910F00F0F6F
:100DB0004FF0000559D003F0010602F49077374355
:100DC00065D0C10705D0D10503D5216C41F00101E3
:100DD0002164410705D5D90703D0216C41F00201F8
:100DE0002164810705D5D90703D0216C41F00401A6
:100DF0002164010707D502F02001314303D0216CA3
:100E000041F008012164216C00293AD0800604D504
:100E1000900602D5204600F066FB20684069216CF0
:100E2000C0F38010090700D460B3204600F034FB03
:100E300020684069400621D52068143050E8001F22
:100E400021F0400140E80012002AF5D1A06BA8B1C2
:100E50006C490165A06BFFF734FB002811D0A06B33
:100E6000016D01B0BDE8F040084783060FD5930639
:100E70000DD52046BDE8F84000F035BB2046FFF711
:100E80008EFFF8BD2046FFF78AFF2564F8BD266B6C
:100E90002023012E79D1C60677D5D60675D50868E8
:100EA000486800904869400640D5A16B08684068D2
:100EB0000004000CEAD0A28D8242E7D9E085C8691F
:100EC000B0F5807F2DD020680C3050E8001F21F451
:100ED000807140E80012002AF5D12068143050E8F3
:100EE000001F21F0010140E80012002AF5D120681E
:100EF000143050E8001F21F0400140E80012002AA1
:100F0000F5D184F83E30256320680C3050E8001F8E
:100F100021F0100140E80012002AF5D1A06BFFF784
:100F200087FAA08DE18D401A81B229E0A08DE18D74
:100F3000401A81B2E08D0028A8D00029A6D02068F0
:100F40000C3050E8002F22F4907240E80026002E6A
:100F5000F5D12068143050E8002F22F0010240E85B
:100F60000026002EF5D184F83E30256320680C3031
:100F700050E8002F22F0100240E80023002BF5D1AA
:100F80002046FFF70BFFF8BDFFE705062BD515063A
:100F900029D594F83D002128F5D1A068B0F5805FEF
:100FA00001D12069B0B1206A411C2162216800781A
:100FB0004860E08C401E0004000CE084E3D120680F
:100FC000C16821F08001C1602068C16841F0400122
:100FD000C160D8E7206A0088C0F308004860206A32
:100FE000801C2062E5E74006CDD55006CBD5CA6807
:100FF000204622F04002CA6084F83D3000F011F92A
:10100000C1E700008914000870B5040004D094F80A
:101010003D00002510B106E0012070BD84F83C5071
:10102000204600F023F8242084F83D002068C168A1
:1010300021F40051C160204600F0B6FA2068016931
:1010400021F4904101612068416921F02A01416148
:101050002068C16841F40051C1602564202084F8F3
:101060003D0084F83E00002070BD000070B586B0E1
:10107000044614216846FFF76FF9274E22680021C5
:101080002648022303240725B24225D1234A1432DD
:10109000166846F010061660126802F010020592FB
:1010A000026842F002020260006802AA00F0020038
:1010B000059082E83200C020CDE900036946184857
:1010C000FFF714FA002211462520FFF775FB2520B3
:1010D000FFF764FB06B070BD124EB242FAD10F4A60
:1010E0001032166846F400361660126802F40032B8
:1010F0000592026842F001020260006802AA00F054
:101100000100059082E832000C20CDE90003694619
:101110000548FFF7EBF9DDE70010014030380240E9
:1011200000040240004400400000024090F83E30BD
:10113000202B0ED159B152B190F83C30012B08D080
:10114000012380F83C300023036300F0B3BA012090
:10115000704702207047000000680349884202D1AE
:10116000024800F061B8704700100140A000002064
:101170002DE9F843044690F83D001F4616460D46FB
:1011800020284CD1C5B1BEB194F83C00012846D00E
:10119000012084F83C004FF00008C4F84080212072
:1011A00084F83D00FFF79AFAA6848146E684A06899
:1011B000B0F5805F03D004E00120BDE8F88320692A
:1011C00028B12E465FF0000584F83C800EE0002632
:1011D000FAE78021204600F08AFAA0B9AEB116F8ED
:1011E000010B21684860E08C401EE084E08C4B4697
:1011F0004FF0000200970028EBD14FF0400120464D
:1012000000F075FA30B10320D7E735F8020BC0F3D0
:101210000800E6E7202084F83D000020CDE702200A
:10122000CBE77047FEE7000010B504460078502871
:1012300010D1607803280DD1A07806280AD10921A1
:10124000204600F0A3FA22490880B4F8091049BAF0
:10125000814201D0002010BD34F8030F9FED1E1A0B
:1012600040BA00B200EE100A1A48DFED1C1AF8EE80
:10127000C00A10EE901AC162628852BA12B200EE31
:10128000102AF8EEC00A10EE902A00EE901A826240
:10129000A38860EE810A5BBA1BB200EE103A60EEE2
:1012A000A10AB8EEC00A10EE901A00EE902AC162B0
:1012B00020EE010A60EE810A20EE210A60EEA10A0A
:1012C00010EE901A816210EE101A4162012010BDDA
:1012D00010000020680100200000003800003443A6
:1012E0007CB5502403238DF80040020A0D0A8DF8C6
:1012F00001308DF802208DF804508DF803008DF830
:1013000005100621684600F041FA010A8DF8061022
:1013100004468DF807004FF0FF3308226946024863
:10132000FFF726FF20467CBD180000200D4808B5B9
:10133000016841F080010160016801F080010091C5
:10134000016841F001010160016801F001010091B3
:10135000016841F002010160006800F002000090A5
:1013600008BD0000303802400C4810B50A49016041
:101370004FF4E1314160002181600C22C160C0E97D
:1013800004128161C161FFF73FFE002803D0BDE870
:101390001040FFF74BB810BD0010014018000020AE
:1013A0000C4810B50A4901604FF4E1314160002159
:1013B00081600C22C160C0E904128161C161FFF744
:1013C00023FE002803D0BDE81040FFF72FB810BD62
:1013D000004400405C000020FEE7FEE770477047D5
:1013E000FFF782B930B593B030216846FEF7B4FFFD
:1013F00014210CA8FEF7B0FF1D480025016841F03C
:1014000080510160006800F0805011901948016817
:1014100041F4804101600068022400F48040119092
:1014200001200090000401908001CDE9064008AA47
:101430000420A82182E813000B906846FFF7D8FA31
:1014400008B172B6FEE70CA90F2081E831004FF415
:10145000A0500F904FF48050109005210CA8FFF77A
:10146000DDF9002801D072B6FEE713B030BD0000F0
:1014700040380240007000400248016841F47001A9
:101480000160704788ED00E010B5806B0021C185D8
:10149000C184FFF784FC10BD01680C3151E8002FB6
:1014A00022F4907241E80023002BF5D10168143139
:1014B00051E8002F22F0010241E80023002BF5D172
:1014C000016B012909D101680C3151E8002F22F08C
:1014D000100241E80023002BF5D1202180F83E10B6
:1014E00000210163704708B590F83E10222901D011
:1014F000022008BD82684FF480539A4201D10169ED
:1015000021B1816A9A421BD04AB10AE00268816A1D
:101510005268C2F308020A80816A891C08E00269E5
:1015200072B10268526802F07F020A70816A491C37
:101530008162C18D491E0904090CC18503D019E0DF
:1015400002685268F1E70168CA6822F02002CA60A6
:101550000168CA6822F48072CA6001684A6922F090
:1015600001024A61202180F83E10016B012903D05D
:10157000FFF7F2FD002008BD0021016301680C3176
:1015800051E8002F22F0100241E80023002BF5D192
:1015900001680A68D20602D50A6849680091818DFF
:1015A000FFF7FCFBE6E7000070B504460068016940
:1015B000E26821F44051114301612169A068E269A8
:1015C00008436169114308432168CA6849F20C6302
:1015D0009A430243CA6020684169A26921F44071BC
:1015E0001143416131492068884202D03049884224
:1015F00002D1FFF7BDF901E0FFF7AAF9E269002384
:10160000192164253226B2F5004F626828D0A0FB6C
:101610000101930F9200FEF728FE0146B0FBF5F0A2
:101620006FF01802504301EB800006EB0010B0FB96
:10163000F5F000F0F002B1FBF5F002EB0012B1FBA7
:10164000F5F06FF01803584301EB800006EB001033
:10165000B0FBF5F000F00F0021681044886070BD09
:10166000A0FB010192185B41FEF7FFFD0146B0FBB4
:10167000F5F00201B1FBF5F06FF01803584301EBF0
:10168000800006EBC000B0FBF5F000F0F80002EBC4
:101690004002B1FBF5F0584301EB800006EBC000BF
:1016A000B0FBF5F000F00700D6E7000000100140A5
:1016B0000014014081628285C285002101642222DA
:1016C00080F83E2080F83C10016921B10168CA68A9
:1016D00042F48072CA6001684A6942F001024A61BC
:1016E0000068C16841F02001C160002070472DE909
:1016F000F041984617460E460446069D27E0681CB2
:1017000025D02DB1FEF7EAFFA0EB0800A8421ED9B4
:1017100020680C3050E8001F21F4D07140E800121E
:10172000002AF5D12068143050E8001F21F0010193
:1017300040E80012002AF5D1202084F83D0084F80A
:101740003E00002084F83C000320BDE8F0812068C2
:10175000006836EA000004D00020B842CFD0002054
:10176000F3E70120F9E7000010B50548FFF718FB83
:10177000BDE810400B2203490148FFF7D7BC000029
:1017800018000020A0000020FEE70000F0B5FF23B5
:10179000084E1C46002206F5807705E0855C5D401A
:1017A000735D63407C5D521C8A42F7DB44EA032090
:1017B000F0BD0000AA1800080907090E002804DB84
:1017C00000F1E02080F80014704700F00F0000F1F5
:1017D000E02080F8141D7047704700004FF4077137
:1017E00070B5B0FBF1F2B0FBF1F501FB1204094E4C
:1017F00003E0304600F010F86D1E002DF9D1002CEA
:1018000006D04FF47A706043BDE8704000F004B831
:1018100070BD0000603D080070B54FF0E02400226C
:1018200065690949A36909684843A1699942FCD0DF
:1018300002D2A3EB010302E0A5EB010633441A44F4
:101840000B468242F1D370BD14000020FEF754FF16
:10185000FFF7C8FDFFF76AFDFFF786FDFFF7A0FD64
:10186000A820FEF7D9FD0B2205490648FFF75EFCCC
:1018700003213D20FFF734FD0520FEF734FEF7E796
:10188000A0000020180000204FF04070E1EE100A88
:10189000704700000000000000000102030406077A
:1018A0000809000000000102030400C1814001C0DA
:1018B000804101C0804100C1814001C0804100C120
:1018C000814000C1814001C0804101C0804100C110
:1018D000814000C1814001C0804100C1814001C000
:1018E000804101C0804100C1814001C0804100C1F0
:1018F000814000C1814001C0804100C1814001C0E0
:10190000804101C0804100C1814000C1814001C0CF
:10191000804101C0804100C1814001C0804100C1BF
:10192000814000C1814001C0804101C0804100C1AF
:10193000814000C1814001C0804100C1814001C09F
:10194000804101C0804100C1814000C1814001C08F
:10195000804101C0804100C1814001C0804100C17F
:10196000814000C1814001C0804100C1814001C06F
:10197000804101C0804100C1814001C0804100C15F
:10198000814000C1814001C0804101C0804100C14F
:10199000814000C1814001C0804100C1814001C03F
:1019A000804101C0804100C1814000C0C101C3032A
:1019B00002C2C60607C705C5C404CC0C0DCD0FCFA7
:1019C000CE0E0ACACB0BC90908C8D81819D91BDB17
:1019D000DA1A1EDEDF1FDD1D1CDC14D4D515D71767
:1019E00016D6D21213D311D1D010F03031F133F317
:1019F000F23236F6F737F53534F43CFCFD3DFF3F67
:101A00003EFEFA3A3BFB39F9F83828E8E929EB2B96
:101A10002AEAEE2E2FEF2DEDEC2CE42425E527E726
:101A2000E62622E2E323E12120E0A06061A163A396
:101A3000A26266A6A767A56564A46CACAD6DAF6F26
:101A40006EAEAA6A6BAB69A9A86878B8B979BB7B96
:101A50007ABABE7E7FBF7DBDBC7CB47475B577B7E6
:101A6000B67672B2B373B17170B050909151935316
:101A7000529296565797559594549C5C5D9D5F9FE6
:101A80009E5E5A9A9B5B99595898884849894B8B16
:101A90008A4A4E8E8F4F8D4D4C8C448485458747A6
:101AA000468682424383418180400000CC1A000870
:101AB0000000002018000000C4010008E41A00081B
:101AC00018000020F8070000E001000801000000F5
:101AD00010000000000000000024F40000000000DE
:041AE0000000000002
:040000050800018965
:00000001FF
