:020000040800F2
:100000002053002029030008B32A00088525000892
:10001000B12A00089F0500082D3F000800000000DD
:10002000000000000000000000000000690200085D
:100030007107000800000000C5020008D13900085F
:100040004303000843030008430300084303000878
:100050004303000843030008430300084303000868
:100060004303000843030008430300084303000858
:100070004303000843030008430300084303000848
:100080004303000843030008430300084303000838
:10009000CD0500084303000843030008430300089C
:1000A0004303000843030008430300084303000818
:1000B0004303000843030008430300084303000808
:1000C00043030008430300084303000843030008F8
:1000D00043030008653E0008713E0008993E000891
:1000E00043030008430300084303000843030008D8
:1000F00043030008430300084303000843030008C8
:1001000043030008430300084303000843030008B7
:10011000B13A00081D3B00084303000843030008F0
:1001200043030008430300086D060008430300086A
:100130004303000843030008430300084303000887
:1001400009060008430300084303000843030008AE
:10015000430300084303000843030008053F000869
:100160004303000843030008430300084303000857
:100170004303000843030008430300080000000095
:10018000430300084303000800F002F800F05CF8A5
:100190000AA090E8000C82448344AAF10107DA45E2
:1001A00001D100F051F8AFF2090EBAE80F0013F0D8
:1001B000010F18BFFB1A43F001031847EC6F000052
:1001C0000C7000000A444FF0000C10F8013B13F0D3
:1001D000070408BF10F8014B1D1108BF10F8015BA0
:1001E000641E05D010F8016B641E01F8016BF9D193
:1001F00013F0080F1EBF10F8014BAD1C0C1B09D1EA
:100200006D1E58BF01F801CBFAD505E014F8016B5B
:1002100001F8016B6D1EF9D59142D6D370470000ED
:100220000023002400250026103A28BF78C1FBD8FF
:10023000520728BF30C148BF0B6070471FB506F09A
:1002400020FE1FBD10B510BD00F074F91146FFF778
:10025000F5FF04F0A1FF00F092F903B4FFF7F2FFFD
:1002600003BC00F095F900002C4B19680868B0E851
:10027000F04F80F30988BFF36F8F4FF0000080F3D9
:10028000118870470000000008480068006880F38B
:1002900008884FF0000080F3148862B661B6BFF39F
:1002A0004F8FBFF36F8F00DF00BF00BF08ED00E08E
:1002B000DFF80C00016841F470010160704700BF75
:1002C00088ED00E0EFF30980BFF36F8F134B1A68DE
:1002D0001EF0100F08BF20ED108A20E9F04F1060CB
:1002E00009B44FF0500080F31188BFF34F8FBFF374
:1002F0006F8F05F0C9FD4FF0000080F3118809BC35
:1003000019680868B0E8F04F1EF0100F08BFB0EC95
:10031000108A80F30988BFF36F8F70478400002034
:10032000EFF30580704700000948804709480047FF
:10033000FEE7FEE7FEE7FEE7FEE7FEE7FEE7FEE795
:10034000FEE7FEE704480549054A064B70470000F2
:10035000813A000889010008204D00202053002028
:10036000204F0020204F002053EA020C00F069804B
:100370002DE9F04B4FF00006002B1FBFB3FA83F5B9
:1003800003FA05F424FA05F65E4012BF1643B2FAEA
:1003900082F502FA05F4C5F120051EBF22FA05FC1C
:1003A00044EA0C04203556EA044C4FEA144418BFC2
:1003B000641C4FF000084FF00009904271EB030CF1
:1003C00039D3002919BFB1FA81F701FA07F6B0FA5B
:1003D00080F700FA07F6C7F120071EBF20FA07FCD6
:1003E00046EA0C062037B6FBF4FCA7EB0507103FE6
:1003F00007F01F0BCBF120060CFA0BFB2CFA06F6CC
:1004000044BFB3460026202FA4BF5E464FF0000B2A
:100410005BEA060C08BF4FF0010B19EB0B09ABFBB5
:10042000027C48EB0608C01B06FB02CC0BFB03CC8E
:1004300071EB0C01C1E70B46024641464846BDE858
:10044000F08B13B54FF000004FF00001AFF30080C8
:10045000BDE81C40704710B5203AC0F00B80B1E8F1
:100460001850203AA0E81850B1E81850A0E81850E9
:10047000BFF4F5AF5FEA027C24BFB1E81850A0E8F2
:10048000185044BF18C918C0BDE810405FEA827C0C
:1004900024BF51F8043B40F8043B08BF7047D20723
:1004A00028BF31F8023B48BF11F8012B28BF20F8C4
:1004B000023B48BF00F8012B70474FF0000200B527
:1004C000134694469646203922BFA0E80C50A0E877
:1004D0000C50B1F12001BFF4F7AF090728BFA0E825
:1004E0000C5048BF0CC05DF804EB890028BF40F8F1
:1004F000042B08BF704748BF20F8022B11F0804F33
:1005000018BF00F8012B704770477047704710B54F
:1005100000F008F8006810BD10B5044600F002F8BD
:10052000046010BD00487047C04C00200048704770
:10053000C04C00207546FFF7F9FFAE46050069463E
:10054000534620F00700854618B020B5FFF7FAFEA5
:10055000BDE820404FF000064FF000074FF00008C4
:100560004FF0000B21F00701AC46ACE8C009ACE845
:10057000C009ACE8C009ACE8C0098D46704710B5A9
:100580000446AFF300802046BDE81040FFF765BE8B
:1005900001491820ABBEFEE7260002007047FEE7C7
:1005A00000B58BB000200121CDE906010891009033
:1005B000019002900390059004906946024800F073
:1005C000FFFA0BB000BD000060040020014800F0FD
:1005D000F2BB00006004002000B58BB001210020B8
:1005E000CDE9060108910E21009009910190029039
:1005F0000591039004906946024800F0E1FA0BB0BF
:1006000000BD000088040020014800F0D4BB0000B9
:100610008804002010B5044600F05EFE022120464A
:1006200000F058FA002803D0BDE8104000F0A1B84F
:1006300010BD000070B506464FF6FF7000224AF26A
:1006400001040FE0B35C58405FF0000310F0010FAD
:100650004FEA500000D060405B1CDBB2082BF5D3A2
:10066000521CD2B28A42EDD370BD0000014800F0A6
:10067000C1BE00004806002001681823CAB2103A23
:10068000B2FBF3F2054B6FF30901032A9B5CC365D0
:1006900000D9091D8165084670470000946F000865
:1006A00010B5014600208B698A6A4FF0C07453B1BF
:1006B000B3F5005F15D072B1012A0CD0022A0AD01E
:1006C000032A09D104E01AB1012A06D0022A03D173
:1006D000C96AC90100D5012010BDC96AA142FAD07A
:1006E00010BD002AF7D0012AF2D0022AF3D0032A43
:1006F000F3D010BD054B10B518720020044B02E07A
:100700000C5C1C54401C9042FADB10BDEC00002035
:10071000E0460020144A502806D0692803D15072C0
:10072000087812490870704708681063486850617B
:100730008868906192ED050AD2ED080A30EE200A31
:1007400082ED050A00EE100AD2ED090A30EE200A09
:1007500082ED060A92ED0C0AD2ED070A30EE600A2D
:1007600082ED040A70470000EC000020EA460020F9
:10077000704772B6FEE700002DE9F04381462DED8B
:100780000A8B8DB00020009001900290039004909D
:100790009FED882AF0EE401AF6EE002A21EE028A3A
:1007A00001EE420A0590B0EE609A48EE221AF0EE91
:1007B000408ACDED001A8DED010ACDED021AF0EE62
:1007C000619A8DED049A9FED7CBBB0EE4B0AF0EE82
:1007D0006B0A03F055FEB0EE40AAF0EE60AA18EEE8
:1007E000100A06F0DDFA53EC1A2B06F019F89FED0B
:1007F00074AB53EC1A2B06F013F841EC1C0B19EEFA
:10080000100A06F0CDFA53EC1C2B06F0DFF905F0C8
:1008100033FD0CEE100AB0EE4B0A8DED05CAF0EE7A
:100820006B0A03F02DFEB0EE40BAF0EE60BA18EE9F
:10083000100A06F0B5FA53EC1B2B05F0F1FF53EC50
:100840001A2B05F0EDFF41EC1A0B19EE100A06F019
:10085000A7FA53EC1A2B05F041FD05F00DFD29EE2A
:10086000A90A00EE900ACDED030AB0EE408A00EE30
:10087000A00A10EE100A06F093FA41EC100B03F0F8
:10088000FFFD51EC100B05F0F7FC28EEA80A0990CB
:1008900009EE090A10EE100A06F082FA41EC100B7C
:1008A00003F0EEFD51EC100B05F0E6FC0CEE0C8AAB
:1008B0000A9018EE100A06F073FA41EC100B03F0E0
:1008C000DFFD51EC100B05F0D7FC9FED3F8B0024B2
:1008D0006E469FED3F9B03AF9FED3FAA06AD0B9089
:1008E00006EB8400D0ED000A07EB8400F5EEC00AA9
:1008F000F1EE10FA90ED000A39D0B5EEC00A05EB22
:100900008401F1EE10FA91ED031A884680EE810A17
:1009100010EE100A10DB06F043FA41EC100B03F066
:100920002FFB53EC182B51EC100B05F08BFD53EC07
:10093000192B05F075FF15E006F032FA41EC100BAB
:1009400003F01EFB53EC182B51EC100B05F07AFD55
:1009500053EC192B05F064FF9FED201B53EC112B7A
:1009600006F05CF805F088FCC8F8000014E0B5EE6D
:10097000C00AF1EE10FA04DCB5EEC00AF1EE10FA8E
:1009800004DD05EB840080ED00AA05E09FED150A6B
:1009900005EB840080ED000A641C032CA0DB182208
:1009A00006A94846FFF757FD0DB0BDEC0A8BBDE820
:1009B000F083000000007E430000000000000840BB
:1009C000000000000000E03F4AD8124DFB21094022
:1009D00000000000008066400000B44200000000FB
:1009E000008076400000B4C210B52DED068BF0EE0D
:1009F000619AB0EE408AF0EE608AB0EE41AA19EE3C
:100A0000900A06F0CDF941EC100B03F0D5FC51EC47
:100A1000100B05F031FC09EE100A19EE900A06F0F1
:100A2000BFF941EC100B03F057FC51EC100B05F033
:100A300023FC00EE100AB0EE4A1A68EE001A68EEC7
:100A4000800A48EE891A48EE490ABDEC068BB0EEE2
:100A5000610A10BD70B51C48184D1A4C2DED048B61
:100A6000B0EE409AF0EE609A9FED158A006806F0AD
:100A700097F953EC192B06F0A9F841EC100B03F091
:100A80008FFC9FED121B51EC100B53EC112B05F05A
:100A90008BFE0AD20120287084ED048A84ED058A39
:100AA00084ED068ABDEC048B70BD0220287084EDB5
:100AB000048A84ED058A0020F4E70000000000208D
:100AC0000000000088010020FC0000200000000061
:100AD0000000004090F82020012A07D0022A05D00B
:100AE000416A41F4802141620120704700684269F7
:100AF0000A43426100207047F0B590F82050046826
:100B0000A468012D05D0022D03D0416A41F4802153
:100B100053E014F0406F01D1E5004BD5C4F30164FC
:100B2000022C03D9416A41F4000146E00125A540A9
:100B30001D608D684FF4C0739DB1CE6835434E681B
:100B400045EAC605066803EB0417F5514FF4C27574
:100B5000076805EB04150E697E51097D012905D052
:100B600009E00E88CD6845EA4655EBE701684E5925
:100B700046F480764E511179D2F805504FF4C6767E
:100B800041EA0525016806EB04168D511178D2F86B
:100B900001204FF4C47541EA0221026805EB0415F7
:100BA0005151006803EB0411425842F001024250D7
:100BB0000020F0BD416A41F4001141620120F0BD06
:100BC00010B590F82020012A07D0022A05D0416AEA
:100BD00041F480214162012010BD3B48D0F8002241
:100BE00042F00102C0F80022D0F8002222F47C5228
:100BF000C0F80022D0F800224B6A42EA0322C0F873
:100C000000220A7D02F01F0301229A40D0F81C3214
:100C10009343C0F81C32CB69B3B9D0F80C3293437C
:100C2000C0F80C328C894B6864F31F434C6900EBAD
:100C3000C404C4F840320C890B6864F31F434C6948
:100C400000EBC404C4F84432CB69012B16D1D0F8B0
:100C50000C321343C0F80C320C884B6864F31F430A
:100C60004C6900EBC404C4F840320C89CB6864F3CF
:100C70001F434C6900EBC404C4F844328B69002B59
:100C8000D0F804320ED01343C0F804320B69002BA5
:100C9000D0F8143208D01343C0F81432096A01297D
:100CA00004D008E09343EFE79343F5E7D0F81C1234
:100CB0001143C0F81C12D0F8001221F00101C0F855
:100CC0000012002010BD000000640040704730B5E5
:100CD00090F82040012C05D0022C03D0416A41F449
:100CE00080215DE00468002955D02469A40754D010
:100CF0004FF4D874056804EB01142D5915F0040560
:100D0000956005682D594ED0ED08556005682C5941
:100D100004F00204D4604FF4DA74056804EB0114A3
:100D20002D5905F00F05156105682D59C5F30725E7
:100D3000956105682C59240C54614FF4DC720468E9
:100D400002EB0112A4581C700468A458240A5C70B9
:100D50000468A458240C9C700468A258120EDA701F
:100D60004FF4DE72046802EB0112A4581C7104688F
:100D7000A458240A5C710468A458240C9C7104686B
:100D8000A258120EDA71006881B1016941F02001A8
:100D90000161002030BDE468A8E7416A41F4001118
:100DA0004162012030BD6D0D1560AFE7C16841F0B3
:100DB0002001C160EDE72DE9F05F054600680024E1
:100DC0004669D0F804908768D0F80CB0D0F810A02D
:100DD000D0F81880F10748D0F90714D001218160BC
:100DE000B80703D5284600F0A4FA0CE0780702D52E
:100DF0004FF4006407E0380702D54FF4805402E056
:100E0000284600F095FAF80516D529684FF4807049
:100E10008860B80503D5284600F08DFA0CE0780507
:100E200002D544F4005407E0380502D544F4804468
:100E300002E0284600F07EFAF80316D529684FF440
:100E400080308860B80303D5284600F076FA0CE0BD
:100E5000780302D544F4004407E0380302D544F493
:100E6000803402E0284600F067FA300707D55FEAD1
:100E7000CB6004D52968102044F40074C860700762
:100E80004FF0080707D55FEA0B7004D52868C760E4
:100E9000284600F09BF9B00706D52868C06880078F
:100EA00002D0284600F094F9700607D55FEACA60C0
:100EB00004D52968102044F480640861B00607D581
:100EC0005FEA0A7004D528680761284600F000FA36
:100ED000F00606D528680069800702D0284600F091
:100EE000F8F9B00308D55FEAC96005D52968102074
:100EF0004860284600F0EEF9F00307D55FEA097074
:100F000004D528684760284600F018FA300446D512
:100F10005FEA497040D5F00504D55FEAC87001D09A
:100F200044F00104B00504D55FEA887001D544F0AF
:100F30000204700504D55FEA487001D544F004044A
:100F4000300529D518F0700F26D008F07000402821
:100F500015D006DC102809D020280AD0302816D158
:100F60000AE050280ED0602811D10EE044F00804A9
:100F70000DE044F010040AE044F0200407E044F0DF
:100F8000400404E044F0800401E044F480742868E4
:100F9000816921F070018161296804204860002C7A
:100FA00005D0686A204368622846FFF78FFEBDE8D7
:100FB000F09F70B5040003D094F8200010B104E055
:100FC000012070BD204600F081F82068016841F0E2
:100FD0000101016000F04EFC0546052604E000F02A
:100FE00049FC401B0A2811D820684068C007F6D089
:100FF0002068016821F00201016000F03BFC054619
:101000000BE000F037FC401B0A2806D9606A40F468
:101010000030606284F82060D2E720684068800772
:10102000EFD4207E0128206801683DD021F08001A6
:101030000160607E01282068016838D021F04001FD
:101040000160A07E01282068016833D021F02001D2
:101050000160E07E0128206801682ED041F0100177
:101060000160207F01282068016829D021F0080153
:101070000160607F01282068016824D021F004010C
:101080000160D4E902010843D4E904121143084382
:101090006168491E08432168C86100206062012020
:1010A00084F82000002070BD41F08001C0E741F0CD
:1010B0004001C5E741F02001CAE721F01001CFE768
:1010C00041F00801D4E741F00401D9E7F0B587B059
:1010D000044614216846FFF7F0F9374B3748DFF82C
:1010E000D4E01968D4F800C0344A02250326092741
:1010F00010300024491CF44524D11960012907D17E
:10110000016841F000710160006800F00070059016
:10111000106840F001001060106802AB00F00100A0
:1011200005904FF4C050CDE9000583E8D000694632
:10113000234800F099FA00220521142000F00CFC4D
:10114000142033E0DFF87CE0F44531D1D0F800C062
:101150004CF0806CC0F800C0D0F800C001290CF041
:10116000806CCDF814C0196007D1016841F000719E
:101170000160006800F000700590106840F0020007
:101180001060106802AB00F0020005904FF4405070
:10119000CDE9000583E8D00069460B4800F064FA09
:1011A00000220521402000F0D7FB402000F0C6FBC4
:1011B00007B0F0BD006400402C0000203038024031
:1011C0000000024000680040000402407047000038
:1011D00070B5044600683A498EB0884225D10CAB00
:1011E00004AA00212046FFF772FD0498A0F2012016
:1011F00006281AD8334DC0B2334E2870C0EBC00059
:1012000006EB800081694A1C322982610CA902D850
:1012100003F084FE01E003F086FE28780CA9C0EB01
:10122000C00006EB800003F07EFE2849206888425B
:1012300005D102AB04AA00212046FFF748FD04981F
:10124000A0F20520072830D2C2B2BDF808001E491E
:1012500043BA02EB4200E03101EB8000012A8380B7
:10126000BDF80A305BBAC380BDF80C305BBA0381AD
:101270009DF80E30837203D052B1022A17D00CE0D1
:10128000114AE03202F10C01128A02F6AA2203E0AE
:101290008A8841F6A92311E08A808188B1F5005F30
:1012A00003D3A1F5F851FF3981800EB070BD064A15
:1012B00041F2AA23E03202F11801928B1A44EBE7C3
:1012C0000064004084010020744B0020006800404E
:1012D000704770477047000070B5044690F82000D2
:1012E000012804D0606A40F40020606218E0022007
:1012F00084F820002068016821F00101016000F0FD
:10130000B9FA05460EE000BF00F0B4FA401B0A2807
:1013100008D9606A40F400306062052084F820003B
:10132000012070BD20684068C007EDD1606270BDCB
:1013300070477047704770477047704770472DE996
:10134000F0410446876D00F095FA064694F83500A2
:101350000025022806D08020606584F834500120E2
:10136000BDE8F0812068016821F016010160206865
:10137000416921F080014161206C08B9A06C20B165
:101380002068016821F0080101602068016821F0EF
:10139000010101600CE000F06DFA801B052807D9FF
:1013A00020206065032084F8350084F83450D7E7A6
:1013B00020680068C007EED194F85C103F20884098
:1013C000B860012084F8350084F834500020C7E765
:1013D00090F83510022903D0802141650120704723
:1013E000052180F835100068016821F001010160D5
:1013F000002070472DE9F84304464FF00009CDF86E
:10140000009063484FF41651A56D0068B0FBF1F7EA
:101410002E6894F85C10082000FA01F131420FD0D8
:1014200021680A6852070BD50A6822F004020A6094
:1014300094F85C108840A860606D40F00100606521
:1014400094F85C104FF0010808FA01F0304208D01F
:1014500021684969090604D5A860606D40F0020062
:10146000606594F85C1004208840304208D0216800
:101470000968890704D5A860606D40F004006065C4
:1014800094F85C1010208840304218D02168096818
:10149000090714D5A86020680168490304D50068CD
:1014A000000308D5A16C07E00168C90503D40168F1
:1014B00021F008010160216C09B12046884794F8A9
:1014C0005C1020208840304231D021680968C9066C
:1014D0002DD5A86094F8350005282068016806D04D
:1014E000490347D5006800031DD4616C1CE021F05E
:1014F000160101602068416921F080014161206C82
:1015000008B9A06C20B12068016821F008010160D1
:1015100094F85C103F208840A86084F8358084F8F7
:101520003490216D1FE0E16B09B120468847606D62
:1015300000282BD0606DC00714D0052084F835003A
:101540002068016821F0010101600098401C0090B2
:10155000B84203D820680068C007F6D184F8358007
:1015600084F83490E16C002910D001B02046BDE829
:10157000F04308470168C905D5D4016821F010017E
:10158000016084F8358084F83490CCE7BDE8F883B6
:10159000800000202DE9F041044600F06BF906467A
:1015A0005CB1022084F83500002584F834502068AE
:1015B000016821F0010101600DE00120BDE8F0812A
:1015C00000F058F9801B052805D92020606503200C
:1015D00084F83500F2E720680068C007F0D122687F
:1015E000116820480140D4E901031843D4E90336C7
:1015F0003343184363691843A3691843E3691843E5
:10160000236A18430843616A042903D1D4E90B1300
:1016100019430843106020684069666A20F007019A
:1016200030460E43012704280CD1A06A0643E06A25
:1016300040B12046FFF734F820B14020606584F8BF
:101640003570BAE7206846612046FFF715F894F830
:101650005C203F2191408160656584F835700020F1
:10166000ACE700003F8010F02DE9F84FDFF8BCA197
:101670000022012503264FF00F090AF1040BAAF1FD
:10168000040E00BF0B6805FA02F42340A34270D198
:101690000F7907F00307012F01D0022F16D18768B9
:1016A0004FEA420806FA08FC27EA0C07D1F80CC0FA
:1016B0000CFA08FC4CEA070CC0F808C04768A743BE
:1016C0000C79C4F3001494403C4344600C79E44327
:1016D000A4070AD0C4684FEA420C06FA0CF7BC43D0
:1016E0008F6807FA0CF72743C7600C7904F00304EE
:1016F000022C12D1D40800EB840CDCF820405707F0
:10170000FF0E09FA07F824EA0804D1F8108008FA55
:1017100007F848EA0408CCF8208004684FEA420C35
:1017200006FA0CF7BC430F7907F0030707FA0CF72A
:10173000274307604C6814F4403F70D03C4C276846
:1017400047F480472760246822F0030704F48044AC
:101750000094384C07EB040CDCF8084897074FEA74
:10176000177809FA08F7BC43334FB84202D1002773
:1017700024E054E0314FB84201D101271EE0304F40
:10178000B84201D1022719E02E4FB84201D10327F8
:1017900014E02D4FB84201D104270FE02B4FB8427F
:1017A00001D105270AE02A4FB84201D1062705E0FA
:1017B000284FB84201D1072700E0082707FA08F7A9
:1017C0002743CCF80878DAF800405746D1F804C02F
:1017D0009C435FEACC2C00D51C433C60DBF8004006
:1017E0005F46D1F804C09C435FEA8C2C00D51C43B3
:1017F0003C60DEF800407746D1F804C09C435FEAC5
:101800008C3C00D51C433C60084F083F3C68D1F835
:1018100004C09C435FEACC3C00D51C433C60521C96
:10182000102AFFF42FAFBDE8F88F0000083C0140FC
:1018300044380240003001400000024000040240F1
:1018400000080240000C0240001002400014024058
:1018500000180240001C0240426921EA02030A40CB
:1018600043EA0241816170470AB18161704709040E
:10187000FBE700000148806870470000740000200A
:10188000024881680278114481607047740000202A
:101890000B4810B5016841F400710160016841F422
:1018A00080610160016841F480710160032000F0F3
:1018B00073F80F2000F006F800F024F8002010BDA7
:1018C000003C024070B50D4D04464FF47A71287803
:1018D000B1FBF0F00A490968B1FBF0F000F010FB31
:1018E00048B9102C07D200222146501E00F034F8CF
:1018F00000206C6070BD012070BD000074000020ED
:10190000800000200C4882B0016841F480410160F1
:10191000006800F4804000900748001F016841F013
:10192000805101600068002200F0805000900F217B
:10193000901E02B000F010B844380240002809DBC5
:1019400000F01F02012191404009800000F1E020D9
:10195000C0F8001170470000F0B40E4B1B680C4635
:10196000C3F30223C3F10705042D00D90425191D73
:10197000072901D2002300E0DB1E012606FA05F14B
:10198000491E214099409E40761E16403143F0BCCE
:1019900002F0E5BA0CED00E0064900F00702086825
:1019A0004FF6FF03184040EA0220034A1043086044
:1019B000704700000CED00E00000FA052DE9F0474B
:1019C0000E46050065D0DFF81481D8F80000F7B2A4
:1019D00000F00700B04207D288F80070D8F8000085
:1019E00000F00700B04254D128683D4C810712D561
:1019F000400703D5206840F4E050206028780007B5
:101A000003D5206840F4604020602068A96820F079
:101A1000F000084320602878C0072DD0304968685E
:101A20000839012812D0022813D0032811D00968E0
:101A3000890700292DDA216821F003010143216083
:101A4000FFF718FF814641F2883A0EE009688903E2
:101A5000EFE709688901ECE7FFF70CFFA0EB09014C
:101A6000514502D90320BDE8F0872068696800F07D
:101A70000C00B0EB810FEFD1D8F80010404601F018
:101A80000701B14207D90770006800F00700B042B3
:101A900001D00120E7E72878400705D52068E968EC
:101AA00020F4E050084320602878000706D520681D
:101AB000296920F4604040EAC100206000F038F855
:101AC0002168084AC1F30311515CC8400649086007
:101AD00006480068FFF7F6FE0020C4E7003C02401D
:101AE000083802409C6F0008800000207800002029
:101AF0000448054900680968044AC1F38221515C21
:101B0000C84070478000002008380240AC6F0008D1
:101B10000448054900680968044AC1F34231515C30
:101B2000C84070478000002008380240AC6F0008B1
:101B3000154810B5006810F00C02144813D0144971
:101B4000042A0FD0082A0ED10F4C241F22682368C4
:101B500002F03F025B0207D52068C0F38810A0FBAB
:101B6000010106E0084610BD2168C1F38811A1FB00
:101B700000010023FEF7F8FB2168C1F30141491C75
:101B80004900B0FBF1F010BD083802400024F40019
:101B900040787D012DE9F84F04006ED02078DFF801
:101BA0004C93C007A9F104054AD009F1040001686B
:101BB000C1F38101012908D00068C0F38100022827
:101BC0000AD1D9F80000400206D52868800337D52D
:101BD00060680028E1D033E06068B0F5803F10D045
:101BE000B0F5A02F286810D020F480302860286835
:101BF00020F4802028606068A8B1FFF73BFE06460D
:101C00000DE0286840F48030F4E740F4802028603C
:101C1000F7E700BFFFF72EFE801B642873D8286803
:101C20008003F7D50CE0FFF725FE064605E000BF70
:101C3000FFF720FE801B6428F0D828688003F7D4C3
:101C40002078DFF8AC8280074FF0000A3ED5A74825
:101C5000001D016811F00C0F08D00068C0F381006E
:101C600002280BD1D9F80000400207D42868800769
:101C700016D5E068012800D112E033E1E068B8B180
:101C80000120C8F80000FFF7F5FD064605E000BF9B
:101C9000FFF7F0FD801B0228C0D828688007F7D521
:101CA0002868216920F0F80040EAC10028600DE0B2
:101CB000C8F800A0FFF7DEFD064604E0FFF7DAFDF6
:101CC000801B02281FD828688007F7D420780007D7
:101CD00022D5864F87486169703771B10121016053
:101CE000FFF7C8FD064604E0FFF7C4FD801B02288D
:101CF00009D838688007F7D50EE0C0F800A0FFF7D4
:101D0000B9FD064605E082E0FFF7B4FD801B02281E
:101D10007DD838688007F7D42078400768D5DFF889
:101D2000CCB100270BF13C0BDBF80000C0000BD45A
:101D3000DBF8001041F08051CBF80010DBF8000018
:101D4000012700F0805000906B4E3068C00510D421
:101D5000306840F480703060FFF78CFD009005E043
:101D6000FFF788FD0099401A022850D83068C00556
:101D7000F6D55E4EA0686C3601280FD00528306875
:101D800010D020F001003060306820F00400306096
:101D9000A068B8B1FFF76EFD00900FE0306840F02A
:101DA0000100F4E740F004003060F7E7FFF762FD60
:101DB0000099411A41F28830814266D83068800724
:101DC000F4D50EE0FFF756FD009007E0FFF752FD57
:101DD0000099411A41F28830814256D83068800714
:101DE000F4D42FB1DBF8001021F08051CBF80010B3
:101DF000A069C8B33D49091D0968C1F381010229E1
:101E00004AD00228504607D0C8F8600000E03CE005
:101E1000FFF730FD04463BE04746C8F86000FFF797
:101E200029FD064605E000BFFFF724FD801B0228C0
:101E30002BD828688001F7D4D4E907010843A16AA8
:101E40002E4A490802EB0141626A41EA82110843C5
:101E500094F82C1040EA0161C9F80010012038669E
:101E6000FFF708FD044606E03EE000BFFFF702FD75
:101E7000001B022809D828688001F7D534E000BF8C
:101E8000FFF7F8FC001B022802D90320BDE8F88FF9
:101E900028688001F4D427E00128F7D0D9F80000A1
:101EA000E26900F4800191421CD1226A00F03F01F6
:101EB000914217D147F6C071626A0140B1EB821FAF
:101EC00010D1A26A4FF0FF3300F4403103EB52020D
:101ED000B1EB024F06D194F82C1000F07060B0EB1B
:101EE000016F01D00120D1E70020CFE70438024084
:101EF00000004742800E4742007000400000FFFF94
:101F000010B5401EB0F1807F01D3012010BD4FF00D
:101F1000E02460610F21601702F021F80020A06129
:101F200007202061002010BD70477047F8B5016898
:101F300004460868CA684B6910F00F0F4FF000059F
:101F400059D003F0010602F49077374365D0C107FA
:101F500005D0D10503D5216C41F001012164410771
:101F600005D5D90703D0216C41F002012164810716
:101F700005D5D90703D0216C41F004012164010784
:101F800007D502F02001314303D0216C41F0080154
:101F90002164216C00293AD0800604D5900602D530
:101FA000204601F01EFE20684069216CC0F38010BD
:101FB000090700D460B3204601F0ECFD20684069B9
:101FC000400621D52068143050E8001F21F0400160
:101FD00040E80012002AF5D1A06BA8B16C49016558
:101FE000A06BFFF7F5F9002811D0A06B016D01B0CF
:101FF000BDE8F040084783060FD593060DD520466F
:10200000BDE8F84001F0EDBD2046FFF78EFFF8BDBA
:102010002046FFF78AFF2564F8BD266B2023012E9A
:1020200079D1C60677D5D60675D508684868009078
:102030004869400640D5A16B086840680004000C60
:10204000EAD0A28D8242E7D9E085C869B0F5807FE9
:102050002DD020680C3050E8001F21F4807140E83A
:102060000012002AF5D12068143050E8001F21F03A
:10207000010140E80012002AF5D12068143050E830
:10208000001F21F0400140E80012002AF5D184F839
:102090003E30256320680C3050E8001F21F010010D
:1020A00040E80012002AF5D1A06BFFF748F9A08D97
:1020B000E18D401A81B229E0A08DE18D401A81B2F4
:1020C000E08D0028A8D00029A6D020680C3050E868
:1020D000002F22F4907240E80026002EF5D12068EF
:1020E000143050E8002F22F0010240E80026002EB4
:1020F000F5D184F83E30256320680C3050E8002F7D
:1021000022F0100240E80023002BF5D12046FFF713
:102110000BFFF8BDFFE705062BD5150629D594F86A
:102120003D002128F5D1A068B0F5805F01D120697C
:10213000B0B1206A411C2162216800784860E08CBF
:10214000401E0004000CE084E3D12068C16821F047
:102150008001C1602068C16841F04001C160D8E7DA
:10216000206A0088C0F308004860206A801C206252
:10217000E5E74006CDD55006CBD5CA68204622F00B
:102180004002CA6084F83D3000F0E9F9C1E7000080
:10219000853B000870B5040004D094F83D0000258C
:1021A00010B106E0012070BD84F83C50204600F0DC
:1021B00023F8242084F83D002068C16821F40051F0
:1021C000C160204601F06EFD2068016921F4904154
:1021D00001612068416921F02A0141612068C168DC
:1021E00041F40051C1602564202084F83D0084F84A
:1021F0003E00002070BD00002DE9F04F87B007467B
:1022000014216846FEF759F99148904B3A6800242A
:102210008F49103802250326DFF838924FF4406BBF
:102220004FF008089A4220D10A6842F400220A605E
:10223000096801F400210591016841F00401016081
:102240000068CDF800B000F00400CDE904800396EA
:10225000CDE9015469464846FFF706FA00220521F8
:102260003420FFF779FB342034E07B4B9A4236D19F
:102270000A6842F480120A60096801F4801105912D
:10228000016841F004010160016801F00401059159
:10229000016841F008010160006802AA00F008002E
:1022A00005909814CDE9000582E85001694648463A
:1022B000FFF7DAF90420CDE9000502AA694682E8B1
:1022C00050016648FFF7D0F9002205213520FFF7BD
:1022D00043FB3520FFF732FB07B0BDE8F08FDFF896
:1022E00080C1DFF86CA107230AF1040A62453CD1E2
:1022F000DAF8002042F01002CAF80020DAF80010E4
:1023000001F010010591016841F0010101600068D0
:10231000029400F0010005904FF4C060CDE9000583
:10232000CDE9036369464F48FFF79EF94F4D4E488C
:1023300028604FF00060C5E901044014C5E903407E
:102340006C61C001AC61C5E9074028466C62FFF7CB
:1023500021F908B1FEF70DFABD6300220521252001
:10236000AF63FFF7F9FA2520B4E7414FBA4220D115
:102370000A6842F400320A60096801F400310591EC
:10238000016841F0080101600068029400F0080053
:1023900005906020CDE90005CDE9036369462F482B
:1023A000FFF762F9002205212620FFF7D5FA262043
:1023B00090E7304FBA4220D10A6842F480220A6086
:1023C000096801F480210591016841F00201016072
:1023D0000068CDF800B000F00200CDE904300396AB
:1023E000CDE9015469462448FFF73EF90022052152
:1023F0002720FFF7B1FA27206CE720498A427FF4B3
:102400006BAFDAF8002042F02002CAF80020DAF8B8
:10241000001001F020010591016841F00401016004
:10242000006802AA00F004000590C020CDE9000574
:1024300082E8500169464846FFF716F90022052157
:102440004720FFF789FA472044E70000004C00408E
:10245000403802400008024000500040000C02409A
:102460000010014000000240406402404806002085
:1024700000440040004800400004024000140140B5
:1024800090F83E30202B0ED159B152B190F83C302B
:10249000012B08D0012380F83C300023036301F0B6
:1024A00087BC012070470220704770472DE9F84330
:1024B000044690F83D001F4616460D4620284CD194
:1024C000C5B1BEB194F83C00012846D0012084F883
:1024D0003C004FF00008C4F84080212084F83D0003
:1024E000FFF7C8F9A6848146E684A068B0F5805F4E
:1024F00003D004E00120BDE8F883206928B12E460E
:102500005FF0000584F83C800EE00026FAE78021A9
:10251000204601F06AFCA0B9AEB116F8010B2168A3
:102520004860E08C401EE084E08C4B464FF0000297
:1025300000970028EBD14FF04001204601F055FCF8
:1025400030B10320D7E735F8020BC0F30800E6E707
:10255000202084F83D000020CDE70220CBE7704723
:102560001CB506A24FF47A73D2E90012CDE900122D
:1025700005226946FFF79AFF1CBD0000A55A04001A
:10258000FB000000FEE7000070B50D46134906464B
:1025900002200870284600F063FD114C304684ED9F
:1025A000040A00F0DDFC0F48B1EE400A84ED050A94
:1025B0000068821B00D5524200210A2A0ADA0A4822
:1025C0000068401B00D540420A2803DA0120A070B1
:1025D000E16070BDA170002070BD0000000000200F
:1025E0008801002058000020440000200F4810B54A
:1025F0000D4901600321416000214FF410228160E8
:10260000C0E903124FF400124261017641768176EF
:10261000C17601774177FEF7CCFC002803D0BDE8F6
:102620001040FEF7A6B810BD006400406004002012
:102630000F4810B50D4901600321416000214FF49E
:1026400010228160C0E903124FF40012426101764A
:1026500041768176C17601774177FEF7AAFC0028A2
:1026600003D0BDE81040FEF784B810BD00680040FC
:1026700088040020094808B5016841F48001016020
:102680000068002200F48000009005213A20FFF746
:1026900063F9BDE808403A20FFF750B930380240EE
:1026A00010B5C0B01C2232496846FDF7D4FE0021A7
:1026B000684602F02FFE2F4C2D491C22A0601C31D1
:1026C00007A8FDF7C8FE002107A802F023FE28494D
:1026D000E0601C2238310EA8FDF7BDFE00210EA8D7
:1026E00002F018FE224920611C22543115A8FDF782
:1026F000B2FE002115A802F00DFE1D4960611C22EA
:1027000070311CA8FDF7A7FE00211CA802F002FEF4
:102710001749A0611C228C3123A8FDF79CFE0021E3
:1027200023A802F0F7FD1249E0611C22A8312AA873
:10273000FDF791FE00212AA802F0ECFD0C49206271
:102740001C22C43131A8FDF786FE002131A802F019
:10275000E1FD074960621C22E03138A8FDF77BFEED
:10276000002138A802F0D6FDA06240B010BD0000E4
:10277000986E0008000000202DE9F04786B0142173
:102780006846FDF79AFE42480024016841F01001B6
:102790000160016801F010010591016841F08001BC
:1027A0000160016801F080010591016841F00101BB
:1027B0000160016801F001010591016841F0040127
:1027C0000160016801F004010591016841F0020116
:1027D0000160016801F002010591016841F0080102
:1027E000016000682B4F00F0080005900022402196
:1027F0003846FFF739F8DFF8A0800022182140465C
:10280000FFF732F8DFF89490002210214846FFF7D6
:102810002BF8DFF88CA04FF470660022314650464A
:10282000FFF722F8082001258DE831006946384677
:10283000FEF71AFF2020CDE90004694638460294CD
:10284000FEF712FF40200090CDE90154694638465A
:102850000394FEF709FF18200090CDE90154694662
:1028600040460394FEF700FF10200090CDE901548C
:10287000694648460394FEF7F7FE0096CDE90154F9
:10288000694650460394FEF7EFFE06B0BDE8F087B8
:1028900030380240001002400000024000080240B0
:1028A000000C02400C4810B50A4901604FF4E131B8
:1028B0004160002181600C22C160C0E90412816185
:1028C000C161FFF767FC002803D0BDE81040FDF7A9
:1028D00050BF10BD004C0040B00400200C4810B5A3
:1028E0000A4901604FF4E1314160002181600C220E
:1028F000C160C0E904128161C161FFF74BFC00288F
:1029000003D0BDE81040FDF734BF10BD00500040BB
:10291000F40400200D4810B50B4901600C494160DA
:1029200000214FF480628160C0E903120422C0E9F3
:102930000521C161FFF72EFC002803D0BDE810403F
:10294000FDF717BF10BD0000001001403805002042
:10295000A08601000C4810B50A4901604FF4E1312E
:102960004160002181600C22C160C0E904128161D4
:10297000C161FFF70FFC002803D0BDE81040FDF750
:10298000F8BE10BD004400407C0500200C4810B586
:102990000A4901604FF4E1314160002181600C225D
:1029A000C160C0E904128161C161FFF7F3FB002837
:1029B00003D0BDE81040FDF7DCBE10BD004800406C
:1029C000C00500200C4810B50A4901604FF4E13100
:1029D0004160002181600C22C160C0E90412816164
:1029E000C161FFF7D7FB002803D0BDE81040FDF719
:1029F000C0BE10BD00140140040600201CB57620A6
:102A00008DF804000120034601AA6921009000F01E
:102A1000AFFD1CBD10B5204902202DED028BB0EE9C
:102A2000408A08701D481F4C90ED000A1C4830EE8B
:102A3000480AB0EEC00A10EE101A814215DA1A499F
:102A400091ED000A30EE600AB0EEC00A10EE101AE6
:102A500081420ADA01209FED150A84ED040A84ED13
:102A6000050A2070BDEC028B10BDBDEEE00A00200F
:102A7000207010EE100A00F087FBB1EE400A84EDE2
:102A8000040ABDEEC80A10EE100A00F069FB84EDDE
:102A9000050A0020E6E700000000002000010020F9
:102AA0000000A04188010020040100200000000077
:102AB000FEE7FEE7A0B1D0ED101AC0ED111A90EDBF
:102AC0000F1A80ED101AC0ED060A80ED070A30EEED
:102AD000C00A80ED0F0A017829B101293BD078E0C6
:102AE0009FED3D0A7047D0ED010A60EE801AC0EDFF
:102AF000091AD0ED0A0A90ED022A42EE000A30EEE1
:102B0000410AC0ED0A0A90ED0D2A80ED0E2A90EDE3
:102B10000C2A80ED0D2A80ED0C0A90ED031A21EEAF
:102B2000001A80ED0B1A90ED050AF4EEC00AF1EEE2
:102B300010FA09DCB1EE400AF4EEC00AF1EE10FA28
:102B400002D390ED0A0A01E080ED0A0A31EE800A14
:102B500030EE010A2BE070EE410A90ED012A20EEE2
:102B6000822A80ED092AD0ED020A60EE800AC0EDCB
:102B70000A0AD0ED0D2A72EE200AC0ED0E2AD0ED21
:102B80000C2AC0ED0D2AF0EE002A01EE620A30EEAA
:102B9000210A80ED0C0A90ED031A21EE000A80ED67
:102BA0000B0A30EE800AD0ED080A30EE200A80EDE4
:102BB000080AD0ED040AB4EEE00AF1EE10FA06DCE1
:102BC000F1EE600AB4EEE00AF1EE10FA01D2C0EDC7
:102BD000080A90ED080A704700000000C8B1D0ED67
:102BE000101A514AC0ED111A90ED0F1A80ED101A0B
:102BF000C0ED060A80ED070A30EEC00A10EE101A8A
:102C000080ED0F0ADFED490A914205DD30EE600AE2
:102C100009E09FED470A704710EE101A454A9142AD
:102C200003D930EE200A80ED0F0A017811B1012995
:102C300039D076E090ED010AD0ED0F0A60EE201A4F
:102C4000C0ED091A90ED0A0A90ED022A02EE200A60
:102C500070EEC10A80ED0A0A90ED0D2A80ED0E2A71
:102C600090ED0C2A80ED0D2AC0ED0C0A90ED031AB0
:102C700021EE201A80ED0B1AD0ED050AB4EEE00A21
:102C8000F1EE10FA06DCF1EE600AB4EEE00AF1EEC5
:102C900010FA01D2C0ED0A0A90ED0A0A31EE800A5C
:102CA00030EE010A2BE070EE410A90ED012A60EE51
:102CB000820AC0ED090A90ED022A22EE002A80ED78
:102CC0000A2AD0ED0D2A70EE820AC0ED0E2AD0ED50
:102CD0000C2AC0ED0D2AF0EE002A01EE620A30EE59
:102CE000210A80ED0C0A90ED031A21EE000A80ED16
:102CF0000B0A30EE800AD0ED080A30EE200A80ED93
:102D0000080AD0ED040AB4EEE00AF1EE10FA06DC8F
:102D1000F1EE600AB4EEE00AF1EE10FA01D2C0ED75
:102D2000080A90ED080A704700F07F4500F8FF455B
:102D30000000000000F07FC510B5044600F0D2F896
:102D40002046BDE8104000F057BA00002DE9F041E0
:102D5000444E00242DED048B9FED438ADFED438A22
:102D600006F1D8079FED429A06F5D878DFED419A33
:102D700004EBC40506EBC500F0EE480AB0EE680AA5
:102D80003D4A002100F080F83B4A07EBC500F0EE19
:102D9000480AB0EE490A0C32002100F075F8364AB4
:102DA00008EBC500F0EE480AB0EE690A18320021BF
:102DB00000F06AF8641CE4B2032CD9D32E4A9FEDCC
:102DC0002F8ADFED2F8A2432F0EE480AB0EE680A2F
:102DD00000212C4800F058F8274A2A48F0EE480A0B
:102DE000B0EE680A24320021483800F04DF8224A3B
:102DF0002448F0EE080AB1EE0C0A3C32002190386B
:102E000000F042F81C4A1F48F0EE080AB2EE040A2D
:102E100048320021D83800F037F8174A1948F0EE48
:102E2000080AB1EE080A54320021D83000F02CF81C
:102E3000114A1448F0EE480AB0EE680A3032002118
:102E4000483000F021F8F0EE480AB0EE680ABDEC18
:102E5000048B0021BDE8F041074A0A483032903027
:102E600000F012B8F44600200000000000401C46AC
:102E70000060EA4600409C46240100200000964382
:102E80000000FA44544A0020002828D0002A26D006
:102E9000017092ED001A80ED011A92ED011A80ED99
:102EA000021A92ED021A80ED031A80ED040A9FEDDA
:102EB0000C0AC0ED050A80ED0E0A80ED0D0A80EDCA
:102EC0000C0A80ED080A80ED0B0A80ED0A0A80EDFD
:102ED000090A80ED110A80ED100A80ED0F0A704793
:102EE000000000000C4A00EB400110B502EB81012C
:102EF000F0EE400A31F8081C00EE101A00EBC00199
:102F00000648B8EE400A00EBC104A4F14800FFF700
:102F100065FE14ED0A0A10BD544C0020A4480020A0
:102F200010B50A480A49DFED0C0A00680968401A22
:102F300008494B3000EE100A08600848B8EEC00A95
:102F4000FFF7B8FD054890ED080A10BD58000020B5
:102F50006C00002020010020000000002C4B00200D
:102F600070B5364D04462DED088B95ED000A9FEDAA
:102F700034BA30EE0B0A10EE100A03F011FF9FED89
:102F8000319B53EC192B03F04BFC9FED30AB53EC12
:102F90001A2B03F057FA41EC100B01F09DF92D4E5E
:102FA000B0EE408AF0EE608A306803F0E9FB53EC43
:102FB000182B03F035FC41EC180B204603F0C9FB3D
:102FC00053EC182B03F002FE03F094FB002800DA08
:102FD00040420A2804DA9FED200ABDEC088B70BD40
:102FE00095ED000A30EE0B0A10EE100A03F0D8FE41
:102FF00053EC192B03F014FC53EC1A2B03F022FAB8
:1030000041EC100B01F068F9B0EE408AF0EE608AF6
:10301000306803F0B5FB53EC182B03F001FC03F010
:103020002BF900EE904A00EE100A0C48F8EEE00A88
:10303000FFF740FD094890ED080ACEE7FC000020AC
:103040000000B4421F85EB51B81E0940000000008B
:10305000008076405800002000000000544A002004
:1030600070B5364D04462DED088B95ED000A9FEDA9
:1030700034BA30EE0B0A10EE100A03F091FE9FED09
:10308000319B53EC192B03F0CBFB9FED30AB53EC92
:103090001A2B03F0D7F941EC100B01F01DF92D4E5E
:1030A000B0EE408AF0EE608A306803F069FB53ECC2
:1030B000182B03F0B5FB41EC180B204603F049FB3D
:1030C00053EC182B03F082FD03F014FB002800DA08
:1030D00040420A2804DA9FED200ABDEC088B70BD3F
:1030E00095ED000A30EE0B0A10EE100A03F058FEC0
:1030F00053EC192B03F094FB53EC1A2B03F0A2F9B9
:1031000041EC100B01F0E8F8B0EE408AF0EE608A76
:10311000306803F035FB53EC182B03F081FB03F010
:10312000ABF800EE904A00EE100A0C48F8EEE00A08
:10313000FFF7C0FC094890ED080ACEE7FC0000202C
:103140000000B4421F85EB51B81E0940000000008A
:103150000080764044000020000000000C4A00205F
:1031600000EE100A064810B5F8EEC00A90ED000A0D
:103170000448FFF79FFC034890ED080A10BD0000CB
:10318000000100209C4A002000EE100A064810B5FD
:10319000F8EEC00A90ED000A0448FFF78BFC0348E4
:1031A00090ED080A10BD000004010020E44A002050
:1031B0000D4810B590ED001A0C4970EE410AF0EE82
:1031C000E00A10EE900A884202DA9FED090A10BD6B
:1031D000F0EE400AB0EE410A0648FFF76BFC0548E6
:1031E00090ED080A10BD0000FC0000209A99993E5D
:1031F00000000000C44900200C4A00EB400110B55B
:1032000002EB8101F0EE400A31F9061C00EE101AC3
:1032100000EBC0010648B8EEC00A00EBC104A4F1FF
:103220004800FFF747FC14ED0A0A10BD544C00207B
:10323000CC4700200C4AC0EBC00110B502EB810165
:10324000F0EE400A31F91A1C00EE101A00EBC00132
:103250000648B8EEC00A00EBC104A4F14800FFF72D
:1032600029FC14ED0A0A10BD744B0020F44600201E
:103270002DE9F047324C0546274694F800C078788F
:10328000BA780146401C00262E4BBF6A4FF0050A53
:103290004FF00109C0B2BCF1080F4AD2DFE80CF0D0
:1032A000040B171D29303445A52D0AD184F8009050
:1032B00048461D7004E05A2D39D1022222705D5417
:1032C0006070BDE8F08700BF84F80090F9E7032242
:1032D00022705D546070A570F3E7042626705D547B
:1032E0006070E5701844A062002AEAD184F800A05A
:1032F000E7E75D546070B91818448142F6D0E0E702
:10330000062020706581DCE7A07A4FF6FF7202EAA2
:103310000020284460810B48FDF78CF961898842C0
:1033200005D12078401C2070CBE7FF2D03D0A52DC0
:10333000CAD02670C5E73946E078FDF7DBF9F8E733
:10334000EC000020884400202DE9F047324C05466F
:10335000274694F804C0797900264A1CD3B2BA797A
:103360002E48FF6A4FF0050A4FF00109BCF1080F23
:103370004BD2DFE80CF0040D181E2A313546A52D7E
:1033800004D184F80490057084F80590BDE8F087B6
:103390005A2D38D10222227145546371F6E700BFDD
:1033A00084F80490F2E70322227145546371A571F9
:1033B000ECE70426267145546371E5711844E06218
:1033C000002AE3D184F804A0E0E74554B918184472
:1033D00063718142F6D0D9E706202071A581D5E737
:1033E000207B4FF6FF7202EA00202844A0810B48A0
:1033F000FDF720F9A189884205D12079401C207170
:10340000C4E7FF2D03D0A52DCAD02671BEE73946EB
:10341000E079FDF77FF9F8E7EC000020B4450020E3
:1034200008B50026334FDFF8D090DFF8D0A0344C39
:10343000DFF8D080FF2500BF8DF800602078482895
:1034400004D0502827D051283BD04FE038780628A8
:103450001FD18DF80050257001226946482000F0E8
:10346000C7F80A2001F04AFF2078482802D13878AE
:103470000628F0D0012291022348FEF7F5F9052134
:1034800089F80010084601F039FFD8F8280002F04A
:1034900021FC25702AE0CAF80060397889F800100C
:1034A0008DF80050257001226946502000F0A0F8E8
:1034B0000A2001F023FF20785028F3D0D8F820000C
:1034C00012E00121CAF800108DF800502570012289
:1034D0006946512000F08CF80A2001F00FFF207897
:1034E0005128F3D0D8F81C0002F0F4FB032001F0BF
:1034F00005FFA1E7E04600208B01002089010020A4
:10350000F400002000000020000C024070B50D46C1
:103510000646002404E0305D00F012F8641CE4B2BA
:10352000AC42F8D370BD70B50D460646002404E0E9
:10353000305D00F011F8641CE4B2AC42F8D370BD09
:1035400001B54FF47A73012269460248FEF7AEFFD7
:1035500008BD00007C05002001B54FF47A730122FC
:1035600069460248FEF7A2FF08BD000004060020DD
:103570002DE9F047FF251C4C089F994692460E46C0
:10358000022805D001281AD16572DFF8608021E099
:10359000DFF858802572A8F10A0808E025724A462B
:1035A0005146304600F024F8052001F0A7FE98F8B7
:1035B0000000B842F2D1207AB042EFD12572BDE8C6
:1035C000F08765724A465146304600F03EF80520C5
:1035D00001F094FE98F80000B842F2D1607AB0424F
:1035E000EFD16572EBE70000EC000020EA46002016
:1035F00030B5CBB0A5238DF800305A238DF80130BB
:103600008DF802208DF8030004246D46002005E0AB
:103610000B5C2B55641C401CE4B2C0B29042F7D343
:10362000121DD1B22846FDF705F8010A2955641C80
:10363000E1B26854491CC8B2FF212954401CC1B2F0
:103640006846FFF763FF4BB030BD30B5CBB0A52364
:103650008DF800305A238DF801308DF802208DF856
:10366000030004246D46002005E00B5C2B55641C10
:10367000401CE4B2C0B29042F7D3121DD1B228462A
:10368000FCF7D8FF010A2955641CE1B26854491CB3
:10369000C8B2FF212954401CC1B26846FFF743FF5E
:1036A0004BB030BD2DED048B82B0B84C206902F0D8
:1036B00085FB606902F082FBA06902F07FFBE06994
:1036C00002F07CFB606A02F079FB206A02F076FB74
:1036D000A06A02F073FB4FF4FA6001F00FFEAC48F1
:1036E000FEF73EFFAB48FEF73BFFAB48FEF738FF67
:1036F000FFF784F94FF0010A84F800A011208DF83B
:103700000000A64DA64E02E0142001F0F7FD287837
:103710002128F9D13078312801D01328F4D1A048DC
:10372000FF2706782F70012269462120FFF760FFEE
:10373000142001F0E3FD28782128F3D0A046E068AA
:1037400002F0C8FA9FED978ADFF85C929748984C90
:1037500089ED008A80ED008A84ED008A88F800A057
:103760009FED949ADFED948A4FF47A6B4FF0020A42
:10377000132E75D0312E6DD15FF0000600EE106A69
:103780006420B8EEC00A84ED000A01F0B7FD06F52A
:1037900096765E45F2DBC4ED008A40F6DA4001F031
:1037A000ADFD5E4600EE106A6420B8EEC00A84EDFE
:1037B000000A01F0A3FDA6F59676002EF2DC89ED55
:1037C000008A4E4684ED008A642001F097FD86ED64
:1037D000009A84ED008A4FF4166001F08FFD774E59
:1037E00088F800A000EE106A6420B8EEC00A89EDE7
:1037F000000A01F083FD16F59676F3D489ED008A70
:1038000084ED008AC82001F079FD002600EE106AE0
:103810000320B8EEC00A84ED000A01F06FFD06F542
:1038200096765E45F2DBC4ED008A40F6340001F086
:1038300065FD5E4600EE106A0320B8EEC00A84ED16
:10384000000A01F05BFD0A3E002EF3DC89ED008AE0
:1038500084ED008A77208DF80000514E55E0FFE797
:103860009FED570A4E4689ED000A9FED560A40F239
:10387000DC5084ED000A01F041FD86ED009A84EDF4
:10388000008A4FF4FA6001F039FD4C4E88F800A030
:1038900000EE106A6420B8EEC00A89ED000A01F05B
:1038A0002DFD16F52F76F3D489ED008A84ED008A7C
:1038B000C82001F023FD002600EE106A0320B8EEB8
:1038C000C00A84ED000A01F019FD06F596765E4502
:1038D000F2DBC4ED008A40F6340001F00FFD5E46D5
:1038E00000EE106A0320B8EEC00A84ED000A01F071
:1038F00005FD0A3E002EF3DCA8E7012269462120DF
:10390000FFF776FE052001F0F9FC28782128F4D194
:103910003078B3461128F0D14646D8F8140002F0AA
:10392000D9F986F800A0287828282AD1BBF80010F9
:10393000B180BBF8020070802F7086F800A0B6F945
:1039400004104FF4FA60814200DDB080B6F9021035
:10395000814200DD7080B6F9040002F0FAFE9FEDAE
:103960001A1B53EC112B02F06DFD02F085FCC9F817
:103970000000B6F9020000EE100AB8EEC00A84EDAD
:10398000000A0A2001F0BAFCCDE700000000002088
:10399000C0050020B0040020F4040020F400002042
:1039A000E04600200000000098010020A001002057
:1039B0009C01002000007AC500007A4560F0FFFFFE
:1039C0000000FAC40000FA44CDCCCCCCCCCCF43FFF
:1039D00010B5FDF755FF02F06DFB012803D0BDE8DF
:1039E000104002F0F9BA10BD30B593B030216846EE
:1039F000FCF763FD14210CA8FCF75FFD1E480025B1
:103A0000016841F080510160006800F08050119021
:103A10001A48016841F4804101600068022400F402
:103A20008040119001200090000401908001CDE9B8
:103A30000640192008904FF4A870CDE9090404202D
:103A40000B906846FEF7A6F808B172B6FEE70CA91F
:103A50000F2081E831004FF4A0500F904FF48050B8
:103A6000109005210CA8FDF7A9FF002801D072B61F
:103A7000FEE713B030BD0000403802400070004047
:103A80000248016841F470010160704788ED00E070
:103A9000C82002F0F9F8054D4FF40064214628468D
:103AA000FDF7DAFEC82001F029FCF7E7000C024020
:103AB000174810B50022811C436B097853B1036C81
:103AC0005B1C0364846B21438163042B11D00902C6
:103AD000816312E0036B0F4C194321F07D430163B6
:103AE000A34203D10121C0E90C2106E009020163D0
:103AF00003E0C0E90F12826342630748FEF716FA3B
:103B000003490122BDE81040891C0348FEF7B8BCF8
:103B1000300000200469B402B0040020164810B53B
:103B20000146C2680978002352B18269521C826141
:103B3000046921430161042A10D00902016111E0E6
:103B4000826811430D4A8160B2EB012F03D101213C
:103B5000C0E9023106E00902816003E0C0E9051313
:103B60000361C3600648FEF7E1F9BDE81040012299
:103B700001490348FEF784BC30000020000469B40A
:103B8000F404002010B5806B0021C185C184FEF7CC
:103B9000CCF910BD01680C3151E8002F22F490726D
:103BA00041E80023002BF5D10168143151E8002FC2
:103BB00022F0010241E80023002BF5D1016B01291D
:103BC00009D101680C3151E8002F22F0100241E8C0
:103BD0000023002BF5D1202180F83E100021016345
:103BE000704708B590F83E10222901D0022008BD88
:103BF00082684FF480539A4201D1016921B1816AF0
:103C00009A421BD04AB10AE00268816A5268C2F344
:103C100008020A80816A891C08E0026972B10268A0
:103C2000526802F07F020A70816A491C8162C18D6C
:103C3000491E0904090CC18503D019E002685268C5
:103C4000F1E70168CA6822F02002CA600168CA6808
:103C500022F48072CA6001684A6922F001024A6156
:103C6000202180F83E10016B012903D0FEF71DFCD6
:103C7000002008BD0021016301680C3151E8002FCC
:103C800022F0100241E80023002BF5D101680A68F8
:103C9000D20602D50A6849680091818DFEF744F981
:103CA000E6E7000070B5044600680169E26821F4A7
:103CB0004051114301612169A068E26908436169CB
:103CC000114308432168CA6849F20C639A430243CE
:103CD000CA6020684169A26921F4407111434161C1
:103CE00031492068884202D03049884202D1FDF72C
:103CF0000FFF01E0FDF7FCFEE269002319216425B6
:103D00003226B2F5004F626828D0A0FB0101930F64
:103D10009200FCF729FB0146B0FBF5F06FF01802AA
:103D2000504301EB800006EB0010B0FBF5F000F013
:103D3000F002B1FBF5F002EB0012B1FBF5F06FF011
:103D40001803584301EB800006EB0010B0FBF5F0C0
:103D500000F00F0021681044886070BDA0FB0101D5
:103D600092185B41FCF700FB0146B0FBF5F0020145
:103D7000B1FBF5F06FF01803584301EB800006EB40
:103D8000C000B0FBF5F000F0F80002EB4002B1FB20
:103D9000F5F0584301EB800006EBC000B0FBF5F0F6
:103DA00000F00700D6E700000010014000140140B9
:103DB00081628285C28500210164222280F83E2032
:103DC00080F83C10016921B10168CA6842F4807230
:103DD000CA6001684A6942F001024A610068C1682C
:103DE00041F02001C160002070472DE9F041984664
:103DF00017460E460446069D27E0681C25D02DB1C7
:103E0000FDF738FDA0EB0800A8421ED920680C3051
:103E100050E8001F21F4D07140E80012002AF5D1CB
:103E20002068143050E8001F21F0010140E8001222
:103E3000002AF5D1202084F83D0084F83E000020BF
:103E400084F83C000320BDE8F0812068006836EA71
:103E5000000004D00020B842CFD00020F3E70120BA
:103E6000F9E700000148FEF761B8000038050020BE
:103E7000074810B50078FFF7FBF90648FEF756F83B
:103E8000BDE81040012202490248FEF7F9BA0000DD
:103E9000330000207C050020174810B50023411C8A
:103EA000026A097852B1C26A521CC262446A214352
:103EB0004162042A10D00902416211E0C269114333
:103EC0000E4AC161B2EB012F03D10121C0E90731D4
:103ED00006E00902C16103E0C0E90A13436203621C
:103EE0000748FEF723F804490122BDE81040491CA9
:103EF0000348FEF7C5BA000030000020000469B492
:103F0000C0050020074810B50079FFF71DFA0648E4
:103F1000FEF70CF803490122BDE81040091D0248D4
:103F2000FEF7AEBA3000002004060020FEE703B41E
:103F300001984100009850EAC12018BF04204A0DA2
:103F400018BF40F0010040F2FF72B2EB515F08BFB2
:103F500040F00200012808BF052002B070470907A1
:103F6000090E002804DB00F1E02080F800147047FF
:103F700000F00F0000F1E02080F8141D70470000F1
:103F800010B5B94A2DED020B2DED0C8B82B00F99B7
:103F900021F000409FEDB6CB90422CDBA0F14053C6
:103FA0000E9AA3F17F631A430FD0B349884202DC13
:103FB00016D10E98A0B19DED0E0B02B0BDEC0C8B8E
:103FC00002B0BDE8104000F083BE0029C1BF9FEDE4
:103FD000AC0B02B0BDEC0C8B02B0C8BF10BD16E03C
:103FE0000120FCF799FA02B0BDEC0C8B02B0BDE8E1
:103FF000104000F079BEA44A9FEDA59B9FEDA6ABB3
:1040000090425EDAA6499FEDA8CB814208DBB0EE74
:104010004C0AF0EE6C0A02B0BDEC0C8B02B010BD85
:104020009DED0E0B53EC102B51EC100B02F0F8FB36
:1040300041EC180B9E480621B0EE480AF0EE680AE3
:10404000784400F031FD53EC182B51EC100B02F0CA
:10405000E7FB41EC1B0B9748B0EE480AF0EE680A0C
:104060000421784400F020FD53EC182B51EC100B88
:1040700002F0D6FB53EC192B02F030F941EC100B97
:1040800051EC1B0B53EC102B02F0DCF941EC100B44
:1040900053EC102B9DED0E0B51EC100B02F0C0FBFE
:1040A00053EC1A2B02F0BAFC9DED0E1B53EC112BB6
:1040B00002F0B4FC53EC1C2B02F0B0FC41EC100BF2
:1040C000A9E79FED7D8B9FED7EBB9DED0E0B00293B
:1040D00053EC192B51EC100B52DA02F0FFF853ECB1
:1040E000182B02F09DFB41EC180B77480621B0EE2F
:1040F000480AF0EE680A784400F0D6FC53EC182B1E
:1041000051EC100B02F08CFB41EC1D0B6F48B0EE34
:10411000480AF0EE680A0421784400F0C5FC53EC2C
:10412000182B51EC100B02F07BFB53EC192B02F017
:10413000D5F841EC190B51EC180B01F08FFC41EC58
:10414000180B53EC192B51EC1D0B02F07BF953ECBF
:10415000182B02F065FB53EC1A2B02F037FD41ECF3
:10416000100B51EC180B53EC102B02F0B7F853EC7A
:104170001B2B02F055FB53EC1C2B02F04FFC6DE0A7
:1041800002F04CFC53EC182B02F04AFB41EC180BEC
:1041900001F064FC41EC1A0B00208DED00AB0090A7
:1041A0009DED000B51EC1A0B53EC102B02F096F81E
:1041B0009DED000B41EC1C0B53EC102B51EC100B44
:1041C00002F02EFB53EC182B02F028FC53EC1C2BB6
:1041D00002F038F941EC1C0B3D48B0EE480AF0EE15
:1041E000680A0621784400F05FFC53EC182B51EC70
:1041F000100B02F015FB41EC1D0B3648B0EE480ADF
:10420000F0EE680A0421784400F04EFC53EC182BC1
:1042100051EC100B02F004FB53EC192B02F05EF88A
:1042200041EC100B51EC1D0B53EC102B02F00AF972
:1042300053EC1A2B02F0F4FA53EC1C2B02F04EF85C
:1042400041EC100B53EC102B9DED000B51EC100BBF
:1042500002F044F853EC1B2B02F0E2FA41EC100B95
:10426000D9E60000000000000000F03F0000000060
:10427000182D4454FB2109400000F07F000000008D
:1042800000000000000000000000E03F000000000F
:10429000000000000000F03F075C143326A6913CAC
:1042A0000000603C00000000182D4454FB21F93F41
:1042B000742F0000822F0000000000000000E03F8B
:1042C0000000000000000040BE2E0000CC2E0000C8
:1042D000D02D0000DE2D000010B52F499FED2C1BC6
:1042E0002DED020B84B0059820F000408842D8BF25
:1042F0009DED040B2DDD2949884209D1049840B970
:104300004FF00100FCF708F900F0EEFC06B010BD1C
:1043100005DB9DED040B00F0DBFC06B010BD68462C
:104320009DED040B00F0ECF810F0030004BF9DEDD0
:10433000021B9DED000B0CD001280ED09DED021B41
:104340009DED000B022817D0012000F029FC06B0DB
:1043500010BD00F0F1FA06B010BD9DED021B9DED01
:10436000000B012000F01CFC51EC100B01F078FF59
:1043700006B041EC100B10BD00F0DEFA51EC100B52
:1043800001F06EFF06B041EC100B10BD0000000004
:104390000000000000000000FB21E93F0000F07F6A
:1043A0002DED020B019820F0004001909DED000BD7
:1043B00002B070470000000010B52F499FED2C1B84
:1043C0002DED020B84B0059820F000408842DCBF40
:1043D00000209DED040B32DD2849884209D1049864
:1043E00040B94FF00100FCF797F800F07DFC06B0F3
:1043F00010BD05DB9DED040B00F06AFC06B010BD9E
:1044000068469DED040B00F07BF810F0030011D01E
:10441000012818D09DED021B9DED000B02281AD03B
:1044200000F08AFA51EC100B01F01AFF06B041ECD3
:10443000100B10BD9DED021B9DED000B012000F047
:10444000AFFB06B010BD9DED021B9DED000B00F013
:1044500073FA06B010BD012000F0A2FB51EC100B66
:1044600001F0FEFE06B041EC100B10BD0000000094
:104470000000000000000000FB21E93F0000F07F89
:1044800000B52DED048BB0EE409AF0EE609A83B04B
:1044900051EC190B02F0CEFA41EC180B18EE100A91
:1044A00018EE901A8DED008B002818BF01200843EC
:1044B00020F00040C0F17F6000F1E040C00F14D058
:1044C00019EE101A19EE900A8DED009B002918BF05
:1044D0000121084320F00040C0F17F6000F1E0407E
:1044E000C00F04BF0120FCF717F8B0EE480A03B074
:1044F000F0EE680ABDEC048B00BD00000000000077
:104500002DE9F14F04462DED020B2DED088B8AB0FD
:104510009FEDE70B80ED020B139EE74826F0004568
:1045200085420ADC9DED120B002084ED000B0AB0E1
:10453000BDEC088B03B0BDE8F08FE0489FEDE0AB29
:104540009FEDE1BBA84247DDE14F9FEDE39B9FED6F
:10455000E48B9DED120B53EC1A2B51EC100B002E3B
:104560001CDD02F033FB41EC100BBD4208D053ECD4
:104570001B2B51EC100B02F029FBC4E900010BE0EE
:1045800053EC192B51EC100B02F020FB53EC182BC1
:1045900002F01CFBC4E900010120C8E701F09EFE07
:1045A00041EC100BBD4208D053EC1B2B51EC100B0F
:1045B00001F094FEC4E900010BE053EC192B51EC1F
:1045C000100B01F08BFE53EC182B01F087FEC4E9B1
:1045D00000014FF0FF30AAE7C348A84279DB9DED08
:1045E000120B51EC100B00F01BFC41EC180B9FED73
:1045F000C00B53EC102B02F013F99FEDBF1B53ECD3
:10460000112B01F06BFE02F075F8074602F0A1F8DD
:1046100041EC190B53EC1A2B02F002F953EC182B56
:1046200002F0FCF941EC180B53EC1B2B51EC190B6D
:1046300002F0F6F8DFF8C8A241EC100B4FEA15586B
:104640000125FA4453EC102B51EC180B02F0BEFA82
:10465000032DC4E900013DD0C1F30A5005EB45111B
:10466000A8EB00001139814234DA0AEB051BB0EEE9
:1046700048AA9BED000BF0EE68AA53EC102B51EC0E
:10468000190B02F0CDF841EC1B0B51EC1A0B53EC5B
:104690001B2B02F09BFA41EC180B51EC1A0B53EC5C
:1046A000182B02F093FA53EC1B2B02F08FFA9BEDC0
:1046B000020B41EC1A0B53EC102B51EC190B02F0CE
:1046C000AFF853EC1A2B02F081FA41EC100B6D1C81
:1046D000B8E70EE0002EA8BF3846BFF628AF94ED2D
:1046E000000B51EC100B01F0BBFDC4E90001784256
:1046F0001DE7C6F3130040F4801EC6F30A50A0F273
:10470000F530471100F01F05C5F12000DDF848B075
:1047100008900020069007900520EC467949002D6E
:1047200007EB0002794408BF51F8221009D051F874
:10473000223001EB8201AB404A68089922FA01F16C
:104740001943A1FB0E26A1FB0B131A449A4234BF56
:104750000123002303EB06080CEB8003D3E901A639
:104760000E448E4234BF0121002192448A4411B18B
:10477000924502D903E0924501D2012100E00021D7
:10478000C3E901A641444CF82010011EA0F101002C
:10479000C4DC029800F10050850F0298DDE9036740
:1047A0008000DDF8148001F0D4FF41EC1A0B304694
:1047B00001F0E6FF9FED541B53EC112B02F030F893
:1047C00041EC1B0B384601F0DBFF9FED511B53EC16
:1047D000112B02F025F841EC180B404601F0D0FFF8
:1047E0009FED4D1B53EC112B02F01AF841EC190B05
:1047F00051EC180B53EC192B01F070FD53EC1B2BF3
:1048000001F06CFD53EC1A2B01F068FDCDE90801B5
:10481000002008909DED080B53EC1A2B51EC100B67
:1048200002F0D4F953EC1B2B02F0D0F953EC182B07
:1048300002F0CCF953EC192B02F0F0F89FED381B85
:1048400053EC112B01F0ECFF9FED370B41EC180BF3
:1048500053EC102B9DED080B51EC100B01F0E0FF19
:1048600053EC182B01F03AFD9FED310B41EC180B86
:1048700053EC102B9DED080B51EC100B01F0D0FF09
:1048800053EC182B01F02AFD41EC100B139810F09B
:10489000004F06D06D4251EC100B01F0E1FC41ECF1
:1048A000100B284684ED000B41E6000000000000DC
:1048B0000000000000000000FB21E93F7CD902401D
:1048C00000004054FB21F93F3163621A61B4D03DCE
:1048D000FB21F93F000000000000601A61B4D03DE8
:1048E0007370032E8A19A33BFB213941000000009D
:1048F00083C8C96D305FE43F000000000000E03F66
:10490000F229000040290000000000000000103ED5
:10491000000000000000103C000000000000103A01
:10492000182D4454FB21F93D3326A611460B113CAA
:1049300000000054FB21F93D10B52DED040B2DEDC9
:10494000088B82B0B0EE419AF0EE619A0B9820F09D
:1049500000449FED4BABB4F1795F11DA9DED0A0B8A
:1049600051EC100B01F0C6FE002801BFB0EE4A0A60
:10497000F0EE6A0A02B0BDEC088B04BF04B010BDB3
:104980009DED0A0B53EC102B51EC100B01F048FF7E
:1049900041EC180B3C480621B0EE480AF0EE680ADC
:1049A000784400F081F853EC182B51EC100B01F017
:1049B00037FF9DED0A0B41EC1B0B53EC192B51EC0F
:1049C000100B01F02DFF41EC190B53EC1B2B51EC9C
:1049D000180B01F025FF53EC192B02F0F7F89FEDAF
:1049E0002C0B41EC190B53EC102B51EC180B01F074
:1049F00017FF41EC100B2848844210DA53EC192BB6
:104A000051EC100B02F0E2F853EC1A2B02F006F80E
:104A100041EC100B02B0BDEC088B04B010BD1F4878
:104A2000A042BCBF9FED1E1B8DED001B06DBA4F555
:104A300000100190002000909DED001B51EC100B28
:104A400053EC112B02F0C2F89DED000B41EC180B5A
:104A500053EC102B51EC1A0B02F0B8F841EC1A0B86
:104A600053EC192B51EC180B02F0B0F853EC1A2B45
:104A700001F0D4FF41EC100BCCE700000000000077
:104A8000000000000000F03F64260000000000006D
:104A9000000000000000E03F3333D33F0000E93F57
:104AA000000000000000D23F70B504462DED028BDF
:104AB0004D1E00EBC500B0EE408AF0EE608A90ED2E
:104AC000000B35F0060017D053EC182B51EC100BEF
:104AD00001F0A6FE41EC100B6D1E04EBC50090ED3D
:104AE000001B51EC100B53EC112B01F0F7FB41ECC8
:104AF000100B35F00600E7D1022D36D0042D1CD066
:104B0000062D1CBFBDEC028B70BD53EC182B51EC75
:104B1000100B01F085FE94ED0A1B53EC112B01F0F4
:104B2000DDFB53EC182B01F07BFE94ED081B53ECDE
:104B3000112B01F0D3FB41EC100B53EC182B51EC73
:104B4000100B01F06DFE94ED061B53EC112B01F0E0
:104B5000C5FB53EC182B01F063FE94ED040B53ECF2
:104B6000102B01F0BBFB41EC100B53EC182B51EC5C
:104B7000100B01F055FE94ED021B53EC112B01F0CC
:104B8000ADFB53EC182B01F04BFE94ED001B53ECE6
:104B9000112B01F0A3FBBDEC028B41EC100B70BD9F
:104BA00031B504462DED040B2DED0A8BB0EE41BA64
:104BB000F0EE61BA0B989DED0A0B20F00040B0F1C9
:104BC000795F0DDA51EC100BFFF7B1F9042808BF3B
:104BD00000F09AF89DED0A0BBDEC0A8B05B030BDD4
:104BE00053EC102B51EC100B01F01AFE41EC180B9A
:104BF0009DED0A0B53EC182B51EC100B01F010FE3D
:104C000041EC190B2C48B0EE480AF0EE680A052179
:104C10007844FFF749FF9FED2ACBB0EE40AAF0EEB3
:104C200060AA9CB353EC1C2B51EC190B01F0F8FD5E
:104C300041EC1C0B53EC1A2B51EC190B01F0F0FD5D
:104C40009FED210B41EC190B53EC102B51EC1B0B7E
:104C500001F0E6FD53EC192B01F0B8FF53EC182BD3
:104C600001F0DEFD53EC1B2B01F0B0FF53EC1C2BCD
:104C700001F0ACFF9DED0A1B53EC112B01F0CEFEB1
:104C8000BDEC0A8B05B041EC100B30BDFFE753ECD7
:104C90001A2B51EC180B01F0C3FD53EC1C2B01F047
:104CA0001DFB53EC192B01F0BBFD9DED0A1B53ECD2
:104CB000112B01F013FBE3E7EC24000000000000DF
:104CC000495555555555C5BF000000000000E03F4F
:104CD00010B553EC102B51EC100B01F0FFFA41EC26
:104CE000100B10BD000000009FED050B10B553EC3C
:104CF000102B51EC100B01F0A5FB41EC100B10BD7B
:104D000000000000000000009FED050B10B553EC03
:104D1000102B51EC100B01F083FD41EC100B10BD7A
:104D20000000000000000010DFF8DC90DFF8E080F9
:104D30004FF0020B2DED028B82B09FED348AA9F16A
:104D40001C0AA9F1380400253249142081F800B06A
:104D500000F0D4FA2570A570012265715102404619
:104D6000FCF782FD4E4657460A2000F0C7FA6078ED
:104D7000B0EE481A06EB800107EB8000D1ED000A87
:104D800090ED000AFDF746FE20710028ECD0234884
:104D90009FED210A84ED040A84ED050A006800F005
:104DA00099FF02E00A2000F0A9FA60790028F9D002
:104DB00000224FF480614046FCF756FD124E343617
:104DC000A6F1180702E00A2000F098FAE078B0EEA9
:104DD000480A56F8201057F82000FDF7D5FB0028A8
:104DE000F1D0012211024046FCF73EFDFF20009069
:104DF0008DF80450012301AA50210220FEF7B8FBD0
:104E0000002000F0DBFF9FE7C00100200000B4C2DB
:104E1000000C0240000000200000000018000020EC
:104E200082B0CDE9000121F0004001909DED000B22
:104E300002B051EC100B70472DED028B82B0DFF801
:104E4000BC902F4E2F4CDFF8C0804FF0010A002598
:104E50004FF480676571A57086F800A0012239467D
:104E60004046FCF701FDD9F8000000F033FF02E0F6
:104E70000A2000F043FA60790028F9D00520E0709C
:104E8000142000F03BFA02203070142000F036FAB3
:104E90001E48006800F01EFF02E00A2000F02EFA13
:104EA000A0780028F9D0012239464046FCF7DCFC06
:104EB0009FED178A84ED048A84ED058AFDF79EFD37
:104EC0004FF4967000F01AFA12480022394680ED2D
:104ED000008A114880ED008A4046FCF7C5FCFF209F
:104EE00000908DF80450012301AA48210220FEF70A
:104EF0003FFB002000F062FFACE70000180000203C
:104F00000000002088010020000C02402400002046
:104F100000000000100100200C010020098849BA9F
:104F200001808182704710B5B0F9003003810A8892
:104F300052BA02804C88D31A64BA44808C88B3F584
:104F4000805F64BA848089798171016901DD491EBD
:104F500003E013F5805F01DA491C016102EB413186
:104F6000828A891AC16010BD3EB5124C4FF400759B
:104F700025600025A560E56008252561040A8DF8F7
:104F800000408DF80100080A8DF80200100A8DF823
:104F900004008DF80520180A8DF806008DF803101E
:104FA0008DF8073002AB6A4602490348FBF7A4FDBF
:104FB0003EBD0000A84C00206004002010B58AB05F
:104FC00040F2FF14029400240494059408240694EB
:104FD000040A8DF800408DF80100080A8DF80200DF
:104FE000100A8DF804008DF80520180A8DF80600C7
:104FF0008DF803108DF8073008AB6A4602A9024805
:10500000FBF77AFD0AB010BD8804002010B51849DE
:1050100001202DED028B0870142000F06FF9154867
:10502000154900680968401A4B3000D540429FED91
:10503000138A134C04280FDAA079401CC0B2A07167
:1050400002280BD984ED068A84ED048A84ED058A52
:105050000120BDEC028B10BD0020A071FDF760FFA8
:1050600084ED060A84ED048A84ED058A0020F0E7C9
:1050700000000020580000206C000020000000000C
:10508000880100202DED028B00259FED268B274CFB
:10509000657102E0062000F031F9B0EE480AF0EE4A
:1050A000680AFBF7D7FC0028F4D002E0062000F0E5
:1050B00025F9FFF7ABFF0028F8D04FF4FA7000F0A5
:1050C0001DF91B48DFED1B0A90ED000A1A4830EE6F
:1050D000200ADFED1B0A80ED000A184890ED000A57
:1050E0001948B8EE400A30EE200ADFED160A30EE1D
:1050F000C00ADFED170A80ED000A144890ED000A9F
:105100001548B8EE400A30EE200ADFED120A30EE04
:10511000C00A80ED000A01206071002000F04EFE00
:10512000B6E7000000000000008056C088010020A3
:10513000FC0000200000B4420801002058000020BC
:1051400000007A430000FA440C01002044000020D3
:105150000000344300C0C144100100200C4D2DED6F
:10516000028BA5F16C049FED0B8A04F15406E078E4
:10517000B0EE480A55F8201056F82000FDF704FA62
:1051800010B1002000F01AFE062000F0B7F8EEE79C
:10519000F40100200000B4C2FCF77AFBFEF724FC07
:1051A000FDF7EAFAFDF766FAFDF720FAFDF740FA97
:1051B000FDF7B0FBFDF7CEFBFDF704FCFDF78EFB22
:1051C000FDF7E4FBFDF76EFBFBF7EAF9FBF704FAEA
:1051D0001248FBF71FFA1248FBF71CFAFDF7B6FD61
:1051E000012210491048FDF74BF901220F491048E0
:1051F000FDF746F901220F490F48FDF741F9012259
:105200000E490F48FDF73CF901220E490E48FDF703
:1052100037F9FDF745FA00F078F8FEE76004002062
:1052200088040020330000207C050020310000208D
:10523000C005002030000020F404002032000020CF
:10524000B0040020340000200406002001460020A5
:10525000842900D0C81C7047114F104EA7F13804A4
:105260002DED028B02259FED0F8A04F11C0835708D
:105270006078B0EE481A07EB800108EB8000D1EDB2
:10528000000A90ED000AFDF7C5FB10B1002000F008
:1052900095FD062000F032F8E9E70000000000204C
:1052A000C00100200000B4C22DED028B104D114C46
:1052B0009FED118A2878012802D0022805D012E03B
:1052C00004F1100090EC030A0BE0B0EE480A84ED04
:1052D000020AFDF76DFFB1EE401AD4ED050A94ED18
:1052E000040A00F083FA072000F008F8E2E7000063
:1052F00000000020880100200000B4C210B500B9F1
:10530000012000F0C1FC002010BD10B500F020FD10
:10531000002010BD7FB50D4604464169B0F9080074
:1053200081B1A16971B1FFF791FFD4E905128DE850
:105330000700D4E900102B46226900F090FE03908C
:1053400004B070BDFFF782FF03A9CDE90001208AF8
:105350002B4682B2D4E9001000F054FE012801D09F
:105360000020EDE70398EBE72DE9F041184C0F46DC
:105370000546E6682068001D00F0BEFB38B92068CD
:1053800090F82C1001208840216981432161681C1C
:1053900007D137B12168BDE8F0410E48091D00F082
:1053A000EFBB20683544B5424560216805D2A06B4B
:1053B000BDE8F041091D00F0CBBB606B091D00F09A
:1053C000C7FBA06A854200D2A562BDE8F08100005B
:1053D00084000020840700202DE9F041054600F0FC
:1053E000DBFB2E4CA068401CA06020682C4F10B145
:1053F000606940B32DE02560A068012829D100260E
:1054000006EB860007EB800000F094FB761C072E6D
:10541000F6D323488C3000F08DFB2148A03000F0FB
:1054200089FB1F48B43000F085FB1D48C83000F0F0
:1054300081FB1B48DC3000F07DFB19488C30606339
:105440001430A06305E02068E96AC06A884200D889
:105450002560606A401C6062E96A01202269884018
:105460001043206101EB810007EB8000291D00F053
:1054700087FB00F0B1FB606900280CD02068E96A66
:10548000C06A884207D207494FF080500860BFF3D6
:105490004F8FBFF36F8FBDE8F081000084000020C4
:1054A000A806002004ED00E010B5044690F8510075
:1054B00058B101280CD002280FD0502080F3118859
:1054C000BFF34F8FBFF36F8FFEE7206B00F098FBA9
:1054D0002046BDE8104000F093BB10BD0F4843F6D6
:1054E000F041420705D0C01D0C4A20F00700821A87
:1054F000891A0B4A00230144C2E900030839183A0B
:1055000021F0070111604B600B600B1AC0E900131A
:1055100093604FF00040536050617047980700203F
:10552000D8000020144E154CA6F1C8074FF0805843
:10553000DFF84C9012E000BF00F02EFBF068C56869
:10554000281D00F0D9FAA068401EA0606068401EC7
:10555000606000F041FB2846FFF7A6FF6068002866
:10556000EAD138680128F9D9C9F80080BFF34F8F14
:10557000BFF36F8FF2E70000700700208400002067
:1055800004ED00E02DE9F0479A46DDE90984814603
:105590006FF00303206B03EB82021044089E20F09F
:1055A0000707780707D0502080F31188BFF34F8F8B
:1055B000BFF36F8FFEE7002561B1002023180A5C5E
:1055C00083F834200A5C12B1401C1028F6D384F80A
:1055D000435001E084F83450072E00D30626E662DB
:1055E000C4E91165201D00F0B0FA04F1180000F0C4
:1055F000ACFA2461C6F107006462A061E56484F836
:10560000505052464946384600F0DAF82060B8F16A
:10561000000F01D0C8F80040BDE8F08730B511494F
:1056200000E011460A688242FBD34B685C18844252
:1056300003D1406818444860084643681C189442E7
:1056400009D1084C183C2468A24209D052681A4477
:1056500042600A6812680260814200D0086030BD72
:105660000460F9E7D80000200648416B096829B1B9
:10567000416BC968C9684968816270474FF0FF3162
:10568000FAE700008400002008484068401C4FF002
:10569000500080F3118804D0BFF34F8FBFF36F8F9A
:1056A000FEE7BFF34F8FBFF36F8FFEE7E0000020F0
:1056B000002150B10A4B42699A420FD1806AA3F18E
:1056C000280290420AD040B108E0502080F31188AF
:1056D000BFF34F8FBFF36F8FFEE70121084670477E
:1056E000840700202DE9F0410546002700F0C4FBA7
:1056F000324E306808B9FFF7F1FE706905424ED1AD
:10570000C5B3083568070ED005F00700C0F10800E2
:105710000544680707D0502080F31188BFF34F8FEE
:10572000BFF36F8FFEE72DB37068854237D82348EB
:10573000183001460C6801E020460C466168A94219
:1057400002D221680029F7D131688C4227D007683E
:105750002168016060680837411B10290FD9601962
:10576000420708D0502080F31188BFF34F8FBFF35A
:105770006F8FFEE713E041606560FFF74FFF6168E0
:105780007068401A7060B268904200D2B060706970
:1057900001430020C4E90001F068401CF06000F003
:1057A000FDFC780707D0502080F31188BFF34F8F9E
:1057B000BFF36F8FFEE73846BDE8F081C0000020E0
:1057C00010B5031F4FF080741C601B1F21F00101F6
:1057D0001960191F044B0B6014390A60091F6FF020
:1057E000020244380A6010BD8956000870B5954819
:1057F0002DED048B8CB0B0EE409AB0EE608AF0EEE6
:10580000418A006801F0CCFA9FED8F1B53EC112BFD
:1058100000F018FE00F030FD01EE900AB0EE681ABC
:10582000F0EE480AB0EE490AFBF7DEF8F5EEC00AE2
:10583000F1EE10FA54D1F0EE401AF5EEC01AF1EE86
:1058400010FA4DD1F0EE411AF5EEC01AF1EE10FA51
:1058500046D103209FED7E8AB0EE480AFDF7CCFCCE
:10586000BDEEC00A10EE100AB0EE480A05B20220E2
:10587000FDF7C2FCBDEEC00A10EE100AB0EE480AF9
:1058800004B20120FDF7B8FCBDEEC00A00232A4691
:1058900010EE100A214600B2FFF790FB0320B0EE95
:1058A000480AFDF7C7FCBDEEC00A10EE100AB0EEC4
:1058B000480A05B20220FDF7BDFCBDEEC00A10EE9D
:1058C000100AB0EE480A04B20120FDF7B3FCBDEEA9
:1058D000C00A00232A4610EE100A214600B2ABE0AF
:1058E00006A8FAF749FF182206A96846FAF7B3FD99
:1058F0009DED020A00F0EAF800EE100A0320B8EE6F
:10590000C00AFDF719FABDEEC00A10EE100A9DEDAF
:10591000010A05B200F0DAF800EE100A0220B8EE33
:10592000C00AFDF709FABDEEC00A10EE100A9DED9F
:10593000000A04B200F0CAF800EE100A0120B8EE26
:10594000C00AFDF7F9F9BDEEC00A00232A4610EEA1
:10595000100A214600B2FFF731FB3E4C9FED3E8A14
:10596000D4ED330A80EE880A10EE100A01F018FA1E
:1059700041EC100BFEF7B0FCB0EE409AF0EE609AEE
:10598000059801F00DFA53EC192B00F049FF00F0D7
:1059900073FC00EE100A0320FDF74CFCBDEEC00ABC
:1059A000D4ED210A10EE100A80EE880A05B210EE3E
:1059B000100A01F0F5F941EC100BFEF78DFCB0EE8A
:1059C000409AF0EE609A049801F0EAF953EC192B32
:1059D00000F026FF00F050FC00EE100A0220FDF758
:1059E00029FCBDEEC00AD4ED0F0A10EE100A80EEBD
:1059F000880A06B210EE100A01F0D2F941EC100B41
:105A0000FEF76AFCB0EE408AF0EE608A039801F07F
:105A1000C7F953EC182B00F003FF00F02DFC00EE4B
:105A2000100A0120FDF706FCBDEEC00A00232A463D
:105A300010EE100A314600B2FFF796FA0CB0BDEC3A
:105A4000048B70BDFC000020295C8FC2F5A84C407F
:105A500000000000A44800200020A34400B52DED64
:105A6000048B83B041EC190B00F0E4FF41EC180B00
:105A700018EE100A18EE901A8DED008B002818BF52
:105A80000120084320F00040C0F17F6000F1E040B9
:105A9000C00F14D019EE101A19EE900A8DED009B6C
:105AA000002918BF0121084320F00040C0F17F60A9
:105AB00000F1E040C00F04BF0120FAF72DFD51ECCA
:105AC000180B03B0BDEC048B00BD00009FED081A5D
:105AD000C0EE010AB7EE000A30EE600ADFED050AFB
