:020000040800F2
:1000000098560020E9020008FF210008911F00080F
:10001000FD21000843050008A12C00080000000095
:10002000000000000000000000000000290200089D
:10003000250700080000000085020008A12800082C
:100040000303000803030008030300080303000878
:100050000303000803030008030300080303000868
:100060000303000803030008030300080303000858
:10007000290600080303000803030008030300081F
:100080000303000803030008030300080303000838
:10009000C505000803030008030300080303000864
:1000A0000303000803030008030300080303000818
:1000B0000303000803030008030300080303000808
:1000C00003030008030300080303000803030008F8
:1000D00003030008412C00084D2C0008752C000873
:1000E00003030008030300080303000803030008D8
:1000F00003030008030300080303000803030008C8
:1001000003030008030300080303000803030008B7
:1001100003030008030300080303000803030008A7
:100120000303000803030008030300080303000897
:100130000303000803030008030300080303000887
:100140000303000803030008030300080303000877
:100150000303000803030008030300080303000867
:100160000303000803030008030300080303000857
:100170000303000803030008030300080000000055
:10018000030300080303000800F002F800F03CF845
:100190000AA090E8000C82448344AAF10107DA45E2
:1001A00001D100F031F8AFF2090EBAE80F0013F0F8
:1001B000010F18BFFB1A43F0010318471C3E000053
:1001C0003C3E0000103A24BF78C878C1FAD85207E4
:1001D00024BF30C830C144BF04680C6070470000C1
:1001E0000023002400250026103A28BF78C1FBD840
:1001F000520728BF30C148BF0B6070471FB503F0DE
:100200003DFE1FBD10B510BD00F061F91146FFF7AE
:10021000F5FF02F03BFE00F07FF903B4FFF7F2FFB9
:1002200003BC00F087F900002C4B19680868B0E89F
:10023000F04F80F30988BFF36F8F4FF0000080F319
:10024000118870470000000008480068006880F3CB
:1002500008884FF0000080F3148862B661B6BFF3DF
:100260004F8FBFF36F8F00DF00BF00BF08ED00E0CE
:10027000DFF80C00016841F470010160704700BFB5
:1002800088ED00E0EFF30980BFF36F8F134B1A681E
:100290001EF0100F08BF20ED108A20E9F04F10600B
:1002A00009B44FF0500080F31188BFF34F8FBFF3B4
:1002B0006F8F03F083FB4FF0000080F3118809BCBF
:1002C00019680868B0E8F04F1EF0100F08BFB0ECD6
:1002D000108A80F30988BFF36F8F704734000020C5
:1002E000EFF3058070470000094880470948004740
:1002F000FEE7FEE7FEE7FEE7FEE7FEE7FEE7FEE7D6
:10030000FEE7FEE704480549054A064B7047000032
:1003100051290008890100089850002098560020B3
:10032000985200209852002053EA020C00F0698095
:100330002DE9F04B4FF00006002B1FBFB3FA83F5F9
:1003400003FA05F424FA05F65E4012BF1643B2FA2A
:1003500082F502FA05F4C5F120051EBF22FA05FC5C
:1003600044EA0C04203556EA044C4FEA144418BF02
:10037000641C4FF000084FF00009904271EB030C31
:1003800039D3002919BFB1FA81F701FA07F6B0FA9B
:1003900080F700FA07F6C7F120071EBF20FA07FC16
:1003A00046EA0C062037B6FBF4FCA7EB0507103F26
:1003B00007F01F0BCBF120060CFA0BFB2CFA06F60C
:1003C00044BFB3460026202FA4BF5E464FF0000B6B
:1003D0005BEA060C08BF4FF0010B19EB0B09ABFBF6
:1003E000027C48EB0608C01B06FB02CC0BFB03CCCF
:1003F00071EB0C01C1E70B46024641464846BDE899
:10040000F08B13B54FF000004FF00001AFF3008008
:10041000BDE81C40704710B5203AC0F00B80B1E831
:100420001850203AA0E81850B1E81850A0E8185029
:10043000BFF4F5AF5FEA027C24BFB1E81850A0E832
:10044000185044BF18C918C0BDE810405FEA827C4C
:1004500024BF51F8043B40F8043B08BF7047D20763
:1004600028BF31F8023B48BF11F8012B28BF20F804
:10047000023B48BF00F8012B70474FF0000200B567
:10048000134694469646203922BFA0E80C50A0E8B7
:100490000C50B1F12001BFF4F7AF090728BFA0E865
:1004A0000C5048BF0CC05DF804EB890028BF40F831
:1004B000042B08BF704748BF20F8022B11F0804F73
:1004C00018BF00F8012B704770477047704775469A
:1004D00000F02CF8AE4605006946534620F00700B0
:1004E000854618B020B5FFF70DFFBDE820404FF05E
:1004F00000064FF000074FF000084FF0000B21F00E
:100500000701AC46ACE8C009ACE8C009ACE8C009DA
:10051000ACE8C0098D46704710B50446AFF30080C3
:100520002046BDE81040FFF778BE00000048704745
:100530003450002001491820ABBEFEE7260002001F
:100540007047FEE73EB5124C4FF40075256000255C
:10055000A560E56008252561040A8DF800408DF846
:100560000100080A8DF80200100A8DF804008DF8C9
:100570000520180A8DF806008DF803108DF8073055
:1005800002AB6A460249034800F0E1F83EBD0000B4
:10059000045000203C03002000B58BB00020012156
:1005A000CDE906010891009001900290039005901A
:1005B00004906946024800F02FF90BB000BD00001E
:1005C0003C030020014800F022BA00003C03002058
:1005D00010B5044600F01EFC0221204600F0A5F8EC
:1005E000002803D0BDE8104000F09DB810BD000009
:1005F00070B506464FF6FF7000224AF201040FE084
:10060000B35C58405FF0000310F0010F4FEA500058
:1006100000D060405B1CDBB2082BF5D3521CD2B279
:100620008A42EDD370BD0000014800F081BC00009B
:100630003004002001681823CAB2103AB2FBF3F26A
:10064000054B6FF30901032A9B5CC36500D9091DA3
:1006500081650846704700004C3F000810B5014610
:1006600000208B698A6A4FF0C07453B1B3F5005F04
:1006700015D072B1012A0CD0022A0AD0032A09D15E
:1006800004E01AB1012A06D0022A03D1C96AC901BD
:1006900000D5012010BDC96AA142FAD010BD002AC0
:1006A000F7D0012AF2D0022AF3D0032AF3D010BDEA
:1006B00070B50023044C054D03E06072CE5CEE542F
:1006C0005B1C9342F9DB70BD9C000020CA470020F0
:1006D00030B50F4B0F4C1870002302E0CD5CE55491
:1006E0005B1C9342FADB0C49072806D0062803D18D
:1006F0002078012800D1087030BD0648074A5838D4
:1007000030F8583F1380064A408810800020F2E7F6
:100710009C000020C0470020DB000020DE000020FD
:10072000DC000020704772B6FEE790F82020012A16
:1007300007D0022A05D0416A41F48021416201209C
:100740007047006842690A43426100207047F0B573
:1007500090F820500468A468012D05D0022D03D024
:10076000416A41F4802153E014F0406F01D1E5006B
:100770004BD5C4F30164022C03D9416A41F4000152
:1007800046E00125A5401D608D684FF4C0739DB102
:10079000CE6835434E6845EAC605066803EB041784
:1007A000F5514FF4C275076805EB04150E697E51CB
:1007B000097D012905D009E00E88CD6845EA465536
:1007C000EBE701684E5946F480764E511179D2F824
:1007D00005504FF4C67641EA0525016806EB04167C
:1007E0008D511178D2F801204FF4C47541EA0221ED
:1007F000026805EB04155151006803EB04114258DF
:1008000042F0010242500020F0BD416A41F4001163
:1008100041620120F0BD000010B590F82020012AAF
:1008200007D0022A05D0416A41F4802141620120AB
:1008300010BD3B48D0F8002242F00102C0F800226F
:10084000D0F8002222F47C52C0F80022D0F8002216
:100850004B6A42EA0322C0F800220A7D02F01F031D
:1008600001229A40D0F81C329343C0F81C32CB6965
:10087000B3B9D0F80C329343C0F80C328C894B6872
:1008800064F31F434C6900EBC404C4F840320C8984
:100890000B6864F31F434C6900EBC404C4F8443292
:1008A000CB69012B16D1D0F80C321343C0F80C32AF
:1008B0000C884B6864F31F434C6900EBC404C4F814
:1008C00040320C89CB6864F31F434C6900EBC404CD
:1008D000C4F844328B69002BD0F804320ED0134395
:1008E000C0F804320B69002BD0F8143208D013433F
:1008F000C0F81432096A012904D008E09343EFE7F5
:100900009343F5E7D0F81C121143C0F81C12D0F83D
:10091000001221F00101C0F80012002010BD0000FB
:1009200000640040704730B590F82040012C05D09D
:10093000022C03D0416A41F480215DE00468002963
:1009400055D02469A40754D04FF4D874056804EB3B
:1009500001142D5915F00405956005682D594ED0E8
:10096000ED08556005682C5904F00204D4604FF47A
:10097000DA74056804EB01142D5905F00F051561B3
:1009800005682D59C5F30725956105682C59240C78
:1009900054614FF4DC72046802EB0112A4581C701D
:1009A0000468A458240A5C700468A458240C9C7041
:1009B0000468A258120EDA704FF4DE72046802EB7B
:1009C0000112A4581C710468A458240A5C710468BC
:1009D000A458240C9C710468A258120EDA710068A5
:1009E00081B1016941F020010161002030BDE4685E
:1009F000A8E7416A41F400114162012030BD6D0D4C
:100A00001560AFE7C16841F02001C160EDE72DE955
:100A1000F05F0546006800244669D0F804908768B6
:100A2000D0F80CB0D0F810A0D0F81880F10748D05A
:100A3000F90714D001218160B80703D5284600F0DA
:100A400016FA0CE0780702D54FF4006407E0380787
:100A500002D54FF4805402E0284600F007FAF8056A
:100A600016D529684FF480708860B80503D52846EC
:100A700000F0FFF90CE0780502D544F4005407E0DB
:100A8000380502D544F4804402E0284600F0F0F92D
:100A9000F80316D529684FF480308860B80303D571
:100AA000284600F0E8F90CE0780302D544F400444D
:100AB00007E0380302D544F4803402E0284600F011
:100AC000D9F9300707D55FEACB6004D52968102033
:100AD00044F40074C86070074FF0080707D55FEA58
:100AE0000B7004D52868C760284600F059F9B00794
:100AF00006D52868C068800702D0284600F052F961
:100B0000700607D55FEACA6004D52968102044F44E
:100B100080640861B00607D55FEA0A7004D52868CA
:100B20000761284600F072F9F00606D528680069CA
:100B3000800702D0284600F06AF9B00308D55FEAC2
:100B4000C96005D5296810204860284600F060F982
:100B5000F00307D55FEA097004D528684760284686
:100B600000F08AF9300446D55FEA497040D5F005B7
:100B700004D55FEAC87001D044F00104B00504D583
:100B80005FEA887001D544F00204700504D55FEA7D
:100B9000487001D544F00404300529D518F0700FD1
:100BA00026D008F07000402815D006DC102809D0A7
:100BB00020280AD0302816D10AE050280ED060280C
:100BC00011D10EE044F008040DE044F010040AE0F6
:100BD00044F0200407E044F0400404E044F08004C2
:100BE00001E044F480742868816921F0700181611A
:100BF000296804204860002C05D0686A2043686298
:100C00002846FFF78FFEBDE8F09F70B5040003D0C3
:100C100094F8200010B104E0012070BD204600F0DF
:100C200081F82068016841F00101016000F0C4FB17
:100C30000546052604E000F0BFFB401B0A2811D83A
:100C400020684068C007F6D02068016821F00201E2
:100C5000016000F0B1FB05460BE000F0ADFB401B6E
:100C60000A2806D9606A40F40030606284F8206087
:100C7000D2E7206840688007EFD4207E01282068F2
:100C800001683DD021F080010160607E012820686C
:100C9000016838D021F040010160A07E0128206861
:100CA000016833D021F020010160E07E0128206836
:100CB00001682ED041F010010160207F01282068DA
:100CC000016829D021F008010160607F01282068B7
:100CD000016824D021F004010160D4E90201084335
:100CE000D4E90412114308436168491E084321688E
:100CF000C86100206062012084F82000002070BDDF
:100D000041F08001C0E741F04001C5E741F020011A
:100D1000CAE721F01001CFE741F00801D4E741F024
:100D20000401D9E710B586B0044614216846FFF7E0
:100D3000A4FB18492068884229D11748002102687D
:100D400042F000720260006800F0007005901248E6
:100D50001038026842F001020260006800F00100F1
:100D600005904FF4C05000900220CDE9010103200E
:100D70000390092004906946084800F013FA002205
:100D80000521142000F08AFB142000F079FB06B046
:100D900010BD0000006400404038024000000240E6
:100DA0007047000030B5164A016889B0914224D1DD
:100DB0006B4602AA0021FFF7B6FD0298A0F20120BF
:100DC00006281AD80F4CC0B20F4D2070C0EBC000DF
:100DD00005EB800081694A1C32298261694602D88C
:100DE00001F0C4FF01E001F0C6FF20786946C0EBC6
:100DF000C00005EB800001F0BEFF09B030BD00006F
:100E000000640040D8000020244F00207047704745
:100E10007047000070B5044690F82000012804D007
:100E2000606A40F40020606218E0022084F820002C
:100E30002068016821F00101016000F0BDFA05465B
:100E40000EE000BF00F0B8FA401B0A2808D9606A1B
:100E500040F400306062052084F82000012070BD5D
:100E600020684068C007EDD1606270BD7047704770
:100E7000704770477047704770472DE9F04104464E
:100E8000876D00F099FA064694F83500002502288F
:100E900006D08020606584F834500120BDE8F081E0
:100EA0002068016821F0160101602068416921F085
:100EB00080014161206C08B9A06C20B120680168F4
:100EC00021F0080101602068016821F00101016042
:100ED0000CE000F071FA801B052807D9202060651E
:100EE000032084F8350084F83450D7E72068006880
:100EF000C007EED194F85C103F208840B860012014
:100F000084F8350084F834500020C7E790F8351095
:100F1000022903D08021416501207047052180F816
:100F200035100068016821F0010101600020704760
:100F30002DE9F84304464FF00009CDF800906348CE
:100F40004FF41651A56D0068B0FBF1F72E6894F8C8
:100F50005C10082000FA01F131420FD021680A68C4
:100F600052070BD50A6822F004020A6094F85C105C
:100F70008840A860606D40F00100606594F85C10E6
:100F80004FF0010808FA01F0304208D021684969A1
:100F9000090604D5A860606D40F00200606594F811
:100FA0005C1004208840304208D021680968890715
:100FB00004D5A860606D40F00400606594F85C1092
:100FC00010208840304218D021680968090714D5DC
:100FD000A86020680168490304D50068000308D5AB
:100FE000A16C07E00168C90503D4016821F008017C
:100FF0000160216C09B12046884794F85C102020DC
:101000008840304231D021680968C9062DD5A860D2
:1010100094F8350005282068016806D0490347D5B3
:10102000006800031DD4616C1CE021F01601016012
:101030002068416921F080014161206C08B9A06CF1
:1010400020B12068016821F00801016094F85C106B
:101050003F208840A86084F8358084F83490216D62
:101060001FE0E16B09B120468847606D00282BD056
:10107000606DC00714D0052084F835002068016831
:1010800021F0010101600098401C0090B84203D893
:1010900020680068C007F6D184F8358084F8349061
:1010A000E16C002910D001B02046BDE8F0430847AC
:1010B0000168C905D5D4016821F01001016084F8E8
:1010C000358084F83490CCE7BDE8F8833000002008
:1010D0002DE9F041044600F06FF906465CB10220AC
:1010E00084F83500002584F834502068016821F028
:1010F000010101600DE00120BDE8F08100F05CF924
:10110000801B052805D920206065032084F8350060
:10111000F2E720680068C007F0D122681168204813
:101120000140D4E901031843D4E90336334318439B
:1011300063691843A3691843E3691843236A184392
:101140000843616A042903D1D4E90B131943084306
:10115000106020684069666A20F0070130460E433F
:10116000012704280CD1A06A0643E06A40B120465A
:10117000FFF774FA20B14020606584F83570BAE753
:10118000206846612046FFF755FA94F85C203F211D
:1011900091408160656584F835700020ACE70000FF
:1011A0003F8010F02DE9F84FDFF8BCA100220125A7
:1011B00003264FF00F090AF1040BAAF1040E00BF39
:1011C0000B6805FA02F42340A34270D10F7907F0AF
:1011D0000307012F01D0022F16D187684FEA42087A
:1011E00006FA08FC27EA0C07D1F80CC00CFA08FC38
:1011F0004CEA070CC0F808C04768A7430C79C4F351
:10120000001494403C4344600C79E443A4070AD0A2
:10121000C4684FEA420C06FA0CF7BC438F6807FA21
:101220000CF72743C7600C7904F00304022C12D199
:10123000D40800EB840CDCF820405707FF0E09FAB5
:1012400007F824EA0804D1F8108008FA07F848EAF9
:101250000408CCF8208004684FEA420C06FA0CF728
:10126000BC430F7907F0030707FA0CF72743076021
:101270004C6814F4403F70D03C4C276847F48047DA
:101280002760246822F0030704F480440094384C5B
:1012900007EB040CDCF8084897074FEA177809FABF
:1012A00008F7BC43334FB84202D1002724E054E092
:1012B000314FB84201D101271EE0304FB84201D171
:1012C000022719E02E4FB84201D1032714E02D4F19
:1012D000B84201D104270FE02B4FB84201D10527B6
:1012E0000AE02A4FB84201D1062705E0284FB8424C
:1012F00001D1072700E0082707FA08F72743CCF8B1
:101300000878DAF800405746D1F804C09C435FEAF9
:10131000CC2C00D51C433C60DBF800405F46D1F884
:1013200004C09C435FEA8C2C00D51C433C60DEF873
:1013300000407746D1F804C09C435FEA8C3C00D55E
:101340001C433C60084F083F3C68D1F804C09C43F4
:101350005FEACC3C00D51C433C60521C102AFFF4D1
:101360002FAFBDE8F88F0000083C01404438024030
:10137000003001400000024000040240000802402A
:10138000000C02400010024000140240001802400D
:10139000001C02400069084000D0012070474269EB
:1013A00021EA02030A4043EA0241816170470AB11F
:1013B000816170470904FBE70148806870470000BD
:1013C000240000200248816802781144816070473F
:1013D000240000200B4810B5016841F40071016041
:1013E000016841F480610160016841F4807101602D
:1013F000032000F073F80F2000F006F800F024F846
:10140000002010BD003C024070B50D4D04464FF465
:101410007A712878B1FBF0F00A490968B1FBF0F065
:1014200000F010FB48B9102C07D200222146501EB4
:1014300000F034F800206C6070BD012070BD000029
:1014400024000020300000200C4882B0016841F4E4
:1014500080410160006800F4804000900748001F50
:10146000016841F0805101600068002200F0805066
:1014700000900F21901E02B000F010B844380240D6
:10148000002809DB00F01F02012191404009800083
:1014900000F1E020C0F8001170470000F0B40E4BDE
:1014A0001B680C46C3F30223C3F10705042D00D9C2
:1014B0000425191D072901D2002300E0DB1E0126A7
:1014C00006FA05F1491E214099409E40761E1640BD
:1014D0003143F0BC01F03ABC0CED00E0064900F0ED
:1014E000070208684FF6FF03184040EA0220034A4B
:1014F00010430860704700000CED00E00000FA05A2
:101500002DE9F0470E46050065D0DFF81481D8F8C4
:101510000000F7B200F00700B04207D288F8007070
:10152000D8F8000000F00700B04254D128683D4CC4
:10153000810712D5400703D5206840F4E0502060B1
:101540002878000703D5206840F4604020602068B8
:10155000A96820F0F000084320602878C0072DD04B
:10156000304968680839012812D0022813D00328AE
:1015700011D00968890700292DDA216821F00301BB
:1015800001432160FFF718FF814641F2883A0EE0DF
:1015900009688903EFE709688901ECE7FFF70CFFA9
:1015A000A0EB0901514502D90320BDE8F08720686E
:1015B000696800F00C00B0EB810FEFD1D8F8001093
:1015C000404601F00701B14207D90770006800F0FA
:1015D0000700B04201D00120E7E72878400705D591
:1015E0002068E96820F4E05008432060287800076C
:1015F00006D52068296920F4604040EAC1002060D7
:1016000000F038F82168084AC1F30311515CC84062
:101610000649086006480068FFF7F6FE0020C4E7A8
:10162000003C024008380240543F000830000020CF
:10163000280000200448054900680968044AC1F3ED
:101640008221515CC84070473000002008380240B9
:10165000643F00080448054900680968044AC1F36A
:101660004231515CC84070473000002008380240C9
:10167000643F0008154810B5006810F00C021448CB
:1016800013D01449042A0FD0082A0ED10F4C241F5E
:101690002268236802F03F025B0207D52068C0F38E
:1016A0008810A0FB010106E0084610BD2168C1F3C7
:1016B0008811A1FB00010023FEF736FE2168C1F36B
:1016C0000141491C4900B0FBF1F010BD083802404F
:1016D0000024F40040787D012DE9F84F04006ED01D
:1016E0002078DFF84C93C007A9F104054AD009F12E
:1016F00004000168C1F38101012908D00068C0F32A
:10170000810002280AD1D9F80000400206D52868D5
:10171000800337D560680028E1D033E06068B0F519
:10172000803F10D0B0F5A02F286810D020F4803072
:101730002860286820F4802028606068A8B1FFF73E
:101740003BFE06460DE0286840F48030F4E740F4A4
:1017500080202860F7E700BFFFF72EFE801B64287B
:1017600073D828688003F7D50CE0FFF725FE0646FE
:1017700005E000BFFFF720FE801B6428F0D8286832
:101780008003F7D42078DFF8AC8280074FF0000A9E
:101790003ED5A748001D016811F00C0F08D0006865
:1017A000C0F3810002280BD1D9F80000400207D411
:1017B0002868800716D5E068012800D112E033E1DF
:1017C000E068B8B10120C8F80000FFF7F5FD064653
:1017D00005E000BFFFF7F0FD801B0228C0D8286895
:1017E0008007F7D52868216920F0F80040EAC10099
:1017F00028600DE0C8F800A0FFF7DEFD064604E013
:10180000FFF7DAFD801B02281FD828688007F7D46D
:101810002078000722D5864F87486169703771B1FB
:1018200001210160FFF7C8FD064604E0FFF7C4FD93
:10183000801B022809D838688007F7D50EE0C0F869
:1018400000A0FFF7B9FD064605E082E0FFF7B4FD12
:10185000801B02287DD838688007F7D4207840079D
:1018600068D5DFF8CCB100270BF13C0BDBF80000AA
:10187000C0000BD4DBF8001041F08051CBF8001011
:10188000DBF80000012700F0805000906B4E3068BC
:10189000C00510D4306840F480703060FFF78CFDD4
:1018A000009005E0FFF788FD0099401A022850D803
:1018B0003068C005F6D55E4EA0686C3601280FD0A2
:1018C0000528306810D020F001003060306820F02A
:1018D00004003060A068B8B1FFF76EFD00900FE023
:1018E000306840F00100F4E740F004003060F7E7B2
:1018F000FFF762FD0099411A41F28830814266D8B3
:1019000030688007F4D50EE0FFF756FD009007E041
:10191000FFF752FD0099411A41F28830814256D8B2
:1019200030688007F4D42FB1DBF8001021F080512B
:10193000CBF80010A069C8B33D49091D0968C1F37F
:10194000810102294AD00228504607D0C8F8600019
:1019500000E03CE0FFF730FD04463BE04746C8F8B6
:101960006000FFF729FD064605E000BFFFF724FDF4
:10197000801B02282BD828688001F7D4D4E90701FE
:101980000843A16A2E4A490802EB0141626A41EA12
:101990008211084394F82C1040EA0161C9F8001044
:1019A00001203866FFF708FD044606E03EE000BF70
:1019B000FFF702FD001B022809D828688001F7D52F
:1019C00034E000BFFFF7F8FC001B022802D9032017
:1019D000BDE8F88F28688001F4D427E00128F7D00B
:1019E000D9F80000E26900F4800191421CD1226A1A
:1019F00000F03F01914217D147F6C071626A014081
:101A0000B1EB821F10D1A26A4FF0FF3300F44031D6
:101A100003EB5202B1EB024F06D194F82C1000F008
:101A20007060B0EB016F01D00120D1E70020CFE75B
:101A30000438024000004742800E474200700040D8
:101A40000000FFFF10B5401EB0F1807F01D30120E0
:101A500010BD4FF0E02460610F21601701F076F9AE
:101A60000020A06107202061002010BD7047704752
:101A7000F8B5016804460868CA684B6910F00F0F92
:101A80004FF0000559D003F0010602F49077374378
:101A900065D0C10705D0D10503D5216C41F0010106
:101AA0002164410705D5D90703D0216C41F002011B
:101AB0002164810705D5D90703D0216C41F00401C9
:101AC0002164010707D502F02001314303D0216CC6
:101AD00041F008012164216C00293AD0800604D528
:101AE000900602D5204600F06AFF20684069216C0C
:101AF000C0F38010090700D460B3204600F038FF1F
:101B000020684069400621D52068143050E8001F45
:101B100021F0400140E80012002AF5D1A06BA8B1E5
:101B20006C490165A06BFFF7F1F9002811D0A06B9B
:101B3000016D01B0BDE8F040084783060FD593065C
:101B40000DD52046BDE8F84000F039BF2046FFF72C
:101B50008EFFF8BD2046FFF78AFF2564F8BD266B8F
:101B60002023012E79D1C60677D5D60675D508680B
:101B7000486800904869400640D5A16B08684068F5
:101B80000004000CEAD0A28D8242E7D9E085C86942
:101B9000B0F5807F2DD020680C3050E8001F21F474
:101BA000807140E80012002AF5D12068143050E816
:101BB000001F21F0010140E80012002AF5D1206841
:101BC000143050E8001F21F0400140E80012002AC4
:101BD000F5D184F83E30256320680C3050E8001FB2
:101BE00021F0100140E80012002AF5D1A06BFFF7A8
:101BF00044F9A08DE18D401A81B229E0A08DE18DDC
:101C0000401A81B2E08D0028A8D00029A6D0206813
:101C10000C3050E8002F22F4907240E80026002E8D
:101C2000F5D12068143050E8002F22F0010240E87E
:101C30000026002EF5D184F83E30256320680C3054
:101C400050E8002F22F0100240E80023002BF5D1CD
:101C50002046FFF70BFFF8BDFFE705062BD515065D
:101C600029D594F83D002128F5D1A068B0F5805F12
:101C700001D12069B0B1206A411C2162216800783D
:101C80004860E08C401E0004000CE084E3D1206832
:101C9000C16821F08001C1602068C16841F0400145
:101CA000C160D8E7206A0088C0F308004860206A55
:101CB000801C2062E5E74006CDD55006CBD5CA682A
:101CC000204622F04002CA6084F83D3000F05FF9FF
:101CD000C1E700006129000870B5040004D094F841
:101CE0003D00002510B106E0012070BD84F83C5095
:101CF000204600F023F8242084F83D002068C168C5
:101D000021F40051C160204600F0BAFE206801694C
:101D100021F4904101612068416921F02A0141616B
:101D20002068C16841F40051C1602564202084F816
:101D30003D0084F83E00002070BD00002DE9F04316
:101D400087B0814614216846FEF797FB50484F49FB
:101D5000D9F8002000240225032607154FF00708B4
:101D60008A422CD14A4914310A6842F010020A60B2
:101D7000096801F010010591016841F0010101605D
:101D8000006802AA00F00100059082E850012802D4
:101D9000CDE900053F4C69462046FFF703FACDE93F
:101DA000007502AA694682E860012046FFF7FAF949
:101DB000002205212520FFF771FB252024E034496E
:101DC000354B10319A4224D10A6842F400320A603D
:101DD000096801F400310591016841F008010160D2
:101DE000006802AA00F0080005906020CDE9000517
:101DF00082E8500169462948FFF7D4F900220521FD
:101E00002620FFF74BFB2620FFF73AFB07B0BDE883
:101E1000F083234B9A42F9D10A6842F480220A6087
:101E2000096801F480210591016841F00201016017
:101E3000006802AA00F0020005904FF44060CDE96E
:101E4000000582E8500169461648FFF7ABF9174DC7
:101E5000154828604FF00060C5E90104C5E9034753
:101E60006C61AC61EC612C6228466C62FFF730F962
:101E700008B1FEF758FCC9F8385000220521272088
:101E8000C5F83890FFF70AFB2720BDE70010014096
:101E9000303802400000024000440040000C024084
:101EA0000048004000040240286002403004002046
:101EB00090F83E30202B0ED159B152B190F83C3001
:101EC000012B08D0012380F83C300023036300F08D
:101ED0005DBE012070470220704770472DE9F8432E
:101EE000044690F83D001F4616460D4620284CD16A
:101EF000C5B1BEB194F83C00012846D0012084F859
:101F00003C004FF00008C4F84080212084F83D00D8
:101F1000FFF752FAA6848146E684A068B0F5805F98
:101F200003D004E00120BDE8F883206928B12E46E3
:101F30005FF0000584F83C800EE00026FAE780217F
:101F4000204600F040FEA0B9AEB116F8010B2168A2
:101F50004860E08C401EE084E08C4B464FF000026D
:101F600000970028EBD14FF04001204600F02BFEF7
:101F700030B10320D7E735F8020BC0F30800E6E7DD
:101F8000202084F83D000020CDE70220CBE77047F9
:101F9000FEE700000F4810B50D49016003214160C4
:101FA00000214FF410228160C0E903124FF40012A7
:101FB0004261017641768176C17601774177FEF7FD
:101FC00024FE002803D0BDE81040FEF7ACBB10BDD6
:101FD000006400403C030020094808B5016841F452
:101FE000001101600068002200F40010009005213B
:101FF0000C20FFF753FABDE808400C20FFF740BA69
:102000003038024010B5B2B01C2227496846FEF7AE
:1020100002FA0021684600F0AFFF244C22491C223E
:1020200020601C3107A8FEF7F6F9002107A800F090
:10203000A3FF1D4960601C2238310EA8FEF7EBF9A2
:1020400000210EA800F098FF1749A0601C2254310F
:1020500015A8FEF7E0F9002115A800F08DFF124940
:10206000E0601C2270311CA8FEF7D5F900211CA8E5
:1020700000F082FF0C4920611C228C3123A8FEF75E
:10208000CAF9002123A800F077FF074960611C22EC
:10209000A8312AA8FEF7BFF900212AA800F06CFF9A
:1020A000A06132B010BD0000883E0008040000208E
:1020B000F0B587B014216846FEF7DFF92248002406
:1020C000016841F010010160016801F01001059103
:1020D000016841F080010160016801F08001059113
:1020E000016841F002010160016801F002010591FF
:1020F000016841F008010160016801F008010591E3
:10210000016841F0010101600068104F00F001001A
:102110004FF470660590002231463846FFF747F9C4
:1021200048F2080001258DE8310069460848FFF7AC
:1021300039F80096CDE90154694638460394FFF713
:1021400031F807B0F0BD000030380240000C02400A
:10215000001002400C4810B50A4901604FF4E1310B
:102160004160002181600C22C160C0E904128161DC
:10217000C161FFF7B1FD002803D0BDE81040FEF7B4
:10218000D2BA10BD00100140640300200C4810B505
:102190000A4901604FF4E1314160002181600C2265
:1021A000C160C0E904128161C161FFF795FD00289B
:1021B00003D0BDE81040FEF7B6BA10BD00440040A1
:1021C000A80300200C4810B50A4901604FF4E13122
:1021D0004160002181600C22C160C0E9041281616C
:1021E000C161FFF779FD002803D0BDE81040FEF77C
:1021F0009ABA10BD00480040EC030020FEE7FEE75D
:10220000A0B1D0ED101AC0ED111A90ED0F1A80EDAB
:10221000101AC0ED060A80ED070A30EEC00A80ED04
:102220000F0A017829B101293BD078E09FED3D0AE2
:102230007047D0ED010A60EE801AC0ED091AD0EDAA
:102240000A0A90ED022A42EE000A30EE410AC0ED81
:102250000A0A90ED0D2A80ED0E2A90ED0C2A80EDF1
:102260000D2A80ED0C0A90ED031A21EE001A80ED84
:102270000B1A90ED050AF4EEC00AF1EE10FA09DC33
:10228000B1EE400AF4EEC00AF1EE10FA02D390ED7E
:102290000A0A01E080ED0A0A31EE800A30EE010AF6
:1022A0002BE070EE410A90ED012A20EE822A80EDAB
:1022B000092AD0ED020A60EE800AC0ED0A0AD0EDCC
:1022C0000D2A72EE200AC0ED0E2AD0ED0C2AC0EDC8
:1022D0000D2AF0EE002A01EE620A30EE210A80EDAE
:1022E0000C0A90ED031A21EE000A80ED0B0A30EE85
:1022F000800AD0ED080A30EE200A80ED080AD0ED01
:10230000040AB4EEE00AF1EE10FA06DCF1EE600A1F
:10231000B4EEE00AF1EE10FA01D2C0ED080A90ED39
:10232000080A70470000000070B51B4D00242DED19
:10233000028B9FED1A8ADFED1A8A00BF04EBC400FE
:1023400005EBC000F0EE480AB0EE680A154A00211D
:1023500000F030F8641CE4B2082CEFD3114A9FED72
:10236000128ADFED128A0C32F0EE480AB0EE680AEB
:1023700000210F4800F01EF8F0EE480AB0EE680A9F
:10238000BDEC028B0021074ABDE8704008481832B6
:10239000483000F00FB80000D44700200080BB4553
:1023A00000401C46B40000200000FA430000FA443C
:1023B000944E0020002828D0002A26D0017092EDEB
:1023C000001A80ED011A92ED011A80ED021A92EDC9
:1023D000021A80ED031A80ED040A9FED0C0AC0ED8D
:1023E000050A80ED0E0A80ED0D0A80ED0C0A80EDE5
:1023F000080A80ED0B0A80ED0A0A80ED090A80EDDB
:10240000110A80ED100A80ED0F0A704700000000ED
:102410000C4AC0EBC00110B502EB8101F0EE400A9E
:1024200031F91A1C00EE101A00EBC0010648B8EE94
:10243000C00A00EBC104A4F14800FFF7E1FE14ED6F
:102440000A0A10BD244F0020D4470020F0B5324CBA
:10245000054600276278052101263048082A53D214
:10246000DFE802F0040A151D2C383C4EA52D02D1E0
:1024700066700570A670F0BD5A2D43D102216170BF
:10248000A1784554491CA170F0BD6670F0BD0321D0
:102490006170A1784554491CA170E570F0BD04221B
:1024A0006270A2788554521CD2B2A2702571104479
:1024B0002061E0780028F1D16170F0BDA2788554E8
:1024C000521CD2B2A270E578236910442B44834297
:1024D000F2D0F0BD062060706581F0BDA07A4FF6A5
:1024E000FF7101EA002028446081A1780B48FEF7C3
:1024F0007FF86189884205D16078401C6070F0BD2A
:10250000FF2D03D0A52DC0D06770F0BDE2782079F3
:102510002169FEF7CDF8F7E79C0000206845002010
:10252000F0B5324C05460027627905210126304876
:10253000082A53D2DFE802F0040A151D2C383C4E5D
:10254000A52D02D166710570A671F0BD5A2D43D13B
:1025500002216171A1794554491CA171F0BD6671D8
:10256000F0BD03216171A1794554491CA171E57148
:10257000F0BD04226271A2798554521CD2B2A271BC
:10258000257210446061E0790028F1D16171F0BDDD
:10259000A2798554521CD2B2A271E57963691044C4
:1025A0002B448342F2D0F0BD06206071A581F0BDBE
:1025B000207B4FF6FF7101EA00202844A081A17919
:1025C0000B48FEF715F8A189884205D16079401CB7
:1025D0006071F0BDFF2D03D0A52DC0D06771F0BD97
:1025E000E279207A6169FEF773F8F7E79C00002032
:1025F0009446002070B50D460646002404E0305D88
:1026000000F012F8641CE4B2AC42F8D370BD70B5AF
:102610000D460646002404E0305D00F011F8641C0D
:10262000E4B2AC42F8D370BD01B54FF47A73012225
:1026300069460248FFF752FC08BD0000A8030020CD
:1026400001B54FF47A73012269460248FFF746FC50
:1026500008BD0000EC0300202DE9F047FF251C4CCD
:10266000089F994692460E46022805D001281AD1A5
:102670002570DFF8608021E0DFF85880657208F18E
:102680000A0808E065724A465146304600F024F8D0
:102690000A2000F065FC98F80000B842F2D1607A98
:1026A000B042EFD16572BDE8F08725704A465146C9
:1026B000304600F03EF80A2000F052FC98F8000086
:1026C000B842F2D12078B042EFD12570EBE700009C
:1026D0009C000020C047002030B5CBB0A5238DF86A
:1026E00000305A238DF801308DF802208DF8030058
:1026F00004246D46002005E00B5C2B55641C401C37
:10270000E4B2C0B29042F7D3121DD1B22846FDF711
:102710006FFF010A2955641CE1B26854491CC8B214
:10272000FF212954401CC1B26846FFF763FF4BB03C
:1027300030BD30B5CBB0A5238DF800305A238DF8CD
:1027400001308DF802208DF8030004246D4600202E
:1027500005E00B5C2B55641C401CE4B2C0B29042F7
:10276000F7D3121DD1B22846FDF742FF010A2955C1
:10277000641CE1B26854491CC8B2FF212954401CB2
:10278000C1B26846FFF743FF4BB030BD3D4D08B5C1
:10279000E86801F0ADF8A86901F0AAF8686901F0ED
:1027A000A7F8A86801F0A4F8286901F0A1F84FF48F
:1027B0007A7000F0D5FB22208DF80000324C334EA9
:1027C00007E0012269460020FFF7B3FF0A2000F06E
:1027D000C7FB20780028F4D130780128F1D11021EE
:1027E0002B48FEF7D7FD2B4E2B4C40B210B10128E1
:1027F0000ED101E0312000E013208DF8000007E049
:10280000012269462120FFF767FF0F2000F0A8FB97
:1028100030782128F4D120781128F1D1DFF87C908C
:102820004FF4006841464846FEF7B9FD02E00A2031
:1028300000F096FB30782128F9D120787728F6D15E
:1028400011208DF80000FF273770012269462120F2
:10285000FFF742FF052000F083FB3078212802D1EA
:1028600020787728F0D0E86800F0CEFF44464D4647
:102870004FF4167621462846FEF791FD304600F0CB
:102880006FFBF7E7040000209C000020C0470020F9
:1028900000100240A5000020CA470020000C0240A2
:1028A00010B5FEF78FFD01F09FF9012803D0BDE8B8
:1028B000104001F02BB910BD30B593B030216846FF
:1028C000FDF7DBFD14210CA8FDF7D7FD1E48002500
:1028D000016841F080510160006800F08050119063
:1028E0001A48016841F4804101600068022400F444
:1028F0008040119001200090000401908001CDE9FA
:102900000640192008904FF4A870CDE9090404206E
:102910000B906846FEF7E0FE08B172B6FEE70CA920
:102920000F2081E831004FF4A0500F904FF48050F9
:10293000109005210CA8FEF7E3FD002801D072B627
:10294000FEE713B030BD0000403802400070004088
:102950000248016841F470010160704788ED00E0B1
:1029600010B5806B0021C185C184FFF780F810BDD0
:1029700001680C3151E8002F22F4907241E80023E5
:10298000002BF5D10168143151E8002F22F001022B
:1029900041E80023002BF5D1016B012909D1016821
:1029A0000C3151E8002F22F0100241E80023002BE7
:1029B000F5D1202180F83E1000210163704708B551
:1029C00090F83E10222901D0022008BD82684FF401
:1029D00080539A4201D1016921B1816A9A421BD088
:1029E0004AB10AE00268816A5268C2F308020A80AA
:1029F000816A891C08E0026972B10268526802F0BB
:102A00007F020A70816A491C8162C18D491E0904D6
:102A1000090CC18503D019E002685268F1E701682A
:102A2000CA6822F02002CA600168CA6822F4807273
:102A3000CA6001684A6922F001024A61202180F8D7
:102A40003E10016B012903D0FFF747FA002008BDB3
:102A50000021016301680C3151E8002F22F01002BF
:102A600041E80023002BF5D101680A68D20602D59F
:102A70000A6849680091818DFEF7F8FFE6E70000DB
:102A800070B5044600680169E26821F440511143C1
:102A900001612169A068E269084361691143084343
:102AA0002168CA6849F20C639A430243CA602068ED
:102AB0004169A26921F440711143416131492068A3
:102AC000884202D03049884202D1FEF7C3FD01E0BE
:102AD000FEF7B0FDE2690023192164253226B2F524
:102AE000004F626828D0A0FB0101930F9200FDF710
:102AF0001BFC0146B0FBF5F06FF01802504301EBF0
:102B0000800006EB0010B0FBF5F000F0F002B1FB26
:102B1000F5F002EB0012B1FBF5F06FF0180358432B
:102B200001EB800006EB0010B0FBF5F000F00F00A9
:102B300021681044886070BDA0FB010192185B41C0
:102B4000FDF7F2FB0146B0FBF5F00201B1FBF5F039
:102B50006FF01803584301EB800006EBC000B0FB98
:102B6000F5F000F0F80002EB4002B1FBF5F058433D
:102B700001EB800006EBC000B0FBF5F000F00700B1
:102B8000D6E70000001001400014014081628285F8
:102B9000C28500210164222280F83E2080F83C108A
:102BA000016921B10168CA6842F48072CA60016893
:102BB0004A6942F001024A610068C16841F020019F
:102BC000C160002070472DE9F041984617460E4637
:102BD0000446069D27E0681C25D02DB1FEF7ECFBCE
:102BE000A0EB0800A8421ED920680C3050E8001F56
:102BF00021F4D07140E80012002AF5D12068143089
:102C000050E8001F21F0010140E80012002AF5D130
:102C1000202084F83D0084F83E00002084F83C0029
:102C20000320BDE8F0812068006836EA000004D087
:102C30000020B842CFD00020F3E70120F9E70000E0
:102C40000148FEF715BF000064030020074810B5D7
:102C50000078FFF7FBFB0648FEF70AFFBDE81040CF
:102C6000012202490248FFF723B9000000000020BA
:102C7000A8030020074810B50078FFF751FC06486C
:102C8000FEF7F6FE012203490348FFF711F9034955
:102C9000086010BD01000020EC030020200000208F
:102CA000FEE700002DE9F0410C46264F2649154667
:102CB0004FF0FF08022812D00A3F01282BD10E4600
:102CC00038782978884202D13078A04230D0052067
:102CD00000F046F9F4E7052000F042F900E00E4666
:102CE000387829788842F6D1707AA042F3D109E089
:102CF00086F80980012206A92046FFF7EDFC142082
:102D000000F02EF938782978884202D1707AA042F2
:102D1000EED086F80980BDE8F08100BF86F800801B
:102D2000012206A92046FFF704FD142000F018F93F
:102D300038782978884202D13078A042EED086F8DF
:102D40000080E8E7CA4700209C0000200907090E20
:102D5000002804DB00F1E02080F80014704700F048
:102D60000F0000F1E02080F8141D7047098849BA6F
:102D700001808182704710B5B0F9003003810A8864
:102D800052BA02804C88D31A64BA44808C88B3F556
:102D9000805F64BA848089798171016901DD491E8F
:102DA00003E013F5805F01DA491C016102EB413158
:102DB000828A891AC16010BD08B5DFF8B480012687
:102DC0002C4C2D4FFF2500BF8DF80060207808287F
:102DD00004D0072820D0062833D045E0387888284A
:102DE00042D12570012269460820FFF7A2FC1A2073
:102DF00000F0B6F82078082802D138788828F0D07A
:102E00001E48257046704FF4967000F0A9F8D8F867
:102E1000000000F06DFD27E019484FF47A618160F1
:102E200041F28831416001604FF4FA7000F098F887
:102E3000D8F8000000F0E8FC2570022000F090F8BF
:102E400012E0387880B98DF800602570012269465B
:102E50000620FFF76EFC142000F082F82078062888
:102E600002D138780028F0D0062000F079F8ABE7DE
:102E70000C0000209C000020C0470020DA00002049
:102E80001C5000201E2000F06BF8FBE7FEF7A2FAB2
:102E9000FFF712FDFFF70CF9FFF79EF8FFF77AF83E
:102EA000FFF790F9FFF772F9FFF754F9FDF774FB9C
:102EB0000A48FDF78DFBFFF737FA01220849094858
:102EC000FEF7F6FF06490122491E0748FEF7F0FF0C
:102ED000FFF798F800F04BF8FEE700003C030020F5
:102EE00001000020EC030020A80300200146002080
:102EF000842900D0C81C7047184CA068404200EEDE
:102F0000100A0320B8EEC00AFFF782FABDEEC00A2D
:102F100010EE100A06B26068404200EE100A02206D
:102F2000B8EEC00AFFF774FABDEEC00A10EE100A40
:102F300094ED000A05B2B8EEC00A0120FFF768FA66
:102F4000BDEEC00A0023324610EE100A294600B238
:102F5000FDF7F8FA0C2000F003F8CEE71C50002033
:102F600010B500B9012000F029FC002010BD10B5FB
:102F700000F088FC002010BD7FB50D460446416975
:102F8000B0F9080081B1A16971B1FFF7AFFFD4E9D1
:102F900005128DE80700D4E900102B46226900F0E5
:102FA000F8FD039004B070BDFFF7A0FF03A9CDE9C1
:102FB0000001208A2B4682B2D4E9001000F0BCFD4B
:102FC000012801D00020EDE70398EBE72DE9F0415F
:102FD000184C0F460546E6682068001D00F026FBE9
:102FE00038B9206890F82C1001208840216981436D
:102FF0002161681C07D137B12168BDE8F0410E4856
:10300000091D00F057BB20683544B5424560216872
:1030100005D2A06BBDE8F041091D00F033BB606B29
:10302000091D00F02FFBA06A854200D2A562BDE811
:10303000F0810000340000206C0500202DE9F041F3
:10304000054600F043FB2E4CA068401CA0602068A1
:103050002C4F10B1606940B32DE02560A0680128B5
:1030600029D1002606EB860007EB800000F0FCFA71
:10307000761C072EF6D323488C3000F0F5FA214851
:10308000A03000F0F1FA1F48B43000F0EDFA1D480E
:10309000C83000F0E9FA1B48DC3000F0E5FA1948C6
:1030A0008C3060631430A06305E02068E96AC06A70
:1030B000884200D82560606A401C6062E96A01208D
:1030C000226988401043206101EB810007EB8000FA
:1030D000291D00F0EFFA00F019FB606900280CD000
:1030E0002068E96AC06A884207D207494FF08050D9
:1030F0000860BFF34F8FBFF36F8FBDE8F081000012
:10310000340000209004002004ED00E010B50446D7
:1031100090F8510058B101280CD002280FD050204F
:1031200080F31188BFF34F8FBFF36F8FFEE7206BE3
:1031300000F000FB2046BDE8104000F0FBBA10BDD7
:103140000F4843F6E871420705D0C01D0C4A20F035
:103150000700821A891A0B4A00230144C2E90003BE
:103160000839183A21F0070111604B600B600B1A07
:10317000C0E9001393604FF0004053605061704706
:103180008005002088000020144E154CA6F1C807C9
:103190004FF08058DFF84C9012E000BF00F096FA34
:1031A000F068C568281D00F041FAA068401EA060C4
:1031B0006068401E606000F0A9FA2846FFF7A6FF8D
:1031C00060680028EAD138680128F9D9C9F8008078
:1031D000BFF34F8FBFF36F8FF2E700005805002059
:1031E0003400002004ED00E02DE9F0479A46DDE9C7
:1031F000098481466FF00303206B03EB82021044C5
:10320000089E20F00707780707D0502080F3118828
:10321000BFF34F8FBFF36F8FFEE7002561B1002032
:1032200023180A5C83F834200A5C12B1401C102871
:10323000F6D384F8435001E084F83450072E00D3CD
:103240000626E662C4E91165201D00F018FA04F1B3
:10325000180000F014FA2461C6F107006462A0614E
:10326000E56484F8505052464946384600F0DAF892
:103270002060B8F1000F01D0C8F80040BDE8F08729
:1032800030B5114900E011460A688242FBD34B6811
:103290005C18844203D1406818444860084643687B
:1032A0001C18944209D1084C183C2468A24209D049
:1032B00052681A4442600A6812680260814200D073
:1032C000086030BD0460F9E7880000200648416BC3
:1032D000096829B1416BC968C9684968816270474A
:1032E0004FF0FF31FAE70000340000200848406842
:1032F000401C4FF0500080F3118804D0BFF34F8F73
:10330000BFF36F8FFEE7BFF34F8FBFF36F8FFEE703
:1033100090000020002150B10A4B42699A420FD11F
:10332000806AA3F1280290420AD040B108E0502000
:1033300080F31188BFF34F8FBFF36F8FFEE701213A
:10334000084670476C0500202DE9F041054600272E
:1033500000F02CFB324E306808B9FFF7F1FE7069BF
:1033600005424ED1C5B3083568070ED005F00700F9
:10337000C0F108000544680707D0502080F3118889
:10338000BFF34F8FBFF36F8FFEE72DB37068854299
:1033900037D82348183001460C6801E020460C4617
:1033A0006168A94202D221680029F7D131688C42B4
:1033B00027D007682168016060680837411B102921
:1033C0000FD96019420708D0502080F31188BFF34D
:1033D0004F8FBFF36F8FFEE713E041606560FFF72B
:1033E0004FFF61687068401A7060B268904200D206
:1033F000B060706901430020C4E90001F068401C1E
:10340000F06000F065FC780707D0502080F3118849
:10341000BFF34F8FBFF36F8FFEE73846BDE8F081F3
:103420007000002010B5031F4FF080741C601B1F3C
:1034300021F001011960191F044B0B6014390A6057
:10344000091F6FF0020244380A6010BDED32000817
:103450001CB5012500244C4EDFF830914FF00608D2
:10346000FF2700BF8DF80440307828B3FF280AD02A
:10347000012843D002285BD06420FFF771FD0A20A9
:10348000FFF76EFDEEE78DF80480012301AA4821C5
:1034900002200097FFF7E0F88DF80440012301AA0D
:1034A000482102200097FFF7FDFB01238DF804500F
:1034B00001AA1946009517E08DF80480012301AA9E
:1034C000482102200097FFF7C7F88DF80440012338
:1034D00001AA482102200097FFF7E4FB01238DF8A1
:1034E000045001AA022100950120FFF7B5F84FF41E
:1034F00000712748FDF753FF3570C0E72548006885
:1035000000F082F901238DF8045001AA0621184623
:103510000095FFF7C7FB4FF46170C9F80840FFF74B
:103520001FFDC9F804400220C9F800403070A6E72A
:103530008DF80440012301AA512102200097FFF7D2
:103540008BF8DFF854A0DAF8000000F05DF98DF890
:103550000440012301AA502102200097FFF7A2FB9B
:10356000DAF8000000F0C4F942F22830C9F804008B
:10357000C9F800004FF4FA60FFF7F2FCC9F8044004
:10358000C9F8004034707AE7DA0000201C500020AF
:10359000000C02401C00002014000020204D214E91
:1035A0004FF00008A5F108046078E0B11D49A5F8C6
:1035B0000080A5F80280C1F80880C1F80480C1F835
:1035C00000802089B0816089F0810027154904229C
:1035D0000C312820FFF780F87F1C0A2FF6DB002033
:1035E00000F086F917E0104862880188808850430F
:1035F0006880A088414308B22880002801DAA5F835
:1036000000802089B08160890649F08104220C3154
:103610002820FFF761F81420FFF7A2FCC4E70000A0
:10362000E20000201C5000206C3F0008D0E901326D
:1036300001699A60D0E901235A604A68824201D147
:1036400082684A60002202610868401E08600868BB
:1036500070470000034B036003F1540008608020B2
:1036600010607047E800002000F108014FF0FF32C1
:10367000C0E90112C16001610021016070470021B1
:103680000161704730B50B685A1C02D000F1080286
:1036900002E0026904E02246546825689D42FAD996
:1036A00053684B6099608A60516008610168491CE9
:1036B000016030BD42684A6093688B6093685960CE
:1036C000916008610168491C01607047502080F3D7
:1036D0001188BFF34F8FBFF36F8F0A494868401CB2
:1036E000486001280CD10848006810F0FF0F07D08F
:1036F000502080F31188BFF34F8FBFF36F8FFEE729
:10370000704700009000002004ED00E00849486880
:1037100028B1401E486001D180F3118870475020C5
:1037200080F31188BFF34F8FBFF36F8FFEE7000068
:103730009000002070B500282AD0164DA0F1080492
:1037400060686969084207D1502080F31188BFF38F
:103750004F8FBFF36F8FFEE722683AB1502080F39E
:103760001188BFF34F8FBFF36F8FFEE78843606010
:1037700000F01CF960686968084468602046FFF73B
:103780007FFD2869401C2861BDE8704000F0A0BAA8
:1037900070BD0000700000204FF0E02000210161AA
:1037A000816105494FF47A720968B1FBF2F1491E53
:1037B00041610721016170473000002010B502000F
:1037C00014D00F48006B38B1502080F31188BFF33C
:1037D0004F8FBFF36F8FFEE700F0E8F8002110462F
:1037E000FFF7F4FB00F074FA002807D105494FF009
:1037F00080500860BFF34F8FBFF36F8F10BD000084
:103800003400002004ED00E070B504002BD01A4D08
:10381000286884422FD0FFF759FF2046FFF77AFD32
:10382000E8B1201DFFF702FFE06A01212A6981400B
:1038300011432961114900EB800001EB8000211D3B
:10384000FFF738FFE06A2968C96A884207D30C4944
:103850004FF080500860BFF34F8FBFF36F8FBDE80C
:103860007040FFF753BF502080F31188BFF34F8F94
:10387000BFF36F8FFEE770BD34000020900400207E
:1038800004ED00E010B586B00024039405AA04A955
:1038900003A80494FFF7DEFEDDE903010094CDE9FF
:1038A000011000230EA11048059A00F072F90F498B
:1038B0000028C86211D0502080F31188BFF34F8FC9
:1038C000BFF36F8F4FF0FF30886201204861CC60FA
:1038D00006B0BDE8104000F09FB806B010BD000073
:1038E00049444C45000000008931000834000020A4
:1038F00070B50446FFF7EAFE294D04B92C68201D77
:10390000FFF794FE58B9E06A264A00EB800152F8AE
:10391000211021B901218140286988432861A06ACA
:1039200018B104F11800FFF781FE1E48211DDC309C
:10393000FFF7C0FE94F850000026012801D184F85A
:103940005060FFF7E3FE686928B1FFF7BFFEFFF79D
:10395000BDFCFFF7DBFE2868844213D1686990B193
:10396000286B38B1502080F31188BFF34F8FBFF31D
:103970006F8FFEE70C494FF080500860BFF34F8F08
:10398000BFF36F8F70BD0748DC300068A9688842BC
:1039900001D12E6070BDBDE8704000F00FB800008E
:1039A000340000209004002004ED00E00248016B88
:1039B000491C016370470000340000201448016B6B
:1039C00011B10121C16170470021C1610169B1FAE2
:1039D00081F1C1F11F0101EB81020E4951F8223042
:1039E0006BB101EB820101F108034A6852684A6039
:1039F0009A4201D152684A60D168016070475020F4
:103A000080F31188BFF34F8FBFF36F8FFEE7000085
:103A100034000020900400201CB537480168374A64
:103A2000914207D1502080F31188BFF34F8FBFF32D
:103A30006F8FFEE700683149491E884207D1502048
:103A400080F31188BFF34F8FBFF36F8FFEE72C49D0
:103A500008780190FF20087008788DF800009DF824
:103A600000009DF8002000F0F000904207D05020A8
:103A700080F31188BFF34F8FBFF36F8FFEE79DF880
:103A80000000204C00F0500020700720A06005E0EE
:103A90009DF8002052008DF80020401E9DF8002067
:103AA0001206F5D4A060032807D0502080F31188B7
:103AB000BFF34F8FBFF36F8FFEE74FF44070A060EE
:103AC000019808700C482030016841F470010160D1
:103AD000016841F070410160FFF75EFE0020606008
:103AE000FCF7C6FB0848016841F040410160FCF763
:103AF000ABFB00201CBD000000ED00E071C20F41D7
:103B000000E400E09000002034EF00E010B5502009
:103B100080F31188BFF34F8FBFF36F8F00F072F8FF
:103B200018B104494FF080500860002080F31188DC
:103B300010BD000004ED00E02DE9FF5F8346DDE9E4
:103B40000E87994616468A469000FFF7FDFB050052
:103B50001CD05420FFF7F8FB040014D0002025638C
:103B600084F85100CDE90240CDE900874B4632464A
:103B700051465846FFF738FB2046FFF75FFA012011
:103B800004B0BDE8F09F2846FFF7D4FD4FF0FF30AA
:103B9000F6E7F0B585B0DDE90B640A9DA6B1DCB1AE
:103BA000542700972663022684F85160002604AF4C
:103BB000CDE90246CDE90057FFF716FB2046FFF797
:103BC0003DFA049805B0F0BD502080F31188BFF392
:103BD0004F8FBFF36F8FFEE7502080F31188BFF344
:103BE0004F8FBFF36F8FFEE70548416919B1006B36
:103BF00018B1002070470120704702207047000074
:103C0000340000202DE9F0412F4C0026206B28B114
:103C1000A069401CA0613046BDE8F081E5686D1CDC
:103C2000E56013D1606B006838B1502080F31188D3
:103C3000BFF34F8FBFF36F8FFEE7606BA16B6163C4
:103C4000A063206A401C2062FFF740FBA06ADFF8F7
:103C50007C80854209D3606B0068A0B1606BC0684E
:103C6000C7687868854211D2A0622068C06A00EBFC
:103C7000800158F82100012800D90126E0690028B8
:103C8000C9D00126C7E74FF0FF30EDE7381DFFF739
:103C9000CDFCB86A18B107F11800FFF7C7FCF96A44
:103CA0000120226988401043206101EB810108EB6B
:103CB0008100391DFFF7FEFCF86A2168C96A884255
:103CC000C9D30126C7E7000034000020900400207B
:103CD0002DE9F0472C4D00242746286B38B1FFF71B
:103CE000F5FC286B401E2863286B40B146E050204D
:103CF00080F31188BFF34F8FBFF36F8FFEE7A96882
:103D0000224E0120D1B3A6F1B40980463068E8B153
:103D1000F068C46804F11800FFF788FC201DFFF765
:103D200085FCE06A2A6908FA00F11143296100EB79
:103D3000800109EB8100211DFFF7BCFCE06A2968C6
:103D4000C96A8842E2D3C5F81C80DFE70CB1FFF7EF
:103D5000BDFAAC6944B14646FFF754FF00B1EE61CD
:103D6000641EF9D10020A861E86938B1084901272B
:103D700038070860BFF34F8FBFF36F8FFFF7C6FCA4
:103D80003846BDE8F08700003400002044050020DC
:103D900004ED00E01CB50026354FDFF8D890364C16
:103DA0008DF804604FF0010807F1060AFF25387806
:103DB000022806D00020FFF79BFD0320FFF7D0F874
:103DC000F5E7207804281FD0052839D00928F4D138
:103DD0008DF8048099F800108AF8001025700122EF
:103DE00001A90920FEF7A5FC0520FFF7B9F8207806
:103DF0000928F3D01E4A0123921D5021022000956C
:103E0000FEF72AFC2570D8E78DF8048099F8002089
:103E10008AF8002099F801008AF801002570012233
:103E200001A90420FEF785FC0520FFF799F820780A
:103E30000428F3D00E4A0123921D5021009513E06F
:103E40008DF804802570012201A90520FEF771FC80
:103E50000A20FFF785F820780528F3D001238DF894
:103E6000046001AA512100950220FEF7F5FBA4E7AA
:103E7000DA000020C04700209C0000204FF0407076
:103E8000E1EE100A70470000843F00088D2700080B
:103E900000000000000000008000000000000000A2
:103EA00000000000903F0008F92E0008000000000C
:103EB0000000000080000000000000000000000082
:103EC000CC3F00089D350008FDFF00000000000009
:103ED000800000000000000000000000743F0008A7
:103EE00051340008020000000000000080000000C3
:103EF00000000000000000009C3F0008953D000805
:103F0000FDFF000000000000800000000000000035
:103F100000000000BC3F0008852E0008FDFF0000E7
:103F20000000000080000000000000000000000011
:103F3000AC3F0008B92D0008FDFF000000000000A4
:103F400080000000000000000000000000061016C5
:103F5000000610160000000000000000010203042B
:103F60000607080900000000010203040200000027
:103F7000020000007363686564756C65725F54616C
:103F8000736B000064656661756C745461736B00DB
:103F90006D6F746F725F7461736B00007A68616F2C
:103FA0006B61756E677461736B000000677261709E
:103FB00062616C6C7461736B000000006A69616F10
:103FC0007A68756E7461736B0000000074726163CF
:103FD0006B5F62616C6C0000F83F0008000000201D
:103FE000E8000000C4010008E0400008E8000020EC
:103FF000B0550000E00100080000000000000000D3
:1040000000000000000000000000000000000000B0
:10401000000000000000000000000000010000009F
:1040200010000000000000000024F4000000000068
:104030000000000000000000000000000000000080
:104040000000000000000000000000000000000070
:104050000000000000000000000000000000000060
:104060000000000000000000000000000000000050
:104070000000000000000000000000000000000040
:10408000000000000000000000000000AAAAAAAA88
:10409000000000009600000000000000000000008A
:1040A0000000000000000000000000000000A0412F
:1040B000CDCCCC3D000000000000A040000000007E
:1040C0009A99993E0000A040000000000000000006
:1040D0000000FF00000000000000000000000000E1
:040000050800018965
:00000001FF
