:020000040800F2
:10000000C807002089010008971000083F0F00086A
:100010009510000885020008311300080000000058
:100020000000000000000000000000009B1000081D
:100030008702000800000000991000089D100008C9
:10004000A3010008A3010008A3010008A301000800
:10005000A3010008A3010008A3010008A3010008F0
:10006000A3010008A3010008A3010008A3010008E0
:10007000A3010008A3010008A3010008A3010008D0
:10008000A3010008A3010008A3010008A3010008C0
:10009000A3010008A3010008A3010008A3010008B0
:1000A000A3010008A3010008A3010008A3010008A0
:1000B000A3010008A301000800000000A30100083C
:1000C000A30100080000000000000000A3010008D8
:1000D0000000000011130008A30100080000000048
:1000E000A3010008A3010008A301000800F002F822
:1000F00000F03AF80AA090E8000C82448344AAF188
:100100000107DA4501D100F02FF8AFF2090EBAE885
:100110000F0013F0010F18BFFB1A43F0010318473B
:100120005815000078150000103A24BF78C878C12F
:10013000FAD8520724BF30C830C144BF04680C60ED
:10014000704700000023002400250026103A28BF35
:1001500078C1FBD8520728BF30C148BF0B60704739
:100160001FB51FBD10B510BD00F05AF81146FFF7BE
:10017000F7FF01F0FDF800F078F803B4FFF7F2FFA5
:1001800003BC01F0F3F80000094880470948004724
:10019000FEE7FEE7FEE7FEE7FEE7FEE7FEE7FEE737
:1001A000FEE7FEE704480549054A064B7047000094
:1001B000FF100008ED000008C8010020C80700205B
:1001C000C8030020C803002070474FF0000200B5AC
:1001D000134694469646203922BFA0E80C50A0E86A
:1001E0000C50B1F12001BFF4F7AF090728BFA0E818
:1001F0000C5048BF0CC05DF804EB890028BF40F8E4
:10020000042B08BF704748BF20F8022B11F0804F25
:1002100018BF00F8012B7047704770477047704750
:10022000754600F02BF8AE4605006946534620F0AF
:100230000700854618B020B5FFF7B4FFBDE82040A1
:100240004FF000064FF000074FF000084FF0000B92
:1002500021F00701AC46ACE8C009ACE8C009ACE845
:10026000C009ACE8C0098D46704710B50446AFF32D
:1002700000802046BDE81040FFF77FBF0048704770
:1002800064010020FEE7704772B6FEE710B590F8F3
:1002900021100022022905D00421816380F820204A
:1002A000012010BD01680B6823F00E030B6001688C
:1002B0000B6823F001030B6090F84030C46B012100
:1002C00001FA03F3636080F8211080F820201046C3
:1002D00010BD000010B590F821100024022903D0B1
:1002E0000421816301243DE001680A6822F00E02C6
:1002F0000A6001680A6822F001020A601A4A01686D
:10030000914201D1012121E0174A1432914201D1D9
:1003100010211BE0144A2832914201D1891515E0C1
:10032000114A3C32914201D189140FE00E4A5032F9
:10033000914202D14FF4803108E00B4A643291427D
:1003400002D14FF4801101E04FF08071064A083A63
:100350005160012180F82110002180F82010416BAC
:1003600001B18847204610BD080002402DE9F84F32
:10037000DFF89C910024A9F1040B23460F2709F113
:10038000040AABF1040EBBE00125A5402A40AA42B5
:1003900076D1DFF880C14E68A6EB0C0866452BD0FD
:1003A0000DDC032E34D005DC36B3012E19D0022E1D
:1003B0002FD11BE0112E16D0122E2AD119E0B8F53C
:1003C000881F19D006DCB8F5803F15D0B8F5801F1E
:1003D0001FD111E0B8F5001F0ED0B8F5041F18D1D9
:1003E0000AE0CB6815E0CB681B1D12E0CB68083330
:1003F0000FE0CB680C330CE08B682BB1012B4FF076
:10040000080303D0456104E0042302E0056100E035
:100410000023FF2A01D8064601E000F104064FEA56
:10042000840501D9A5F12005D6F8008007FA05FC5E
:1004300028EA0C0803FA05F548EA0508C6F8008022
:100440004D68ED005BD5344DAE6946F00106AE61F6
:10045000AD6924F0030605F0010500952F4D06EB6C
:10046000050CDCF80850A607360F07FA06F825EA4F
:100470000805DFF8AC80404503D14FF0000810E0DC
:100480003DE0DFF8A080404502D14FF0010808E0D0
:10049000DFF89480404502D14FF0020801E04FF0B0
:1004A000030808FA06F848EA0508CCF808804D6801
:1004B000D9F80060ED024D4601D5164300E09643A1
:1004C0002E604D68DAF80060AD02554601D516433E
:1004D00000E096432E604D68DBF80060AD035D469A
:1004E00001D5164300E096432E604D68DEF80060AB
:1004F000ED03754601D5164300E096432E60641C5B
:100500000A6832FA04F57FF43FAFBDE8F88F0000C7
:1005100008040140000011100010024000000140DA
:1005200000080140000C01400010014001488068B3
:1005300070470000000000200248816802781144E2
:100540008160704700000020074810B5016841F045
:1005500010010160032000F075F80F2000F006F88C
:1005600000F024F8002010BD0020024070B50D4DB1
:1005700004464FF47A712878B1FBF0F00A49096813
:10058000B1FBF0F000F0DCFA48B9102C07D20022E1
:100590002146501E00F036F800206C6070BD01202E
:1005A00070BD0000000000200C0000200C4808B5C1
:1005B000816941F001018161816901F001010091CE
:1005C000C16941F08051C161C06900F08050009064
:1005D0000448416821F0E06141F00071416008BDCC
:1005E0000010024000000140002809DB00F01F025B
:1005F000012191404009800000F1E020C0F8001185
:1006000070470000F0B40E4B1B680C46C3F3022386
:10061000C3F10705042D00D90425191D072901D2AE
:10062000002300E0DB1E012606FA05F1491E2140E9
:1006300099409E40761E16403143F0BC00F079BED2
:100640000CED00E0064900F0070208684FF6FF03D2
:10065000184040EA0220034A104308607047000037
:100660000CED00E00000FA052DE9F0470F4605000B
:1006700061D0434E306800F00700B84209D23068BC
:1006800020F0070038433060306800F00700B842BF
:1006900051D128683B4C810712D5400703D56068CB
:1006A00040F4E06060602878000703D5606840F49B
:1006B000605060606068A96820F0F00008436060E6
:1006C0002878C00728D06868012810D0216802283F
:1006D00010D0890700292EDA616821F00301014357
:1006E0006160FFF723FF804641F288390DE0216801
:1006F0008903EFE78901EDE7FFF718FFA0EB080199
:10070000494502D90320BDE8F0876068696800F0B8
:100710000C00B0EB810FEFD1306800F00700B84259
:100720000BD9306820F0070038433060306800F0A3
:100730000700B84201D00120E5E72878400705D539
:100740006068E96820F4E06008436060287800078A
:1007500006D56068296920F4605040EAC1006060F5
:1007600000F038F86168084AC1F30311515CC840D1
:100770000649086006480068FFF7F8FE0020C2E757
:1007800000200240001002405E1600080C0000200D
:10079000040000200448054900684968044AC1F380
:1007A0000221515CC84070470C000020001002403C
:1007B0006E1600080448054900684968044AC1F3F8
:1007C000C221515CC84070470C000020001002405C
:1007D0006E1600080E4A51680E4801F00C03042BF7
:1007E00011D0082B0FD10C48C1F38343C903C05C5F
:1007F0000AD55168084AC1F34041921E515C054A2E
:100800005043B0FBF1F07047044948437047000083
:100810000010024000127A004E16000800093D0048
:100820002DE9F84F040070D02078C04DC00749D0A2
:100830006868C0F38100012807D06868C0F38100B0
:10084000022809D16868C00306D52868800339D515
:1008500060680028E7D035E06068B0F5803F0BD0D5
:1008600010B1B0F5A02F11D0286820F48030286096
:10087000286820F4802002E0286840F48030286056
:10088000606890B1FFF752FE06460AE0286840F41F
:1008900080202860F0E700BFFFF748FE801B642837
:1008A00073D828688003F7D50CE0FFF73FFE0646B3
:1008B00005E000BFFFF73AFE801B6428F0D82868E7
:1008C0008003F7D420789A4E80074FF001094FF04B
:1008D000000839D5686810F00C0F07D06868C0F3BD
:1008E0008100022809D16868C00306D428688007FF
:1008F00014D52069012808D110E02069B0B1C6F8EC
:100900000090FFF713FE074605E00AE1FFF70EFE31
:10091000C01B0228C4D828688007F7D528686169F9
:1009200020F0F80040EAC10028600DE0C6F8008021
:10093000FFF7FCFD074604E0FFF7F8FDC01B0228A7
:1009400023D828688007F7D4207800072CD5794869
:10095000A169D9B1C0F80090FFF7E8FD074604E0AF
:10096000FFF7E4FDC01B02280FD8686A8007F7D59F
:1009700071484FF4FA510068B0FBF1F0009000BFED
:100980000098411E0091FAD20EE080E0C0F800808D
:10099000FFF7CCFD074604E0FFF7C8FDC01B0228A7
:1009A00075D8686A8007F7D42078400760D5E86971
:1009B0000027C00008D4E86940F08050E861E86989
:1009C000012700F0805000905C480168C90513D4ED
:1009D0000168834641F480710160FFF7A7FD8246FC
:1009E00006E000BFFFF7A2FDA0EB0A0064284ED886
:1009F000DBF80000C005F5D5E06801280AD008B191
:100A0000052813D0286A20F001002862286A20F007
:100A1000040002E0286A40F001002862E06841F228
:100A2000883B98B1FFF782FD82460BE0286A40F0D0
:100A300004002862EEE700BFFFF778FDA0EB0A0193
:100A400059455AD8286A8007F6D50CE0FFF76EFDA5
:100A5000824605E0FFF76AFDA0EB0A0159454CD834
:100A6000286A8007F6D41FB1E86920F08050E86159
:100A7000E06988B36968C1F38101022944D0022882
:100A8000C6F8608004D0FFF751FD044638E034E03A
:100A9000FFF74CFD074604E0FFF748FDC01B0228A6
:100AA0002BD828688001F7D4206AB0F5803F05D1A3
:100AB0006868A16820F4003008436860D4E9080140
:100AC0000843696821F4741108436860C6F86090AF
:100AD000FFF72CFD044606E025E000BFFFF726FDEA
:100AE000001B022809D828688001F7D51BE000BF49
:100AF000FFF71CFD001B022802D90320BDE8F88F78
:100B000028688001F4D40EE00128F7D06868226AD2
:100B100000F48031914204D1616A00F4701088427F
:100B200001D00120EAE70020E8E7000000100240C1
:100B300000004242800442420C000020007000404D
:100B400010B5401EB0F1807F01D3012010BD4FF0E1
:100B5000E02460610F21601700F0EBFB0020A06132
:100B600007202061002010BD70477047F8B501686C
:100B700004460868CA684B6910F00F0F4FF0000573
:100B800059D003F0010602F49077374365D0C107CE
:100B900005D0D10503D5616C41F0010161644107C5
:100BA00005D5D90703D0616C41F00201616481076A
:100BB00005D5D90703D0616C41F0040161640107D8
:100BC00007D502F02001314303D0616C41F00801E8
:100BD0006164616C00293AD0800604D5900602D584
:100BE000204600F0BCFA20684069616CC0F38010B8
:100BF000090700D460B3204600F08AFA20684069F3
:100C0000400621D52068143050E8001F21F0400133
:100C100040E80012002AF5D1E06BA8B16D494163AC
:100C2000E06BFFF757FB002811D0E06B416B01B080
:100C3000BDE8F040084783060FD593060DD5204642
:100C4000BDE8F84000F08BBA2046FFF78EFFF8BDF4
:100C50002046FFF78AFF6564F8BD266B2023012E2E
:100C60007CD1C6067AD5D60678D508684868009043
:100C700048694FF00206400640D5E16B08684068BD
:100C80000004000CE8D0A28D8242E5D9E085886995
:100C900020282DD020680C3050E8001F21F48071EE
:100CA00040E80012002AF5D12068143050E8001FF7
:100CB00021F0010140E80012002AF5D1206814302B
:100CC00050E8001F21F0400140E80012002AF5D151
:100CD00084F84230256320680C3050E8001F21F072
:100CE000100140E80012002AF5D1E06BFFF7CEFAC0
:100CF0006663A08DE18D401A81B22AE0A08DE18D5E
:100D0000401A81B2E08D0028A6D00029A4D0226824
:100D10000C3252E8000F20F4907042E80007002FD8
:100D2000F5D12068143050E8002F22F0010240E88D
:100D30000027002FF5D184F84230256320680C305D
:100D400050E8002F22F0100240E80023002BF5D1DC
:100D500066632046FFF708FFF8BDFFE705062BD5C1
:100D6000150629D594F841002128F5D1A068B0F5E1
:100D7000805F01D12069B0B1206A411C21622168E5
:100D800000784860E08C401E0004000CE084E3D151
:100D90002068C16821F08001C1602068C16841F00D
:100DA0004001C160D8E7206A0088C0F308004860AD
:100DB000206A801C2062E5E74006CDD55006CBD5E1
:100DC000CA68204622F04002CA6084F8413000F030
:100DD000B5F8C1E70111000870B5040004D094F81B
:100DE0004100002510B106E0012070BD84F840509C
:100DF000204600F023F8242084F841002068C168D0
:100E000021F40051C160204600F00AFA206801690F
:100E100021F4904101612068416921F02A0141617A
:100E20002068C16841F40051C1606564202084F8E5
:100E3000410084F842006563002070BD70B586B043
:100E4000002400940194029403942B4E03682B49D0
:100E5000022003222A4DB34229D18B6943F48043F7
:100E60008B618B6903F4804304938B6943F0040323
:100E70008B618969039201F0040104910102CDE9BB
:100E8000001069462846FFF771FA2815CDE90004DD
:100E9000694628460294FFF769FA00221146252088
:100EA000FFF7B0FB2520FFF79FFB06B070BD154E86
:100EB000B342FAD1CB6943F40033CB61CB6903F47D
:100EC000003304938B6943F004038B6189690392B7
:100ED00001F0040104910421CDE90010694628467F
:100EE000FFF744FA0820CDE9000469462846029439
:100EF000FFF73CFAD9E7000000380140001002403B
:100F0000000801400044004090F84230202B01D0FE
:100F10000220704721B11AB10023036300F0DCB94D
:100F20000120704700680349884202D1024800F05E
:100F300007B8704700380140E80000207047FEE71E
:100F40002DE9F041294C05460021552B05D1685C5F
:100F5000532802D14A1E03462280491C7929F4DB1A
:100F6000B4F90000295C55290DD128444178532952
:100F700009D10A2100F0EDF96080B4F900100D44A8
:100F8000A97A814202D00020BDE8F081B5F90200C3
:100F900000F008FA164C0746E062B5F9040000F0CC
:100FA00001FAA0620646B5F9060000F0FBF980469A
:100FB0006FF00E052946384600F00AFB0D4F394602
:100FC00000F008FAE0622946304600F001FB39469D
:100FD00000F000FAA0622946404600F0F9FA3946CE
:100FE00000F0F8F960620120CEE700001000002058
:100FF000A400002000003443094808B5816941F08D
:1010000020018161816901F020010091816941F035
:1010100004018161806900F00400009008BD0000B7
:10102000001002400C4810B50A4901604FF4E1314C
:101030004160002181600C22C160C0E9041281611D
:10104000C161FFF7C9FE002803D0BDE81040FFF7DB
:101050001BB910BD00380140140000200C4810B529
:101060000A4901604FF4E1314160002181600C22A6
:10107000C160C0E904128161C161FFF7ADFE0028C3
:1010800003D0BDE81040FFF7FFB810BD004400409A
:101090005C000020FEE7FEE770477047FFF74CBAA0
:1010A00030B58FB028216846FFF78FF814210AA8C1
:1010B000FFF78BF801210804CDE900100024029409
:1010C00002250491CDE907504FF4E01009906846DD
:1010D000FFF7A6FB08B172B6FEE70F20CDE90A05BF
:1010E0004FF48060CDE90C4002210AA80E94FFF76E
:1010F000BBFA002801D072B6FEE70FB030BD7047D2
:1011000010B5406A0021C185C184FFF72EFD10BDD6
:1011100001680C3151E8002F22F4907241E800235D
:10112000002BF5D10168143151E8002F22F00102A3
:1011300041E80023002BF5D1016B012909D1016899
:101140000C3151E8002F22F0100241E80023002B5F
:10115000F5D1202180F8421000210163704708B5C5
:1011600090F84210222901D0022008BD82684FF475
:1011700080539A4201D1016921B1816A9A421BD000
:101180004AB10AE00268816A5268C2F308020A8022
:10119000816A891C08E0026972B10268526802F033
:1011A0007F020A70816A491C8162C18D491E09044F
:1011B000090CC18503D01BE002685268F1E70168A1
:1011C000CA6822F02002CA600168CA6822F48072EC
:1011D000CA6001684A6922F001024A61202180F850
:1011E000421000214163026B012A03D0FFF79AFEEF
:1011F000002008BD016301680C3151E8002F22F086
:10120000100241E80023002BF5D101680A68D206DC
:1012100002D50A6849680091818DFFF7A5FCE7E7D0
:1012200070B5044600680169E26821F44051114339
:1012300001612169A0680843616908432168CA689F
:1012400041F20C639A430243CA6020684169A26973
:1012500021F44071114341611E492068884202D146
:10126000FFF7A8FA01E0FFF795FA00EBC00101EBE8
:101270000012606864218000B2FBF0F3B3FBF1F36D
:101280006FF018067343B2FBF0F5B2FBF0F605EB16
:101290008305322303EB0515B5FBF1F5B6FBF1F63B
:1012A00005F0F00505EB0615B2FBF0F6B2FBF0F029
:1012B000B0FBF1F06FF01802504306EB800003EB37
:1012C0000010B0FBF1F0216800F00F0028448860A6
:1012D00070BD00000038014081628285C285002116
:1012E0004164222180F84210016921B10168CA6875
:1012F00042F48072CA6001684A6942F001024A61A0
:101300000068C16841F02001C16000207047000002
:1013100010B50548FFF72AFCBDE8104079220349C3
:101320000148FFF7F1BD000014000020E800002094
:10133000FEE70907090E002804DB00F1E02080F831
:101340000014704700F00F0000F1E02080F8141D39
:10135000704710B503460022104604E09C5C521C06
:101360002044C0B212B28A42F8DB10BD70470000C0
:10137000FFF7EAF8FFF794FEFFF73EFEFFF752FE95
:10138000FFF76CFE792202490248FFF7BDFDFEE738
:10139000E800002014000020014800F0E7B800BF7A
:1013A0000000C07F10F0004148BF4042B0FA80F317
:1013B00010FA03F2C3F19D030BD051EAC35101EBC4
:1013C0001220530638BF704700F1010008BF20F01B
:1013D000010070474FF47F0C1CEAD0121EBF1CEABC
:1013E000D11392EA0C0F93EA0C0F00F0478090EAB9
:1013F000010F48BF42F480724FF0004C4CEA0020CD
:101400004CEA012102EB0302A0FB0113A2F500024A
:10141000002918BF43F001035B0028BF4FEA3303E4
:1014200042EB22425FEA132C4CEBC2502EBFBCEBC6
:10143000436FB2F57C0F70474FEA036CBCF1004F6D
:1014400008BF20F00100B2F57C0F38BF70470BD504
:1014500082F0FF0212F5803FC8BF704700F1C04024
:10146000D8BF00F00040704700F5000C5FEA4C0C5C
:1014700048BF7047B0F1C04000F073B890EA010F68
:101480000CEAD11348BF42F48072624538BF63450D
:1014900004D280EA010000F00040704710B500F06F
:1014A0001AF800BF8900013E00F007B800F009B843
:1014B0005FEA410C5FEA1C6C08D080EA010000F092
:1014C00050B85FEA400C5FEA1C6CF6D14FF0004068
:1014D000A0F5800070470EF1020E2EF0030E5EF8AC
:1014E000044B244204D44FEA4102B2F17F4F11D899
:1014F0004FEA4003B3F17F4F0CD80ED14FEAD07CB6
:10150000B2F17F4F0CEB4C0C0CF1020C08BF4CEB12
:10151000D17C04E04FF0080C01E04FEAD17C0CEBE9
:101520004C0324FA03F404F00704B4F1040C06D2CB
:101530000EEB840CBDE810404CF0010C6047DFE876
:101540000CF0070802024FF00040A0F5800010BD2B
:101550000846420018BFD2F1807288BF00F00040F8
:1015600010BDFF2141EAD050C00570470CF00F03B9
:10157000092B08BF082000F051800A2B0BD0082B44
:1015800018BF704708BF1CF0400F0AD04FF0000092
:101590004FF0000170471CF0400F18BF4FF00040A3
:1015A00070471CF0100F08D020F0704300F07F420D
:1015B00042EAD3014FEA4370704700F0604021F0E7
:1015C0007F4242EA000201F07F4040EA72707047B9
:1015D0004FF0FF0212EAD0521CBF92F0FF038B4281
:1015E000C2BFD14200EBC1507047002A0AD0002B85
:1015F0000BD0002900F00040A4BF40F0FE4040F4B2
:101600000000704700F00040704743024FF00B0CA1
:1016100018BF4CF0806C7FF4BFAE70471CF4801F85
:1016200011D01CF4E02F03D06FEACC314900704791
:101630004FF04050EFF3008222F0704242EA000285
:1016400082F3008870474FF00000704701020203E8
:101650000405060708090A0B0C0D0E0F10100000F8
:101660000000000000000102030406070809000052
:10167000000001020304000098160008000000208A
:101680001400000028010008AC1600081400002017
:10169000B407000044010008010000001000000031
:0C16A000000000000024F4000000000026
:04000005080000ED02
:00000001FF
