:020000040800F2
:1000000068070020A901000857430008D929000803
:1000100055430008991300087545000800000000CA
:100020000000000000000000000000005B4300082A
:100030009B13000800000000594300085D430008BE
:10004000C3010008C3010008C3010008C301000880
:10005000C3010008C3010008C3010008C301000870
:10006000C3010008C3010008C3010008C301000860
:10007000C3010008C3010008C3010008C301000850
:10008000C3010008C3010008C3010008C301000840
:10009000C3010008C3010008C3010008C301000830
:1000A000C3010008C3010008C3010008C301000820
:1000B000C3010008C301000800000000E92900088E
:1000C000DD2900080000000000000000C301000856
:1000D0000000000069450008C3010008000000009E
:1000E000C3010008C3010008C301000800F002F8C2
:1000F00000F04AF80AA090E8000C82448344AAF178
:100100000107DA4501D100F03FF8AFF2090EBAE875
:100110000F0013F0010F18BFFB1A43F0010318473B
:100120003857000058570000103A24BF78C878C1EB
:10013000FAD8520724BF30C830C144BF04680C60ED
:10014000704700000023002400250026103A28BF35
:1001500078C1FBD8520728BF30C148BF0B60704739
:10016000662905F0B082642900F04C8000207047B9
:100170001FB500F0BBFB04000020002104F0E0FDEF
:10018000E0601FBD10B510BD00F0D0FC1146FFF7B8
:10019000EFFF04F0B3FC00F0EEFC03B4FFF7F2FF56
:1001A00003BC04F034FA00000948804709480047BE
:1001B000FEE7FEE7FEE7FEE7FEE7FEE7FEE7FEE717
:1001C000FEE7FEE704480549054A064B7047000074
:1001D000B7430008ED000008680100206807002010
:1001E0006803002068030020704700000FB4044932
:1001F00010B503AA029800F067FB10BC5DF814FB71
:10020000380000202DE9F0410646002410687529C9
:10021000314616A510D0AFF30080002802DA404224
:1002200013A507E031688A0701D512A502E0490746
:1002300004D511A5012401E0AFF3008000210A22BA
:1002400006F1240709E0B0FBF2FCB0FBF2F302FB7D
:100250001C00303078541846491C0028F3D123463E
:100260002A463046BDE8F04100F0C5B80000000065
:100270002D0000002B000000200000002DE9F047B9
:100280004FF0000A89460446C0F820A02046E168E5
:100290008847002876D0252806D0D4E90121904748
:1002A000206A401C2062F1E7E1682046002588476B
:1002B000C4F81CA006460027C4F818A02A2E09D0AE
:1002C000304604F09DF938B304EB8708303EC8F897
:1002D000186019E059F8041B204604EB870291616D
:1002E000E1688847012F064618D1E069002820DA26
:1002F00025F020051DE0D8F8180000EB800006EB83
:1003000040003038C8F818002046E16888470646A3
:1003100004F076F90028EED1012F0AD02E2E08D154
:100320002046E16888477F1C0646022F45F02005DD
:10033000C4DBA069002803DA404245F00105A06152
:10034000E80701D025F01005B6B1A6F14100192843
:1003500002D8203645F400654A46314620462560DD
:100360004D46FFF7FDFE58B1012806D0ED1D25F0E2
:10037000070000F1080989E704E005F1040985E7B1
:1003800030468AE7206ABDE8F0874FF0000200B5EA
:10039000134694469646203922BFA0E80C50A0E8A8
:1003A0000C50B1F12001BFF4F7AF090728BFA0E856
:1003B0000C5048BF0CC05DF804EB890028BF40F822
:1003C000042B08BF704748BF20F8022B11F0804F64
:1003D00018BF00F8012B704770477047704770478F
:1003E00010B500F087FA006810BD10B5044600F0A3
:1003F00081FA046010BD2DE9F0470D4699469246FA
:10040000044600F124080168880604D5E06921F05B
:100410001001216000E00120A84201DD471B00E03F
:100420000027A1697A1902EB0900081AA061207857
:10043000C00602D42046AFF30080002608E0D4E9CD
:1004400001211AF806009047206A401C761C2062A1
:100450004E45F4DB2078C0060AD52046AFF3008075
:1004600006E0D4E9012130209047206A401C206238
:10047000381EA7F10107F4DC07E0D4E9012118F8E0
:1004800005009047206A401C2062281EA5F1010546
:10049000F3DC2046AFF300802078000602D502206E
:1004A000BDE8F0870120FBE770472DE9FF4F0C46C0
:1004B0001E464FF0FF378BB0D2E90001DDF86080B7
:1004C0000A908A46C1F30A5505B93D4600210846FF
:1004D0004FF00000BAF1000F00F4400005DA00EB25
:1004E00080004FF4400101EA50004FEA9059B9F101
:1004F000010F00DDB9460A9850EA4A000ED044F6D2
:100500001050A5F2FF3545432F14B8F1000F1ED04F
:100510007542291E1EDDC9F100021CE0B8F1010F71
:100520004FF0000001D0302103E0F24305E02154F8
:10053000401CB042FBDB30460022002121540B99C5
:10054000C1F80880C1E900200FB0BDE8F08FBD1BE5
:100550006D1CDEE74A4600DA694206A800F06CFA34
:1005600006AB93E8070003AB83E8070050460A99FF
:1005700000F04AFB8DE80700A0F500501F380090FE
:100580000398002D0ADD42F21F014A460844002369
:1005900003A90390684600F0B3FD09E0A0F5005000
:1005A0004A461F38002303A90390684600F0BDFDAA
:1005B0008DE807000004000C03D04FF0FF30410825
:1005C00000E01046B8F1000F03D00022009215465B
:1005D0001EE0751E05D400F091F9303262556D1E93
:1005E000F9D5B3460122084302D000227F1C04E063
:1005F0002078302801D100227F1E002A099784D05C
:100600001DE0112D07DA00F079F9303262556D1CCA
:1006100050EA0102F5D1084302D00098C8B10EE0BB
:100620000021681E05E0235C625C63542254401E76
:10063000491C8142F7DBAB46A81B401E09900020F5
:1006400004F80B000B98099AC0F80880C0E9002B49
:100650007AE711264FF0000857E72DE9F04F88465A
:100660000446D21D22F0070191B0D1E90001CDE985
:100670000A0103F080FF02460B98C00F01D02D2025
:1006800007E02068810701D52B2002E0202101EA44
:10069000C000032A099001D0072A05DB0346414622
:1006A000204600F089F90BE12078800601D5E06949
:1006B00000E00620B8F1650F814606D0B8F1660F5C
:1006C00018D0B8F1670F70D131E00020B9F1110FE7
:1006D000009001DB112301E009F101030AAA01A93D
:1006E0000CA8FFF7E2FEDDE90C70002609F1010518
:1006F000834647E001204B4600904FF000470AAA8E
:1007000001A90CA8FFF7D1FEDDE90DB00C995D46FB
:10071000002610B909F101000D18B9EB050003D44A
:10072000C0F1FF3609F10105A5EB09002BE0B9F195
:10073000010F01DA4FF001090020B9F1110F00900B
:10074000484601DD112300E003460AAA01A90CA8CE
:10075000FFF7ABFEDDE90C704D460026834620789E
:1007600000070AD4AB4500DA5D4601A8012D04DD7F
:10077000411911F8011C302907D04F4502DA17F151
:10078000040F04DA012082460FE06D1EEEE7002F11
:1007900002DCED1B3E4403E0781CA84200DD7D1C1A
:1007A000B81B00F1010A4FF000472078000703D47E
:1007B000AA4501DB4FF0FF3A0021B7F1004F0DF1E0
:1007C00043088DF8431024D002202B23002F01DA98
:1007D0007F422D230A21021EA0F1010000DC5FB13F
:1007E00097FBF1FC97FBF1F201FB1C7C17460CF127
:1007F000300C08F801CDEEE7A8F101000370218864
:10080000090501D5452100E06521A0F1010800F8A6
:10081000011C09980FA9A1EB0807FF1D00B10120D9
:10082000411901EBEA70A1693844081A401EA06121
:100830002078C00602D42046AFF30080099828B182
:10084000D4E901219047206A401C20622078C0062C
:1008500022D52046AFF300801EE0002E04DBB34516
:1008600002DD01A8805D00E03020D4E9012190473D
:10087000206A401C2062761CAAF101005FEA000A8F
:100880000AD100F033F8C0680168405CD4E9012166
:100890009047206A401C2062281EA5F10105DCDC7F
:1008A00007E0D4E9012118F8010B9047206A401CA9
:1008B0002062381EA7F10107F3DC2046AFF3008069
:1008C000032011B041E60000074B70B50D467B4494
:1008D00000F05FF80446284600F020F910B14FF010
:1008E000FF3070BD204670BD0741000000487047D2
:1008F00028010020004870470801002030B5B0F101
:100900000A024FEA900E71F100034EEA817EB0EBCD
:100910000E0061EB91014FEA101E4EEA017E10EBD2
:100920000E0041EB11114FEA102E4EEA016E10EB52
:100930000E0041EB11214FEA104E4EEA014E10EB32
:100940000E0041EB1141401841F100014FEAD00087
:1009500040EA41704FEAD10110EB80054FEA810473
:1009600044EA907444EB01046D1944EB0404521BF7
:10097000A3414FF0000348BF0A3200D530BD401CF0
:1009800041F1000130BD000001694A1C0261087894
:10099000704700B58FB0CDE90131002105910549BF
:1009A0007944CDE9031011466846FFF767FC0FB0A4
:1009B00000BD0000E5FFFFFF2DE9F0411F460446A2
:1009C00003260168072A01F4006004DB08B116A5BC
:1009D00005E016A503E008B115A500E015A521F076
:1009E00010002060A069C01EA0610FB1401EA06170
:1009F0002046AFF300804FB1D4E90121384690473B
:100A0000206A401C2062C01C206206E0206AFAE7CF
:100A1000D4E9012115F8010B9047761EF8D2204643
:100A2000AFF30080BDE8F0814E414E006E616E0074
:100A3000494E4600696E66002DE9F047814616462C
:100A40008AB0354878440DC88DE80D0032487844A6
:100A5000801C03AC0DC884E80D0041F69B300844AF
:100A6000372190FBF1F290FBF1F5A5F1800501FB38
:100A700012041B3C02D56442012000E00020DFF894
:100A800098A080460027FA44AAF1BE0A0EE0E007CB
:100A90000AD03246684607EB470101230AEB810181
:100AA00000F043FB8DE8070064107F1C002CEED1A2
:100AB000194F7F44AE3F19E0E80715D007EB04104B
:100AC0000DF1180A90E80E008AE80E00C068F042A6
:100AD00001D1981908903246012306A903A800F015
:100AE00024FB03AB83E807006D10641C002DE3D1E9
:100AF0004FF0010332466946B8F1000F03A802D057
:100B000000F0FEFA01E000F010FBC9E90001C9F8AD
:100B100008200AB0BDE8F087F84D0000007B00F027
:100B20008000704700487047080100207546FFF7B5
:100B3000F9FFAE4605006946534620F0070085469A
:100B400018B020B5FFF73EFBBDE820404FF000068F
:100B50004FF000074FF000084FF0000B21F00701A5
:100B6000AC46ACE8C009ACE8C009ACE8C009ACE8E8
:100B7000C0098D46704710B50446AFF3008020468B
:100B8000BDE81040FFF709BB4FF0013C50F8042BC3
:100B900051F8043B9A4221D1A2EB0C03934313EA90
:100BA000CC1317D150F8042B51F8043B9A4215D1BD
:100BB000A2EB0C03934313EACC130BD150F8042B94
:100BC00051F8043B9A4209D1A2EB0C03934313EA78
:100BD000CC13DBD04FF00000704700BFD01A01BA31
:100BE000B1FA81F101F0180122FA01F0CB40C1F114
:100BF0002001DBB2C0B2C01A2CFA01F3D11A914322
:100C000011EAC311E6D170475FEA400C08BF91F0CA
:100C1000000F4FEA8C234FEAC12243EA51514FEAB9
:100C20001C5018BF00F5F0404FEA300018BF41F0EB
:100C300000415FEA6C5C00F02980BCF1FF3F08BF17
:100C400040F080407047130C06BF12044FF0100CA8
:100C50004FF0000C130E04BF12020CF1080C130F1E
:100C600004BF12010CF1040C930F04BF92000CF1AD
:100C7000020CD30F04BF52000CF1010C11464FF0CF
:100C80000002A0F11F00A0EB0C00704711F0004F14
:100C900008BF704731F000413FF4D5AF0B0C06BFE1
:100CA00009044FF0100C4FF0000C0B0E04BF0902AA
:100CB0000CF1080C0B0F04BF09010CF1040C8B0F95
:100CC00004BF89000CF1020CCB0F04BF49000CF1EA
:100CD000010CCCF12003A0EB0C0022FA03F302FA82
:100CE0000CF241EA030100F10100704720F07F4C53
:100CF00080EA030023F07F47ACEB070303F57C5346
:100D000000F0004003F1FF032DE980494FEA154B45
:100D100009B44FEA144325EA0B4E24EA03480FF2C4
:100D2000042606EB132749083E785FEA320203FBEC
:100D30000667C7F5000707FB06F64FEA54374FEA88
:100D4000D64606F1020607FB066CCCF1005C4FEAC2
:100D50001C472CEA074C07FB06F40CFB06F504EBDA
:100D600015464FEA961634BF00204FF000404FEA78
:100D7000D13706FB07FC4FEA1C4C0CFB0BF7D21BD0
:100D800003FB0CF761EB07010CFB0EF7B0EB074020
:100D900072EB17420CFB08F734BFA2EB0742B2EB31
:100DA000074261EB17414FEA0C444FEA910706FBFB
:100DB00007FC4FEA1C4C0CFB0BF7B0EBC74072EB87
:100DC000573203FB0CF734BFA2EBC742B2EBC7426A
:100DD00061EB57310CFB0EF7B0EBC70072EB5772AB
:100DE0000CFB08F734BFA2EBC702B2EBC70261EB02
:100DF0005771039F4FEA816141EA921104EBCC04E1
:100E00004FEAD1374FEA826206FB07FC42EA9012B2
:100E10004FEA80604FEA1C4C0CFB0BF7D21B03FB24
:100E20000CF761EB07010CFB0EF7B0EB074072EB20
:100E300017420CFB08F734BFA2EB0742B2EB0742A4
:100E400061EB17414FEA8C554FEA910704EB9C2464
:100E500006FB07FC4FEA1C4C0CFB0BF7B0EBC74042
:100E600072EB573203FB0CF734BFA2EBC742B2EB75
:100E7000C74261EB57310CFB0EF7B0EBC70072EBCA
:100E800057720CFB08F734BFA2EBC702B2EBC702E4
:100E900061EB577115EB4C254FEA816141EA9211E4
:100EA0004FEA82624FEAD13742EA901206FB07FC12
:100EB00044F100044FEA80604FEA1C4C0CFB0BF736
:100EC000D21B03FB0CF761EB07010CFB0EF7B0EB39
:100ED000074072EB17420CFB08F734BFA2EB074246
:100EE000B2EB074261EB174115EB1C154FEA81315C
:100EF00041EA92414FEA823242EA90424FEA803020
:100F00004FEA0C7644F1000448EA03434EEA0B48EA
:100F10004FF0000EB2EB080C71EB030724BF6246E2
:100F200039464EEB0E0E4FF0000B0018524149416E
:100F30004BEB0B0BB2EB080C71EB03077BF1000BD7
:100F400024BF624639464EEB0E0E4FF0000B0018E0
:100F5000524149414BEB0B0BB2EB080C71EB030711
:100F60007BF1000B24BF624639464EEB0E0E51EA70
:100F7000020718BF46F0010616EB0E7655F1000287
:100F800054F1000103D5BDE88901BDE80088BDE842
:100F90008901BDE80048B619524141EB0101A3F1B6
:100FA0000103704780807F7E7D7C7B7A79787776BD
:100FB00076757473727171706F6E6E6D6C6C6B6A36
:100FC0006A696868676666656464636362616160D4
:100FD000605F5F5E5E5D5D5C5C5B5B5A5A59595851
:100FE00058575756565555555454535352525251BB
:100FF000515050504F4F4F4E4E4D4D4D4C4C4C4B11
:101000004B4B4A4A4A494949484848474747474657
:101010004646454545444444444343434342424293
:1010200042414141002B9C4630D477002BD01CB567
:101030004FEA370703B44FF010004FF01001BAF138
:10104000000F06D0BCF1000FDCBF40F0080040F0FC
:1010500008014FF000000FBCBDE810400BF1010B80
:10106000BBF1010F08BF5FEA170722BF12F10102AF
:1010700011F101014FF0004143F1000300F0004085
:1010800043EA00007047F9D35708D0E746EA06461E
:1010900013F1400F4FEA16461FDD13F1200FDFBF9B
:1010A00016430A46002120335B42BED0C3F120071D
:1010B00046EA064602FA07F74FEA164646EA0706E8
:1010C000C3F1200722FA03F201FA07F721FA03F12C
:1010D0004FF0000342EA0702A7E746EA020646EAA3
:1010E00006464FEA164646EA0106BCBF46EA0646F1
:1010F000360C4FF000034FF000024FF0000194E770
:101100002DE9804C9A46934670B491E8380007C8A0
:1011100031EA400C48BF34EA430C03D5FFF7E6FD43
:10112000FFF780FFF0BCBDE8008C2DE9804C9A46AB
:10113000934670B491E8380007C810F0804F08BF9C
:1011400013F0804F03D100F005F8FFF76BFFF0BC00
:10115000BDE8008C20F07F4780EA030023F07F4C3D
:1011600007EB0C03A3F57C5300F00040A3F1FE0352
:1011700092F0000F00F0B38095F0000F00F0778040
:101180002DE901494FEA11404FEA144621EA00488F
:1011900000FB06FC24EA064708FB06F607FB08F8F6
:1011A00000FB07F718EB06484CEB164C4FEA124BC6
:1011B00018EB07484FEA15464CEB174022EA0B4E56
:1011C0000BFB06FC25EA06470EFB06F607FB0EFEA8
:1011D0000BFB07F71EEB064E4CEB164C4FF00006D0
:1011E0001EEB074E4CEB174B18EB0B0840F10000C1
:1011F00018EB0E0B58EB000840F100008F1A4FF06F
:1012000000013CBFC943661B14BFB5EB040C0021B1
:101210003CBFC943F61B4FEA17444EEA8E0E27EA3D
:1012200004454FEA1C4704FB07622CEA074C05FB08
:1012300007F70CFB05F604FB0CFC16EB074642EB2C
:10124000174216EB0C4642EB1C421BEB060658EB12
:101250000202414146EA9E0601D5BDE80189B61960
:10126000524141EB0101A3F10103BDE801894FEABD
:1012700014454FEA114724EA054621EA074C05FBCD
:1012800007F406FB07F70CFB06F105FB0CFC11EB62
:10129000074144EB17444FEA124711EB0C4144EB72
:1012A0001C4422EA074C05FB07F206FB07F70CFB80
:1012B00006F605FB0CFC16EB074642EB174216EB55
:1012C0000C4642EB1C456A1854F1000148BF7047B8
:1012D000B619524141EB0101A3F10103704795F0AA
:1012E000000F37D04FEA11424FEA144721EA024675
:1012F00024EA074C02FB07F106FB07F70CFB06F498
:1013000002FB0CFC14EB074441EB17414FEA154775
:1013100014EB0C4441EB1C4125EA074C02FB07F59A
:1013200006FB07F70CFB06F602FB0CFC16EB074668
:1013300045EB174516EB0C4645EB1C42121951F1D3
:10134000000148BF7047B619524141EB0101A3F1BA
:10135000010370474FEA14454FEA114724EA054656
:1013600021EA074C05FB07F106FB07F70CFB06F229
:101370004FF0000605FB0CFC12EB074241EB174156
:1013800012EB0C4251EB1C4148BF7047921841EBE5
:101390000101A3F101037047FEE7704772B6FEE753
:1013A00010B590F821100022022905D00421816394
:1013B00080F82020012010BD01680B6823F00E0387
:1013C0000B6001680B6823F001030B6090F840305C
:1013D000C46B012101FA03F3636080F8211080F8E7
:1013E0002020104610BD000010B590F821100024F8
:1013F000022903D00421816301243DE001680A68C9
:1014000022F00E020A6001680A6822F001020A60F6
:101410001A4A0168914201D1012121E0174A143290
:10142000914201D110211BE0144A2832914201D18E
:10143000891515E0114A3C32914201D189140FE01F
:101440000E4A5032914202D14FF4803108E00B4AEB
:101450006432914202D14FF4801101E04FF080716B
:10146000064A083A5160012180F82110002180F8D5
:101470002010416B01B18847204610BD0800024092
:1014800090F821007047000070B5044600F0FCF8A9
:101490000546601C02D004480078044400F0F4F8CB
:1014A000401BA042FAD370BD000000202DE9F84F88
:1014B000DFF89C91002409F1040A0AF1040B234689
:1014C0000F270BF1040EBBE00125A5402A40AA42DC
:1014D00076D1DFF880C14E68A6EB0C0866452BD0AC
:1014E0000DDC032E34D005DC36B3012E19D0022ECC
:1014F0002FD11BE0112E16D0122E2AD119E0B8F5EB
:10150000881F19D006DCB8F5803F15D0B8F5801FCC
:101510001FD111E0B8F5001F0ED0B8F5041F18D187
:101520000AE0CB6815E0CB681B1D12E0CB680833DE
:101530000FE0CB680C330CE08B682BB1012B4FF024
:10154000080303D0456104E0042302E0056100E0E4
:101550000023FF2A01D8064601E000F104064FEA05
:10156000840501D9A5F12005D6F8008007FA05FC0D
:1015700028EA0C0803FA05F548EA0508C6F80080D1
:101580004D68ED005BD5344DAE6946F00106AE61A5
:10159000AD6924F0030605F0010500952F4D06EB1B
:1015A000050CDCF80850A607360F07FA06F825EAFE
:1015B0000805DFF8AC80404503D14FF0000810E08B
:1015C0003DE0DFF8A080404502D14FF0010808E07F
:1015D000DFF89480404502D14FF0020801E04FF05F
:1015E000030808FA06F848EA0508CCF808804D68B0
:1015F000D9F80060ED034D4601D5164300E096434F
:101600002E604D68DAF80060AD03554601D51643EB
:1016100000E096432E604D68DBF80060ED025D4609
:1016200001D5164300E096432E604D68DEF8006059
:10163000AD02754601D5164300E096432E60641C4A
:101640000A6832FA04F57FF43FAFBDE8F88F000076
:101650000004014000001110001002400000014091
:1016600000080140000C014000100140C26821EA5E
:1016700002030A4043EA0241016170470AB1016175
:1016800070470904FBE700000148806870470000CC
:1016900000000020704770472DE9F04101680446C2
:1016A0004A694E6890F83E000025D743FA050BD4EE
:1016B000F243D20508D46FF4807201254A61216893
:1016C0000A6842F400420A60B90508D4F143C9052A
:1016D00005D422686FF4007145F002055161790567
:1016E00025D4F143C90522D4638D94F83D10226BB3
:1016F000202808D13BB9212910D029290ED028292A
:1017000001D1212A0AD022686FF48061516145F02D
:101710000405102806D0402804D008E0204601F037
:1017200071FE04E02068016841F400710160380531
:1017300008D4F043C00505D421686FF4006045F07B
:1017400008054861002D07D0206C284320642046FE
:10175000BDE8F04101F0ACB9BDE8F0812DE9F047FA
:10176000026800215368C66A90F83E4090F83D50E8
:10177000102C12D0402C10D0046C002C7DD0546959
:10178000E443A6077AD4DE43B60577D4036C03B1ED
:101790009169BDE8F04701F011BE976951694FF4B6
:1017A0002A0CC9435FEAC1784FF02A4904D0664544
:1017B0002AD04E4528D010E0DE43B6050DD4C16ACC
:1017C000614501D1012103E0C16A494501D10821E8
:1017D000C162BDE8F04701F055BC0E0716D4DE43E8
:1017E000B60513D4416CC9B21161416B09B1896A64
:1017F00029B9816B002907D0896A002904D00068C3
:10180000416841F400614160BDE8F0878E0706D46D
:10181000DE43B60503D4BDE8F04701F087BBFE43C5
:10182000526876074FEA02521DD4002AECDB0A0602
:1018300008D4DA43520505D4490705D5BDE8F04779
:1018400001F018BB4907DFD4D9438905DCD4212D29
:1018500005D0402CD8D1BDE8F04701F059BCBDE817
:10186000F04701F0C5BA002ACEDB4A060BD4DA43B2
:10187000520508D4490708D501E00DE00EE0BDE8A7
:10188000F04701F041BA4907BED4D9438905BBD41A
:10189000BDE8F04701F0CFB9916970E7E10606D4E1
:1018A000D943890503D4BDE8F04701F0EDBD2821F7
:1018B000212D27D0292D25D0650655D4DD436D0572
:1018C00052D4640752D590F83D30448D002C9BD003
:1018D0001269446A2270426A521C4262428D521E50
:1018E0004285428D002A8FD12A2B8DD10268536800
:1018F00023F4806353602222026380F83D1000F0DD
:10190000C5FB81E7250623D4DD436D0520D464079C
:1019100020D590F83D30448D002CF2D0446A2478D4
:101920001461426A521C4262428D521E4285428DAF
:10193000002AE6D1292BE4D10268536823F480639E
:1019400053602122026380F83D1000F0A0FB5BE7AA
:101950006107D6D4D9438905D3D4418D0029D0D08D
:10196000416A097811610AE06107CAD4D94389053F
:10197000C7D4418D0029C4D01169426A1170416AEF
:10198000491C4162418D491E41853DE77047000079
:1019900070B5040025D094F83D00002520B984F8E6
:1019A0003C50204600F034FB242084F83D002068A1
:1019B000016821F0010101602068016841F40041E3
:1019C00001602068016821F40041016000F08EFC94
:1019D0004D4A6168914201D84C4900E04C49884227
:1019E00001D2012070BD4B492368B0FBF1F15E6864
:1019F00026F03F060E435E606368934206D94FF4BB
:101A0000967359434FF47A73B1FBF3F12368491C81
:101A10001E6A26F03F06314319626168914210D870
:101A20004900401EB0FBF1F2521CC2F30B02042A23
:101A300001D2042022E0B0FBF1F0401CC0F30B0007
:101A40001CE0A268F2B301EBC10303EB0116431ED5
:101A5000B3FBF6F35B1C43F480431B0549D092B300
:101A600001EBC10202EB0111401EB0FBF1F0401C82
:101A7000C0F30B0040F4804040F400402168CA6984
:101A80004CF6FF739A431043C861D4E90710014331
:101A90002068026822F0C00211430160D4E903010A
:101AA00001432068826848F2FF339A431143816002
:101AB000D4E9050108432168CA6822F0FF021043F7
:101AC000C86001E00EE016E02068016841F0010105
:101AD00001602564202084F83D00256384F83E5091
:101AE000002070BD01EB4106431EB3FBF6F35B1C07
:101AF000B3E70120C2E701EB4101401EB0FBF1F06A
:101B0000401CC0F30B00B7E7A086010080841E00D4
:101B100000093D0040420F002DE9FF4F81B089468A
:101B20000446FFF7B1FD054694F83D004FF001086B
:101B300020287DD11923012250492046009501F02B
:101B400077FD002874D194F83C00012870D0012062
:101B500084F83C0020680168C90703D1016841F09E
:101B6000010101602068016821F400610160242006
:101B700084F83D00002626644148E0624FF0011BD6
:101B800020272068016841F48071016000950022DF
:101B900059462046049B01F04BFD50B12068006877
:101BA000C00502D54FF400702064032005B0BDE8E5
:101BB000F08F216809F0FE000861FFF765FD2168DC
:101BC000054648694969C0F34000C1F380214FF0E0
:101BD000A00A0FE0FFF758FD411B0498814200D88E
:101BE00008B984F83DA0216848694969C0F34000FC
:101BF000C1F3802194F83D20A02A02D008B9002921
:101C0000E8D084F83D7020684169C943890716D43B
:101C1000016841F4007101602068416980691923FD
:101C2000012216492046009501F002FDB8B900E0F6
:101C300021E084F83D7084F83C600020B6E701683C
:101C400041F40071016021686FF4806048611923DC
:101C500001220A492046009501F0EAFC08B1012062
:101C6000A4E7039808F1010880458AD384F83D7001
:101C700084F83C60F3E7022098E7000002001000BF
:101C80000000FFFF704770477047704770470000C3
:101C90002DE9FF4F83B00025DDE910799A46934680
:101CA0000446DDF848800095FFF7EEFC064694F800
:101CB0003D0020287CD11923012285492046009629
:101CC00001F0B6FC0028F5D194F83C0001286FD053
:101CD000012084F83C0020680168C90703D101682D
:101CE00041F0010101602068016821F40061016098
:101CF000222084F83D00402084F83E00256467627D
:101D0000A4F82A90608D20857248E062CDE90086B3
:101D100053465A462046049901F04AFA00287DD1DC
:101D2000208DDFF8B491202768B1012814D0022853
:101D3000206801681ED041F480610160206841691B
:101D400080690090B6E0206841698169009101686E
:101D500041F400710160ADE02068016821F4806108
:101D6000016072B62068416981690091016841F49F
:101D700000710AE041F40061016072B620684169B7
:101D800081690091016821F48061016062B691E08F
:101D9000032868D801280CD0022843464FF00002DF
:101DA0004946204600960FD001F042FCB0BB10E03F
:101DB0008BE032464146204601F0B9FC70BB2068FA
:101DC0000069616A08706CE001F032FC30BB72B6E9
:101DD00034E02068016821F48061016072B62068F7
:101DE0000069616A0870606A401C6062208D401E54
:101DF0002085608D401E6085384846F2A811006835
:101E0000B0FBF1F0C0EBC00000EB80000090401E82
:101E1000009008D020684069C04300E029E04007F6
:101E20000CD50098F3E744F8305F6773A573206919
:101E300040F02000206162B625731AE02068016836
:101E400041F40071016020680069616A0870606A8D
:101E5000401C6062218D491E2185618D491E61856E
:101E600062B621681BE032464146204601F05FFC25
:101E700018B1012007B0BDE8F08F20680069616AE1
:101E80000870606A401C6062218D491E2185618D49
:101E9000491E618521684A69D24352070AD40969FB
:101EA0000170606A401C6062208D401E2085608D3C
:101EB000401E6085208D00287FF46AAF84F83D7055
:101EC00084F83E5084F83C50D4E70220D2E700006A
:101ED000020010000000FFFF040001000C000020C1
:101EE0002DE9FF4F83B09A46DDE9119793460446EA
:101EF000DDF84080FFF7C8FB054694F83D00202838
:101F00007FD11923012240492046009501F090FB22
:101F1000002876D194F83C00012872D0012084F882
:101F20003C0020680168C90703D1016841F0010144
:101F300001602068016821F400610160212084F8BB
:101F40003D00402084F83E0000262664C4F824802A
:101F5000A4F82A90608D20852C48E062CDE90075B8
:101F600053465A462046049901F0A0F970B930E072
:101F70002A463946204601F00DFC58B1206C042851
:101F800004D12068016841F400710160012007B0AC
:101F9000BDE8F08F606A216800780861606A401CC3
:101FA0006062218D491E89B22185628D521E628533
:101FB00022685369DB435B070BD469B10078106179
:101FC000606A401C6062208D401E2085608D401E2E
:101FD0006085208D0028CBD12A463946204601F065
:101FE00001FB0028CAD154F83D0B016841F400718F
:101FF0000160202004F81E09E67766770020C6E716
:10200000FFE70220C3E70000020010000000FFFF0E
:1020100010B586B0002100910191029103910068F2
:10202000174988422AD1174CA06940F00800A061E6
:10203000A069694600F008000490C02000901220BA
:102040000190032003901048FFF730FAE06940F454
:102050000010E061E069002200F4001004901146D5
:102060001F2000F07BF81F2000F06AF800221146C4
:10207000202000F073F8202000F062F806B010BDB8
:102080000054004000100240000C014070477047AF
:102090000248816802781144816070470000002086
:1020A000074810B5016841F010010160032000F0FD
:1020B00075F80F2000F006F800F024F8002010BD9D
:1020C0000020024070B50D4D04464FF47A71287817
:1020D000B1FBF0F00A490968B1FBF0F000F0ECFA4E
:1020E00048B9102C07D200222146501E00F036F8C5
:1020F00000206C6070BD012070BD00000000002059
:102100000C0000200C4808B5816941F00101816193
:10211000816901F001010091C16941F08051C16103
:10212000C06900F0805000900448416821F0E061EF
:1021300041F00071416008BD001002400000014004
:10214000002809DB00F01F020121914040098000B6
:1021500000F1E020C0F8001170470000F0B40E4B11
:102160001B680C46C3F30223C3F10705042D00D9F5
:102170000425191D072901D2002300E0DB1E0126DA
:1021800006FA05F1491E214099409E40761E1640F0
:102190003143F0BC02F016BA0CED00E0064900F045
:1021A000070208684FF6FF03184040EA0220034A7E
:1021B00010430860704700000CED00E00000FA05D5
:1021C0002DE9F0470F46050061D0434E306800F01E
:1021D0000700B84209D2306820F007003843306069
:1021E000306800F00700B84251D128683B4C8107A5
:1021F00012D5400703D5606840F4E060606028783D
:10220000000703D5606840F4605060606068A968AA
:1022100020F0F000084360602878C00728D0686884
:10222000012810D02168022810D0890700292EDA51
:10223000616821F0030101436160FFF725FA8046E0
:1022400041F288390DE021688903EFE78901EDE764
:10225000FFF71AFAA0EB0801494502D90320BDE8AF
:10226000F0876068696800F00C00B0EB810FEFD177
:10227000306800F00700B8420BD9306820F0070042
:1022800038433060306800F00700B84201D00120C8
:10229000E5E72878400705D56068E96820F4E06044
:1022A000084360602878000706D56068296920F433
:1022B000605040EAC100606000F038F86168084A88
:1022C000C1F30311515CC840064908600648006824
:1022D000FFF7F8FE0020C2E7002002400010024095
:1022E000AA5700080C0000200400002004480549FB
:1022F00000684968044AC1F30221515CC840704734
:102300000C00002000100240BA570008044805499C
:1023100000684968044AC1F3C221515CC840704753
:102320000C00002000100240BA57000812A185B02E
:102330000FC98DE80F0014A0144A0068049051687A
:10234000134801F00C03042B10D0082B0ED1C1F35D
:102350008343C9031DF803000AD5516804AAC1F3D9
:102360004041515C0A4A5043B0FBF1F005B0704760
:1023700008494843FAE70000020304050607080974
:102380000A0B0C0D0E0F101001020000001002408D
:1023900000127A0000093D002DE9F84F040070D0CA
:1023A0002078C04DC00749D06868C0F3810001287B
:1023B00007D06868C0F38100022809D16868C003AB
:1023C00006D52868800339D560680028E7D035E055
:1023D0006068B0F5803F0BD010B1B0F5A02F11D0E0
:1023E000286820F480302860286820F4802002E0EB
:1023F000286840F480302860606890B1FFF744F9A5
:1024000006460AE0286840F480202860F0E700BF14
:10241000FFF73AF9801B642873D828688003F7D542
:102420000CE0FFF731F9064605E000BFFFF72CF995
:10243000801B6428F0D828688003F7D420789A4E4F
:1024400080074FF001094FF0000839D5686810F097
:102450000C0F07D06868C0F38100022809D16868B2
:10246000C00306D42868800714D52069012808D144
:1024700010E02069B0B1C6F80090FFF705F90746F3
:1024800005E00AE1FFF700F9C01B0228C4D828685C
:102490008007F7D52868616920F0F80040EAC1009C
:1024A00028600DE0C6F80080FFF7EEF8074604E06C
:1024B000FFF7EAF8C01B022823D828688007F7D462
:1024C000207800072CD57948A169D9B1C0F80090CF
:1024D000FFF7DAF8074604E0FFF7D6F8C01B02283A
:1024E0000FD8686A8007F7D571484FF4FA51006831
:1024F000B0FBF1F0009000BF0098411E0091FAD2AD
:102500000EE080E0C0F80080FFF7BEF8074604E068
:10251000FFF7BAF8C01B022875D8686A8007F7D49D
:102520002078400760D5E8690027C00008D4E86932
:1025300040F08050E861E869012700F08050009089
:102540005C480168C90513D40168834641F4807171
:102550000160FFF799F8824606E000BFFFF794F8A4
:10256000A0EB0A0064284ED8DBF80000C005F5D5C2
:10257000E06801280AD008B1052813D0286A20F0A5
:1025800001002862286A20F0040002E0286A40F076
:1025900001002862E06841F2883B98B1FFF774F8C7
:1025A00082460BE0286A40F004002862EEE700BF94
:1025B000FFF76AF8A0EB0A0159455AD8286A800744
:1025C000F6D50CE0FFF760F8824605E0FFF75CF80F
:1025D000A0EB0A0159454CD8286A8007F6D41FB1F0
:1025E000E86920F08050E861E06988B36968C1F368
:1025F0008101022944D00228C6F8608004D0FFF788
:1026000043F8044638E034E0FFF73EF8074604E0BC
:10261000FFF73AF8C01B02282BD828688001F7D4AE
:10262000206AB0F5803F05D16868A16820F40030C9
:1026300008436860D4E908010843696821F474110B
:1026400008436860C6F86090FFF71EF8044606E08D
:1026500025E000BFFFF718F8001B022809D82868FA
:102660008001F7D51BE000BFFFF70EF8001B022822
:1026700002D90320BDE8F88F28688001F4D40EE069
:102680000128F7D06868226A00F48031914204D1B1
:10269000616A00F47010884201D00120EAE700204E
:1026A000E8E700000010024000004242800442427D
:1026B0000C0000200070004010B5401EB0F1807F7B
:1026C00001D3012010BD4FF0E02460610F2160179D
:1026D00001F078FF0020A06107202061002010BDDC
:1026E00070477047F8B5026804461068D1685369AE
:1026F00010F00F0F4FF0000553D003F0010601F466
:10270000907737435FD0C20705D0CA0503D5226C46
:1027100042F001022264420705D5DA0703D0226C99
:1027200042F002022264820705D5DA0703D0226C48
:1027300042F004022264020707D501F0200232436E
:1027400003D0226C42F008022264226C002A34D0AA
:10275000800604D5880602D5204601F04DFE20688B
:102760004069216CC0F38010090700D430B32046C3
:1027700001F02AFE2068416949061BD5416921F014
:1027800040014161A06BA8B158494163A06BFEF7BD
:102790002BFE002811D0A06B416B01B0BDE8F040CA
:1027A000084783060FD58B060DD52046BDE8F840B7
:1027B00001F022BE2046FFF794FFF8BD2046FFF748
:1027C00090FF2564F8BD266B2023012E52D1C6064A
:1027D00050D5CE064ED5106850680090506940061E
:1027E0002AD5A16B086840680004000CEAD0A68DC9
:1027F0008642E7D9E0858869202818D0D06820F47F
:102800008070D0602068416921F001014161206839
:10281000416921F04001416184F83E302563206820
:10282000C16821F01001C160A06BFEF7B9FDA08D59
:10283000E18D401A81B219E0A08DE18D401A81B27C
:10284000E08D0028BED00029BCD0D06820F4907064
:10285000D0602068426922F00102426184F83E3073
:1028600025632068C26822F01002C2602046FFF78C
:1028700037FFF8BD05062BD50D0629D594F83D0088
:102880002128F6D1A068B0F5805F01D12069B0B1F0
:10289000206A411C2162216800784860E08C401E5B
:1028A0000004000CE084E4D12068C16821F08001BC
:1028B000C1602068C16841F04001C160F8BD206A74
:1028C0000088C0F308005060206A801C2062E5E7A1
:1028D0004006F3D54806F1D5D168204621F04001E5
:1028E000D16084F83D3000F076F8F8BDB9430008B7
:1028F00070B5040004D094F83D00002510B106E046
:10290000012070BD84F83C50204600F023F82420BC
:1029100084F83D002068C16821F40051C160204660
:1029200001F0C6FD2068016921F490410161206831
:10293000416921F02A0141612068C16841F40051D8
:10294000C1602564202084F83D0084F83E0000200A
:1029500070BD000030B585B000240094019402944D
:1029600003940068184988422CD11848816941F4C1
:1029700080418161816901F480410491816941F064
:10298000040181618069124D00F0040004904FF44D
:1029900000700090022001900320039069462846B1
:1029A000FEF784FD2815CDE9000469462846029407
:1029B000FEF77CFD002211462520FFF7CFFB2520E6
:1029C000FFF7BEFB05B030BD0038014000100240EB
:1029D0000008014070477047FEE700000148FEF71D
:1029E0005BBE00003C0000200148FEF7B7BE0000BF
:1029F0003C00002038B5406A002190F83D202B4B68
:102A000046F2A8141B68B3FBF4F3C3EBC30303EB58
:102A1000830300933BB15B1E009303681B689B0517
:102A200005D5009BF6E7036C43F020030364436B7A
:102A300003B19962836B03B1996203681C6824F443
:102A400080641C604185436B03B15963836B03B1A0
:102A5000596303681C6824F001041C6090F83D4031
:102A60002023602C0BD0282434EA02020FD080F8F7
:102A70003D3080F83E1000BFFEF788FF38BD80F87B
:102A80003D3080F83E100164FEF704FE38BD026858
:102A9000136843F0010313600268136843F4806312
:102AA0001360016380F83D40E6E700000C00002061
:102AB00070B5044690F83D0094F83E10102901D0FE
:102AC000402906D1222804D121680A6822F4006234
:102AD0000A60282131EA00024FF000054FF020067D
:102AE00026D021684968090505D4602803D084F8F8
:102AF0003D6084F83E50256320684168090537D55C
:102B0000416821F400614160606B3D4990F82120EB
:102B1000012A11D04163606BFEF766FC38B3206870
:102B2000016821F00101016084F83D60606B1CE0E8
:102B3000256384F83D10DFE7A06B4163A06BFEF7CF
:102B400053FCA0B120684169C943490605D4006916
:102B5000616A0870606A401C60622068016821F048
:102B60000101016084F83D60A06B416B884710E073
:102B700094F83D10602910D04169C943490605D435
:102B80000069616A0870606A401C60622046FEF756
:102B9000FDFE206CC1071CD115E084F83D60256462
:102BA0004169C943490605D40069616A0870606AD1
:102BB000401C60622068016821F00101016020462C
:102BC000FEF768FDE5E7810703D4410701D400075C
:102BD00004D52068416821F4E061416094F83D002B
:102BE000216C49070BD5282809D10648E0622563E6
:102BF00084F83D6084F83E502046FFF743F870BDEE
:102C0000F52900080000FFFF01684A69D243520518
:102C10000FD46FF480624A61002140F8301F2022F7
:102C200042738173026942F0040202610173012060
:102C300070470020704710B5C26A438D0168042BAD
:102C400006D0438D032B08D0438D022B1DD012E0FC
:102C50004A6822F480624A600CE04B6823F4806387
:102C60004B60042A06D0022A04D001680A6822F4C4
:102C700080620A6001680969426A1170416A491CF0
:102C80004162418D491E418510BD012A30D0102A74
:102C90002ED0042A30D0022A2ED00A6842F40072C4
:102CA0000A6001680969426A1170416A491C4162FF
:102CB000428D521E4285026812690A70416A491C9F
:102CC0004162418D491E418501684A6822F4407283
:102CD0004A60202180F83D1090F83E200021402AD3
:102CE00080F83E100CD012210163FEF7CCFF10BD1E
:102CF0000A6822F48062D3E70A6842F48062CFE770
:102D00000163FEF7C2FF10BD38B590F83D102229CF
:102D100014D1418D032912D901680969426A1170E1
:102D2000416A491C4162418D491E4185418D0329FB
:102D300004D10068416821F48061416038BDC26AF5
:102D4000022AFBD0012901D00029F7D1274946F2F8
:102D5000A81300220968B1FBF3F101EB8101009196
:102D600001682023009C641E009422D00C68A405F6
:102D7000F8D40C6824F480640C6001684C6824F476
:102D8000E0644C6001680969446A2170416A491C29
:102D90004162418D491E418580F83D3090F83E10DA
:102DA00080F83E2040291DD012210163FEF76BFF01
:102DB00038BD046C44F0200404644C6824F4E064DE
:102DC0004C6001680969446A2170416A491C41628A
:102DD000418D491E418580F83D3080F83E20FEF748
:102DE000D5FD38BD0263FEF750FF38BD0C00002052
:102DF00010B5C26A90F83D1021290BD1418D51B117
:102E0000416A026809781161416A491C4162418D39
:102E1000491E418510BD20230021082A13D0202AF5
:102E200011D012F5803F0ED00268546824F4E0649B
:102E300054601122026380F83E1080F83D3000BFDC
:102E4000FEF722FF10BD0268546824F4E064546069
:102E50000268146844F400741460016380F83D3023
:102E600090F83E2080F83E10402AE9D1FEF70EFF90
:102E700010BD000010B590F83D1090F83E30C26AC9
:102E8000048DB4B1212903D0402B11D122290FD1B7
:102E9000418DE1B390F83E10402942D0416A02686A
:102EA00009781161416A491C4162418D491E418581
:102EB00010BD2129E8D120230021082A13D0202A7F
:102EC00011D012F5803F0ED00268546824F4E064FB
:102ED00054601122026380F83E1080F83D3000BF3C
:102EE000FEF7D2FE10BD0268546824F4E06454601A
:102EF0000268146844F400741460016380F83D3083
:102F000090F83E2080F83E10402AE9D100E002E02F
:102F1000FEF7BCFE10BD0068416821F4806141608D
:102F200010BDBDE8104000F0F3B8000078B590F88F
:102F30003E50C26A046B90F83D6000230168222E67
:102F400073D1066D0EB9402D6FD0056D1DB90569A1
:102F5000B5F5404F1BD0458D95B3468D484D012E9C
:102F600020D0448D022C4DD00C6844F480640C6059
:102F700001684C68240579D5AA4273D0012A71D022
:102F8000082A6FD0102A6DD0202A6BD06EE04A69D3
:102F90008A6900920A6842F480720A60016D491CD5
:102FA000016578BDAA4214D10A6822F480620A60E1
:102FB00001684A68120504D50A6822F4806217E0A5
:102FC000FFE74A698A6900920A6842F400720A605F
:102FD00050E0082A10D0202A0ED0122C0AD0042A41
:102FE00003D0022A01D0102AE6D10A6842F4806296
:102FF0000A603BE0012ADFD00A6822F480620A609E
:103000000168DEE7042A11D0022A0FD0102A0DD061
:103010000C6844F400640C6001684C698C6900948D
:103020000C6824F480640C6008E025E00C6844F42B
:1030300080640C6001684C698969009101684C6882
:10304000240517D5AA4207D0012A05D0082A03D0A3
:10305000102A01D0202A0DD14A6842F480524A60D9
:1030600008E0FFE74A6842F480524A6001684A6912
:1030700089690091036578BD48698869009078BDC9
:103080000000FFFF90F83E10402910D00169B1F513
:10309000804F19D0016DA9B3016D012910D1416C88
:1030A0005FF0F10201F4407142EAD11106E0016DD6
:1030B0000029416C05D0C9B241F0010100680161ED
:1030C000704701F0FE01F9E790F83D102129416CAD
:1030D00009D0C9B241F0010102681161416B29B107
:1030E000896A49B902E001F0FE01F5E7816B002928
:1030F000E6D0896A0029E3D00068416841F40061A4
:1031000041607047FFE7416CF02201F44071CBE76A
:1031100010B590F83D10026D22B3026D012A2FD038
:10312000026D022A1DD122292FD0428D0AB12129F8
:1031300033D0428D002A14D1212912D101684A6866
:1031400022F4E0624A6001680A6842F400720A6090
:1031500000210163202280F83D2080F83E10FEF718
:1031600095FD10BDC16C0129816C02D0C1F307210E
:1031700008E00268C9B21161016D891C016510BDCA
:10318000816CC9B20268116104E001680A6842F406
:1031900080720A60016D491CF0E7416A0268097893
:1031A0001161416A491C4162418D491E418510BD32
:1031B0002DE9F84F0446006889460B9D0168984642
:1031C000174641F4806101602068016841F4807114
:1031D000016000954FF0011B0022594620460A9BD2
:1031E00000F026FA4FF4007A40B120680068C0056C
:1031F00001D5C4F840A00320BDE8F88F216809F08C
:10320000FE0008612B46284920460A9A00F044FA3D
:10321000F0BB20684169806900902A4620460A99DF
:1032200000F0B8FA40B1206C04283AD12068016857
:1032300041F40071016034E0FEB2B8F1010F09D031
:103240002168380A08612A4620460A9900F0A2FA45
:103250000028E8D1206806612A4620460A9900F035
:1032600099FA0028DFD12068016841F4807101607B
:1032700000950022594620460A9B00F0D9F9002803
:10328000B3D1216809F0FF0040F00100086100E0BF
:1032900007E02B46044920460A9A00F0FDF9002871
:1032A000AAD00120A8E70000020001002DE9F843A0
:1032B000044600680D46DDE9089701689846164601
:1032C00041F4807101604B4600224FF0011120460D
:1032D000009700F0ADF948B120680068C00502D53C
:1032E0004FF4007020640320BDE8F883216805F0E6
:1032F000FE0008613B464A461549204600F0CCF9DD
:1033000088B920684169806900903A46494620465C
:1033100000F040FA48B1206C042804D1206801680C
:1033200041F4007101600120DEE7F5B2B8F1010F50
:1033300009D02168300A08613A464946204600F023
:1033400029FA0028E7D1206805610020CCE70000B9
:103350000200010010B50D4C002020700123C1B205
:103360001A460B48FEF7D8FB30B12078401CC0B29B
:103370002070FF28F2D310BD06A0FCF737FF21789C
:10338000BDE8104007A0FCF731BF0000100000208E
:103390003C0000200D0AC9E8B1B8D5FDB3A30D0A61
:1033A000000000000D0A493243C9E8B1B8B5C4B500
:1033B000D8D6B7CAC73A25640D0A000038B50C46FE
:1033C00090F83D2000212825954302680B4605D042
:1033D00051699169009180F83C3038BD556825F4F9
:1033E00080655560E243540700D50121120601D5DE
:1033F000828900E0028B80F83C3092B2FEF74BF9F4
:1034000038BD00002DE9F04190F83D40C26A00232C
:1034100020261C4F01686FF48065082A01D0202AFD
:1034200001D1282C04D0212C16D04D61BDE8F081AB
:10343000C7624A6822F4E0624A6001684D6101682F
:103440000A6822F480620A60036380F83D6080F8B5
:103450003E30FEF717FCE9E7C7622122026380F8DD
:103460003D6080F83E304A6822F4E0624A600168BC
:103470004D6101680A6822F480620A60FEF707FE67
:10348000D4E700000000FFFFF8B590F83D60044667
:103490000068416821F4E0614160206800254169CD
:1034A0000091016841F0010101602068016821F488
:1034B0008061016020684168090520D5474F222EB0
:1034C00048D02A2E46D0616B096849686185618DB4
:1034D00019B1216C41F004012164416821F40061BB
:1034E0004160606BFDF7CCFF012808D0606B47633B
:1034F000606BFDF779FF10B1606B416B8847608DA1
:1035000008B320684169C943490708D40069616A62
:103510000870606A401C6062608D401E6085206893
:103520004169C943490608D40069616A0870606A44
:10353000401C6062608D401E6085608D18B1206CFB
:1035400040F004002064206C00B32046BDE8F84041
:10355000FFF7AEBAA16B096849686185618D19B141
:10356000216C41F004012164416821F40061416053
:10357000A06BFDF785FF0128C1D0A06B4763A06B4E
:10358000FDF732FF0028BAD0A06BB6E72A2E06D18D
:103590002563282084F83D002046FEF777FD94F847
:1035A0003D10202028290DD0216B222901D0222E68
:1035B00007D1256384F83D0084F83E502046FEF78D
:1035C00065FDF8BD0649E162256384F83D0084F895
:1035D0003E502046FEF756FBF8BD0000F5290008D6
:1035E0000000FFFF70B516460D4604460DE020466C
:1035F000FFF70AFB08B1012070BD681C05D0FEF77B
:1036000043F8801BA84207D835B120684069C04301
:103610004007ECD4002070BD002044F8300F20217A
:103620006173A073216941F0200121612073E2E7F9
:103630002DE9F0471E4690460D460446C1F3074764
:10364000DDF8209008E0701C06D0FEF71DF8A0EB16
:103650000900B0420FD876B12068012F18D08069D8
:1036600025EA00000004000C14D000214145EAD0F6
:103670000020BDE8F087002044F8300F202161735E
:10368000A073216941F02001216120730120F0E73E
:103690004069E5E70121E9E72DE9F0479A469146BF
:1036A0000E46044600254FF02008C1F3074725E0E9
:1036B00020684069C043400514D42068016841F483
:1036C0000071016021686FF480604861256384F8AF
:1036D0003D8084F83E50206C40F00400206484F863
:1036E0003C501FE0B9F1FF3F08D0FDF7CDFFA0EB44
:1036F0000A0149450CD8B9F1000F09D02068012F03
:1037000013D0806926EA00000004000C0BD0CFE73C
:1037100044F8305F84F80D80A573206940F02000E4
:10372000206125730120BDE8F0874069EAE72DE9B3
:10373000F041002590460E460446202717E04069D8
:10374000C043C0060CD454F8301B6FF01000486121
:1037500044F810596777A577206A2062257717E02B
:10376000FDF792FFA0EB0800B04208D83EB12068F8
:103770004169C9434906E2D40020BDE8F08144F81C
:10378000305F6773A573206940F0200020612573C6
:103790000120F2E770B516460D4604460DE02046BE
:1037A000FFF732FA08B1012070BD681C05D0FDF7A3
:1037B0006BFF801BA84207D835B120684069C04321
:1037C0000006ECD4002070BD002044F8300F20210A
:1037D0006173A073216941F0200121612073E2E748
:1037E000F0B585B0012504A8CDE900054FF47A7441
:1037F0002B467522D02102941B48FEF749FA9DF80A
:10380000100068282ED1002703AE8DF80C700096AA
:10381000CDE9015401236B22D0211348FEF760FB50
:1038200007208DF80C000096CDE9015401231922E0
:10383000D0210D48FEF754FB8DF80C700096CDE9B1
:10384000015401231C22D0210748FEF749FB8DF8C3
:103850000C700096CDE9015401231B22D0210248AF
:10386000FEF73EFB05B0F0BD3C000020F0B585B092
:103870004FF47A72062103A88DE8070001233B224A
:10388000D0211448FEF704FABDF80E10BDF80C0064
:1038900049BA0EB2BDF8101040BA49BA00B20DB222
:1038A00001F026FD6FF00D07394601F040FF0A4C8C
:1038B0002060304601F01CFD394601F038FF6060A1
:1038C000284601F015FD394601F031FFA06005B032
:1038D000F0BD00003C000020D400002010B5FFF730
:1038E000C5FF00F005F8BDE8104000F039B8000051
:1038F000F0B585B04FF47A72062103A88DE8070071
:1039000001234322D0211348FEF7C2F9BDF80E105F
:10391000BDF80C0049BA0EB2BDF8101040BA49BA51
:1039200000B20DB201F0E4FC0B4F394601F01EFC71
:103930000A4CE060304601F0DBFC394601F016FC31
:103940002061284601F0D4FC394601F00FFC60618B
:1039500005B0F0BD3C00002000000343D40000206F
:103960001FB54FF47A72022103A88DE807000123E6
:103970004122D0210848FEF78BF9BDF80C0040BA6F
:1039800000B201F0B5FC054901F0F0FB044901F07B
:1039900085FB044908631FBD3C0000200000AA43CA
:1039A000B81E1242D400002070B586B000241C4816
:1039B0000094019402940394816941F010018161A3
:1039C000816901F010010491816941F02001816158
:1039D000816901F020010491816941F00401816154
:1039E000816901F004010491816941F0080181615C
:1039F0008069012200F008000A4E55030490294610
:103A00003046FDF73BFE01200095CDE90104022080
:103A1000039069463046FDF749FD06B070BD0000D1
:103A200000100240001001400D4810B50B49016024
:103A30000C49416000214FF480428160C0E90312CB
:103A400041618161C1610162FDF7A2FF002803D0DD
:103A5000BDE81040FDF7A2BC10BD000000540040BE
:103A60003C000020A08601000C4810B50A49016006
:103A70004FF4E1314160002181600C22C160C0E956
:103A800004128161C161FEF733FF002803D0BDE855
:103A90001040FDF783BC10BD0038014090000020AD
:103AA0002DE9F04F0446806995B010F0FF4F07D123
:103AB000E06910F0FF4F03D1206A10F0FF4F04D0EF
:103AC000256815F0FF4F0ED105E015B02046BDE882
:103AD000F04F00F0ABBA606810F0FF4F03D1A06860
:103AE00010F0FF4F7ED0A068014601F019FC074698
:103AF0006068014601F014FC06462946084601F0BC
:103B00000FFC314601F0CAFA394601F0C7FA00F05D
:103B1000DBFF05462946206801F002FC20602946AB
:103B2000606801F0FDFB60602946A06801F0F8FBC9
:103B3000A060206A014601F0F3FB0646E0690146F9
:103B400001F0EEFB0546A069014601F0E9FB2946BC
:103B500001F0A4FA314601F0A1FA00F0B5FF0546E4
:103B60002946A06901F0DCFBA06102902946E069CA
:103B700001F0D6FBE06101902946206A01F0D0FBFC
:103B8000FE4D206200902968286801F0C9FB07906B
:103B90006968286801F0C4FBA9680646286801F036
:103BA000BFFBE9688046286801F0BAFB6968814676
:103BB000686801F0B5FB1390A968686801F0B0FB74
:103BC0001290E968686801F0ABFB0D90A968A868DD
:103BD00001F0A6FBE9688246A86801F0A1FB8346D4
:103BE000E96800E06DE1E86801F09AFB05464146AE
:103BF0000D9801F053FA0B90009901F091FB03909E
:103C00004946129801F0EAFC0A90019901F088FBFC
:103C1000074651464FF07C5001F0E0FC294601F088
:103C2000DDFC0E90029901F07BFB394601F036FA7B
:103C3000039901F033FA012101F079FD074631467D
:103C4000584601F0CBFC009901F06AFB00904FF060
:103C50007C50139901F0C2FC2946069001F0BEFC8D
:103C6000019901F05DFB01904946129801F016FAA6
:103C7000029901F055FB019901F010FA009901F049
:103C80000DFA012101F053FD014601F049FB814687
:103C90003946084601F044FB494601F0FFF901F0BE
:103CA000D1F901F011F801F061F80490514606983D
:103CB00001F094FC1090216A039101F031FB8146E0
:103CC0003146584601F0EAF90F90E169029101F09E
:103CD00027FB064641460D9801F080FCA769804607
:103CE000394601F01DFB314601F0D8F9494601F093
:103CF000D5F9012101F01BFD06460F980890CDF87B
:103D000024804FF07C51079801F068FC294601F0AF
:103D1000C5F983464046314601F002FB0546049949
:103D20000E9801F0FDFA294601F0B8F982463146B5
:103D30000F9801F0F5FA054604990A9801F0F0FA97
:103D4000294601F0ABF980463146109801F0E8FAB7
:103D5000054604990B9801F0E3FA294601F09EF913
:103D600006464146039801F0DBFA054631460298C3
:103D700001F0D6FA294601F031FC0546A06804900E
:103D8000089901F0CDFA0D90D4F8049059464846B0
:103D900001F0C6FA0D9901F021FC294601F07EF9E7
:103DA0000B903146384601F0BBFA05465146039860
:103DB00001F0B6FA294601F011FC2668054659467D
:103DC000304601F0ADFA83460999049801F0A8FA4B
:103DD000594601F003FC294601F060F9834651463B
:103DE000029801F09DFA05464146384601F098FADE
:103DF000294601F0F3FB05464846099901F090FA7F
:103E000007463046089901F08BFA394601F0E6FB87
:103E1000294601F043F9594D0646143D6868B0F54E
:103E2000000F32DB0B99686801F07AFA6FF008072F
:103E3000394601F07CFCA96801F030F9A8605946C8
:103E4000686801F06DFA394601F071FCE96801F02B
:103E500025F9E8603146686801F062FA394601F0F8
:103E600066FC296901F01AF92861E068A96801F087
:103E700015F9E0602069E96801F010F920616069D6
:103E8000296901F00BF9606103E00020A860E86097
:103E900028610B99286801F043FAE16801F0FEF807
:103EA000E0605946286801F03BFA216901F0F6F814
:103EB00020613146286801F033FA616901F0EEF8BB
:103EC00060616FF009052946E06801F030FC0746A3
:103ED000E0602946206901F02AFC824620612946DB
:103EE000606901F024FC254D60618046D5F800B082
:103EF0006E68D5F80890E868414601F011FA07901D
:103F00005146484601F00CFA069086F000403946CA
:103F100001F006FA069901F061FB079901F05EFBDA
:103F2000296801F0BBF82860E868514601F0F8F90B
:103F300007904146484601F0F3F907465846E168C4
:103F400001F0EEF9394601F0A9F8079901F046FBB6
:103F5000696801F0A3F86860E168E86801F0E0F9D9
:103F600007904146304601F0DBF907465146584676
:103F700001F0D6F9394601F031FB01E028000020BC
:103F8000079901F08BF8A96801F088F8A860484605
:103F9000E16801F0C5F904465146304601F0C0F928
:103FA00006464146584601F0BBF9314601F076F825
:103FB000214601F013FBE96801F070F8E860E96858
:103FC000E86801F0ADF9A9680746A86801F0A8F90A
:103FD00069680646686801F0A3F9296804462868FC
:103FE00001F09EF9214601F059F8314601F056F8EA
:103FF000394601F053F800F067FD04462868214671
:1040000001F08EF928606868214601F089F968603E
:10401000A868214601F084F9A860E868214601F00B
:104020007FF9E86015B0BDE8F08F00002DE9FC5F76
:1040300005460668D5E90140DFF814B316F0FF4FD6
:1040400005D114F0FF4F02D110F0FF4F7ED0014692
:1040500001F066F907462146084601F061F9044679
:104060003146084601F05CF9214601F017F839465F
:1040700001F014F800F028FD04462146286801F0FC
:104080004FF9824628602146686801F049F9814667
:1040900068602146A86801F043F9A860DBF80810C1
:1040A00080465C46DBF8000001F03AF9E16806461C
:1040B000606801F035F9314601F090FAE168074691
:1040C000A06801F02DF961680646206801F028F922
:1040D000314600F0E3FFE1680646E06801F020F9B0
:1040E00000902168206801F01BF94FF07C5101F02D
:1040F00075FA009900F0D2FF04463146404601F0BF
:104100000FF900902146484601F00AF9009901F0A4
:1041100065FA00902146504601F002F904463946FE
:10412000404601F0FDF8214601F058FA8046394634
:10413000484601F0F5F804463146504601F0F0F8E3
:10414000214601F04BFA0646814C00E050E0143C59
:104150006068B0F5000F2FDB0099606801F0E0F8AF
:104160006FF00807394601F0E2FAA16800F096FF07
:10417000A0604146606801F0D3F8394601F0D7FAF3
:10418000E16800F08BFFE0603146606801F0C8F83C
:10419000394601F0CCFA216900F080FF2061A06867
:1041A000E8602869E16800F079FF286168692169A1
:1041B00000F074FF686103E00020A060E06020610F
:1041C0000099206801F0ACF8E96800F067FFE8604A
:1041D0004146206801F0A4F8296900F05FFF2861DA
:1041E0003146206801F09CF8696900F057FF68616A
:1041F0006FF009042146E86801F099FA8146E86009
:104200002146286901F093FA8046286121466869B1
:1042100001F08DFA5C466861DBF800B0074666681D
:10422000D4F808A0E068394601F07AF801904146D8
:10423000504601F075F8009086F00040494601F0C4
:104240006FF8009901F0CAF9019901F0C7F92168E6
:1042500000F024FF2060E068414601F061F8009022
:104260003946504601F05CF881465846E96801F04D
:1042700057F8494600F012FF009901F0AFF9616864
:1042800000F00CFF6060E968E06801F049F8009018
:104290003946304601F044F881464146584601F01F
:1042A0003FF8494601F09AF9009900F0F7FEA1683D
:1042B00000F0F4FEA0605046E96801F031F8814654
:1042C0004146304601F02CF805463946584601F083
:1042D00027F8294600F0E2FE494601F07FF9E1683F
:1042E00000F0DCFEE060E168E06801F019F8A16828
:1042F0000746A06801F014F861680646606801F09E
:104300000FF821680546206801F00AF8294600F0F8
:10431000C5FE314600F0C2FE394600F0BFFE00F097
:10432000D3FB05462068294600F0FAFF206060684C
:10433000294600F0F5FF6060A068294600F0F0FF14
:10434000A060E068294600F0EBFFE060BDE8FC9F5C
:1043500028000020FEE7FEE770477047FDF798BE93
:1043600030B58FB028216846FCF70FF814210AA851
:10437000FCF70BF80121080400240491CDE900109A
:10438000CDE908040294022507956846FEF704F873
:1043900008B172B6FEE70F200A90CDE90B540D94D8
:1043A00000210AA80E94FDF70BFF002801D072B679
:1043B000FEE70FB030BD704710B5406A0021C185DF
:1043C000C184FEF78EF910BD0168CA6822F49072AC
:1043D000CA6001684A6922F001024A61016B012941
:1043E00004D10168CA6822F01002CA60202180F856
:1043F0003E1000210163704708B590F83E10222955
:1044000001D0022008BD82684FF480539A4201D146
:10441000016921B1816A9A421BD04AB10AE002685F
:10442000816A5268C2F308020A80816A891C08E026
:10443000026972B10268526802F07F020A70816AF2
:10444000491C8162C18D491E0904090CC18503D034
:1044500019E002685268F1E70168CA6822F0200298
:10446000CA600168CA6822F48072CA6001684A6939
:1044700022F001024A61202180F83E10016B0129DF
:1044800003D0FEF7A7FA002008BD002101630168F0
:10449000CA6822F01002CA6001680A68D20602D512
:1044A0000A6849680091818DFEF71AF9EBE7000070
:1044B00070B5044600680169E26821F44051114377
:1044C00001612169A0680843616908432168CA68DD
:1044D00041F20C639A430243CA6020684169A269B1
:1044E00021F44071114341611E492068884202D184
:1044F000FDF70CFF01E0FDF7F9FE00EBC00101EB59
:104500000012606864218000B2FBF0F3B3FBF1F3AA
:104510006FF018067343B2FBF0F5B2FBF0F605EB53
:104520008305322303EB0515B5FBF1F5B6FBF1F678
:1045300005F0F00505EB0615B2FBF0F6B2FBF0F066
:10454000B0FBF1F06FF01802504306EB800003EB74
:104550000010B0FBF1F0216800F00F0028448860E3
:1045600070BD0000003801400148FEF7BBB80000F4
:1045700090000020FEE7490050EAC12018BF042047
:104580004A0D18BF40F0010040F2FF72B2EB515FDC
:1045900008BF40F00200012808BF05207047410015
:1045A000080218BF04200A0E18BF40F001004FF0A7
:1045B0007F4232EA010108BF40F00200012808BF33
:1045C000052070470907090E002804DB00F1E020F0
:1045D00080F80014704700F00F0000F1E02080F830
:1045E000141D7047012101F0A2B800F057BD002151
:1045F000084600F0BBBD6FF05E01080701F097B8F8
:1046000030380A2801D201207047002070477047D7
:104610002DE9F04104464FF00E4000EB4400B0F1AC
:10462000506F204655D84FF0FC41B1EB440F1CD2DF
:1046300024F000404FF07E5100F03EFF4FF0FF317C
:1046400001F075F8054600F065FB14F0004F1DBF42
:104650002F4F304E80F000402F4F08BF2F4E4FF0AD
:10466000404100F05DFE044605E000273E4601465D
:1046700000F056FE05462A49284600F051FE294919
:1046800000F00CFD294600F04BFE274900F006FD26
:10469000294600F045FE254900F000FD294600F0BE
:1046A0003FFE234900F0FAFC80462946204600F0F0
:1046B00037FE414600F034FE05463146204600F004
:1046C000EDFC294600F0EAFC3946BDE8F04100F077
:1046D000E5BC4FF0E441B1EB440F08D9FFF75FFFB1
:1046E000042808BFFFF787FF2046BDE8F0814FF0A0
:1046F0007F41B1EB440F03D2BDE8F041FFF772BF39
:104700000120FBF772FEBDE8F041FFF770BF00002B
:104710000000C9BF22AAFDB90000C93F22AAFD3985
:1047200024FE1C3DC78AD83C1E67383D1B93993D2B
:10473000AFAA2A3E2DE9F0474FF0684202EB400352
:104740000C460546B3F1654F3CBF02EB4102B2F1A6
:10475000654F80F0CD8000BFC0F3C752C1F3C7538F
:10476000D21A1B2A06DD10F0004F14BF8748884874
:10477000BDE8F08712F11A0F2FDA11F0004F06D0C2
:1047800010F0004F0CBF83488348BDE8F0872146F6
:10479000284600F0EBFC0646FFF701FF042808BF9F
:1047A000FFF729FF2846FFF7FAFE05462046FFF7E8
:1047B000F6FE04463046FFF7F2FE042D18BF052D25
:1047C00008D1042C18BF052C04D1002804BF0220F6
:1047D000FBF70BFE3046BDE8F0874200B2EB410F1D
:1047E00025D910F0004F19BF6C4F6D4E6D4F6E4EB6
:1047F000224685F0004415460A4680F000411046E6
:104800000A1A5200B2F1807F3ED248406749DFF871
:10481000A0A110F0004F18D04FF03F48384600F0EC
:10482000DDFE07465146304600F0D8FE17E011F095
:10483000004F04BF00263746E2D010F0004F19BFEA
:104840005C4F5D4E5D4F5E4EDAE74FF07C58384668
:1048500000F024FC07465146304600F01FFC064697
:104860004146284600F05CFD214600F017FC8246D8
:104870002146404600F054FD294600F01DFE5146F9
:1048800000F074FC044604E02146284600F06EFC6B
:104890000446014600F044FD80464A4900F040FDD0
:1048A000494900F0FBFB414600F03AFD474900F062
:1048B000F5FB414600F034FD454900F0EFFB414671
:1048C00000F02EFD434900F0E9FB05464146204635
:1048D00000F026FD294600F023FD314600F0DEFB06
:1048E000214600F0DBFB3946BDE8F04700F0D6BBBF
:1048F0004FF07F42B2EB400F28BFB2EB410F03D223
:10490000BDE8F047FFF771BE40EA01035B0008BF56
:1049100044F0FF410AD0B2EB400F08BFB2EB410FA9
:1049200006D125F0804024F0804105460C4613E76F
:10493000B2EB400F12BF5FEA410345F0FF4004F0C5
:1049400000413FF409AFB2EB410F12BF5FEA4002F2
:1049500005F0004044F0FF413FF4FEAE4A0092EA09
:1049600040033FF5F9AE002AACBF4FF09F464FF031
:104970003E56314600F0D4FC05463146204600F054
:10498000CFFC044628462146E6E60000DB0FC9BFFF
:10499000DB0FC93FDB0F4940DB0F49C00000C9BF37
:1049A00022AAFDB90000C93F22AAFD390060ED3EF0
:1049B000C30ACE37000049C022AA7DBA0000494090
:1049C00022AA7D3A2DAD65BD8FB8D53D0FB511BE7C
:1049D00061C84C3EA8AAAABE04490A685206FCD582
:1049E000024AC1B2121D1160704700000038014038
:1049F0002DE9F047044640680D468046014600F028
:104A00008FFC276806463946384600F089FC314657
:104A100000F044FB012100F08AFE4FF07E59494628
:104A200000F0DCFD06464046A16800F079FC8046B7
:104A30003846E16800F074FC414600F02FFB01218C
:104A400000F075FE3146FFF775FE6862A1682068C8
:104A500000F066FC0646E168606800F061FC3146E3
:104A600000F0BCFD4FF0404100F05AFCFFF7D0FDD4
:104A7000A862D4F80C804146404600F051FC2768FB
:104A800006463946384600F04BFC314600F006FB3E
:104A9000012100F04CFE494600F0A0FD06464146CB
:104AA000A06800F03DFC80463846616800F038FCA4
:104AB000414600F0F3FA012100F039FE3146FFF7DC
:104AC00039FEE862BDE8F08710B504464FF0FF31CB
:104AD00000F02DFE0849A1EB6404214600F020FC03
:104AE000214600F01DFC4FF07F5100F0E5FC21460F
:104AF000BDE8104000F014BCDF59375F1FB5FDF76B
:104B0000CFFAFFF72DFCFEF74FFFFEF78DFFFEF704
:104B1000ABFFFEF71FFCFEF763FE444D4FF400545D
:104B200021462846FCF7A2FD4FF4FA763046FCF702
:104B3000ABFC21462846FCF799FD3046FCF7A4FC67
:104B400021462846FCF792FD3046FCF79DFC4FF0CD
:104B50000009374CFEF7C2FEC4F81890C4F81C9048
:104B60003348C4F82090FEF79BFF31493148FFF7E6
:104B70003FFFA06800F066FA07468846606800F0CC
:104B800061FA05460E46206800F05CFA8DE8E00107
:104B900002460B4628A0FBF729FB606900F052FA99
:104BA00007468846206900F04DFA05460E46E06843
:104BB00000F048FA8DE8E00102460B4625A0FBF71D
:104BC00015FB206A00F03EFA07468846E06900F0CF
:104BD00039FA05460E46A06900F034FA8DE8E00186
:104BE00002460B4622A0FBF701FBE06A00F02AFA1E
:104BF00007468846A06A00F025FA05460E46606A18
:104C000000F020FA8DE8E00102460B461FA0FBF7FA
:104C1000EDFA206B00F016FA02460B4624A0FBF7D3
:104C2000E5FA6420FCF730FC94E700000010014036
:104C3000D4000020280000200D0A41783D252E36A2
:104C4000662C41793D252E36662C417A3D252E363F
:104C5000660D0A000D0A47783D252E36662C4779E9
:104C60003D252E36662C477A3D252E36660D0A00E8
:104C70000D0A4D783D252E36662C4D793D252E3674
:104C8000662C4D7A3D252E36660D0A000D0A5961B7
:104C9000773D252E36662C50697463683D252E3687
:104CA000662C526F6C6C3D252E36660D0A00000096
:104CB0000D0A54656D70657261747572653D252EBF
:104CC00036660D0A000000002DE9F04106460F4649
:104CD00000F0D2F8041E0D4618BF0120284320F032
:104CE0000040C0F17F6000F1E040C00F0ED0301CEA
:104CF00018BF0120384320F00040C0F17F6000F170
:104D0000E040C00F04BF0120FBF76FFB204629469F
:104D1000BDE8F08170B5054600F0D8FB044620F0F0
:104D20000040C0F1FF40C00F08D025F00040C0F1A6
:104D3000FF40C00F04BF0120FBF757FB204670BDAA
:104D400010B500290AD00878002807D00548784413
:104D5000FBF71AFF002801D0002010BD024878445C
:104D600010BD00002A0B0000220B000021F00042C1
:104D7000A2F16052B2F5801F01F0004328BFD2F1CA
:104D80007F6C0BD95FEA001C43EAC20242EB507011
:104D900018BF704728BF20F001007047B2F5801F90
:104DA000BCBF184670474FEA410C1CF5001F02D2E9
:104DB000084600F07CBB70B500F009F800000089DF
:104DC000FFF7F6BF4FF00040A0F5800070470EF1EE
:104DD000020E2EF0030E5EF8046B364205D4012A53
:104DE00043EB030515F5001F12D8012841EB010C18
:104DF0001CF5001F0CD80ED14FEAD17C15F5001F11
:104E00000CEB4C0C0CF1020C08BF4CEBD37C04E017
:104E10004FF0080C01E04FEAD37C0CEB4C0526FA6E
:104E200005F606F00706B6F1040C06D20EEB860C6A
:104E3000BDE870404CF0010C6047DFE80CF0090B56
:104E400002024FF000414FF00000A1F5002170BDBB
:104E500019461046012851EB010418BFD4F500147F
:104E600084BF002001F0004170BD0808A0F50011CA
:104E70004FEA3101704700002DE9F04101F5801C37
:104E8000BCF5001FC0F2C3804FEA115C21EA0C514F
:104E90000CF1FD0C41F480115FEA5C0C0CF5C07C58
:104EA00001D3400049413DA4890241EA9051870263
:104EB0008E0E0A0CA45D04FB04F602FB06F6C6F196
:104EC0004046A4FB0662F60D46EA422606FB06F4BF
:104ED000A4FB01235242C3F1404338BF5B1EA6FB33
:104EE00002420024E6FB0324D20B42EA4446A6FB1E
:104EF0000623A1FB02E2A3FB07E4A4184FF0000283
:104F000052F10002E3FB01426442C2F1404E38BF5D
:104F1000AEF1010EA6FB04234FF00002E6FB0E32B9
:104F2000A2FB03464FF00004B61954F10004E2FB63
:104F30000264A1FB06E6A4FB07E816EB08064FF0A7
:104F4000000858F10008E4FB01687642C8F14058B7
:104F500038BFA8F10108A2FB06E4A3FB08E52D1960
:104F60004FF0000454F10004E2FB0854A1FB05E6F5
:104F7000A7FB04E818EB06084FF0000656F1000600
:104F8000E1FB048618F1200556F10006A809A8F1F6
:104F90001B08B10908F03F08B8F10A0F40EA866023
:104FA0001CD901EB0C51BDE8F08100BFFCF5EEE827
:104FB000E2DDD8D3CFCBC7C3C0BDB9B6B4B1AEACB8
:104FC000A9A7A5A3A19F9D9B9A9896959392908F30
:104FD0008D8C8B898887868584838281A0FB00687D
:104FE00000FB01F208EB4208B8EB872807D534181C
:104FF00058EB0104D5D5401C51F10001D1E7341A1A
:1050000078EB0104CDD4401E71F10001C9E75FEADD
:105010004C0C5FEA9C5C0DD105D34FF0000001F011
:105020000041BDE8F081BDE8F04170B5FFF7CFFE6B
:105030006DDBFFBEBDE8F0414FF000000049704756
:105040000000F87F43004FEAD30C4FEA3C0C43408A
:105050001FBF40070CF1605113F0FE4F70471CF06A
:10506000006F03D100200CF0004170470CF00043AA
:1050700043EA507010B540EACC0000F0D2F900BF0E
:10508000000000924FEA0001FFF7EFBE4FF0004131
:105090004FF00000A1F500217047000090EA010FD9
:1050A00048BF81F0004100F1A082421A3CBF801A43
:1050B00089184FEAD0524FF07F4C1CEA410FA2EB07
:1050C000D15318BF9CEA026F00F03B804FF0004CB8
:1050D0004CEA00204CEA012121FA03FC10EB0C0CF5
:1050E0001ED202F1FF325FEA1C2040EBC25038BFF3
:1050F00070471CF07F0F4FEA400C18BFBCF17F4F88
:1051000038BF7047C3F12003994008BF20F0010069
:10511000BCF17F4F38BF7047A0F1C04000F0C7B965
:105120004FEA3C00000A40EBC25028BF1CF0FF0FC2
:105130004FEA400CE6D018BFBCF17F4F38BF704734
:10514000EAE79CEA026F05D010EA5C0F08BF00F0A6
:105150000040704710B500F064F900BF64FBBE3E2C
:10516000014800F0B2BA00BF0000C07F4FF47F0CCE
:105170001CEAD0121EBF1CEAD11392EA0C0F93EA6C
:105180000C0F00F0858090EA010F48BF42F4807256
:1051900040F4000C41F400002CF07F4120F07F40EF
:1051A00000B58142A2EB03020FF2081CACEB504E9B
:1051B000C0F100009EF800E04FEA4E0E00FB0EFC2E
:1051C00038BF49004FEA2C1C02F5FA020CFB0EF323
:1051D0004FEACE1E4FEA112C4FEAC1210EEB635E5F
:1051E00042EB22420EFB0CFC4FEA1C5300FB031166
:1051F0004FEA112C4FEA01310EFB0CFC4FEADC4C5C
:1052000000FB0C11C14228BF09184CEB03335DF8B9
:1052100004EB10EB410143EBC250B2F57C0F38BFF9
:10522000704729D512F0F00F1CBF00F1C04000F00C
:1052300000407047008182838485868788898B8CB3
:105240008D8E8F919293959697999A9C9D9FA0A2EF
:10525000A3A5A7A8AAACAEB0B2B3B5B7B9BCBEC03F
:10526000C2C5C7C9CCCED1D4D7D9DCDFE2E6E9ECE0
:10527000F0F3F7FAFE0000004FEA400C0CF1807CDE
:10528000BCF17E4F28BF7047B0F1C04000F00FB9AD
:1052900090EA010F0CEAD11348BF42F480726245D4
:1052A00038BF634507D213F47F0F16D080EA0100A0
:1052B00000F00040704710B500F0B3F8097EFC3EE6
:1052C00000F005B880EA010000F00040704780EA75
:1052D000010000F0004000F0EAB812F47F0F04BFB4
:1052E0000248704780EA010000F0E1B80000C07F8A
:1052F00010F0004148BF4042B0FA80F310FA03F2C8
:10530000C3F19D030BD051EAC35101EB12205306A8
:1053100038BF704700F1010008BF20F0010070475E
:105320004FF47F0C1CEAD0121EBF1CEAD11392EA84
:105330000C0F93EA0C0F00F0478090EA010F48BF72
:1053400042F480724FF0004C4CEA00204CEA0121FC
:1053500002EB0302A0FB0113A2F50002002918BF13
:1053600043F001035B0028BF4FEA330342EB2242C4
:105370005FEA132C4CEBC2502EBFBCEB436FB2F56F
:105380007C0F70474FEA036CBCF1004F08BF20F060
:105390000100B2F57C0F38BF70470BD582F0FF02D9
:1053A00012F5803FC8BF704700F1C040D8BF00F081
:1053B0000040704700F5000C5FEA4C0C48BF704796
:1053C000B0F1C04000F073B890EA010F0CEAD113BD
:1053D00048BF42F48072624538BF634504D280EA18
:1053E000010000F00040704710B500F01AF800BF4F
:1053F0008900013E00F007B800F009B85FEA410CEF
:105400005FEA1C6C08D080EA010000F050B85FEA47
:10541000400C5FEA1C6CF6D14FF00040A0F5800014
:1054200070470EF1020E2EF0030E5EF8044B24427C
:1054300004D44FEA4102B2F17F4F11D84FEA400342
:10544000B3F17F4F0CD80ED14FEAD07CB2F17F4F31
:105450000CEB4C0C0CF1020C08BF4CEBD17C04E0C3
:105460004FF0080C01E04FEAD17C0CEB4C0324FA1E
:1054700003F404F00704B4F1040C06D20EEB840C20
:10548000BDE810404CF0010C6047DFE80CF0070865
:1054900002024FF00040A0F5800010BD0846420017
:1054A00018BFD2F1807288BF00F0004010BDFF210C
:1054B00041EAD050C005704780F0004090EA010FEB
:1054C0007FF5F3AD81F0004100F08FB84FEAD05185
:1054D000002988BFD1F1FF0240F2758001F17D0102
:1054E0004FEA002070B5490840F0004038BF40083E
:1054F0000EA2430E040CD25C02FB02F304FB03F386
:10550000C3F14043A3FB0254ED0D45EA442202FBE4
:1055100002F3A0FB03546D42C4F1404438BF641E43
:10552000A2FB05350023E2FB0453EA0B42EA4342A7
:10553000A0FB023212F14004A2F12103E40903F0BE
:105540007F031F2B32D904EBC15070BDFEFAF7F375
:10555000F0ECE9E6E4E1DEDCD9D7D4D2D0CECCCA97
:10556000C8C6C4C2C1BFBDBCBAB9B7B6B4B3B2B085
:10557000AFAEACABAAA9A8A7A6A4A3A2A1A09F9EC8
:105580009E9D9C9B9A9998979796959493939291A8
:1055900090908F8E8E8D8C8C8B8A8A898988878754
:1055A00086868584848383828281818004FB04F6DD
:1055B000B6EB004603D5E64248BF641CC3E7A642EB
:1055C00058BF641CBFE711F0FF0F02D100F000408C
:1055D000704710B5FFF725FF7FDBFFBE90EA010F94
:1055E00048BF81F000413FF560AD421A04D882F017
:1055F0000042A0EB020011444FEAD0524FF07F4C22
:105600001CEA410FA2EBD15318BF9CEA026F4AD0AB
:105610004FF0004C4CEA00204CEA012121FA03FC37
:10562000B0EB0C0C0FD412F0FE0F36D05FEA4C003A
:105630001DD5001240EBC25038BF70471CF03F0F21
:1056400018BF70470BE0A2F101025FEA1C2040EB9B
:10565000C25038BF70471CF07F0F18BF7047C3F1AE
:105660002003994014BF401E20F0010070478008BD
:105670004FEA122308BF7047B0FA80FCA2EB0C027D
:10568000CCF1280C60FA0CF093EA122F04BF00EB67
:10569000C25070474FEAC3707047130A5FEADC10CC
:1056A00008BF7047F6E79CEA026F04D010EA5C0F6F
:1056B00008BF0020704710B5FFF7B3FE40DFF63E8D
:1056C00081F000407047FAF7C8BF0CF00F03092BB8
:1056D00008BF082000F051800A2B0BD0082B18BF00
:1056E000704708BF1CF0400F0AD04FF000004FF089
:1056F000000170471CF0400F18BF4FF0004070478A
:105700001CF0100F08D020F0704300F07F4242EAF6
:10571000D3014FEA4370704700F0604021F07F42B0
:1057200042EA000201F07F4040EA727070474FF099
:10573000FF0212EAD0521CBF92F0FF038B42C2BF9D
:10574000D14200EBC1507047002A0AD0002B0BD089
:10575000002900F00040A4BF40F0FE4040F40000EB
:10576000704700F00040704743024FF00B0C18BF29
:105770004CF0806C7FF4F4AC70471CF4801F11D0A7
:105780001CF4E02F03D06FEACC31490070474FF092
:105790004050EFF3008222F0704242EA000282F3AE
:1057A000008870474FF000007047000000000000C4
:1057B00000000102030406070809000000000102BE
:1057C0000304000002400000000000A000000000F0
:1057D00005400000000000C8000000000C40000070
:1057E0000000409C00000000194000000020BCBEEA
:1057F0000000000034400000BFC91B8E0000000400
:10580000B5400000504BCFD06607E2CF010000004A
:105810006C4100003E8251AADFEEA7340100000077
:10582000D9420000DCB5A0E23A301F97FFFFFFFF2E
:10583000B4450000FD25A0C8E9A3C14FFFFFFFFF4D
:10584000FF3F00000000008000000000FF3F00005C
:1058500000000080000000009458000800000020B4
:105860003C00000028010008D05800083C0000203F
:105870002C070000440100081C0000004300000049
:10588000F8FFFFFF0C0000000E0000000F000000FA
:105890002E000000010000001000000000000000C9
:1058A0000024F400000000000000803F0000000021
:1058B0000000000000000000000000000000803F29
:1058C00000000000000000000000000000000000D8
:04000005080000ED02
:00000001FF
