:020000040800F2
:1000000000470020E90200083715000849120008DF
:1000100035150008430500086118000800000000BD
:10002000000000000000000000000000290200089D
:100030004505000800000000850200083915000889
:100040000303000803030008030300080303000878
:100050000303000803030008030300080303000868
:100060000303000803030008030300080303000858
:100070000303000803030008030300080303000848
:100080000303000803030008030300080303000838
:100090000303000803030008030300080303000828
:1000A0000303000803030008030300080303000818
:1000B0000303000803030008030300080303000808
:1000C00003030008030300080303000803030008F8
:1000D00003030008030300080303000803030008E8
:1000E00003030008030300080303000803030008D8
:1000F00003030008030300080303000803030008C8
:1001000003030008030300080303000803030008B7
:10011000030300080303000809160008030300088E
:100120000303000803030008030300080303000897
:100130000303000803030008030300080303000887
:100140000303000803030008030300080303000877
:100150000303000803030008030300080303000867
:100160000303000803030008030300080303000857
:100170000303000803030008030300080000000055
:10018000030300080303000800F002F800F03CF845
:100190000AA090E8000C82448344AAF10107DA45E2
:1001A00001D100F031F8AFF2090EBAE80F0013F0F8
:1001B000010F18BFFB1A43F0010318470821000084
:1001C00028210000103A24BF78C878C1FAD8520715
:1001D00024BF30C830C144BF04680C6070470000C1
:1001E0000023002400250026103A28BF78C1FBD840
:1001F000520728BF30C148BF0B6070471FB502F0DF
:100200003BF81FBD10B510BD00F061F91146FFF7B6
:10021000F5FF01F047FB00F07FF903B4FFF7F2FFB1
:1002200003BC00F087F900002C4B19680868B0E89F
:10023000F04F80F30988BFF36F8F4FF0000080F319
:10024000118870470000000008480068006880F3CB
:1002500008884FF0000080F3148862B661B6BFF3DF
:100260004F8FBFF36F8F00DF00BF00BF08ED00E0CE
:10027000DFF80C00016841F470010160704700BFB5
:1002800088ED00E0EFF30980BFF36F8F134B1A681E
:100290001EF0100F08BF20ED108A20E9F04F10600B
:1002A00009B44FF0500080F31188BFF34F8FBFF3B4
:1002B0006F8F01F019FE4FF0000080F3118809BC28
:1002C00019680868B0E8F04F1EF0100F08BFB0ECD6
:1002D000108A80F30988BFF36F8F704714000020E5
:1002E000EFF3058070470000094880470948004740
:1002F000FEE7FEE7FEE7FEE7FEE7FEE7FEE7FEE7D6
:10030000FEE7FEE704480549054A064B7047000032
:10031000F91500088901000800410020004700206D
:10032000004300200043002053EA020C00F06980E3
:100330002DE9F04B4FF00006002B1FBFB3FA83F5F9
:1003400003FA05F424FA05F65E4012BF1643B2FA2A
:1003500082F502FA05F4C5F120051EBF22FA05FC5C
:1003600044EA0C04203556EA044C4FEA144418BF02
:10037000641C4FF000084FF00009904271EB030C31
:1003800039D3002919BFB1FA81F701FA07F6B0FA9B
:1003900080F700FA07F6C7F120071EBF20FA07FC16
:1003A00046EA0C062037B6FBF4FCA7EB0507103F26
:1003B00007F01F0BCBF120060CFA0BFB2CFA06F60C
:1003C00044BFB3460026202FA4BF5E464FF0000B6B
:1003D0005BEA060C08BF4FF0010B19EB0B09ABFBF6
:1003E000027C48EB0608C01B06FB02CC0BFB03CCCF
:1003F00071EB0C01C1E70B46024641464846BDE899
:10040000F08B13B54FF000004FF00001AFF3008008
:10041000BDE81C40704710B5203AC0F00B80B1E831
:100420001850203AA0E81850B1E81850A0E8185029
:10043000BFF4F5AF5FEA027C24BFB1E81850A0E832
:10044000185044BF18C918C0BDE810405FEA827C4C
:1004500024BF51F8043B40F8043B08BF7047D20763
:1004600028BF31F8023B48BF11F8012B28BF20F804
:10047000023B48BF00F8012B70474FF0000200B567
:10048000134694469646203922BFA0E80C50A0E8B7
:100490000C50B1F12001BFF4F7AF090728BFA0E865
:1004A0000C5048BF0CC05DF804EB890028BF40F831
:1004B000042B08BF704748BF20F8022B11F0804F73
:1004C00018BF00F8012B704770477047704775469A
:1004D00000F02CF8AE4605006946534620F00700B0
:1004E000854618B020B5FFF70DFFBDE820404FF05E
:1004F00000064FF000074FF000084FF0000B21F00E
:100500000701AC46ACE8C009ACE8C009ACE8C009DA
:10051000ACE8C0098D46704710B50446AFF30080C3
:100520002046BDE81040FFF778BE00000048704745
:10053000A040002001491820ABBEFEE726000200C3
:100540007047FEE7704772B6FEE700002DE9F84FEE
:10055000DFF8BCA10022012503264FF00F090AF1A4
:10056000040BAAF1040E00BF0B6805FA02F4234045
:10057000A34270D10F7907F00307012F01D0022F9A
:1005800016D187684FEA420806FA08FC27EA0C07EA
:10059000D1F80CC00CFA08FC4CEA070CC0F808C0F3
:1005A0004768A7430C79C4F3001494403C4344606B
:1005B0000C79E443A4070AD0C4684FEA420C06FA57
:1005C0000CF7BC438F6807FA0CF72743C7600C7918
:1005D00004F00304022C12D1D40800EB840CDCF8E4
:1005E00020405707FF0E09FA07F824EA0804D1F85B
:1005F000108008FA07F848EA0408CCF8208004685C
:100600004FEA420C06FA0CF7BC430F7907F00307D8
:1006100007FA0CF7274307604C6814F4403F70D08A
:100620003C4C276847F480472760246822F0030782
:1006300004F480440094384C07EB040CDCF80848C0
:1006400097074FEA177809FA08F7BC43334FB842C7
:1006500002D1002724E054E0314FB84201D10127F4
:100660001EE0304FB84201D1022719E02E4FB842A8
:1006700001D1032714E02D4FB84201D104270FE028
:100680002B4FB84201D105270AE02A4FB84201D1C9
:10069000062705E0284FB84201D1072700E00827C8
:1006A00007FA08F72743CCF80878DAF800405746ED
:1006B000D1F804C09C435FEACC2C00D51C433C60BD
:1006C000DBF800405F46D1F804C09C435FEA8C2C05
:1006D00000D51C433C60DEF800407746D1F804C0EA
:1006E0009C435FEA8C3C00D51C433C60084F083FAC
:1006F0003C68D1F804C09C435FEACC3C00D51C4365
:100700003C60521C102AFFF42FAFBDE8F88F0000A8
:10071000083C0140443802400030014000000240E3
:100720000004024000080240000C02400010024099
:100730000014024000180240001C0240014880687A
:1007400070470000040000200248816802781144CC
:1007500081607047040000200B4810B5016841F427
:1007600000710160016841F480610160016841F439
:1007700080710160032000F09FF80F2000F006F860
:1007800000F050F8002010BD003C024030B5054696
:100790001F4887B00024016841F010010160006823
:1007A00006A900F01000009001A800F031F90498AB
:1007B000A8B100F04DF940001649174AB0FBF1F11D
:1007C0001648491E026040F2E732C0E90324C0E93E
:1007D0000114846100F044FB040003D015E000F034
:1007E00037F9E9E70D4800F069FB04000DD1362028
:1007F00000F034F8102D07D200222946362000F0F0
:100800003BF80748056000E0012407B0204630BDF2
:100810004038024040420F00001000401803002002
:10082000080000200C4882B0016841F4804101605A
:10083000006800F4804000900748001F016841F004
:10084000805101600068002200F0805000900F216C
:10085000901E02B000F010B844380240002809DBB6
:1008600000F01F02012191404009800000F1E020CA
:10087000C0F8001170470000F0B40E4B1B680C4626
:10088000C3F30223C3F10705042D00D90425191D64
:10089000072901D2002300E0DB1E012606FA05F13C
:1008A000491E214099409E40761E16403143F0BCBF
:1008B00000F0D7BF0CED00E0064900F00702086821
:1008C0004FF6FF03184040EA0220034A1043086035
:1008D000704700000CED00E00000FA052DE9F0473C
:1008E0000E46050065D0DFF81481D8F80000F7B295
:1008F00000F00700B04207D288F80070D8F8000076
:1009000000F00700B04254D128683D4C810712D551
:10091000400703D5206840F4E050206028780007A5
:1009200003D5206840F4604020602068A96820F06A
:10093000F000084320602878C0072DD0304968684F
:100940000839012812D0022813D0032811D00968D1
:10095000890700292DDA216821F003010143216074
:10096000FFF7ECFE814641F2883A0EE00968890300
:10097000EFE709688901ECE7FFF7E0FEA0EB09016A
:10098000514502D90320BDE8F0872068696800F06E
:100990000C00B0EB810FEFD1D8F80010404601F009
:1009A0000701B14207D90770006800F00700B042A4
:1009B00001D00120E7E72878400705D52068E968DD
:1009C00020F4E050084320602878000706D520680E
:1009D000296920F4604040EAC100206000F058F826
:1009E0002168084AC1F30311515CC84006490860F8
:1009F00006480068FFF7CAFE0020C4E7003C02403A
:100A000008380240A0220008100000200800002042
:100A10000F2202600C4A136803F00303436013685B
:100A200003F0F0038360136803F4E053C3601268BB
:100A30004FF4E05303EAD20202610448006800F078
:100A4000070008607047000008380240003C024080
:100A50000448054900680968044AC1F38221515CD1
:100A6000C84070471000002008380240B02200083B
:100A70000448054900680968044AC1F34231515CE1
:100A8000C84070471000002008380240B02200081B
:100A9000154810B5006810F00C02144813D041102E
:100AA000042A0FD0082A0ED10F4C241F2268236875
:100AB00002F03F025B0207D52068C0F38810A0FB5C
:100AC000010106E0084610BD2168C1F38811A1FBB1
:100AD00000010023FFF728FC2168C1F30141491CF4
:100AE0004900B0FBF1F010BD083802400024F400CA
:100AF0002DE9F84F04006ED02078DFF84C93C00742
:100B0000A9F104054AD009F104000168C1F381018B
:100B1000012908D00068C0F3810002280AD1D9F861
:100B20000000400206D52868800337D56068002899
:100B3000E1D033E06068B0F5803F10D0B0F5A02F71
:100B4000286810D020F480302860286820F48020A5
:100B500028606068A8B1FFF7F1FD06460DE028683F
:100B600040F48030F4E740F480202860F7E700BFCD
:100B7000FFF7E4FD801B642873D828688003F7D54D
:100B80000CE0FFF7DBFD064605E000BFFFF7D6FDF2
:100B9000801B6428F0D828688003F7D42078DFF819
:100BA000AC8280074FF0000A3ED5A748001D0168BF
:100BB00011F00C0F08D00068C0F3810002280BD19F
:100BC000D9F80000400207D42868800716D5E068ED
:100BD000012800D112E033E1E068B8B10120C8F883
:100BE0000000FFF7ABFD064605E000BFFFF7A6FDDE
:100BF000801B0228C0D828688007F7D5286821699B
:100C000020F0F80040EAC10028600DE0C8F800A01C
:100C1000FFF794FD064604E0FFF790FD801B0228D5
:100C20001FD828688007F7D42078000722D5864F80
:100C300087486169703771B101210160FFF77EFD5E
:100C4000064604E0FFF77AFD801B022809D83868C1
:100C50008007F7D50EE0C0F800A0FFF76FFD06464D
:100C600005E082E0FFF76AFD801B02287DD8386826
:100C70008007F7D42078400768D5DFF8CCB100278B
:100C80000BF13C0BDBF80000C0000BD4DBF80010CC
:100C900041F08051CBF80010DBF80000012700F094
:100CA000805000906B4E3068C00510D4306840F41E
:100CB00080703060FFF742FD009005E0FFF73EFDD9
:100CC0000099401A022850D83068C005F6D55E4E0B
:100CD000A0686C3601280FD00528306810D020F0AD
:100CE00001003060306820F004003060A068B8B1C6
:100CF000FFF724FD00900FE0306840F00100F4E7BA
:100D000040F004003060F7E7FFF718FD0099411A42
:100D100041F28830814266D830688007F4D50EE011
:100D2000FFF70CFD009007E0FFF708FD0099411A5E
:100D300041F28830814256D830688007F4D42FB110
:100D4000DBF8001021F08051CBF80010A069C8B387
:100D50003D49091D0968C1F3810102294AD00228D1
:100D6000504607D0C8F8600000E03CE0FFF7E6FC22
:100D700004463BE04746C8F86000FFF7DFFC064644
:100D800005E000BFFFF7DAFC801B02282BD828689B
:100D90008001F7D4D4E907010843A16A2E4A490823
:100DA00002EB0141626A41EA8211084394F82C1077
:100DB00040EA0161C9F8001001203866FFF7BEFC67
:100DC000044606E03EE000BFFFF7B8FC001B022827
:100DD00009D828688001F7D534E000BFFFF7AEFCE2
:100DE000001B022802D90320BDE8F88F2868800183
:100DF000F4D427E00128F7D0D9F80000E26900F424
:100E0000800191421CD1226A00F03F01914217D12A
:100E100047F6C071626A0140B1EB821F10D1A26A2D
:100E20004FF0FF3300F4403103EB5202B1EB024FBD
:100E300006D194F82C1000F07060B0EB016F01D077
:100E40000120D1E70020CFE70438024000004742EC
:100E5000800E4742007000400000FFFF704770475F
:100E600010B5040003D094F83D0010B107E0012054
:100E700010BD002084F83C00204600F01EF802203F
:100E800084F83D00211D206800F0C4FB012084F897
:100E9000460084F83E0084F83F0084F8400084F85F
:100EA000410084F8420084F8430084F8440084F848
:100EB000450084F83D00002010BD704790F83D10BB
:100EC000012901D001207047022180F83D100168FE
:100ED000CA6842F00102CA6000681149884214D011
:100EE000B0F1804F11D00F4988420ED00E49884290
:100EF0000BD00E49884208D00D49884205D00D49D3
:100F0000884202D00C49884204D1816801F007016F
:100F1000062903D0016841F00101016000207047FB
:100F2000000001400004004000080040000C0040A8
:100F3000000401400040014000180040704770B5B7
:100F40000446006801694FF00005C943890715D4BC
:100F5000C168C943890711D4E91E016101202077C6
:100F6000206880698007204602D0FFF7E7FF04E091
:100F700000F098F8204600F096F82577206801697F
:100F8000C943490717D4C168C943490713D46FF04F
:100F900004010161022020772068806910F4407FFD
:100FA000204602D0FFF7CAFF04E000F07BF820469D
:100FB00000F079F8257720680169C943090716D43C
:100FC000C168C943090712D46FF008010161042008
:100FD00020772068C0698007204602D0FFF7AEFF67
:100FE00004E000F05FF8204600F05DF82577206807
:100FF0000169C943C90617D4C168C943C90613D4D6
:101000006FF010010161082020772068C06910F49A
:10101000407F204602D0FFF791FF04E000F042F845
:10102000204600F040F8257720680169C943C907C8
:1010300008D1C168C943C90704D1891E016120468E
:1010400000F032F820680169C943090609D4C16873
:10105000C943090605D46FF0800101612046FFF7FE
:10106000FDFE20680169C943490609D4C168C94326
:10107000490605D46FF040010161204600F01EF8DA
:1010800020680169C94389060BD4C168C943890630
:1010900007D46FF0200101612046BDE87040FFF7E2
:1010A000DEBE70BD7047704700680349884201D1B9
:1010B000FFF74ABB7047000000100040704770B552
:1010C000040004D094F83D00002510B106E0012092
:1010D00070BD84F83C50204600F022F8242084F8AB
:1010E0003D002068C16821F40051C160204600F035
:1010F000F5FA2068016921F4904101612068416995
:1011000021F02A0141612068C16841F40051C160A9
:101110002564202084F83D0084F83E00002070BD46
:1011200010B586B0044614216846FFF7A6F91349A6
:101130002068884220D112480021026842F0100243
:101140000260006800F0100005900D481438026835
:1011500042F002020260006800F002000590C02028
:1011600000900220CDE901010320039007200490A4
:1011700069460448FFF7EAF906B010BD00100140C7
:1011800044380240000402402DE9F84F044690F82C
:101190003E009A4616460D46202853D1FDB1F6B1C1
:1011A00094F83C0001284DD0012084F83C00002731
:1011B0002764222084F83E002763FFF7BFFAA68544
:1011C0008146E685A0684FF48058404501D12069EA
:1011D00040B12E465FF0000584F83C7027E0012006
:1011E000BDE8F88F0026F7E74B4600222021204675
:1011F000CDF800A000F0F8FA08B10320F0E726B11E
:10120000A06840451BD038B108E020684068C0F3B2
:10121000080025F8020B07E0206980B120684068CB
:1012200000F07F0006F8010BE08D401EE085E08DA8
:101230000028D9D1202084F83E000020D0E7206883
:101240004068EFE70220CBE7FEE70000F0B58C4AEC
:1012500003788A49B2F9020000240B540B78552B0D
:101260007DD1401C05B255801078012878D14B788B
:10127000A1F144009FED830A512B08D0522B47D097
:10128000542B75D0532B6DD0592B6CD0E9E0B1F9AC
:101290000230F3EE002A00EE903AB1F90430B8EED5
:1012A000E01A00EE903AB1F9063001EE903AB1F949
:1012B000083021EE001AB8EEE12A01EE903AF8EE7D
:1012C000E00A21EE223AF8EEE11A9FED6F1A60EE85
:1012D000800A22EE000A23EE013A60EEA20A20EE16
:1012E000220A13EE103A60EE810A036020EE010A32
:1012F00010EE903A43609FED652A30EE410AC1EE50
:10130000820A10EE903A036410EE103A8360A8E06F
:10131000B1F9023000EE903AB1F9043001EE103A22
:10132000B1F90630F8EEE00A01EE903AB8EEC11AD3
:10133000F8EEE11A20EE802ADFED550A21EE001AC0
:1013400021EE800A22EE202A21EE201A12EE103A17
:1013500020EE200AC36011EE103A036104E08AE037
:1013600085E005E020E049E010EE103A436178E0C6
:10137000B1F9023000EE103AB8EEC00A10EE103AA1
:101380008361B1F9043000EE103AB8EEC00A10EEF5
:10139000103AC361B1F9063000EE103AB8EEC00A57
:1013A00010EE103A03625CE0B1F9023000EE903AC0
:1013B000B1F9043001EE103AF8EEE00AB1F9063066
:1013C000F8EEC11A01EE103A20EE802ADFED310A64
:1013D000B8EEC11A61EE801A22EE202A21EE000A30
:1013E00012EE103A61EEA01AC36220EE200A11EE4E
:1013F000903A836210EE103A436232E0B1F9023063
:1014000000EE903AF8EEE00A10EE903A0363B1F97C
:10141000043000EE903AF8EEE00A10EE903A4363A2
:10142000B1F9063000EE903AF8EEE00A10EE903A8C
:101430008363B1F9083000EE903AF8EEE00A10EE5E
:10144000903AC3635FF0000300EB83065B1C376BCD
:10145000042B00EE907A60EE800A10EE907A3763EB
:10146000F2DB147000200C54401C0B28FBDB0B2D0E
:1014700002DB012010705480F0BD00009440002079
:101480007C00002000000038CDCC1C410000C84288
:101490000000FA440000344300B587B01C2206491E
:1014A0006846FEF7B8FF0021684600F013FA0349CA
:1014B000086007B000BD0000842200080000002082
:1014C0000D4808B5016841F080010160016801F034
:1014D00080010091016841F001010160016801F0A3
:1014E00001010091016841F002010160006800F013
:1014F0000200009008BD0000303802400C4810B5D2
:101500000A4901604FF4E1314160002181600C2201
:10151000C160C0E904128161C161FFF7D0FD0028FC
:1015200003D0BDE81040FFF70EB810BD0010014019
:10153000D4020020FEE7FEE710B5502080F31188AA
:10154000BFF34F8FBFF36F8F00F0CEFD18B104498A
:101550004FF080500860002080F3118810BD00001B
:1015600004ED00E030B593B030216846FEF785FF0A
:1015700014210CA8FEF781FF1D480025016841F0E9
:1015800080510160006800F0805011901948016896
:1015900041F4804101600068022400F48040119011
:1015A00001200090000401908001CDE9064008AAC6
:1015B0000420A82182E813000B906846FFF798FAF0
:1015C00008B172B6FEE70CA90F2081E831004FF494
:1015D000A0500F904FF48050109005210CA8FFF7F9
:1015E0007DF9002801D072B6FEE713B030BD0000CF
:1015F00040380240007000400248016841F4700128
:101600000160704788ED00E00148FFF798BC0000DA
:1016100018030020F0B50268254C264D264E274FB2
:10162000274B4FF0804CA04209D0604507D0A8421C
:1016300005D0B04203D0B84201D0984204D122F084
:10164000700E4A6842EA0E02A0421BD0604519D0D3
:10165000A84217D0B04215D0B84213D0984211D04A
:10166000184DA8420ED0184DA8420BD0174DA842D5
:1016700008D0174DA84205D0164DA84202D0164DED
:10168000A84203D122F44075CA682A434D6922F06A
:1016900080022A4302608A68C2620A688262A042AB
:1016A00001D0984201D10969016301214161F0BD76
:1016B000000001400004004000080040000C004011
:1016C0000004014000400140004401400048014046
:1016D00000180040001C00400020004070B5044687
:1016E00000680169E26821F44051114301612169F8
:1016F000A068E26908436169114308432168CA6828
:1017000049F20C639A430243CA6020684169A269A6
:1017100021F440711143416131492068884202D06F
:101720003049884202D1FFF7A3F901E0FFF790F9B1
:10173000E2690023192164253226B2F5004F626860
:1017400028D0A0FB0101930F9200FEF7EDFD0146AA
:10175000B0FBF5F06FF01802504301EB800006EB90
:101760000010B0FBF5F000F0F002B1FBF5F002EB79
:101770000012B1FBF5F06FF01803584301EB800045
:1017800006EB0010B0FBF5F000F00F0021681044EC
:10179000886070BDA0FB010192185B41FEF7C4FD9B
:1017A0000146B0FBF5F00201B1FBF5F06FF0180354
:1017B000584301EB800006EBC000B0FBF5F000F0F1
:1017C000F80002EB4002B1FBF5F0584301EB80005A
:1017D00006EBC000B0FBF5F000F00700D6E7000014
:1017E00000100140001401402DE9F04198461746D1
:1017F0000E460446069D27E0681C25D02DB1FEF755
:101800009DFFA0EB0800A8421ED920680C3050E8CC
:10181000001F21F4D07140E80012002AF5D12068A1
:10182000143050E8001F21F0010140E80012002AA6
:10183000F5D1202084F83D0084F83E00002084F893
:101840003C000320BDE8F0812068006836EA000013
:1018500004D00020B842CFD00020F3E70120F9E700
:10186000FEE70907090E002804DB00F1E02080F8FC
:101870000014704700F00F0000F1E02080F8141D04
:10188000704700004FF0FF3423460122034904480B
:10189000FFF77AFC0148FFF7D9FCF5E77D0000204F
:1018A000D4020020FEF758FFFFF75CFEFFF708FEAA
:1018B000FFF724FEFFF7F0FD00F007F8FEE7014612
:1018C0000020842900D0C81C704710B500F0CEFA63
:1018D000002010BD7FB50D4604464169B0F90800EF
:1018E00081B1A16971B1FFF7EAFFD4E905128DE872
:1018F0000700D4E900102B46226900F0CAFB0390D0
:1019000004B070BDFFF7DBFF03A9CDE90001208A19
:101910002B4682B2D4E9001000F08EFB012801D0E2
:101920000020EDE70398EBE72DE9F041054600F0D4
:1019300025FA2E4CA068401CA06020682C4F10B1E6
:10194000606940B32DE02560A068012829D10026F8
:1019500006EB860007EB800000F0F6F9761C072EF8
:10196000F6D323488C3000F0EFF92148A03000F086
:10197000EBF91F48B43000F0E7F91D48C83000F01B
:10198000E3F91B48DC3000F0DFF919488C30606364
:101990001430A06305E02068E96AC06A884200D874
:1019A0002560606A401C6062E96A01202269884003
:1019B0001043206101EB810007EB8000291D00F03E
:1019C000D1F900F0FBF9606900280CD02068E96AC1
:1019D000C06A884207D207494FF080500860BFF3C1
:1019E0004F8FBFF36F8FBDE8F0810000140000201F
:1019F0006003002004ED00E010B5044690F85100AB
:101A000058B101280CD002280FD0502080F3118843
:101A1000BFF34F8FBFF36F8FFEE7206B00F0E2F94B
:101A20002046BDE8104000F0DDB910BD10484FF46D
:101A30007051420706D0C01D0D4920F00700411A21
:101A4000C1F570510B4A00230144C2E90003083973
:101A5000183A21F0070111604B600B600B1AC0E9C6
:101A6000001393604FF000405360506170470000D6
:101A70005004002068000020144E154CA6F1C80741
:101A80004FF08058DFF84C9012E000BF00F076F97C
:101A9000F068C568281D00F039F9A068401EA060F4
:101AA0006068401E606000F089F92846FFF7A4FFD7
:101AB00060680028EAD138680128F9D9C9F800809F
:101AC000BFF34F8FBFF36F8FF2E7000028040020B1
:101AD0001400002004ED00E02DE9F0479A46DDE90E
:101AE000098481466FF00303206B03EB82021044EC
:101AF000089E20F00707780707D0502080F3118850
:101B0000BFF34F8FBFF36F8FFEE7002561B1002059
:101B100023180A5C83F834200A5C12B1401C102898
:101B2000F6D384F8435001E084F83450072E00D3F4
:101B30000626E662C4E91165201D00F010F904F1E3
:101B4000180000F00CF92461C6F107006462A0617E
:101B5000E56484F8505052464946384600F0C0F8D3
:101B60002060B8F1000F01D0C8F80040BDE8F08750
:101B700030B5114900E011460A688242FBD34B6838
:101B80005C18844203D140681844486008464368A2
:101B90001C18944209D1084C183C2468A24209D070
:101BA00052681A4442600A6812680260814200D09A
:101BB000086030BD0460F9E7680000200648416B0A
:101BC000096829B1416BC968C96849688162704771
:101BD0004FF0FF31FAE70000140000200848406889
:101BE000401C4FF0500080F3118804D0BFF34F8F9A
:101BF000BFF36F8FFEE7BFF34F8FBFF36F8FFEE72B
:101C0000700000202DE9F0410546002700F064F93E
:101C1000324E306808B9FFF709FF706905424ED1AE
:101C2000C5B3083568070ED005F00700C0F10800FD
:101C30000544680707D0502080F31188BFF34F8F09
:101C4000BFF36F8FFEE72DB37068854237D8234806
:101C5000183001460C6801E020460C466168A94234
:101C600002D221680029F7D131688C4227D0076859
:101C70002168016060680837411B10290FD960197D
:101C8000420708D0502080F31188BFF34F8FBFF375
:101C90006F8FFEE713E041606560FFF769FF6168E1
:101CA0007068401A7060B268904200D2B06070698B
:101CB00001430020C4E90001F068401CF06000F01E
:101CC00079FA780707D0502080F31188BFF34F8F3F
:101CD000BFF36F8FFEE73846BDE8F081500000206B
:101CE00010B5031F4FF080741C601B1F21F0010111
:101CF0001960191F044B0B6014390A60091F6FF03B
:101D0000020244380A6010BDDD1B0008D0E9013230
:101D100001699A60D0E901235A604A68824201D180
:101D200082684A60002202610868401E08600868F4
:101D300070470000034B036003F1540008608020EB
:101D4000106070478000002000F108014FF0FF3262
:101D5000C0E90112C16001610021016070470021EA
:101D60000161704742684A6093688B60936859606C
:101D7000916008610168491C01607047502080F340
:101D80001188BFF34F8FBFF36F8F0A494868401C1B
:101D9000486001280CD10848006810F0FF0F07D0F8
:101DA000502080F31188BFF34F8FBFF36F8FFEE792
:101DB000704700007000002004ED00E0084948680A
:101DC00028B1401E486001D180F31188704750202F
:101DD00080F31188BFF34F8FBFF36F8FFEE70000D2
:101DE0007000002070B500282AD0164DA0F108041C
:101DF00060686969084207D1502080F31188BFF3F9
:101E00004F8FBFF36F8FFEE722683AB1502080F307
:101E10001188BFF34F8FBFF36F8FFEE78843606079
:101E200000F05AF860686968084468602046FFF767
:101E30009FFE2869401C2861BDE8704000F0BAB9D7
:101E400070BD0000500000204FF0E0200021016133
:101E5000816105494FF47A720968B1FBF2F1491EBC
:101E600041610721016170471000002010B586B064
:101E70000024039405AA04A903A80494FFF75AFFB9
:101E8000DDE903010094CDE9011000230EA1104803
:101E9000059A00F0FEF80F490028C86211D05020C2
:101EA00080F31188BFF34F8FBFF36F8F4FF0FF3078
:101EB000886201204861CC6006B0BDE8104000F0A7
:101EC00041B806B010BD000049444C450000000078
:101ED000791A0008140000200248016B491C0163B4
:101EE00070470000140000201448016B11B101215B
:101EF000C16170470021C1610169B1FA81F1C1F18D
:101F00001F0101EB81020E4951F822306BB101EB48
:101F1000820101F108034A6852684A609A4201D17D
:101F200052684A60D16801607047502080F3118880
:101F3000BFF34F8FBFF36F8FFEE700001400002048
:101F4000600300201CB537480168374A914207D129
:101F5000502080F31188BFF34F8FBFF36F8FFEE7E0
:101F600000683149491E884207D1502080F311880A
:101F7000BFF34F8FBFF36F8FFEE72C4908780190B6
:101F8000FF20087008788DF800009DF800009DF88B
:101F9000002000F0F000904207D0502080F311881C
:101FA000BFF34F8FBFF36F8FFEE79DF80000204C0B
:101FB00000F0500020700720A06005E09DF8002090
:101FC00052008DF80020401E9DF800201206F5D426
:101FD000A060032807D0502080F31188BFF34F8FF3
:101FE000BFF36F8FFEE74FF44070A0600198087058
:101FF0000C482030016841F470010160016841F033
:1020000070410160FFF720FF00206060FEF730F9AB
:102010000848016841F040410160FEF715F90020D1
:102020001CBD000000ED00E071C20F4100E400E0C3
:102030007000002034EF00E02DE9FF5F8346DDE90A
:102040000E87994616468A469000FFF7DBFD05008D
:102050001CD05420FFF7D6FD040014D000202563C7
:1020600084F85100CDE90240CDE900874B46324665
:1020700051465846FFF730FD2046FFF755FC01203A
:1020800004B0BDE8F09F2846FFF7ACFE4FF0FF30EC
:10209000F6E7F0B585B0DDE90B640A9DA6B1DCB1C9
:1020A000542700972663022684F85160002604AF67
:1020B000CDE90246CDE90057FFF70EFD2046FFF7B8
:1020C00033FC049805B0F0BD502080F31188BFF3B5
:1020D0004F8FBFF36F8FFEE7502080F31188BFF35F
:1020E0004F8FBFF36F8FFEE72DE9F0412F4C002695
:1020F000206B28B1A069401CA0613046BDE8F0818A
:10210000E5686D1CE56013D1606B006838B1502044
:1021100080F31188BFF34F8FBFF36F8FFEE7606BC3
:10212000A16B6163A063206A401C2062FFF746FD3B
:10213000A06ADFF87C80854209D3606B0068A0B19B
:10214000606BC068C7687868854211D2A062206859
:10215000C06A00EB800158F82100012800D901264F
:10216000E0690028C9D00126C7E74FF0FF30EDE74E
:10217000381DFFF7CBFDB86A18B107F11800FFF75B
:10218000C5FDF96A0120226988401043206101EBF6
:10219000810108EB8100391DFFF7E4FDF86A216831
:1021A000C96A8842C9D30126C7E70000140000208D
:1021B000600300202DE9F0472C4D00242746286BB2
:1021C00038B1FFF7DBFD286B401E2863286B40B158
:1021D00046E0502080F31188BFF34F8FBFF36F8F1D
:1021E000FEE7A968224E0120D1B3A6F1B4098046CA
:1021F0003068E8B1F068C46804F11800FFF786FDA4
:10220000201DFFF783FDE06A2A6908FA00F11143F7
:10221000296100EB800109EB8100211DFFF7A2FD80
:10222000E06A2968C96A8842E2D3C5F81C80DFE702
:102230000CB1FFF7C3FCAC6944B14646FFF754FF4D
:1022400000B1EE61641EF9D10020A861E86938B1DF
:102250000849012738070860BFF34F8FBFF36F8F1E
:10226000FFF7ACFD3846BDE8F08700001400002001
:102270001404002004ED00E04FF04070E1EE100A7D
:1022800070470000B8220008851800080000000010
:1022900000000000800000000000000000000000BE
:1022A0000000000000000000010203040607080906
:1022B0000000000001020304494D555F5461736B37
:1022C00000000000E4220008000000208000000060
:1022D000C40100086423000880000020804600003C
:1022E000E0010008000000000100000010000000F4
:1022F000000000000024F4000000000000000000C6
:1023000000000000000000000000000000000000CD
:1023100000000000000000000000000000000000BD
:1023200000000000000000000000000000000000AD
:10233000000000000000000000000000000000009D
:10234000000000000000000000000000000000008D
:102350000000000000000000AAAAAAAA00000000D5
:042360000000000079
:040000050800018965
:00000001FF
